{
  "contractName": "ACLRequiring",
  "abi": [
    {
      "inputs": [
        {
          "name": "_aclAddress",
          "type": "address"
        }
      ],
      "payable": false,
      "stateMutability": "nonpayable",
      "type": "constructor"
    },
    {
      "anonymous": false,
      "inputs": [
        {
          "indexed": true,
          "name": "_oldAddress",
          "type": "address"
        },
        {
          "indexed": true,
          "name": "_newAddress",
          "type": "address"
        }
      ],
      "name": "ACLUpdated",
      "type": "event"
    },
    {
      "constant": true,
      "inputs": [],
      "name": "acl",
      "outputs": [
        {
          "name": "_acl",
          "type": "address"
        }
      ],
      "payable": false,
      "stateMutability": "view",
      "type": "function"
    },
    {
      "constant": false,
      "inputs": [
        {
          "name": "_newAddress",
          "type": "address"
        }
      ],
      "name": "updateACL",
      "outputs": [],
      "payable": false,
      "stateMutability": "nonpayable",
      "type": "function"
    }
  ],
  "bytecode": "0x608060405234801561001057600080fd5b5060405160208061085f8339810180604052810190808051906020019092919050505061004b816100ac640100000000026401000000009004565b8073ffffffffffffffffffffffffffffffffffffffff16600073ffffffffffffffffffffffffffffffffffffffff167fd9c4a08818b5e0b58c0856ec8285d83c51f0654438a200ef0f9e0e968f583ca960405160405180910390a3506102ef565b60006100ca826102dc64010000000002610522176401000000009004565b1515610164576040517f08c379a00000000000000000000000000000000000000000000000000000000081526004018080602001828103825260218152602001807f4e65772041434c2061646472657373206973206e6f74206120636f6e7472616381526020017f740000000000000000000000000000000000000000000000000000000000000081525060400191505060405180910390fd5b8173ffffffffffffffffffffffffffffffffffffffff1663a8218cd36040518163ffffffff167c0100000000000000000000000000000000000000000000000000000000028152600401602060405180830381600087803b1580156101c857600080fd5b505af11580156101dc573d6000803e3d6000fd5b505050506040513d60208110156101f257600080fd5b8101908080519060200190929190505050151561029d576040517f08c379a00000000000000000000000000000000000000000000000000000000081526004018080602001828103825260328152602001807f4e65772041434c206164647265737320646f6573206e6f7420636f6e666f726d81526020017f20746f204941434c20696e74657266616365000000000000000000000000000081525060400191505060405180910390fd5b60405180807f636f6d2e6d61726b6574706c6163652e61636c726571756972696e672e61636c8152506020019050604051809103902090508181555050565b600080823b905060008111915050919050565b610561806102fe6000396000f30060806040526004361061004c576000357c0100000000000000000000000000000000000000000000000000000000900463ffffffff16806387a7066b14610051578063de28735914610094575b600080fd5b34801561005d57600080fd5b50610092600480360381019080803573ffffffffffffffffffffffffffffffffffffffff1690602001909291905050506100eb565b005b3480156100a057600080fd5b506100a96102c2565b604051808273ffffffffffffffffffffffffffffffffffffffff1673ffffffffffffffffffffffffffffffffffffffff16815260200191505060405180910390f35b6000806100f66102c2565b90508073ffffffffffffffffffffffffffffffffffffffff1663bb6a4520336040518263ffffffff167c0100000000000000000000000000000000000000000000000000000000028152600401808273ffffffffffffffffffffffffffffffffffffffff1673ffffffffffffffffffffffffffffffffffffffff168152602001915050602060405180830381600087803b15801561019357600080fd5b505af11580156101a7573d6000803e3d6000fd5b505050506040513d60208110156101bd57600080fd5b810190808051906020019092919050505015156101d957600080fd5b600073ffffffffffffffffffffffffffffffffffffffff168373ffffffffffffffffffffffffffffffffffffffff161415151561021557600080fd5b61021d6102c2565b91508173ffffffffffffffffffffffffffffffffffffffff168373ffffffffffffffffffffffffffffffffffffffff161415151561025a57600080fd5b61026383610305565b8273ffffffffffffffffffffffffffffffffffffffff168273ffffffffffffffffffffffffffffffffffffffff167fd9c4a08818b5e0b58c0856ec8285d83c51f0654438a200ef0f9e0e968f583ca960405160405180910390a3505050565b60008060405180807f636f6d2e6d61726b6574706c6163652e61636c726571756972696e672e61636c815250602001905060405180910390209050805491505090565b600061031082610522565b15156103aa576040517f08c379a00000000000000000000000000000000000000000000000000000000081526004018080602001828103825260218152602001807f4e65772041434c2061646472657373206973206e6f74206120636f6e7472616381526020017f740000000000000000000000000000000000000000000000000000000000000081525060400191505060405180910390fd5b8173ffffffffffffffffffffffffffffffffffffffff1663a8218cd36040518163ffffffff167c0100000000000000000000000000000000000000000000000000000000028152600401602060405180830381600087803b15801561040e57600080fd5b505af1158015610422573d6000803e3d6000fd5b505050506040513d602081101561043857600080fd5b810190808051906020019092919050505015156104e3576040517f08c379a00000000000000000000000000000000000000000000000000000000081526004018080602001828103825260328152602001807f4e65772041434c206164647265737320646f6573206e6f7420636f6e666f726d81526020017f20746f204941434c20696e74657266616365000000000000000000000000000081525060400191505060405180910390fd5b60405180807f636f6d2e6d61726b6574706c6163652e61636c726571756972696e672e61636c8152506020019050604051809103902090508181555050565b600080823b9050600081119150509190505600a165627a7a72305820895cca1a1669123ca767cb07b83ae27c546290ece19b921c0a9d6399f509f8c90029",
  "source": "pragma solidity ^0.4.23;\n\nimport \"../lib/openzeppelin/AddressUtils.sol\";\nimport \"../acl/IACL.sol\";\n\n/**\n* @title ACLRequiring\n* @dev Requires an ACL contract and provides authorization modifiers for subclassing contracts\n*/\ncontract ACLRequiring {\n\n  /**\n  * @dev ACLUpdated event is emitted every time the ACL contract address is updated\n  * @param _oldAddress Old ACL contract address\n  * @param _newAddress New ACL contract address\n  */\n  event ACLUpdated(address indexed _oldAddress, address indexed _newAddress);\n\n  /**\n  * @dev The storage position in the contract storage where the implementation address will be stored\n  * @notice The implementation value is stored using the 'key-value' nature of the contract storage and\n  *         is thus not affected by the contract's state data layout\n  */\n  bytes32 private constant aclStorePosition = keccak256(\"com.marketplace.aclrequiring.acl\");\n\n  /**\n  * @dev Constructor function\n  * @param _aclAddress Address of ACL contract\n  */\n  constructor(address _aclAddress) public {\n    setACL(_aclAddress);\n    emit ACLUpdated(address(0), _aclAddress);\n  }\n\n  /**\n  * @dev Modifier restricts access to product owner\n  */\n  modifier onlyProductOwner() {\n    IACL _acl = IACL(acl());\n    require(_acl.isProductOwner(msg.sender));\n    _;\n  }\n\n  /**\n  * @dev Modifier restricts access to authorized accounts\n  */\n  modifier onlyAuthorized() {\n    IACL _acl = IACL(acl());\n    require(_acl.isAuthorized(msg.sender));\n    _;\n  }\n\n  /**\n  * @dev Returns the value set for the ACL contract\n  * @return Address of the ACL contract\n  */\n  function acl() public view returns (address _acl) {\n    bytes32 position = aclStorePosition;\n    assembly {\n      _acl := sload(position)\n    }\n  }\n\n  /**\n  * @dev Sets the address of the ACL contract\n  * @param _newACL Address of the ACL contract to be set\n  * @notice This function only verifies that the new address is a contract and conforms to the IACL interface \n  */\n  function setACL(address _newACL) private {\n    require(AddressUtils.isContract(_newACL), \"New ACL address is not a contract\");\n    require(IACL(_newACL).isACL(), \"New ACL address does not conform to IACL interface\");\n\n    bytes32 position = aclStorePosition;\n    assembly {\n      sstore(position, _newACL)\n    }\n  } \n\n  /**\n  * @dev Updates the address for the ACL contract\n  * @param _newAddress Address of the new ACL contract\n  **/\n  function updateACL(address _newAddress) public onlyProductOwner {\n    require(_newAddress != address(0));\n    address oldAddress = acl();\n    require(_newAddress != oldAddress);\n    setACL(_newAddress);\n    emit ACLUpdated(oldAddress, _newAddress);\n  }\n\n}",
  "sourcePath": "/Users/matias/Projects/consensys/eth-marketplace/contracts/acl/ACLRequiring.sol",
  "compiler": {
    "name": "solc",
    "version": "0.4.24+commit.e67f0147.Emscripten.clang"
  },
  "schemaVersion": "2.0.0",
  "updatedAt": "2018-08-26T21:22:55.646Z"
}