{
  "contractName": "ACLV1",
  "abi": [
    {
      "inputs": [],
      "payable": false,
      "stateMutability": "nonpayable",
      "type": "constructor"
    },
    {
      "anonymous": false,
      "inputs": [
        {
          "indexed": false,
          "name": "_oldAddress",
          "type": "address"
        },
        {
          "indexed": false,
          "name": "_newAddress",
          "type": "address"
        }
      ],
      "name": "ProductOwnerUpdated",
      "type": "event"
    },
    {
      "anonymous": false,
      "inputs": [
        {
          "indexed": false,
          "name": "_authorizedAddress",
          "type": "address"
        },
        {
          "indexed": false,
          "name": "_hasAccess",
          "type": "bool"
        }
      ],
      "name": "AuthorizedAccount",
      "type": "event"
    },
    {
      "constant": true,
      "inputs": [
        {
          "name": "_sender",
          "type": "address"
        }
      ],
      "name": "isProductOwner",
      "outputs": [
        {
          "name": "",
          "type": "bool"
        }
      ],
      "payable": false,
      "stateMutability": "view",
      "type": "function"
    },
    {
      "constant": true,
      "inputs": [
        {
          "name": "_sender",
          "type": "address"
        }
      ],
      "name": "isAuthorized",
      "outputs": [
        {
          "name": "",
          "type": "bool"
        }
      ],
      "payable": false,
      "stateMutability": "view",
      "type": "function"
    },
    {
      "constant": false,
      "inputs": [
        {
          "name": "_newAddress",
          "type": "address"
        }
      ],
      "name": "updateProductOwner",
      "outputs": [],
      "payable": false,
      "stateMutability": "nonpayable",
      "type": "function"
    },
    {
      "constant": false,
      "inputs": [
        {
          "name": "_authorizedAddress",
          "type": "address"
        }
      ],
      "name": "addAuthorization",
      "outputs": [],
      "payable": false,
      "stateMutability": "nonpayable",
      "type": "function"
    },
    {
      "constant": false,
      "inputs": [
        {
          "name": "_authorizedAddress",
          "type": "address"
        }
      ],
      "name": "removeAuthorization",
      "outputs": [],
      "payable": false,
      "stateMutability": "nonpayable",
      "type": "function"
    },
    {
      "constant": true,
      "inputs": [],
      "name": "isACL",
      "outputs": [
        {
          "name": "",
          "type": "bool"
        }
      ],
      "payable": false,
      "stateMutability": "pure",
      "type": "function"
    }
  ],
  "bytecode": "0x608060405234801561001057600080fd5b50336000806101000a81548173ffffffffffffffffffffffffffffffffffffffff021916908373ffffffffffffffffffffffffffffffffffffffff1602179055507f9f83351d7067410bb7c79ef094e09407af666cec86e4c5d13474144b195d00bc600033604051808373ffffffffffffffffffffffffffffffffffffffff1673ffffffffffffffffffffffffffffffffffffffff1681526020018273ffffffffffffffffffffffffffffffffffffffff1673ffffffffffffffffffffffffffffffffffffffff1681526020019250505060405180910390a1610686806100f86000396000f300608060405260043610610078576000357c0100000000000000000000000000000000000000000000000000000000900463ffffffff16806335b281531461007d5780637d5cb0a5146100c057806394f3f81d14610103578063a8218cd314610146578063bb6a452014610175578063fe9fbb80146101d0575b600080fd5b34801561008957600080fd5b506100be600480360381019080803573ffffffffffffffffffffffffffffffffffffffff16906020019092919050505061022b565b005b3480156100cc57600080fd5b50610101600480360381019080803573ffffffffffffffffffffffffffffffffffffffff169060200190929190505050610309565b005b34801561010f57600080fd5b50610144600480360381019080803573ffffffffffffffffffffffffffffffffffffffff169060200190929190505050610465565b005b34801561015257600080fd5b5061015b610544565b604051808215151515815260200191505060405180910390f35b34801561018157600080fd5b506101b6600480360381019080803573ffffffffffffffffffffffffffffffffffffffff16906020019092919050505061054d565b604051808215151515815260200191505060405180910390f35b3480156101dc57600080fd5b50610211600480360381019080803573ffffffffffffffffffffffffffffffffffffffff1690602001909291905050506105a6565b604051808215151515815260200191505060405180910390f35b610234336105a6565b151561023f57600080fd5b60018060008373ffffffffffffffffffffffffffffffffffffffff1673ffffffffffffffffffffffffffffffffffffffff16815260200190815260200160002060006101000a81548160ff0219169083151502179055507feadbbcd289747ecc98af25e8a89485e7182680fe5dfc0d547a6383470b54728e816001604051808373ffffffffffffffffffffffffffffffffffffffff1673ffffffffffffffffffffffffffffffffffffffff168152602001821515151581526020019250505060405180910390a150565b60008060009054906101000a900473ffffffffffffffffffffffffffffffffffffffff1673ffffffffffffffffffffffffffffffffffffffff163373ffffffffffffffffffffffffffffffffffffffff1614151561036657600080fd5b6000809054906101000a900473ffffffffffffffffffffffffffffffffffffffff169050816000806101000a81548173ffffffffffffffffffffffffffffffffffffffff021916908373ffffffffffffffffffffffffffffffffffffffff1602179055507f9f83351d7067410bb7c79ef094e09407af666cec86e4c5d13474144b195d00bc8183604051808373ffffffffffffffffffffffffffffffffffffffff1673ffffffffffffffffffffffffffffffffffffffff1681526020018273ffffffffffffffffffffffffffffffffffffffff1673ffffffffffffffffffffffffffffffffffffffff1681526020019250505060405180910390a15050565b61046e336105a6565b151561047957600080fd5b6000600160008373ffffffffffffffffffffffffffffffffffffffff1673ffffffffffffffffffffffffffffffffffffffff16815260200190815260200160002060006101000a81548160ff0219169083151502179055507feadbbcd289747ecc98af25e8a89485e7182680fe5dfc0d547a6383470b54728e816000604051808373ffffffffffffffffffffffffffffffffffffffff1673ffffffffffffffffffffffffffffffffffffffff168152602001821515151581526020019250505060405180910390a150565b60006001905090565b60008173ffffffffffffffffffffffffffffffffffffffff166000809054906101000a900473ffffffffffffffffffffffffffffffffffffffff1673ffffffffffffffffffffffffffffffffffffffff16149050919050565b60008060009054906101000a900473ffffffffffffffffffffffffffffffffffffffff1673ffffffffffffffffffffffffffffffffffffffff168273ffffffffffffffffffffffffffffffffffffffff161480610653575060011515600160008473ffffffffffffffffffffffffffffffffffffffff1673ffffffffffffffffffffffffffffffffffffffff16815260200190815260200160002060009054906101000a900460ff161515145b90509190505600a165627a7a72305820e03e41006c2ad0cc27ee1d17cdaf281537f09e2add1d7f51be6ec097dcd0891d0029",
  "source": "pragma solidity ^0.4.23;\n\nimport \"./IACL.sol\";\n\n/**\n* @title ACL\n* @dev Access control list permissioning implementation\n* @notice v1\n*/\ncontract ACLV1 is IACL {\n\n  address internal productOwner;\n  mapping(address => bool) internal authorizedAccounts;\n\n  /**\n  * @dev ProductOwnerUpdated event is emitted every time the product owner address is updated\n  * @param _oldAddress Old product owner address\n  * @param _newAddress New product owner address\n  */\n  event ProductOwnerUpdated(address _oldAddress, address _newAddress);\n\n  /**\n  * @dev AuthorizedAccount event is emitted every time an address is added or removed to the list of authorized accounts\n  * @param _authorizedAddress Address of modified authorization\n  * @param _hasAccess Boolean value denoting whether the address has added or removed to the authorized account list\n  */\n  event AuthorizedAccount(address _authorizedAddress, bool _hasAccess);\n\n  /**\n  * @dev Constructor function\n  */\n  constructor() public {\n    productOwner = msg.sender;\n    emit ProductOwnerUpdated(address(0), msg.sender);\n  }\n\n  /**\n  * @dev Modifier returns true if sender is product owner\n  */\n  modifier onlyProductOwner() {\n    require(msg.sender == productOwner);\n    _;\n  }\n\n  /**\n  * @dev Modifier returns true if sender is registered as an authorized account\n  */\n  modifier onlyAuthorized() {\n    require(isAuthorized(msg.sender));\n    _;\n  }\n\n  /**\n  * @dev Returns true if the provided address is registered as a product owner\n  * @param _sender Address to check for product owner authorization\n  */\n  function isProductOwner(address _sender) public view returns(bool) {\n    return productOwner == _sender;\n  }\n\n  /**\n  * @dev Returns true if the provided address is registered as an authorized account\n  * @param _sender Address to check for authorization\n  */\n  function isAuthorized(address _sender) public view returns(bool) {\n    return _sender == productOwner || authorizedAccounts[_sender] == true;\n  }\n\n  /**\n  * @dev Updates the product owner address\n  * @param _newAddress Value of the new address to be set as product owner\n  */\n  function updateProductOwner(address _newAddress) public onlyProductOwner {\n    address _oldAddress = productOwner;\n    productOwner = _newAddress;\n    emit ProductOwnerUpdated(_oldAddress, _newAddress);\n  }\n\n  /**\n  * @dev Adds an address to the list of authorized accounts\n  * @param _authorizedAddress Value of the address to be added as authorized account\n  */\n  function addAuthorization(address _authorizedAddress) public onlyAuthorized {\n    authorizedAccounts[_authorizedAddress] = true;\n    emit AuthorizedAccount(_authorizedAddress, true);\n  }\n\n  /**\n  * @dev Removes an address to the list of authorized accounts\n  * @param _authorizedAddress Value of the address to be removed as authorized account\n  */\n  function removeAuthorization(address _authorizedAddress) public onlyAuthorized {\n    authorizedAccounts[_authorizedAddress] = false;\n    emit AuthorizedAccount(_authorizedAddress, false);\n  }\n\n  /**\n  * @dev Returns true for contracts that adhere to the ACL interface\n  * @return Always returns true for this contract\n  */\n  function isACL() public pure returns(bool) {\n    return true;\n  }\n\n}",
  "sourcePath": "/Users/matias/Projects/consensys/eth-marketplace/contracts/acl/ACL.sol",
  "compiler": {
    "name": "solc",
    "version": "0.4.24+commit.e67f0147.Emscripten.clang"
  },
  "schemaVersion": "2.0.0",
  "updatedAt": "2018-08-26T21:08:21.518Z"
}