{
  "contractName": "EternalStorage",
  "abi": [
    {
      "constant": true,
      "inputs": [],
      "name": "isEternalStorage",
      "outputs": [
        {
          "name": "",
          "type": "bool"
        }
      ],
      "payable": false,
      "stateMutability": "pure",
      "type": "function"
    }
  ],
  "bytecode": "0x6080604052348015600f57600080fd5b5060a58061001e6000396000f300608060405260043610603f576000357c0100000000000000000000000000000000000000000000000000000000900463ffffffff168063b1a6909a146044575b600080fd5b348015604f57600080fd5b5060566070565b604051808215151515815260200191505060405180910390f35b600060019050905600a165627a7a723058209c28211bd51b024367e0982e38716931dc17f784d2f2b6cc809b3d7fabfceb8d0029",
  "source": "pragma solidity ^0.4.23;\n\nimport \"./IEternalStorage.sol\";\n\n/**\n* @title EternalStorage\n* @dev This contract holds all the necessary state variables to carry out the storage of any contract\n*/\n\ncontract EternalStorage is IEternalStorage {\n\n  /**\n  * @dev Contract properties for raw data storage\n  */\n  mapping(bytes32 => uint256) internal uintStorage;\n  mapping(bytes32 => uint128) internal uint128Storage;\n  mapping(bytes32 => uint64) internal uint64Storage;\n  mapping(bytes32 => string) internal stringStorage;\n  mapping(bytes32 => address) internal addressStorage;\n  mapping(bytes32 => bytes) internal bytesStorage;\n  mapping(bytes32 => bool) internal boolStorage;\n  mapping(bytes32 => int256) internal intStorage;\n  mapping(bytes32 => int128) internal int128Storage;\n  mapping(bytes32 => int64) internal int64Storage;\n\n  /**\n  * @dev Returns true for contracts that adhere to the EternalStorage interface \n  * @return Always returns true for this contract\n  */\n  function isEternalStorage() public pure returns (bool) {\n    return true;\n  }\n\n}",
  "sourcePath": "/Users/matias/Projects/consensys/eth-marketplace/contracts/storage/EternalStorage.sol",
  "compiler": {
    "name": "solc",
    "version": "0.4.24+commit.e67f0147.Emscripten.clang"
  },
  "schemaVersion": "2.0.1",
  "updatedAt": "2018-08-27T21:49:03.335Z"
}