{
  "contractName": "MarketplaceV1",
  "abi": [
    {
      "constant": true,
      "inputs": [],
      "name": "totalStores",
      "outputs": [
        {
          "name": "",
          "type": "uint256"
        }
      ],
      "payable": false,
      "stateMutability": "view",
      "type": "function"
    },
    {
      "constant": false,
      "inputs": [],
      "name": "unpause",
      "outputs": [],
      "payable": false,
      "stateMutability": "nonpayable",
      "type": "function"
    },
    {
      "constant": true,
      "inputs": [
        {
          "name": "",
          "type": "address"
        },
        {
          "name": "",
          "type": "uint256"
        }
      ],
      "name": "stores",
      "outputs": [
        {
          "name": "",
          "type": "address"
        }
      ],
      "payable": false,
      "stateMutability": "view",
      "type": "function"
    },
    {
      "constant": false,
      "inputs": [],
      "name": "pause",
      "outputs": [],
      "payable": false,
      "stateMutability": "nonpayable",
      "type": "function"
    },
    {
      "constant": false,
      "inputs": [
        {
          "name": "_newAddress",
          "type": "address"
        }
      ],
      "name": "updateACL",
      "outputs": [],
      "payable": false,
      "stateMutability": "nonpayable",
      "type": "function"
    },
    {
      "constant": true,
      "inputs": [],
      "name": "isPaused",
      "outputs": [
        {
          "name": "_isPaused",
          "type": "bool"
        }
      ],
      "payable": false,
      "stateMutability": "view",
      "type": "function"
    },
    {
      "constant": true,
      "inputs": [],
      "name": "acl",
      "outputs": [
        {
          "name": "_acl",
          "type": "address"
        }
      ],
      "payable": false,
      "stateMutability": "view",
      "type": "function"
    },
    {
      "inputs": [
        {
          "name": "_aclAddress",
          "type": "address"
        }
      ],
      "payable": false,
      "stateMutability": "nonpayable",
      "type": "constructor"
    },
    {
      "anonymous": false,
      "inputs": [
        {
          "indexed": true,
          "name": "_owner",
          "type": "address"
        },
        {
          "indexed": true,
          "name": "_storeAddress",
          "type": "address"
        }
      ],
      "name": "StoreAdded",
      "type": "event"
    },
    {
      "anonymous": false,
      "inputs": [],
      "name": "Paused",
      "type": "event"
    },
    {
      "anonymous": false,
      "inputs": [],
      "name": "Unpaused",
      "type": "event"
    },
    {
      "anonymous": false,
      "inputs": [
        {
          "indexed": true,
          "name": "_oldAddress",
          "type": "address"
        },
        {
          "indexed": true,
          "name": "_newAddress",
          "type": "address"
        }
      ],
      "name": "ACLUpdated",
      "type": "event"
    },
    {
      "constant": true,
      "inputs": [
        {
          "name": "_storeAddress",
          "type": "address"
        }
      ],
      "name": "isValidStore",
      "outputs": [
        {
          "name": "",
          "type": "bool"
        }
      ],
      "payable": false,
      "stateMutability": "pure",
      "type": "function"
    },
    {
      "constant": false,
      "inputs": [
        {
          "name": "_storeAddress",
          "type": "address"
        }
      ],
      "name": "addStore",
      "outputs": [],
      "payable": false,
      "stateMutability": "nonpayable",
      "type": "function"
    },
    {
      "constant": true,
      "inputs": [
        {
          "name": "_owner",
          "type": "address"
        }
      ],
      "name": "storeCountFor",
      "outputs": [
        {
          "name": "",
          "type": "uint256"
        }
      ],
      "payable": false,
      "stateMutability": "view",
      "type": "function"
    },
    {
      "constant": true,
      "inputs": [
        {
          "name": "_owner",
          "type": "address"
        },
        {
          "name": "_index",
          "type": "uint256"
        }
      ],
      "name": "storeAddressForOwnerWithIndex",
      "outputs": [
        {
          "name": "",
          "type": "address"
        }
      ],
      "payable": false,
      "stateMutability": "view",
      "type": "function"
    }
  ],
  "bytecode": "0x608060405234801561001057600080fd5b5060405160208061129983398101806040528101908080519060200190929190505050808061004d816100b0640100000000026401000000009004565b8073ffffffffffffffffffffffffffffffffffffffff16600073ffffffffffffffffffffffffffffffffffffffff167fd9c4a08818b5e0b58c0856ec8285d83c51f0654438a200ef0f9e0e968f583ca960405160405180910390a35050506102f3565b60006100ce826102e064010000000002610f58176401000000009004565b1515610168576040517f08c379a00000000000000000000000000000000000000000000000000000000081526004018080602001828103825260218152602001807f4e65772041434c2061646472657373206973206e6f74206120636f6e7472616381526020017f740000000000000000000000000000000000000000000000000000000000000081525060400191505060405180910390fd5b8173ffffffffffffffffffffffffffffffffffffffff1663a8218cd36040518163ffffffff167c0100000000000000000000000000000000000000000000000000000000028152600401602060405180830381600087803b1580156101cc57600080fd5b505af11580156101e0573d6000803e3d6000fd5b505050506040513d60208110156101f657600080fd5b810190808051906020019092919050505015156102a1576040517f08c379a00000000000000000000000000000000000000000000000000000000081526004018080602001828103825260328152602001807f4e65772041434c206164647265737320646f6573206e6f7420636f6e666f726d81526020017f20746f204941434c20696e74657266616365000000000000000000000000000081525060400191505060405180910390fd5b60405180807f636f6d2e6d61726b6574706c6163652e61636c726571756972696e672e61636c8152506020019050604051809103902090508181555050565b600080823b905060008111915050919050565b610f97806103026000396000f3006080604052600436106100af576000357c0100000000000000000000000000000000000000000000000000000000900463ffffffff16806315f063f7146100b45780633f4ba83a146100df57806354121c74146100f65780638456cb591461018357806387a7066b1461019a578063915712f3146101dd578063915776231461026a5780639bd79586146102ad578063b187bd2614610304578063de28735914610333578063e6b355421461038a575b600080fd5b3480156100c057600080fd5b506100c96103e5565b6040518082815260200191505060405180910390f35b3480156100eb57600080fd5b506100f46103eb565b005b34801561010257600080fd5b50610141600480360381019080803573ffffffffffffffffffffffffffffffffffffffff16906020019092919080359060200190929190505050610524565b604051808273ffffffffffffffffffffffffffffffffffffffff1673ffffffffffffffffffffffffffffffffffffffff16815260200191505060405180910390f35b34801561018f57600080fd5b50610198610571565b005b3480156101a657600080fd5b506101db600480360381019080803573ffffffffffffffffffffffffffffffffffffffff1690602001909291905050506106b1565b005b3480156101e957600080fd5b50610228600480360381019080803573ffffffffffffffffffffffffffffffffffffffff16906020019092919080359060200190929190505050610888565b604051808273ffffffffffffffffffffffffffffffffffffffff1673ffffffffffffffffffffffffffffffffffffffff16815260200191505060405180910390f35b34801561027657600080fd5b506102ab600480360381019080803573ffffffffffffffffffffffffffffffffffffffff169060200190929190505050610908565b005b3480156102b957600080fd5b506102ee600480360381019080803573ffffffffffffffffffffffffffffffffffffffff169060200190929190505050610b35565b6040518082815260200191505060405180910390f35b34801561031057600080fd5b50610319610b80565b604051808215151515815260200191505060405180910390f35b34801561033f57600080fd5b50610348610be9565b604051808273ffffffffffffffffffffffffffffffffffffffff1673ffffffffffffffffffffffffffffffffffffffff16815260200191505060405180910390f35b34801561039657600080fd5b506103cb600480360381019080803573ffffffffffffffffffffffffffffffffffffffff169060200190929190505050610c2c565b604051808215151515815260200191505060405180910390f35b60015481565b60006103f5610be9565b90508073ffffffffffffffffffffffffffffffffffffffff1663bb6a4520336040518263ffffffff167c0100000000000000000000000000000000000000000000000000000000028152600401808273ffffffffffffffffffffffffffffffffffffffff1673ffffffffffffffffffffffffffffffffffffffff168152602001915050602060405180830381600087803b15801561049257600080fd5b505af11580156104a6573d6000803e3d6000fd5b505050506040513d60208110156104bc57600080fd5b810190808051906020019092919050505015156104d857600080fd5b6104e0610b80565b15156104eb57600080fd5b6104f56000610cd4565b7fa45f47fdea8a1efdd9029a5691c7f759c32b7c698632b563573e155625d1693360405160405180910390a150565b60006020528160005260406000208181548110151561053f57fe5b906000526020600020016000915091509054906101000a900473ffffffffffffffffffffffffffffffffffffffff1681565b600061057b610be9565b90508073ffffffffffffffffffffffffffffffffffffffff1663bb6a4520336040518263ffffffff167c0100000000000000000000000000000000000000000000000000000000028152600401808273ffffffffffffffffffffffffffffffffffffffff1673ffffffffffffffffffffffffffffffffffffffff168152602001915050602060405180830381600087803b15801561061857600080fd5b505af115801561062c573d6000803e3d6000fd5b505050506040513d602081101561064257600080fd5b8101908080519060200190929190505050151561065e57600080fd5b6000151561066a610b80565b151514151561067857600080fd5b6106826001610cd4565b7f9e87fac88ff661f02d44f95383c817fece4bce600a3dab7a54406878b965e75260405160405180910390a150565b6000806106bc610be9565b90508073ffffffffffffffffffffffffffffffffffffffff1663bb6a4520336040518263ffffffff167c0100000000000000000000000000000000000000000000000000000000028152600401808273ffffffffffffffffffffffffffffffffffffffff1673ffffffffffffffffffffffffffffffffffffffff168152602001915050602060405180830381600087803b15801561075957600080fd5b505af115801561076d573d6000803e3d6000fd5b505050506040513d602081101561078357600080fd5b8101908080519060200190929190505050151561079f57600080fd5b600073ffffffffffffffffffffffffffffffffffffffff168373ffffffffffffffffffffffffffffffffffffffff16141515156107db57600080fd5b6107e3610be9565b91508173ffffffffffffffffffffffffffffffffffffffff168373ffffffffffffffffffffffffffffffffffffffff161415151561082057600080fd5b61082983610d3b565b8273ffffffffffffffffffffffffffffffffffffffff168273ffffffffffffffffffffffffffffffffffffffff167fd9c4a08818b5e0b58c0856ec8285d83c51f0654438a200ef0f9e0e968f583ca960405160405180910390a3505050565b60008060008473ffffffffffffffffffffffffffffffffffffffff1673ffffffffffffffffffffffffffffffffffffffff168152602001908152602001600020828154811015156108d557fe5b9060005260206000200160009054906101000a900473ffffffffffffffffffffffffffffffffffffffff16905092915050565b6000610912610be9565b90508073ffffffffffffffffffffffffffffffffffffffff1663fe9fbb80336040518263ffffffff167c0100000000000000000000000000000000000000000000000000000000028152600401808273ffffffffffffffffffffffffffffffffffffffff1673ffffffffffffffffffffffffffffffffffffffff168152602001915050602060405180830381600087803b1580156109af57600080fd5b505af11580156109c3573d6000803e3d6000fd5b505050506040513d60208110156109d957600080fd5b810190808051906020019092919050505015156109f557600080fd5b60001515610a01610b80565b1515141515610a0f57600080fd5b610a1882610c2c565b1515610a2357600080fd5b6000803373ffffffffffffffffffffffffffffffffffffffff1673ffffffffffffffffffffffffffffffffffffffff1681526020019081526020016000208290806001815401808255809150509060018203906000526020600020016000909192909190916101000a81548173ffffffffffffffffffffffffffffffffffffffff021916908373ffffffffffffffffffffffffffffffffffffffff160217905550506001600081548092919060010191905055508173ffffffffffffffffffffffffffffffffffffffff163373ffffffffffffffffffffffffffffffffffffffff167f984cf21ce998aef16bfdbce54b2c960e728f415509dbe06750aa7f277e52c0a460405160405180910390a35050565b60008060008373ffffffffffffffffffffffffffffffffffffffff1673ffffffffffffffffffffffffffffffffffffffff168152602001908152602001600020805490509050919050565b60008060405180807f636f6d2e6d61726b6574706c6163652e7061757361626c652e6973706175736581526020017f6400000000000000000000000000000000000000000000000000000000000000815250602101905060405180910390209050805491505090565b60008060405180807f636f6d2e6d61726b6574706c6163652e61636c726571756972696e672e61636c815250602001905060405180910390209050805491505090565b60008173ffffffffffffffffffffffffffffffffffffffff1663cdbdb0a56040518163ffffffff167c0100000000000000000000000000000000000000000000000000000000028152600401602060405180830381600087803b158015610c9257600080fd5b505af1158015610ca6573d6000803e3d6000fd5b505050506040513d6020811015610cbc57600080fd5b81019080805190602001909291905050509050919050565b600060405180807f636f6d2e6d61726b6574706c6163652e7061757361626c652e6973706175736581526020017f64000000000000000000000000000000000000000000000000000000000000008152506021019050604051809103902090508181555050565b6000610d4682610f58565b1515610de0576040517f08c379a00000000000000000000000000000000000000000000000000000000081526004018080602001828103825260218152602001807f4e65772041434c2061646472657373206973206e6f74206120636f6e7472616381526020017f740000000000000000000000000000000000000000000000000000000000000081525060400191505060405180910390fd5b8173ffffffffffffffffffffffffffffffffffffffff1663a8218cd36040518163ffffffff167c0100000000000000000000000000000000000000000000000000000000028152600401602060405180830381600087803b158015610e4457600080fd5b505af1158015610e58573d6000803e3d6000fd5b505050506040513d6020811015610e6e57600080fd5b81019080805190602001909291905050501515610f19576040517f08c379a00000000000000000000000000000000000000000000000000000000081526004018080602001828103825260328152602001807f4e65772041434c206164647265737320646f6573206e6f7420636f6e666f726d81526020017f20746f204941434c20696e74657266616365000000000000000000000000000081525060400191505060405180910390fd5b60405180807f636f6d2e6d61726b6574706c6163652e61636c726571756972696e672e61636c8152506020019050604051809103902090508181555050565b600080823b9050600081119150509190505600a165627a7a72305820dd2fe0867419ec8d1d4a8cf8517440a583662754adddd7182d7de8c564331d7d0029",
  "source": "pragma solidity ^0.4.23;\n\nimport \"../acl/ACLRequiring.sol\";\nimport \"../lifecycle/Pausable.sol\";\nimport \"../store/IProductStore.sol\";\n\n/**\n* @title MarketplaceV1\n* @dev Marketplace management contract\n* @notice v1\n*/\ncontract MarketplaceV1 is ACLRequiring, Pausable {\n\n  mapping(address => address[]) public stores;\n  uint256 public totalStores;\n\n  /**\n  * @dev StoreAdded event is emitted every time a store is added to the marketplace\n  * @param _owner Store owner address\n  * @param _storeAddress Store contract address\n  */\n  event StoreAdded(address indexed _owner, address indexed _storeAddress);\n\n  /**\n  * @dev Constructor function\n  * @param _aclAddress Address of ACL contract\n  */\n  constructor(address _aclAddress) Pausable(_aclAddress) public { }\n\n  /**\n  * @dev Performs validation on the given store contract address\n  * @param _storeAddress Address of the store contract to validate\n  * @return Boolean value representing the validity status of the store\n  */\n  function isValidStore(address _storeAddress) public pure returns (bool) {\n    return IProductStore(_storeAddress).isProductStore();\n  }\n\n  /**\n  * @dev Adds a store to the marketplace\n  * @param _storeAddress Address of the store contract to add\n  */\n  function addStore(address _storeAddress) public onlyAuthorized whenNotPaused {\n    require(isValidStore(_storeAddress));\n    stores[msg.sender].push(_storeAddress);\n    totalStores++;\n    emit StoreAdded(msg.sender, _storeAddress);\n  }\n\n  /**\n  * @dev Returns the number of stores added to the marketplace by a particular owner\n  * @param _owner Owner address to look up\n  * @return Number of stores added by the owner to the marketplace\n  */\n  function storeCountFor(address _owner) public view returns (uint256) {\n    return stores[_owner].length;\n  }\n\n  /**\n  * @dev Returns the store address for a particular owner and index\n  * @param _owner Owner address to look up\n  * @param _index Index of store address to look up\n  * @return Store contract address\n  */\n  function storeAddressForOwnerWithIndex(address _owner, uint256 _index) public view returns (address) {\n    return stores[_owner][_index];\n  }\n  \n}",
  "sourcePath": "/Users/matias/Projects/consensys/eth-marketplace/contracts/marketplace/MarketplaceV1.sol",
  "compiler": {
    "name": "solc",
    "version": "0.4.24+commit.e67f0147.Emscripten.clang"
  },
  "schemaVersion": "2.0.1",
  "updatedAt": "2018-08-27T23:57:17.863Z"
}