{
  "contractName": "MarketplaceV1",
  "abi": [
    {
      "constant": true,
      "inputs": [],
      "name": "totalStores",
      "outputs": [
        {
          "name": "",
          "type": "uint256"
        }
      ],
      "payable": false,
      "stateMutability": "view",
      "type": "function"
    },
    {
      "constant": false,
      "inputs": [],
      "name": "unpause",
      "outputs": [],
      "payable": false,
      "stateMutability": "nonpayable",
      "type": "function"
    },
    {
      "constant": true,
      "inputs": [
        {
          "name": "",
          "type": "address"
        },
        {
          "name": "",
          "type": "uint256"
        }
      ],
      "name": "stores",
      "outputs": [
        {
          "name": "",
          "type": "address"
        }
      ],
      "payable": false,
      "stateMutability": "view",
      "type": "function"
    },
    {
      "constant": false,
      "inputs": [],
      "name": "pause",
      "outputs": [],
      "payable": false,
      "stateMutability": "nonpayable",
      "type": "function"
    },
    {
      "constant": false,
      "inputs": [
        {
          "name": "_newAddress",
          "type": "address"
        }
      ],
      "name": "updateACL",
      "outputs": [],
      "payable": false,
      "stateMutability": "nonpayable",
      "type": "function"
    },
    {
      "constant": true,
      "inputs": [],
      "name": "isPaused",
      "outputs": [
        {
          "name": "_isPaused",
          "type": "bool"
        }
      ],
      "payable": false,
      "stateMutability": "view",
      "type": "function"
    },
    {
      "constant": true,
      "inputs": [],
      "name": "acl",
      "outputs": [
        {
          "name": "_acl",
          "type": "address"
        }
      ],
      "payable": false,
      "stateMutability": "view",
      "type": "function"
    },
    {
      "inputs": [
        {
          "name": "_aclAddress",
          "type": "address"
        }
      ],
      "payable": false,
      "stateMutability": "nonpayable",
      "type": "constructor"
    },
    {
      "anonymous": false,
      "inputs": [
        {
          "indexed": true,
          "name": "_owner",
          "type": "address"
        },
        {
          "indexed": true,
          "name": "_storeAddress",
          "type": "address"
        }
      ],
      "name": "StoreAdded",
      "type": "event"
    },
    {
      "anonymous": false,
      "inputs": [],
      "name": "Paused",
      "type": "event"
    },
    {
      "anonymous": false,
      "inputs": [],
      "name": "Unpaused",
      "type": "event"
    },
    {
      "anonymous": false,
      "inputs": [
        {
          "indexed": true,
          "name": "_oldAddress",
          "type": "address"
        },
        {
          "indexed": true,
          "name": "_newAddress",
          "type": "address"
        }
      ],
      "name": "ACLUpdated",
      "type": "event"
    },
    {
      "constant": true,
      "inputs": [
        {
          "name": "_storeAddress",
          "type": "address"
        }
      ],
      "name": "isValidStore",
      "outputs": [
        {
          "name": "",
          "type": "bool"
        }
      ],
      "payable": false,
      "stateMutability": "pure",
      "type": "function"
    },
    {
      "constant": false,
      "inputs": [
        {
          "name": "_storeAddress",
          "type": "address"
        }
      ],
      "name": "addStore",
      "outputs": [],
      "payable": false,
      "stateMutability": "nonpayable",
      "type": "function"
    },
    {
      "constant": true,
      "inputs": [
        {
          "name": "_owner",
          "type": "address"
        }
      ],
      "name": "storeCountFor",
      "outputs": [
        {
          "name": "",
          "type": "uint256"
        }
      ],
      "payable": false,
      "stateMutability": "view",
      "type": "function"
    },
    {
      "constant": true,
      "inputs": [
        {
          "name": "_owner",
          "type": "address"
        },
        {
          "name": "_index",
          "type": "uint256"
        }
      ],
      "name": "storeAddressForOwnerWithIndex",
      "outputs": [
        {
          "name": "",
          "type": "address"
        }
      ],
      "payable": false,
      "stateMutability": "view",
      "type": "function"
    },
    {
      "constant": true,
      "inputs": [],
      "name": "isMarketplace",
      "outputs": [
        {
          "name": "",
          "type": "bool"
        }
      ],
      "payable": false,
      "stateMutability": "pure",
      "type": "function"
    },
    {
      "constant": true,
      "inputs": [],
      "name": "version",
      "outputs": [
        {
          "name": "",
          "type": "uint16"
        }
      ],
      "payable": false,
      "stateMutability": "pure",
      "type": "function"
    }
  ],
  "bytecode": "0x608060405234801561001057600080fd5b5060405160208061132383398101806040528101908080519060200190929190505050808061004d816100b0640100000000026401000000009004565b8073ffffffffffffffffffffffffffffffffffffffff16600073ffffffffffffffffffffffffffffffffffffffff167fd9c4a08818b5e0b58c0856ec8285d83c51f0654438a200ef0f9e0e968f583ca960405160405180910390a35050506102f3565b60006100ce826102e064010000000002610fe2176401000000009004565b1515610168576040517f08c379a00000000000000000000000000000000000000000000000000000000081526004018080602001828103825260218152602001807f4e65772041434c2061646472657373206973206e6f74206120636f6e7472616381526020017f740000000000000000000000000000000000000000000000000000000000000081525060400191505060405180910390fd5b8173ffffffffffffffffffffffffffffffffffffffff1663a8218cd36040518163ffffffff167c0100000000000000000000000000000000000000000000000000000000028152600401602060405180830381600087803b1580156101cc57600080fd5b505af11580156101e0573d6000803e3d6000fd5b505050506040513d60208110156101f657600080fd5b810190808051906020019092919050505015156102a1576040517f08c379a00000000000000000000000000000000000000000000000000000000081526004018080602001828103825260328152602001807f4e65772041434c206164647265737320646f6573206e6f7420636f6e666f726d81526020017f20746f204941434c20696e74657266616365000000000000000000000000000081525060400191505060405180910390fd5b60405180807f636f6d2e6d61726b6574706c6163652e61636c726571756972696e672e61636c8152506020019050604051809103902090508181555050565b600080823b905060008111915050919050565b611021806103026000396000f3006080604052600436106100c5576000357c0100000000000000000000000000000000000000000000000000000000900463ffffffff16806315f063f7146100ca5780633f4ba83a146100f557806354121c741461010c57806354fd4d50146101995780638456cb59146101cc57806387a7066b146101e3578063915712f31461022657806391577623146102b35780639bd79586146102f6578063b187bd261461034d578063de2873591461037c578063e6b35542146103d3578063f4b86c481461042e575b600080fd5b3480156100d657600080fd5b506100df61045d565b6040518082815260200191505060405180910390f35b34801561010157600080fd5b5061010a610463565b005b34801561011857600080fd5b50610157600480360381019080803573ffffffffffffffffffffffffffffffffffffffff1690602001909291908035906020019092919050505061059c565b604051808273ffffffffffffffffffffffffffffffffffffffff1673ffffffffffffffffffffffffffffffffffffffff16815260200191505060405180910390f35b3480156101a557600080fd5b506101ae6105e9565b604051808261ffff1661ffff16815260200191505060405180910390f35b3480156101d857600080fd5b506101e16105f2565b005b3480156101ef57600080fd5b50610224600480360381019080803573ffffffffffffffffffffffffffffffffffffffff169060200190929190505050610732565b005b34801561023257600080fd5b50610271600480360381019080803573ffffffffffffffffffffffffffffffffffffffff16906020019092919080359060200190929190505050610909565b604051808273ffffffffffffffffffffffffffffffffffffffff1673ffffffffffffffffffffffffffffffffffffffff16815260200191505060405180910390f35b3480156102bf57600080fd5b506102f4600480360381019080803573ffffffffffffffffffffffffffffffffffffffff169060200190929190505050610989565b005b34801561030257600080fd5b50610337600480360381019080803573ffffffffffffffffffffffffffffffffffffffff169060200190929190505050610bb6565b6040518082815260200191505060405180910390f35b34801561035957600080fd5b50610362610c01565b604051808215151515815260200191505060405180910390f35b34801561038857600080fd5b50610391610c6a565b604051808273ffffffffffffffffffffffffffffffffffffffff1673ffffffffffffffffffffffffffffffffffffffff16815260200191505060405180910390f35b3480156103df57600080fd5b50610414600480360381019080803573ffffffffffffffffffffffffffffffffffffffff169060200190929190505050610cad565b604051808215151515815260200191505060405180910390f35b34801561043a57600080fd5b50610443610d55565b604051808215151515815260200191505060405180910390f35b60015481565b600061046d610c6a565b90508073ffffffffffffffffffffffffffffffffffffffff1663bb6a4520336040518263ffffffff167c0100000000000000000000000000000000000000000000000000000000028152600401808273ffffffffffffffffffffffffffffffffffffffff1673ffffffffffffffffffffffffffffffffffffffff168152602001915050602060405180830381600087803b15801561050a57600080fd5b505af115801561051e573d6000803e3d6000fd5b505050506040513d602081101561053457600080fd5b8101908080519060200190929190505050151561055057600080fd5b610558610c01565b151561056357600080fd5b61056d6000610d5e565b7fa45f47fdea8a1efdd9029a5691c7f759c32b7c698632b563573e155625d1693360405160405180910390a150565b6000602052816000526040600020818154811015156105b757fe5b906000526020600020016000915091509054906101000a900473ffffffffffffffffffffffffffffffffffffffff1681565b60006001905090565b60006105fc610c6a565b90508073ffffffffffffffffffffffffffffffffffffffff1663bb6a4520336040518263ffffffff167c0100000000000000000000000000000000000000000000000000000000028152600401808273ffffffffffffffffffffffffffffffffffffffff1673ffffffffffffffffffffffffffffffffffffffff168152602001915050602060405180830381600087803b15801561069957600080fd5b505af11580156106ad573d6000803e3d6000fd5b505050506040513d60208110156106c357600080fd5b810190808051906020019092919050505015156106df57600080fd5b600015156106eb610c01565b15151415156106f957600080fd5b6107036001610d5e565b7f9e87fac88ff661f02d44f95383c817fece4bce600a3dab7a54406878b965e75260405160405180910390a150565b60008061073d610c6a565b90508073ffffffffffffffffffffffffffffffffffffffff1663bb6a4520336040518263ffffffff167c0100000000000000000000000000000000000000000000000000000000028152600401808273ffffffffffffffffffffffffffffffffffffffff1673ffffffffffffffffffffffffffffffffffffffff168152602001915050602060405180830381600087803b1580156107da57600080fd5b505af11580156107ee573d6000803e3d6000fd5b505050506040513d602081101561080457600080fd5b8101908080519060200190929190505050151561082057600080fd5b600073ffffffffffffffffffffffffffffffffffffffff168373ffffffffffffffffffffffffffffffffffffffff161415151561085c57600080fd5b610864610c6a565b91508173ffffffffffffffffffffffffffffffffffffffff168373ffffffffffffffffffffffffffffffffffffffff16141515156108a157600080fd5b6108aa83610dc5565b8273ffffffffffffffffffffffffffffffffffffffff168273ffffffffffffffffffffffffffffffffffffffff167fd9c4a08818b5e0b58c0856ec8285d83c51f0654438a200ef0f9e0e968f583ca960405160405180910390a3505050565b60008060008473ffffffffffffffffffffffffffffffffffffffff1673ffffffffffffffffffffffffffffffffffffffff1681526020019081526020016000208281548110151561095657fe5b9060005260206000200160009054906101000a900473ffffffffffffffffffffffffffffffffffffffff16905092915050565b6000610993610c6a565b90508073ffffffffffffffffffffffffffffffffffffffff1663fe9fbb80336040518263ffffffff167c0100000000000000000000000000000000000000000000000000000000028152600401808273ffffffffffffffffffffffffffffffffffffffff1673ffffffffffffffffffffffffffffffffffffffff168152602001915050602060405180830381600087803b158015610a3057600080fd5b505af1158015610a44573d6000803e3d6000fd5b505050506040513d6020811015610a5a57600080fd5b81019080805190602001909291905050501515610a7657600080fd5b60001515610a82610c01565b1515141515610a9057600080fd5b610a9982610cad565b1515610aa457600080fd5b6000803373ffffffffffffffffffffffffffffffffffffffff1673ffffffffffffffffffffffffffffffffffffffff1681526020019081526020016000208290806001815401808255809150509060018203906000526020600020016000909192909190916101000a81548173ffffffffffffffffffffffffffffffffffffffff021916908373ffffffffffffffffffffffffffffffffffffffff160217905550506001600081548092919060010191905055508173ffffffffffffffffffffffffffffffffffffffff163373ffffffffffffffffffffffffffffffffffffffff167f984cf21ce998aef16bfdbce54b2c960e728f415509dbe06750aa7f277e52c0a460405160405180910390a35050565b60008060008373ffffffffffffffffffffffffffffffffffffffff1673ffffffffffffffffffffffffffffffffffffffff168152602001908152602001600020805490509050919050565b60008060405180807f636f6d2e6d61726b6574706c6163652e7061757361626c652e6973706175736581526020017f6400000000000000000000000000000000000000000000000000000000000000815250602101905060405180910390209050805491505090565b60008060405180807f636f6d2e6d61726b6574706c6163652e61636c726571756972696e672e61636c815250602001905060405180910390209050805491505090565b60008173ffffffffffffffffffffffffffffffffffffffff1663cdbdb0a56040518163ffffffff167c0100000000000000000000000000000000000000000000000000000000028152600401602060405180830381600087803b158015610d1357600080fd5b505af1158015610d27573d6000803e3d6000fd5b505050506040513d6020811015610d3d57600080fd5b81019080805190602001909291905050509050919050565b60006001905090565b600060405180807f636f6d2e6d61726b6574706c6163652e7061757361626c652e6973706175736581526020017f64000000000000000000000000000000000000000000000000000000000000008152506021019050604051809103902090508181555050565b6000610dd082610fe2565b1515610e6a576040517f08c379a00000000000000000000000000000000000000000000000000000000081526004018080602001828103825260218152602001807f4e65772041434c2061646472657373206973206e6f74206120636f6e7472616381526020017f740000000000000000000000000000000000000000000000000000000000000081525060400191505060405180910390fd5b8173ffffffffffffffffffffffffffffffffffffffff1663a8218cd36040518163ffffffff167c0100000000000000000000000000000000000000000000000000000000028152600401602060405180830381600087803b158015610ece57600080fd5b505af1158015610ee2573d6000803e3d6000fd5b505050506040513d6020811015610ef857600080fd5b81019080805190602001909291905050501515610fa3576040517f08c379a00000000000000000000000000000000000000000000000000000000081526004018080602001828103825260328152602001807f4e65772041434c206164647265737320646f6573206e6f7420636f6e666f726d81526020017f20746f204941434c20696e74657266616365000000000000000000000000000081525060400191505060405180910390fd5b60405180807f636f6d2e6d61726b6574706c6163652e61636c726571756972696e672e61636c8152506020019050604051809103902090508181555050565b600080823b9050600081119150509190505600a165627a7a7230582015c53db4006c21f3879da425da239e8ef8357b76a168f0a007403a28fa0c83760029",
  "source": "pragma solidity ^0.4.23;\n\nimport \"./IMarketplace.sol\";\nimport \"../acl/ACLRequiring.sol\";\nimport \"../lifecycle/Pausable.sol\";\nimport \"../store/IProductStore.sol\";\n\n/**\n* @title MarketplaceV1\n* @dev Marketplace management contract\n* @notice v1\n*/\ncontract MarketplaceV1 is ACLRequiring, Pausable, IMarketplace {\n\n  mapping(address => address[]) public stores;\n  uint256 public totalStores;\n\n  /**\n  * @dev StoreAdded event is emitted every time a store is added to the marketplace\n  * @param _owner Store owner address\n  * @param _storeAddress Store contract address\n  */\n  event StoreAdded(address indexed _owner, address indexed _storeAddress);\n\n  /**\n  * @dev Constructor function\n  * @param _aclAddress Address of ACL contract\n  */\n  constructor(address _aclAddress) Pausable(_aclAddress) public { }\n\n  /**\n  * @dev Performs validation on the given store contract address\n  * @param _storeAddress Address of the store contract to validate\n  * @return Boolean value representing the validity status of the store\n  */\n  function isValidStore(address _storeAddress) public pure returns (bool) {\n    return IProductStore(_storeAddress).isProductStore();\n  }\n\n  /**\n  * @dev Adds a store to the marketplace\n  * @param _storeAddress Address of the store contract to add\n  */\n  function addStore(address _storeAddress) public onlyAuthorized whenNotPaused {\n    require(isValidStore(_storeAddress));\n    stores[msg.sender].push(_storeAddress);\n    totalStores++;\n    emit StoreAdded(msg.sender, _storeAddress);\n  }\n\n  /**\n  * @dev Returns the number of stores added to the marketplace by a particular owner\n  * @param _owner Owner address to look up\n  * @return Number of stores added by the owner to the marketplace\n  */\n  function storeCountFor(address _owner) public view returns (uint256) {\n    return stores[_owner].length;\n  }\n\n  /**\n  * @dev Returns the store address for a particular owner and index\n  * @param _owner Owner address to look up\n  * @param _index Index of store address to look up\n  * @return Store contract address\n  */\n  function storeAddressForOwnerWithIndex(address _owner, uint256 _index) public view returns (address) {\n    return stores[_owner][_index];\n  }\n\n  /**\n  * @dev Returns true for contracts that adhere to the Marketplace interface\n  * @return Always returns true\n  */\n  function isMarketplace() public pure returns (bool) { \n    return true;\n  }\n  \n  /**\n  * @dev Returns the version of the Marketplace contract interface\n  * @return Always returns 1\n  */\n  function version() public pure returns (uint16) {\n    return 1;\n  }\n  \n}",
  "sourcePath": "/Users/matias/Projects/consensys/eth-marketplace/contracts/marketplace/MarketplaceV1.sol",
  "compiler": {
    "name": "solc",
    "version": "0.4.24+commit.e67f0147.Emscripten.clang"
  },
  "schemaVersion": "2.0.1",
  "updatedAt": "2018-08-28T01:44:45.475Z"
}