{
  "contractName": "MockProductStoreV1",
  "abi": [
    {
      "constant": true,
      "inputs": [],
      "name": "name",
      "outputs": [
        {
          "name": "",
          "type": "string"
        }
      ],
      "payable": false,
      "stateMutability": "view",
      "type": "function"
    },
    {
      "constant": true,
      "inputs": [
        {
          "name": "_id",
          "type": "uint128"
        }
      ],
      "name": "getImageURI",
      "outputs": [
        {
          "name": "",
          "type": "string"
        }
      ],
      "payable": false,
      "stateMutability": "view",
      "type": "function"
    },
    {
      "constant": false,
      "inputs": [],
      "name": "withdrawFunds",
      "outputs": [],
      "payable": false,
      "stateMutability": "nonpayable",
      "type": "function"
    },
    {
      "constant": true,
      "inputs": [
        {
          "components": [
            {
              "name": "id",
              "type": "uint128"
            },
            {
              "name": "createdAt",
              "type": "uint64"
            },
            {
              "name": "updatedAt",
              "type": "uint64"
            },
            {
              "name": "createdBy",
              "type": "address"
            },
            {
              "name": "updatedBy",
              "type": "address"
            },
            {
              "name": "name",
              "type": "string"
            },
            {
              "name": "description",
              "type": "string"
            },
            {
              "name": "imageURI",
              "type": "string"
            },
            {
              "name": "price",
              "type": "uint128"
            },
            {
              "name": "inventory",
              "type": "uint128"
            }
          ],
          "name": "_product",
          "type": "tuple"
        }
      ],
      "name": "abiEncode",
      "outputs": [
        {
          "name": "",
          "type": "bytes"
        }
      ],
      "payable": false,
      "stateMutability": "pure",
      "type": "function"
    },
    {
      "constant": true,
      "inputs": [
        {
          "name": "_id",
          "type": "uint128"
        }
      ],
      "name": "getName",
      "outputs": [
        {
          "name": "",
          "type": "string"
        }
      ],
      "payable": false,
      "stateMutability": "view",
      "type": "function"
    },
    {
      "constant": false,
      "inputs": [
        {
          "name": "__name",
          "type": "string"
        },
        {
          "name": "__description",
          "type": "string"
        },
        {
          "name": "__imageURI",
          "type": "string"
        },
        {
          "name": "__price",
          "type": "uint128"
        },
        {
          "name": "__inventory",
          "type": "uint128"
        }
      ],
      "name": "addProduct",
      "outputs": [
        {
          "name": "",
          "type": "uint128"
        }
      ],
      "payable": false,
      "stateMutability": "nonpayable",
      "type": "function"
    },
    {
      "constant": true,
      "inputs": [],
      "name": "version",
      "outputs": [
        {
          "name": "",
          "type": "uint16"
        }
      ],
      "payable": false,
      "stateMutability": "pure",
      "type": "function"
    },
    {
      "constant": true,
      "inputs": [
        {
          "name": "_id",
          "type": "uint128"
        }
      ],
      "name": "getUpdatedAt",
      "outputs": [
        {
          "name": "",
          "type": "uint64"
        }
      ],
      "payable": false,
      "stateMutability": "view",
      "type": "function"
    },
    {
      "constant": true,
      "inputs": [
        {
          "name": "_id",
          "type": "uint128"
        }
      ],
      "name": "getInventory",
      "outputs": [
        {
          "name": "",
          "type": "uint128"
        }
      ],
      "payable": false,
      "stateMutability": "view",
      "type": "function"
    },
    {
      "constant": true,
      "inputs": [
        {
          "name": "_id",
          "type": "uint128"
        }
      ],
      "name": "getCreatedBy",
      "outputs": [
        {
          "name": "",
          "type": "address"
        }
      ],
      "payable": false,
      "stateMutability": "view",
      "type": "function"
    },
    {
      "constant": true,
      "inputs": [],
      "name": "logoURI",
      "outputs": [
        {
          "name": "",
          "type": "string"
        }
      ],
      "payable": false,
      "stateMutability": "view",
      "type": "function"
    },
    {
      "constant": true,
      "inputs": [
        {
          "components": [
            {
              "name": "id",
              "type": "uint128"
            },
            {
              "name": "createdAt",
              "type": "uint64"
            },
            {
              "name": "updatedAt",
              "type": "uint64"
            },
            {
              "name": "createdBy",
              "type": "address"
            },
            {
              "name": "updatedBy",
              "type": "address"
            },
            {
              "name": "name",
              "type": "string"
            },
            {
              "name": "description",
              "type": "string"
            },
            {
              "name": "imageURI",
              "type": "string"
            },
            {
              "name": "price",
              "type": "uint128"
            },
            {
              "name": "inventory",
              "type": "uint128"
            }
          ],
          "name": "_product",
          "type": "tuple"
        }
      ],
      "name": "isValid",
      "outputs": [
        {
          "name": "",
          "type": "bool"
        }
      ],
      "payable": false,
      "stateMutability": "pure",
      "type": "function"
    },
    {
      "constant": false,
      "inputs": [
        {
          "name": "_newAddress",
          "type": "address"
        }
      ],
      "name": "updateACL",
      "outputs": [],
      "payable": false,
      "stateMutability": "nonpayable",
      "type": "function"
    },
    {
      "constant": true,
      "inputs": [
        {
          "name": "_id",
          "type": "uint128"
        }
      ],
      "name": "getCreatedAt",
      "outputs": [
        {
          "name": "",
          "type": "uint64"
        }
      ],
      "payable": false,
      "stateMutability": "view",
      "type": "function"
    },
    {
      "constant": true,
      "inputs": [],
      "name": "isEternalStorage",
      "outputs": [
        {
          "name": "",
          "type": "bool"
        }
      ],
      "payable": false,
      "stateMutability": "pure",
      "type": "function"
    },
    {
      "constant": false,
      "inputs": [
        {
          "name": "__logoURI",
          "type": "string"
        }
      ],
      "name": "setLogoURI",
      "outputs": [],
      "payable": false,
      "stateMutability": "nonpayable",
      "type": "function"
    },
    {
      "constant": false,
      "inputs": [
        {
          "name": "__name",
          "type": "string"
        }
      ],
      "name": "setName",
      "outputs": [],
      "payable": false,
      "stateMutability": "nonpayable",
      "type": "function"
    },
    {
      "constant": true,
      "inputs": [
        {
          "name": "_id",
          "type": "uint128"
        }
      ],
      "name": "getUpdatedBy",
      "outputs": [
        {
          "name": "",
          "type": "address"
        }
      ],
      "payable": false,
      "stateMutability": "view",
      "type": "function"
    },
    {
      "constant": true,
      "inputs": [],
      "name": "isProductStore",
      "outputs": [
        {
          "name": "",
          "type": "bool"
        }
      ],
      "payable": false,
      "stateMutability": "pure",
      "type": "function"
    },
    {
      "constant": true,
      "inputs": [],
      "name": "acl",
      "outputs": [
        {
          "name": "_acl",
          "type": "address"
        }
      ],
      "payable": false,
      "stateMutability": "view",
      "type": "function"
    },
    {
      "constant": true,
      "inputs": [
        {
          "name": "_id",
          "type": "uint128"
        }
      ],
      "name": "getPrice",
      "outputs": [
        {
          "name": "",
          "type": "uint128"
        }
      ],
      "payable": false,
      "stateMutability": "view",
      "type": "function"
    },
    {
      "constant": true,
      "inputs": [],
      "name": "productCount",
      "outputs": [
        {
          "name": "",
          "type": "uint256"
        }
      ],
      "payable": false,
      "stateMutability": "view",
      "type": "function"
    },
    {
      "constant": true,
      "inputs": [
        {
          "name": "_id",
          "type": "uint128"
        }
      ],
      "name": "getDescription",
      "outputs": [
        {
          "name": "",
          "type": "string"
        }
      ],
      "payable": false,
      "stateMutability": "view",
      "type": "function"
    },
    {
      "inputs": [
        {
          "name": "_aclAddress",
          "type": "address"
        }
      ],
      "payable": false,
      "stateMutability": "nonpayable",
      "type": "constructor"
    },
    {
      "anonymous": false,
      "inputs": [
        {
          "indexed": false,
          "name": "_sender",
          "type": "address"
        },
        {
          "indexed": false,
          "name": "_amount",
          "type": "uint256"
        }
      ],
      "name": "DepositedFunds",
      "type": "event"
    },
    {
      "anonymous": false,
      "inputs": [
        {
          "indexed": true,
          "name": "_id",
          "type": "uint128"
        },
        {
          "indexed": true,
          "name": "_updatedAt",
          "type": "uint64"
        },
        {
          "indexed": true,
          "name": "_updatedBy",
          "type": "address"
        },
        {
          "indexed": false,
          "name": "_modelVersion",
          "type": "uint16"
        },
        {
          "indexed": false,
          "name": "_data",
          "type": "bytes"
        }
      ],
      "name": "ArticleUpdated",
      "type": "event"
    },
    {
      "anonymous": false,
      "inputs": [
        {
          "indexed": false,
          "name": "_oldName",
          "type": "string"
        },
        {
          "indexed": false,
          "name": "_newName",
          "type": "string"
        }
      ],
      "name": "NameUpdated",
      "type": "event"
    },
    {
      "anonymous": false,
      "inputs": [
        {
          "indexed": false,
          "name": "_oldLogoURI",
          "type": "string"
        },
        {
          "indexed": false,
          "name": "_newLogoURI",
          "type": "string"
        }
      ],
      "name": "LogoUpdated",
      "type": "event"
    },
    {
      "anonymous": false,
      "inputs": [
        {
          "indexed": true,
          "name": "_payee",
          "type": "address"
        },
        {
          "indexed": true,
          "name": "_amount",
          "type": "uint256"
        }
      ],
      "name": "FundsWithdrawn",
      "type": "event"
    },
    {
      "anonymous": false,
      "inputs": [
        {
          "indexed": true,
          "name": "_oldAddress",
          "type": "address"
        },
        {
          "indexed": true,
          "name": "_newAddress",
          "type": "address"
        }
      ],
      "name": "ACLUpdated",
      "type": "event"
    },
    {
      "constant": false,
      "inputs": [],
      "name": "deposit",
      "outputs": [],
      "payable": true,
      "stateMutability": "payable",
      "type": "function"
    }
  ],
  "bytecode": "0x60806040523480156200001157600080fd5b5060405160208062003e2883398101806040526200003391908101906200027a565b80806200004f81620000b3640100000000026401000000009004565b8073ffffffffffffffffffffffffffffffffffffffff16600073ffffffffffffffffffffffffffffffffffffffff167fd9c4a08818b5e0b58c0856ec8285d83c51f0654438a200ef0f9e0e968f583ca960405160405180910390a3505050620003fc565b6000620000d4826200023b6401000000000262002c47176401000000009004565b151562000118576040517f08c379a00000000000000000000000000000000000000000000000000000000081526004016200010f906200038c565b60405180910390fd5b8173ffffffffffffffffffffffffffffffffffffffff1663a8218cd36040518163ffffffff167c0100000000000000000000000000000000000000000000000000000000028152600401602060405180830381600087803b1580156200017d57600080fd5b505af115801562000192573d6000803e3d6000fd5b505050506040513d601f19601f82011682018060405250620001b89190810190620002a6565b1515620001fc576040517f08c379a0000000000000000000000000000000000000000000000000000000008152600401620001f390620003ae565b60405180910390fd5b60405180807f636f6d2e6d61726b6574706c6163652e61636c726571756972696e672e61636c8152506020019050604051809103902090508181555050565b600080823b905060008111915050919050565b60006200025c8251620003d0565b905092915050565b6000620002728251620003f0565b905092915050565b6000602082840312156200028d57600080fd5b60006200029d848285016200024e565b91505092915050565b600060208284031215620002b957600080fd5b6000620002c98482850162000264565b91505092915050565b6000602182527f4e65772041434c2061646472657373206973206e6f74206120636f6e7472616360208301527f74000000000000000000000000000000000000000000000000000000000000006040830152606082019050919050565b6000603282527f4e65772041434c206164647265737320646f6573206e6f7420636f6e666f726d60208301527f20746f204941434c20696e7465726661636500000000000000000000000000006040830152606082019050919050565b60006020820190508181036000830152620003a781620002d2565b9050919050565b60006020820190508181036000830152620003c9816200032f565b9050919050565b600073ffffffffffffffffffffffffffffffffffffffff82169050919050565b60008115159050919050565b613a1c806200040c6000396000f30060806040526004361061013e576000357c0100000000000000000000000000000000000000000000000000000000900463ffffffff16806306fdde03146101435780630744f0c11461016e57806324600fc3146101ab57806326d5e4d2146101c25780632b64d441146101ff5780632b91a7011461023c57806354fd4d50146102795780635a610f3f146102a45780635d834a01146102e1578063646253a21461031e5780636bb38b281461035b578063840f4a641461038657806387a7066b146103c357806398df6543146103ec578063b1a6909a14610429578063c30ff6df14610454578063c47f00271461047d578063c6ebfe9d146104a6578063cdbdb0a5146104e3578063d0e30db01461050e578063de28735914610518578063de3572b414610543578063e0f6ef8714610580578063e131010c146105ab575b600080fd5b34801561014f57600080fd5b506101586105e8565b6040516101659190613642565b60405180910390f35b34801561017a57600080fd5b50610195600480360361019091908101906131a6565b61068a565b6040516101a29190613642565b60405180910390f35b3480156101b757600080fd5b506101c0610806565b005b3480156101ce57600080fd5b506101e960048036036101e49190810190613165565b6109b9565b6040516101f69190613620565b60405180910390f35b34801561020b57600080fd5b50610226600480360361022191908101906131a6565b6109e2565b6040516102339190613642565b60405180910390f35b34801561024857600080fd5b50610263600480360361025e91908101906130a6565b610b5e565b604051610270919061375d565b60405180910390f35b34801561028557600080fd5b5061028e610ea1565b60405161029b9190613778565b60405180910390f35b3480156102b057600080fd5b506102cb60048036036102c691908101906131a6565b610eaa565b6040516102d891906137de565b60405180910390f35b3480156102ed57600080fd5b50610308600480360361030391908101906131a6565b610fa2565b604051610315919061375d565b60405180910390f35b34801561032a57600080fd5b50610345600480360361034091908101906131a6565b6110a2565b60405161035291906135c1565b60405180910390f35b34801561036757600080fd5b506103706111a6565b60405161037d9190613642565b60405180910390f35b34801561039257600080fd5b506103ad60048036036103a89190810190613165565b611248565b6040516103ba9190613605565b60405180910390f35b3480156103cf57600080fd5b506103ea60048036036103e59190810190613013565b611370565b005b3480156103f857600080fd5b50610413600480360361040e91908101906131a6565b611518565b60405161042091906137de565b60405180910390f35b34801561043557600080fd5b5061043e611610565b60405161044b9190613605565b60405180910390f35b34801561046057600080fd5b5061047b60048036036104769190810190613065565b611619565b005b34801561048957600080fd5b506104a4600480360361049f9190810190613065565b61172c565b005b3480156104b257600080fd5b506104cd60048036036104c891908101906131a6565b61183f565b6040516104da91906135c1565b60405180910390f35b3480156104ef57600080fd5b506104f8611943565b6040516105059190613605565b60405180910390f35b61051661194c565b005b34801561052457600080fd5b5061052d611987565b60405161053a91906135c1565b60405180910390f35b34801561054f57600080fd5b5061056a600480360361056591908101906131a6565b6119ca565b604051610577919061375d565b60405180910390f35b34801561058c57600080fd5b50610595611aca565b6040516105a291906137c3565b60405180910390f35b3480156105b757600080fd5b506105d260048036036105cd91908101906131a6565b611b02565b6040516105df9190613642565b60405180910390f35b6060600a8054600181600116156101000203166002900480601f0160208091040260200160405190810160405280929190818152602001828054600181600116156101000203166002900480156106805780601f1061065557610100808354040283529160200191610680565b820191906000526020600020905b81548152906001019060200180831161066357829003601f168201915b5050505050905090565b6060816000816fffffffffffffffffffffffffffffffff161115156106e4576040517f08c379a00000000000000000000000000000000000000000000000000000000081526004016106db906136db565b60405180910390fd5b6106ec611aca565b816fffffffffffffffffffffffffffffffff1611151515610742576040517f08c379a0000000000000000000000000000000000000000000000000000000008152600401610739906136db565b60405180910390fd5b6003600061074f85611c7e565b600019166000191681526020019081526020016000208054600181600116156101000203166002900480601f0160208091040260200160405190810160405280929190818152602001828054600181600116156101000203166002900480156107f95780601f106107ce576101008083540402835291602001916107f9565b820191906000526020600020905b8154815290600101906020018083116107dc57829003601f168201915b5050505050915050919050565b6000806000610813611987565b90508073ffffffffffffffffffffffffffffffffffffffff1663bb6a4520336040518263ffffffff167c010000000000000000000000000000000000000000000000000000000002815260040161086a91906135c1565b602060405180830381600087803b15801561088457600080fd5b505af1158015610898573d6000803e3d6000fd5b505050506040513d601f19601f820116820180604052506108bc919081019061303c565b15156108c757600080fd5b3392503073ffffffffffffffffffffffffffffffffffffffff16319150600082111515610929576040517f08c379a0000000000000000000000000000000000000000000000000000000008152600401610920906136fb565b60405180910390fd5b8273ffffffffffffffffffffffffffffffffffffffff166108fc839081150290604051600060405180830381858888f1935050505015801561096f573d6000803e3d6000fd5b50818373ffffffffffffffffffffffffffffffffffffffff167feaff4b37086828766ad3268786972c0cd24259d4c87a80f9d3963a3c3d999b0d60405160405180910390a3505050565b6060816040516020016109cc919061373b565b6040516020818303038152906040529050919050565b6060816000816fffffffffffffffffffffffffffffffff16111515610a3c576040517f08c379a0000000000000000000000000000000000000000000000000000000008152600401610a33906136db565b60405180910390fd5b610a44611aca565b816fffffffffffffffffffffffffffffffff1611151515610a9a576040517f08c379a0000000000000000000000000000000000000000000000000000000008152600401610a91906136db565b60405180910390fd5b60036000610aa785611d90565b600019166000191681526020019081526020016000208054600181600116156101000203166002900480601f016020809104026020016040519081016040528092919081815260200182805460018160011615610100020316600290048015610b515780601f10610b2657610100808354040283529160200191610b51565b820191906000526020600020905b815481529060010190602001808311610b3457829003601f168201915b5050505050915050919050565b6000806000610b6b612c5a565b6000610b75611987565b90508073ffffffffffffffffffffffffffffffffffffffff1663bb6a4520336040518263ffffffff167c0100000000000000000000000000000000000000000000000000000000028152600401610bcc91906135c1565b602060405180830381600087803b158015610be657600080fd5b505af1158015610bfa573d6000803e3d6000fd5b505050506040513d601f19601f82011682018060405250610c1e919081019061303c565b1515610c2957600080fd5b6001600c60009054906101000a90046fffffffffffffffffffffffffffffffff1601935042925061014060405190810160405280856fffffffffffffffffffffffffffffffff1681526020018467ffffffffffffffff1681526020018467ffffffffffffffff1681526020013373ffffffffffffffffffffffffffffffffffffffff1681526020013373ffffffffffffffffffffffffffffffffffffffff1681526020018b81526020018a8152602001898152602001886fffffffffffffffffffffffffffffffff168152602001876fffffffffffffffffffffffffffffffff168152509150610d1882611ea2565b600c600081819054906101000a90046fffffffffffffffffffffffffffffffff168092919060010191906101000a8154816fffffffffffffffffffffffffffffffff02191690836fffffffffffffffffffffffffffffffff16021790555050816080015173ffffffffffffffffffffffffffffffffffffffff16826040015167ffffffffffffffff1683600001516fffffffffffffffffffffffffffffffff167f24b910cee83acebdf0e3c0e4c00d70907a15d2e792ea13e69f4ea9588bf1d5be3073ffffffffffffffffffffffffffffffffffffffff166354fd4d506040518163ffffffff167c0100000000000000000000000000000000000000000000000000000000028152600401602060405180830381600087803b158015610e3d57600080fd5b505af1158015610e51573d6000803e3d6000fd5b505050506040513d601f19601f82011682018060405250610e7591908101906131cf565b610e7e876109b9565b604051610e8c929190613793565b60405180910390a45050505095945050505050565b60006001905090565b6000816000816fffffffffffffffffffffffffffffffff16111515610f04576040517f08c379a0000000000000000000000000000000000000000000000000000000008152600401610efb906136db565b60405180910390fd5b610f0c611aca565b816fffffffffffffffffffffffffffffffff1611151515610f62576040517f08c379a0000000000000000000000000000000000000000000000000000000008152600401610f59906136db565b60405180910390fd5b60026000610f6f8561224f565b6000191660001916815260200190815260200160002060009054906101000a900467ffffffffffffffff16915050919050565b6000816000816fffffffffffffffffffffffffffffffff16111515610ffc576040517f08c379a0000000000000000000000000000000000000000000000000000000008152600401610ff3906136db565b60405180910390fd5b611004611aca565b816fffffffffffffffffffffffffffffffff161115151561105a576040517f08c379a0000000000000000000000000000000000000000000000000000000008152600401611051906136db565b60405180910390fd5b6001600061106785612361565b6000191660001916815260200190815260200160002060009054906101000a90046fffffffffffffffffffffffffffffffff16915050919050565b6000816000816fffffffffffffffffffffffffffffffff161115156110fc576040517f08c379a00000000000000000000000000000000000000000000000000000000081526004016110f3906136db565b60405180910390fd5b611104611aca565b816fffffffffffffffffffffffffffffffff161115151561115a576040517f08c379a0000000000000000000000000000000000000000000000000000000008152600401611151906136db565b60405180910390fd5b6004600061116785612473565b6000191660001916815260200190815260200160002060009054906101000a900473ffffffffffffffffffffffffffffffffffffffff16915050919050565b6060600b8054600181600116156101000203166002900480601f01602080910402602001604051908101604052809291908181526020018280546001816001161561010002031660029004801561123e5780601f106112135761010080835404028352916020019161123e565b820191906000526020600020905b81548152906001019060200180831161122157829003601f168201915b5050505050905090565b60008082600001516fffffffffffffffffffffffffffffffff16111515611272576000905061136b565b6000826020015167ffffffffffffffff16111515611293576000905061136b565b6000826040015167ffffffffffffffff161115156112b4576000905061136b565b600073ffffffffffffffffffffffffffffffffffffffff16826060015173ffffffffffffffffffffffffffffffffffffffff1614156112f6576000905061136b565b600073ffffffffffffffffffffffffffffffffffffffff16826080015173ffffffffffffffffffffffffffffffffffffffff161415611338576000905061136b565b60008260a0015151141561134f576000905061136b565b60008260c00151511415611366576000905061136b565b600190505b919050565b60008061137b611987565b90508073ffffffffffffffffffffffffffffffffffffffff1663bb6a4520336040518263ffffffff167c01000000000000000000000000000000000000000000000000000000000281526004016113d291906135c1565b602060405180830381600087803b1580156113ec57600080fd5b505af1158015611400573d6000803e3d6000fd5b505050506040513d601f19601f82011682018060405250611424919081019061303c565b151561142f57600080fd5b600073ffffffffffffffffffffffffffffffffffffffff168373ffffffffffffffffffffffffffffffffffffffff161415151561146b57600080fd5b611473611987565b91508173ffffffffffffffffffffffffffffffffffffffff168373ffffffffffffffffffffffffffffffffffffffff16141515156114b057600080fd5b6114b983612585565b8273ffffffffffffffffffffffffffffffffffffffff168273ffffffffffffffffffffffffffffffffffffffff167fd9c4a08818b5e0b58c0856ec8285d83c51f0654438a200ef0f9e0e968f583ca960405160405180910390a3505050565b6000816000816fffffffffffffffffffffffffffffffff16111515611572576040517f08c379a0000000000000000000000000000000000000000000000000000000008152600401611569906136db565b60405180910390fd5b61157a611aca565b816fffffffffffffffffffffffffffffffff16111515156115d0576040517f08c379a00000000000000000000000000000000000000000000000000000000081526004016115c7906136db565b60405180910390fd5b600260006115dd856126ed565b6000191660001916815260200190815260200160002060009054906101000a900467ffffffffffffffff16915050919050565b60006001905090565b6000611623611987565b90508073ffffffffffffffffffffffffffffffffffffffff1663bb6a4520336040518263ffffffff167c010000000000000000000000000000000000000000000000000000000002815260040161167a91906135c1565b602060405180830381600087803b15801561169457600080fd5b505af11580156116a8573d6000803e3d6000fd5b505050506040513d601f19601f820116820180604052506116cc919081019061303c565b15156116d757600080fd5b7f3fd06971a1669386f272c36c0f88736dafb25abdc400efb23ff7cc61c8d563b0600b83604051611709929190613664565b60405180910390a181600b9080519060200190611727929190612d24565b505050565b6000611736611987565b90508073ffffffffffffffffffffffffffffffffffffffff1663bb6a4520336040518263ffffffff167c010000000000000000000000000000000000000000000000000000000002815260040161178d91906135c1565b602060405180830381600087803b1580156117a757600080fd5b505af11580156117bb573d6000803e3d6000fd5b505050506040513d601f19601f820116820180604052506117df919081019061303c565b15156117ea57600080fd5b7ff19e969be7affb98a1d812094e0f24ecca36f1eabd6dd592c97020d47c64a00e600a8360405161181c929190613664565b60405180910390a181600a908051906020019061183a929190612d24565b505050565b6000816000816fffffffffffffffffffffffffffffffff16111515611899576040517f08c379a0000000000000000000000000000000000000000000000000000000008152600401611890906136db565b60405180910390fd5b6118a1611aca565b816fffffffffffffffffffffffffffffffff16111515156118f7576040517f08c379a00000000000000000000000000000000000000000000000000000000081526004016118ee906136db565b60405180910390fd5b60046000611904856127ff565b6000191660001916815260200190815260200160002060009054906101000a900473ffffffffffffffffffffffffffffffffffffffff16915050919050565b60006001905090565b7fd5111e7c8a683573f8f25f2ebff6b5952f8f46ec279de185b66fa3f1c2bf3d9f333460405161197d9291906135dc565b60405180910390a1565b60008060405180807f636f6d2e6d61726b6574706c6163652e61636c726571756972696e672e61636c815250602001905060405180910390209050805491505090565b6000816000816fffffffffffffffffffffffffffffffff16111515611a24576040517f08c379a0000000000000000000000000000000000000000000000000000000008152600401611a1b906136db565b60405180910390fd5b611a2c611aca565b816fffffffffffffffffffffffffffffffff1611151515611a82576040517f08c379a0000000000000000000000000000000000000000000000000000000008152600401611a79906136db565b60405180910390fd5b60016000611a8f85612911565b6000191660001916815260200190815260200160002060009054906101000a90046fffffffffffffffffffffffffffffffff16915050919050565b6000600c60009054906101000a90046fffffffffffffffffffffffffffffffff166fffffffffffffffffffffffffffffffff16905090565b6060816000816fffffffffffffffffffffffffffffffff16111515611b5c576040517f08c379a0000000000000000000000000000000000000000000000000000000008152600401611b53906136db565b60405180910390fd5b611b64611aca565b816fffffffffffffffffffffffffffffffff1611151515611bba576040517f08c379a0000000000000000000000000000000000000000000000000000000008152600401611bb1906136db565b60405180910390fd5b60036000611bc785612a23565b600019166000191681526020019081526020016000208054600181600116156101000203166002900480601f016020809104026020016040519081016040528092919081815260200182805460018160011615610100020316600290048015611c715780601f10611c4657610100808354040283529160200191611c71565b820191906000526020600020905b815481529060010190602001808311611c5457829003601f168201915b5050505050915050919050565b60008160405160200180807f70726f6475637400000000000000000000000000000000000000000000000000815250600701807f696d616765555249000000000000000000000000000000000000000000000000815250600801826fffffffffffffffffffffffffffffffff166fffffffffffffffffffffffffffffffff167001000000000000000000000000000000000281526010019150506040516020818303038152906040526040518082805190602001908083835b602083101515611d5c5780518252602082019150602081019050602083039250611d37565b6001836020036101000a03801982511681845116808217855250505050505090500191505060405180910390209050919050565b60008160405160200180807f70726f6475637400000000000000000000000000000000000000000000000000815250600701807f6e616d6500000000000000000000000000000000000000000000000000000000815250600401826fffffffffffffffffffffffffffffffff166fffffffffffffffffffffffffffffffff167001000000000000000000000000000000000281526010019150506040516020818303038152906040526040518082805190602001908083835b602083101515611e6e5780518252602082019150602081019050602083039250611e49565b6001836020036101000a03801982511681845116808217855250505050505090500191505060405180910390209050919050565b611eab81611248565b1515611eec576040517f08c379a0000000000000000000000000000000000000000000000000000000008152600401611ee39061369b565b60405180910390fd5b806000015160016000611f028460000151612b35565b6000191660001916815260200190815260200160002060006101000a8154816fffffffffffffffffffffffffffffffff02191690836fffffffffffffffffffffffffffffffff160217905550806020015160026000611f6484600001516126ed565b6000191660001916815260200190815260200160002060006101000a81548167ffffffffffffffff021916908367ffffffffffffffff160217905550806040015160026000611fb6846000015161224f565b6000191660001916815260200190815260200160002060006101000a81548167ffffffffffffffff021916908367ffffffffffffffff1602179055508060600151600460006120088460000151612473565b6000191660001916815260200190815260200160002060006101000a81548173ffffffffffffffffffffffffffffffffffffffff021916908373ffffffffffffffffffffffffffffffffffffffff16021790555080608001516004600061207284600001516127ff565b6000191660001916815260200190815260200160002060006101000a81548173ffffffffffffffffffffffffffffffffffffffff021916908373ffffffffffffffffffffffffffffffffffffffff1602179055508060a00151600360006120dc8460000151611d90565b600019166000191681526020019081526020016000209080519060200190612105929190612d24565b508060c001516003600061211c8460000151612a23565b600019166000191681526020019081526020016000209080519060200190612145929190612d24565b508060e001516003600061215c8460000151611c7e565b600019166000191681526020019081526020016000209080519060200190612185929190612d24565b508061010001516001600061219d8460000151612911565b6000191660001916815260200190815260200160002060006101000a8154816fffffffffffffffffffffffffffffffff02191690836fffffffffffffffffffffffffffffffff160217905550806101200151600160006122008460000151612361565b6000191660001916815260200190815260200160002060006101000a8154816fffffffffffffffffffffffffffffffff02191690836fffffffffffffffffffffffffffffffff16021790555050565b60008160405160200180807f70726f6475637400000000000000000000000000000000000000000000000000815250600701807f7570646174656441740000000000000000000000000000000000000000000000815250600901826fffffffffffffffffffffffffffffffff166fffffffffffffffffffffffffffffffff167001000000000000000000000000000000000281526010019150506040516020818303038152906040526040518082805190602001908083835b60208310151561232d5780518252602082019150602081019050602083039250612308565b6001836020036101000a03801982511681845116808217855250505050505090500191505060405180910390209050919050565b60008160405160200180807f70726f6475637400000000000000000000000000000000000000000000000000815250600701807f696e76656e746f72790000000000000000000000000000000000000000000000815250600901826fffffffffffffffffffffffffffffffff166fffffffffffffffffffffffffffffffff167001000000000000000000000000000000000281526010019150506040516020818303038152906040526040518082805190602001908083835b60208310151561243f578051825260208201915060208101905060208303925061241a565b6001836020036101000a03801982511681845116808217855250505050505090500191505060405180910390209050919050565b60008160405160200180807f70726f6475637400000000000000000000000000000000000000000000000000815250600701807f6372656174656442790000000000000000000000000000000000000000000000815250600901826fffffffffffffffffffffffffffffffff166fffffffffffffffffffffffffffffffff167001000000000000000000000000000000000281526010019150506040516020818303038152906040526040518082805190602001908083835b602083101515612551578051825260208201915060208101905060208303925061252c565b6001836020036101000a03801982511681845116808217855250505050505090500191505060405180910390209050919050565b600061259082612c47565b15156125d1576040517f08c379a00000000000000000000000000000000000000000000000000000000081526004016125c8906136bb565b60405180910390fd5b8173ffffffffffffffffffffffffffffffffffffffff1663a8218cd36040518163ffffffff167c0100000000000000000000000000000000000000000000000000000000028152600401602060405180830381600087803b15801561263557600080fd5b505af1158015612649573d6000803e3d6000fd5b505050506040513d601f19601f8201168201806040525061266d919081019061303c565b15156126ae576040517f08c379a00000000000000000000000000000000000000000000000000000000081526004016126a59061371b565b60405180910390fd5b60405180807f636f6d2e6d61726b6574706c6163652e61636c726571756972696e672e61636c8152506020019050604051809103902090508181555050565b60008160405160200180807f70726f6475637400000000000000000000000000000000000000000000000000815250600701807f6372656174656441740000000000000000000000000000000000000000000000815250600901826fffffffffffffffffffffffffffffffff166fffffffffffffffffffffffffffffffff167001000000000000000000000000000000000281526010019150506040516020818303038152906040526040518082805190602001908083835b6020831015156127cb57805182526020820191506020810190506020830392506127a6565b6001836020036101000a03801982511681845116808217855250505050505090500191505060405180910390209050919050565b60008160405160200180807f70726f6475637400000000000000000000000000000000000000000000000000815250600701807f7570646174656442790000000000000000000000000000000000000000000000815250600901826fffffffffffffffffffffffffffffffff166fffffffffffffffffffffffffffffffff167001000000000000000000000000000000000281526010019150506040516020818303038152906040526040518082805190602001908083835b6020831015156128dd57805182526020820191506020810190506020830392506128b8565b6001836020036101000a03801982511681845116808217855250505050505090500191505060405180910390209050919050565b60008160405160200180807f70726f6475637400000000000000000000000000000000000000000000000000815250600701807f7072696365000000000000000000000000000000000000000000000000000000815250600501826fffffffffffffffffffffffffffffffff166fffffffffffffffffffffffffffffffff167001000000000000000000000000000000000281526010019150506040516020818303038152906040526040518082805190602001908083835b6020831015156129ef57805182526020820191506020810190506020830392506129ca565b6001836020036101000a03801982511681845116808217855250505050505090500191505060405180910390209050919050565b60008160405160200180807f70726f6475637400000000000000000000000000000000000000000000000000815250600701807f6465736372697074696f6e000000000000000000000000000000000000000000815250600b01826fffffffffffffffffffffffffffffffff166fffffffffffffffffffffffffffffffff167001000000000000000000000000000000000281526010019150506040516020818303038152906040526040518082805190602001908083835b602083101515612b015780518252602082019150602081019050602083039250612adc565b6001836020036101000a03801982511681845116808217855250505050505090500191505060405180910390209050919050565b60008160405160200180807f70726f6475637400000000000000000000000000000000000000000000000000815250600701807f6964000000000000000000000000000000000000000000000000000000000000815250600201826fffffffffffffffffffffffffffffffff166fffffffffffffffffffffffffffffffff167001000000000000000000000000000000000281526010019150506040516020818303038152906040526040518082805190602001908083835b602083101515612c135780518252602082019150602081019050602083039250612bee565b6001836020036101000a03801982511681845116808217855250505050505090500191505060405180910390209050919050565b600080823b905060008111915050919050565b6101406040519081016040528060006fffffffffffffffffffffffffffffffff168152602001600067ffffffffffffffff168152602001600067ffffffffffffffff168152602001600073ffffffffffffffffffffffffffffffffffffffff168152602001600073ffffffffffffffffffffffffffffffffffffffff16815260200160608152602001606081526020016060815260200160006fffffffffffffffffffffffffffffffff16815260200160006fffffffffffffffffffffffffffffffff1681525090565b828054600181600116156101000203166002900490600052602060002090601f016020900481019282601f10612d6557805160ff1916838001178555612d93565b82800160010185558215612d93579182015b82811115612d92578251825591602001919060010190612d77565b5b509050612da09190612da4565b5090565b612dc691905b80821115612dc2576000816000905550600101612daa565b5090565b90565b6000612dd58235613925565b905092915050565b6000612de98251613945565b905092915050565b600082601f8301121515612e0457600080fd5b8135612e17612e1282613826565b6137f9565b91508082526020830160208301858383011115612e3357600080fd5b612e3e83828461398f565b50505092915050565b600082601f8301121515612e5a57600080fd5b8135612e6d612e6882613852565b6137f9565b91508082526020830160208301858383011115612e8957600080fd5b612e9483828461398f565b50505092915050565b60006101408284031215612eb057600080fd5b612ebb6101406137f9565b90506000612ecb84828501612fd7565b6000830152506020612edf84828501612fff565b6020830152506040612ef384828501612fff565b6040830152506060612f0784828501612dc9565b6060830152506080612f1b84828501612dc9565b60808301525060a082013567ffffffffffffffff811115612f3b57600080fd5b612f4784828501612df1565b60a08301525060c082013567ffffffffffffffff811115612f6757600080fd5b612f7384828501612df1565b60c08301525060e082013567ffffffffffffffff811115612f9357600080fd5b612f9f84828501612df1565b60e083015250610100612fb484828501612fd7565b61010083015250610120612fca84828501612fd7565b6101208301525092915050565b6000612fe38235613951565b905092915050565b6000612ff7825161396d565b905092915050565b600061300b823561397b565b905092915050565b60006020828403121561302557600080fd5b600061303384828501612dc9565b91505092915050565b60006020828403121561304e57600080fd5b600061305c84828501612ddd565b91505092915050565b60006020828403121561307757600080fd5b600082013567ffffffffffffffff81111561309157600080fd5b61309d84828501612e47565b91505092915050565b600080600080600060a086880312156130be57600080fd5b600086013567ffffffffffffffff8111156130d857600080fd5b6130e488828901612e47565b955050602086013567ffffffffffffffff81111561310157600080fd5b61310d88828901612e47565b945050604086013567ffffffffffffffff81111561312a57600080fd5b61313688828901612e47565b935050606061314788828901612fd7565b925050608061315888828901612fd7565b9150509295509295909350565b60006020828403121561317757600080fd5b600082013567ffffffffffffffff81111561319157600080fd5b61319d84828501612e9d565b91505092915050565b6000602082840312156131b857600080fd5b60006131c684828501612fd7565b91505092915050565b6000602082840312156131e157600080fd5b60006131ef84828501612feb565b91505092915050565b613201816138b1565b82525050565b613210816138d1565b82525050565b600061322182613890565b80845261323581602086016020860161399e565b61323e816139d1565b602085010191505092915050565b6000613257826138a6565b80845261326b81602086016020860161399e565b613274816139d1565b602085010191505092915050565b600061328d8261389b565b8084526132a181602086016020860161399e565b6132aa816139d1565b602085010191505092915050565b6000815460018116600081146132d557600181146132f557613336565b607f600283041680865260ff198316602087015260408601935050613336565b6002820480865260208601955061330b8561387e565b60005b8281101561332d5781548189015260018201915060208101905061330e565b80880195505050505b505092915050565b6000601882527f50726f64756374206d6f64656c20697320696e76616c696400000000000000006020830152604082019050919050565b6000602182527f4e65772041434c2061646472657373206973206e6f74206120636f6e7472616360208301527f74000000000000000000000000000000000000000000000000000000000000006040830152606082019050919050565b6000600a82527f496e76616c6964204964000000000000000000000000000000000000000000006020830152604082019050919050565b6000601e82527f4e6f20617661696c61626c652066756e647320746f20776974686472617700006020830152604082019050919050565b6000603282527f4e65772041434c206164647265737320646f6573206e6f7420636f6e666f726d60208301527f20746f204941434c20696e7465726661636500000000000000000000000000006040830152606082019050919050565b6000610140830160008301516134b66000860182613585565b5060208301516134c960208601826135b2565b5060408301516134dc60408601826135b2565b5060608301516134ef60608601826131f8565b50608083015161350260808601826131f8565b5060a083015184820360a086015261351a8282613282565b91505060c083015184820360c08601526135348282613282565b91505060e083015184820360e086015261354e8282613282565b915050610100830151613565610100860182613585565b5061012083015161357a610120860182613585565b508091505092915050565b61358e816138dd565b82525050565b61359d816138f9565b82525050565b6135ac81613907565b82525050565b6135bb81613911565b82525050565b60006020820190506135d660008301846131f8565b92915050565b60006040820190506135f160008301856131f8565b6135fe60208301846135a3565b9392505050565b600060208201905061361a6000830184613207565b92915050565b6000602082019050818103600083015261363a8184613216565b905092915050565b6000602082019050818103600083015261365c818461324c565b905092915050565b6000604082019050818103600083015261367e81856132b8565b90508181036020830152613692818461324c565b90509392505050565b600060208201905081810360008301526136b48161333e565b9050919050565b600060208201905081810360008301526136d481613375565b9050919050565b600060208201905081810360008301526136f4816133d2565b9050919050565b6000602082019050818103600083015261371481613409565b9050919050565b6000602082019050818103600083015261373481613440565b9050919050565b60006020820190508181036000830152613755818461349d565b905092915050565b60006020820190506137726000830184613585565b92915050565b600060208201905061378d6000830184613594565b92915050565b60006040820190506137a86000830185613594565b81810360208301526137ba8184613216565b90509392505050565b60006020820190506137d860008301846135a3565b92915050565b60006020820190506137f360008301846135b2565b92915050565b6000604051905081810181811067ffffffffffffffff8211171561381c57600080fd5b8060405250919050565b600067ffffffffffffffff82111561383d57600080fd5b601f19601f8301169050602081019050919050565b600067ffffffffffffffff82111561386957600080fd5b601f19601f8301169050602081019050919050565b60008160005260206000209050919050565b600081519050919050565b600081519050919050565b600081519050919050565b600073ffffffffffffffffffffffffffffffffffffffff82169050919050565b60008115159050919050565b60006fffffffffffffffffffffffffffffffff82169050919050565b600061ffff82169050919050565b6000819050919050565b600067ffffffffffffffff82169050919050565b600073ffffffffffffffffffffffffffffffffffffffff82169050919050565b60008115159050919050565b60006fffffffffffffffffffffffffffffffff82169050919050565b600061ffff82169050919050565b600067ffffffffffffffff82169050919050565b82818337600083830152505050565b60005b838110156139bc5780820151818401526020810190506139a1565b838111156139cb576000848401525b50505050565b6000601f19601f83011690509190505600a265627a7a72305820aec0d7f1019d37ca1ba2b59481a038023dff5e8e3653869fb8392fde65c571436c6578706572696d656e74616cf50037",
  "source": "pragma solidity ^0.4.23;\npragma experimental ABIEncoderV2;\n\nimport \"../store/ProductStoreV1.sol\";\n\n/**\n* @title MockProductStore\n* @dev Mock contract used for ProductStoreV1 tests\n*/\ncontract MockProductStoreV1 is ProductStoreV1 {\n\n  /**\n  * @dev Constructor function\n  * @param _aclAddress Address of ACL contract\n  */\n  constructor(address _aclAddress) ProductStoreV1(_aclAddress) public { }\n\n  /**\n  * @dev DepositedFunds is emited every time a deposit is made\n  * @param _sender Address of sender that performed the deposit\n  * @param _amount Amount deposited\n  */\n  event DepositedFunds(address _sender, uint256 _amount);\n\n  /**\n  * @dev Accepts a value deposit and emits an event\n  */\n  function deposit() public payable {\n    emit DepositedFunds(msg.sender, msg.value);\n  }\n\n}",
  "sourcePath": "/Users/matias/Projects/consensys/eth-marketplace/contracts/mocks/MockProductStoreV1.sol",
  "compiler": {
    "name": "solc",
    "version": "0.4.24+commit.e67f0147.Emscripten.clang"
  },
  "schemaVersion": "2.0.1",
  "updatedAt": "2018-08-27T21:49:03.327Z"
}