{
  "contractName": "MockProductStoreV1",
  "abi": [
    {
      "constant": true,
      "inputs": [],
      "name": "name",
      "outputs": [
        {
          "name": "",
          "type": "string"
        }
      ],
      "payable": false,
      "stateMutability": "view",
      "type": "function"
    },
    {
      "constant": true,
      "inputs": [
        {
          "name": "_id",
          "type": "uint128"
        }
      ],
      "name": "getImageURI",
      "outputs": [
        {
          "name": "",
          "type": "string"
        }
      ],
      "payable": false,
      "stateMutability": "view",
      "type": "function"
    },
    {
      "constant": false,
      "inputs": [],
      "name": "withdrawFunds",
      "outputs": [],
      "payable": false,
      "stateMutability": "nonpayable",
      "type": "function"
    },
    {
      "constant": true,
      "inputs": [
        {
          "components": [
            {
              "name": "id",
              "type": "uint128"
            },
            {
              "name": "createdAt",
              "type": "uint64"
            },
            {
              "name": "updatedAt",
              "type": "uint64"
            },
            {
              "name": "createdBy",
              "type": "address"
            },
            {
              "name": "updatedBy",
              "type": "address"
            },
            {
              "name": "name",
              "type": "string"
            },
            {
              "name": "description",
              "type": "string"
            },
            {
              "name": "imageURI",
              "type": "string"
            },
            {
              "name": "price",
              "type": "uint128"
            },
            {
              "name": "inventory",
              "type": "uint128"
            }
          ],
          "name": "_product",
          "type": "tuple"
        }
      ],
      "name": "abiEncode",
      "outputs": [
        {
          "name": "",
          "type": "bytes"
        }
      ],
      "payable": false,
      "stateMutability": "pure",
      "type": "function"
    },
    {
      "constant": true,
      "inputs": [
        {
          "name": "_id",
          "type": "uint128"
        }
      ],
      "name": "getName",
      "outputs": [
        {
          "name": "",
          "type": "string"
        }
      ],
      "payable": false,
      "stateMutability": "view",
      "type": "function"
    },
    {
      "constant": false,
      "inputs": [
        {
          "name": "__name",
          "type": "string"
        },
        {
          "name": "__description",
          "type": "string"
        },
        {
          "name": "__imageURI",
          "type": "string"
        },
        {
          "name": "__price",
          "type": "uint128"
        },
        {
          "name": "__inventory",
          "type": "uint128"
        }
      ],
      "name": "addProduct",
      "outputs": [
        {
          "name": "",
          "type": "uint128"
        }
      ],
      "payable": false,
      "stateMutability": "nonpayable",
      "type": "function"
    },
    {
      "constant": true,
      "inputs": [],
      "name": "version",
      "outputs": [
        {
          "name": "",
          "type": "uint16"
        }
      ],
      "payable": false,
      "stateMutability": "pure",
      "type": "function"
    },
    {
      "constant": true,
      "inputs": [
        {
          "name": "_id",
          "type": "uint128"
        }
      ],
      "name": "getUpdatedAt",
      "outputs": [
        {
          "name": "",
          "type": "uint64"
        }
      ],
      "payable": false,
      "stateMutability": "view",
      "type": "function"
    },
    {
      "constant": true,
      "inputs": [
        {
          "name": "_id",
          "type": "uint128"
        }
      ],
      "name": "getInventory",
      "outputs": [
        {
          "name": "",
          "type": "uint128"
        }
      ],
      "payable": false,
      "stateMutability": "view",
      "type": "function"
    },
    {
      "constant": true,
      "inputs": [
        {
          "name": "_id",
          "type": "uint128"
        }
      ],
      "name": "getCreatedBy",
      "outputs": [
        {
          "name": "",
          "type": "address"
        }
      ],
      "payable": false,
      "stateMutability": "view",
      "type": "function"
    },
    {
      "constant": true,
      "inputs": [],
      "name": "logoURI",
      "outputs": [
        {
          "name": "",
          "type": "string"
        }
      ],
      "payable": false,
      "stateMutability": "view",
      "type": "function"
    },
    {
      "constant": false,
      "inputs": [],
      "name": "renounceOwnership",
      "outputs": [],
      "payable": false,
      "stateMutability": "nonpayable",
      "type": "function"
    },
    {
      "constant": true,
      "inputs": [
        {
          "components": [
            {
              "name": "id",
              "type": "uint128"
            },
            {
              "name": "createdAt",
              "type": "uint64"
            },
            {
              "name": "updatedAt",
              "type": "uint64"
            },
            {
              "name": "createdBy",
              "type": "address"
            },
            {
              "name": "updatedBy",
              "type": "address"
            },
            {
              "name": "name",
              "type": "string"
            },
            {
              "name": "description",
              "type": "string"
            },
            {
              "name": "imageURI",
              "type": "string"
            },
            {
              "name": "price",
              "type": "uint128"
            },
            {
              "name": "inventory",
              "type": "uint128"
            }
          ],
          "name": "_product",
          "type": "tuple"
        }
      ],
      "name": "isValid",
      "outputs": [
        {
          "name": "",
          "type": "bool"
        }
      ],
      "payable": false,
      "stateMutability": "pure",
      "type": "function"
    },
    {
      "constant": true,
      "inputs": [],
      "name": "owner",
      "outputs": [
        {
          "name": "_owner",
          "type": "address"
        }
      ],
      "payable": false,
      "stateMutability": "view",
      "type": "function"
    },
    {
      "constant": true,
      "inputs": [
        {
          "name": "_id",
          "type": "uint128"
        }
      ],
      "name": "getCreatedAt",
      "outputs": [
        {
          "name": "",
          "type": "uint64"
        }
      ],
      "payable": false,
      "stateMutability": "view",
      "type": "function"
    },
    {
      "constant": true,
      "inputs": [],
      "name": "isEternalStorage",
      "outputs": [
        {
          "name": "",
          "type": "bool"
        }
      ],
      "payable": false,
      "stateMutability": "pure",
      "type": "function"
    },
    {
      "constant": true,
      "inputs": [],
      "name": "ownableDelegate",
      "outputs": [
        {
          "name": "_ownableDelegate",
          "type": "address"
        }
      ],
      "payable": false,
      "stateMutability": "view",
      "type": "function"
    },
    {
      "constant": false,
      "inputs": [
        {
          "name": "__logoURI",
          "type": "string"
        }
      ],
      "name": "setLogoURI",
      "outputs": [],
      "payable": false,
      "stateMutability": "nonpayable",
      "type": "function"
    },
    {
      "constant": false,
      "inputs": [
        {
          "name": "__name",
          "type": "string"
        }
      ],
      "name": "setName",
      "outputs": [],
      "payable": false,
      "stateMutability": "nonpayable",
      "type": "function"
    },
    {
      "constant": true,
      "inputs": [
        {
          "name": "_id",
          "type": "uint128"
        }
      ],
      "name": "getUpdatedBy",
      "outputs": [
        {
          "name": "",
          "type": "address"
        }
      ],
      "payable": false,
      "stateMutability": "view",
      "type": "function"
    },
    {
      "constant": true,
      "inputs": [],
      "name": "isProductStore",
      "outputs": [
        {
          "name": "",
          "type": "bool"
        }
      ],
      "payable": false,
      "stateMutability": "pure",
      "type": "function"
    },
    {
      "constant": true,
      "inputs": [
        {
          "name": "_id",
          "type": "uint128"
        }
      ],
      "name": "getPrice",
      "outputs": [
        {
          "name": "",
          "type": "uint128"
        }
      ],
      "payable": false,
      "stateMutability": "view",
      "type": "function"
    },
    {
      "constant": true,
      "inputs": [],
      "name": "productCount",
      "outputs": [
        {
          "name": "",
          "type": "uint256"
        }
      ],
      "payable": false,
      "stateMutability": "view",
      "type": "function"
    },
    {
      "constant": true,
      "inputs": [
        {
          "name": "_id",
          "type": "uint128"
        }
      ],
      "name": "getDescription",
      "outputs": [
        {
          "name": "",
          "type": "string"
        }
      ],
      "payable": false,
      "stateMutability": "view",
      "type": "function"
    },
    {
      "constant": false,
      "inputs": [
        {
          "name": "_ownableDelegate",
          "type": "address"
        }
      ],
      "name": "setOwnableDelegate",
      "outputs": [],
      "payable": false,
      "stateMutability": "nonpayable",
      "type": "function"
    },
    {
      "constant": false,
      "inputs": [
        {
          "name": "_newOwner",
          "type": "address"
        }
      ],
      "name": "transferOwnership",
      "outputs": [],
      "payable": false,
      "stateMutability": "nonpayable",
      "type": "function"
    },
    {
      "inputs": [],
      "payable": false,
      "stateMutability": "nonpayable",
      "type": "constructor"
    },
    {
      "anonymous": false,
      "inputs": [
        {
          "indexed": false,
          "name": "_sender",
          "type": "address"
        },
        {
          "indexed": false,
          "name": "_amount",
          "type": "uint256"
        }
      ],
      "name": "DepositedFunds",
      "type": "event"
    },
    {
      "anonymous": false,
      "inputs": [
        {
          "indexed": true,
          "name": "_id",
          "type": "uint128"
        },
        {
          "indexed": true,
          "name": "_updatedAt",
          "type": "uint64"
        },
        {
          "indexed": true,
          "name": "_updatedBy",
          "type": "address"
        },
        {
          "indexed": false,
          "name": "_modelVersion",
          "type": "uint16"
        },
        {
          "indexed": false,
          "name": "_data",
          "type": "bytes"
        }
      ],
      "name": "ArticleUpdated",
      "type": "event"
    },
    {
      "anonymous": false,
      "inputs": [
        {
          "indexed": false,
          "name": "_oldName",
          "type": "string"
        },
        {
          "indexed": false,
          "name": "_newName",
          "type": "string"
        }
      ],
      "name": "NameUpdated",
      "type": "event"
    },
    {
      "anonymous": false,
      "inputs": [
        {
          "indexed": false,
          "name": "_oldLogoURI",
          "type": "string"
        },
        {
          "indexed": false,
          "name": "_newLogoURI",
          "type": "string"
        }
      ],
      "name": "LogoUpdated",
      "type": "event"
    },
    {
      "anonymous": false,
      "inputs": [
        {
          "indexed": true,
          "name": "_payee",
          "type": "address"
        },
        {
          "indexed": true,
          "name": "_amount",
          "type": "uint256"
        }
      ],
      "name": "FundsWithdrawn",
      "type": "event"
    },
    {
      "anonymous": false,
      "inputs": [
        {
          "indexed": true,
          "name": "_previousOwner",
          "type": "address"
        }
      ],
      "name": "OwnershipRenounced",
      "type": "event"
    },
    {
      "anonymous": false,
      "inputs": [
        {
          "indexed": true,
          "name": "_oldAddress",
          "type": "address"
        },
        {
          "indexed": true,
          "name": "_newAddress",
          "type": "address"
        }
      ],
      "name": "OwnershipTransferred",
      "type": "event"
    },
    {
      "constant": false,
      "inputs": [],
      "name": "deposit",
      "outputs": [],
      "payable": true,
      "stateMutability": "payable",
      "type": "function"
    }
  ],
  "bytecode": "0x60806040523480156200001157600080fd5b506200002c3362000032640100000000026401000000009004565b62000099565b600060405180807f636f6d2e6d61726b6574706c6163652e6f776e61626c656d616e616765722e6f81526020017f776e6572000000000000000000000000000000000000000000000000000000008152506024019050604051809103902090508181555050565b6139e080620000a96000396000f30060806040526004361061015f576000357c0100000000000000000000000000000000000000000000000000000000900463ffffffff16806306fdde03146101645780630744f0c11461018f57806324600fc3146101cc57806326d5e4d2146101e35780632b64d441146102205780632b91a7011461025d57806354fd4d501461029a5780635a610f3f146102c55780635d834a0114610302578063646253a21461033f5780636bb38b281461037c578063715018a6146103a7578063840f4a64146103be5780638da5cb5b146103fb57806398df654314610426578063b1a6909a14610463578063bd3e65df1461048e578063c30ff6df146104b9578063c47f0027146104e2578063c6ebfe9d1461050b578063cdbdb0a514610548578063d0e30db014610573578063de3572b41461057d578063e0f6ef87146105ba578063e131010c146105e5578063f195905b14610622578063f2fde38b1461064b575b600080fd5b34801561017057600080fd5b50610179610674565b6040516101869190613646565b60405180910390f35b34801561019b57600080fd5b506101b660048036036101b1919081019061322d565b610716565b6040516101c39190613646565b60405180910390f35b3480156101d857600080fd5b506101e1610892565b005b3480156101ef57600080fd5b5061020a600480360361020591908101906131ec565b6109c7565b6040516102179190613624565b60405180910390f35b34801561022c57600080fd5b506102476004803603610242919081019061322d565b6109f0565b6040516102549190613646565b60405180910390f35b34801561026957600080fd5b50610284600480360361027f919081019061312d565b610b6c565b6040516102919190613721565b60405180910390f35b3480156102a657600080fd5b506102af610e31565b6040516102bc919061373c565b60405180910390f35b3480156102d157600080fd5b506102ec60048036036102e7919081019061322d565b610e3a565b6040516102f991906137a2565b60405180910390f35b34801561030e57600080fd5b506103296004803603610324919081019061322d565b610f32565b6040516103369190613721565b60405180910390f35b34801561034b57600080fd5b506103666004803603610361919081019061322d565b611032565b604051610373919061358e565b60405180910390f35b34801561038857600080fd5b50610391611136565b60405161039e9190613646565b60405180910390f35b3480156103b357600080fd5b506103bc6111d8565b005b3480156103ca57600080fd5b506103e560048036036103e091908101906131ec565b61128b565b6040516103f29190613609565b60405180910390f35b34801561040757600080fd5b506104106113b3565b60405161041d919061358e565b60405180910390f35b34801561043257600080fd5b5061044d6004803603610448919081019061322d565b61141c565b60405161045a91906137a2565b60405180910390f35b34801561046f57600080fd5b50610478611514565b6040516104859190613609565b60405180910390f35b34801561049a57600080fd5b506104a361151d565b6040516104b0919061358e565b60405180910390f35b3480156104c557600080fd5b506104e060048036036104db91908101906130ec565b611586565b005b3480156104ee57600080fd5b50610509600480360361050491908101906130ec565b61161b565b005b34801561051757600080fd5b50610532600480360361052d919081019061322d565b6116b0565b60405161053f919061358e565b60405180910390f35b34801561055457600080fd5b5061055d6117b4565b60405161056a9190613609565b60405180910390f35b61057b6117bd565b005b34801561058957600080fd5b506105a4600480360361059f919081019061322d565b6117f8565b6040516105b19190613721565b60405180910390f35b3480156105c657600080fd5b506105cf6118f8565b6040516105dc9190613787565b60405180910390f35b3480156105f157600080fd5b5061060c6004803603610607919081019061322d565b611930565b6040516106199190613646565b60405180910390f35b34801561062e57600080fd5b506106496004803603610644919081019061309a565b611aac565b005b34801561065757600080fd5b50610672600480360361066d919081019061309a565b611bd7565b005b6060600a8054600181600116156101000203166002900480601f01602080910402602001604051908101604052809291908181526020018280546001816001161561010002031660029004801561070c5780601f106106e15761010080835404028352916020019161070c565b820191906000526020600020905b8154815290600101906020018083116106ef57829003601f168201915b5050505050905090565b6060816000816fffffffffffffffffffffffffffffffff16111515610770576040517f08c379a0000000000000000000000000000000000000000000000000000000008152600401610767906136bf565b60405180910390fd5b6107786118f8565b816fffffffffffffffffffffffffffffffff16111515156107ce576040517f08c379a00000000000000000000000000000000000000000000000000000000081526004016107c5906136bf565b60405180910390fd5b600360006107db85611c24565b600019166000191681526020019081526020016000208054600181600116156101000203166002900480601f0160208091040260200160405190810160405280929190818152602001828054600181600116156101000203166002900480156108855780601f1061085a57610100808354040283529160200191610885565b820191906000526020600020905b81548152906001019060200180831161086857829003601f168201915b5050505050915050919050565b60008061089d6113b3565b73ffffffffffffffffffffffffffffffffffffffff163373ffffffffffffffffffffffffffffffffffffffff161415156108d657600080fd5b3391503073ffffffffffffffffffffffffffffffffffffffff16319050600081111515610938576040517f08c379a000000000000000000000000000000000000000000000000000000000815260040161092f906136df565b60405180910390fd5b8173ffffffffffffffffffffffffffffffffffffffff166108fc829081150290604051600060405180830381858888f1935050505015801561097e573d6000803e3d6000fd5b50808273ffffffffffffffffffffffffffffffffffffffff167feaff4b37086828766ad3268786972c0cd24259d4c87a80f9d3963a3c3d999b0d60405160405180910390a35050565b6060816040516020016109da91906136ff565b6040516020818303038152906040529050919050565b6060816000816fffffffffffffffffffffffffffffffff16111515610a4a576040517f08c379a0000000000000000000000000000000000000000000000000000000008152600401610a41906136bf565b60405180910390fd5b610a526118f8565b816fffffffffffffffffffffffffffffffff1611151515610aa8576040517f08c379a0000000000000000000000000000000000000000000000000000000008152600401610a9f906136bf565b60405180910390fd5b60036000610ab585611d36565b600019166000191681526020019081526020016000208054600181600116156101000203166002900480601f016020809104026020016040519081016040528092919081815260200182805460018160011615610100020316600290048015610b5f5780601f10610b3457610100808354040283529160200191610b5f565b820191906000526020600020905b815481529060010190602001808311610b4257829003601f168201915b5050505050915050919050565b6000806000610b79612ce1565b610b816113b3565b73ffffffffffffffffffffffffffffffffffffffff163373ffffffffffffffffffffffffffffffffffffffff16141515610bba57600080fd5b6001600c60009054906101000a90046fffffffffffffffffffffffffffffffff1601925042915061014060405190810160405280846fffffffffffffffffffffffffffffffff1681526020018367ffffffffffffffff1681526020018367ffffffffffffffff1681526020013373ffffffffffffffffffffffffffffffffffffffff1681526020013373ffffffffffffffffffffffffffffffffffffffff1681526020018a8152602001898152602001888152602001876fffffffffffffffffffffffffffffffff168152602001866fffffffffffffffffffffffffffffffff168152509050610ca981611e48565b600c600081819054906101000a90046fffffffffffffffffffffffffffffffff168092919060010191906101000a8154816fffffffffffffffffffffffffffffffff02191690836fffffffffffffffffffffffffffffffff16021790555050806080015173ffffffffffffffffffffffffffffffffffffffff16816040015167ffffffffffffffff1682600001516fffffffffffffffffffffffffffffffff167f24b910cee83acebdf0e3c0e4c00d70907a15d2e792ea13e69f4ea9588bf1d5be3073ffffffffffffffffffffffffffffffffffffffff166354fd4d506040518163ffffffff167c0100000000000000000000000000000000000000000000000000000000028152600401602060405180830381600087803b158015610dce57600080fd5b505af1158015610de2573d6000803e3d6000fd5b505050506040513d601f19601f82011682018060405250610e069190810190613256565b610e0f866109c7565b604051610e1d929190613757565b60405180910390a450505095945050505050565b60006001905090565b6000816000816fffffffffffffffffffffffffffffffff16111515610e94576040517f08c379a0000000000000000000000000000000000000000000000000000000008152600401610e8b906136bf565b60405180910390fd5b610e9c6118f8565b816fffffffffffffffffffffffffffffffff1611151515610ef2576040517f08c379a0000000000000000000000000000000000000000000000000000000008152600401610ee9906136bf565b60405180910390fd5b60026000610eff856121f5565b6000191660001916815260200190815260200160002060009054906101000a900467ffffffffffffffff16915050919050565b6000816000816fffffffffffffffffffffffffffffffff16111515610f8c576040517f08c379a0000000000000000000000000000000000000000000000000000000008152600401610f83906136bf565b60405180910390fd5b610f946118f8565b816fffffffffffffffffffffffffffffffff1611151515610fea576040517f08c379a0000000000000000000000000000000000000000000000000000000008152600401610fe1906136bf565b60405180910390fd5b60016000610ff785612307565b6000191660001916815260200190815260200160002060009054906101000a90046fffffffffffffffffffffffffffffffff16915050919050565b6000816000816fffffffffffffffffffffffffffffffff1611151561108c576040517f08c379a0000000000000000000000000000000000000000000000000000000008152600401611083906136bf565b60405180910390fd5b6110946118f8565b816fffffffffffffffffffffffffffffffff16111515156110ea576040517f08c379a00000000000000000000000000000000000000000000000000000000081526004016110e1906136bf565b60405180910390fd5b600460006110f785612419565b6000191660001916815260200190815260200160002060009054906101000a900473ffffffffffffffffffffffffffffffffffffffff16915050919050565b6060600b8054600181600116156101000203166002900480601f0160208091040260200160405190810160405280929190818152602001828054600181600116156101000203166002900480156111ce5780601f106111a3576101008083540402835291602001916111ce565b820191906000526020600020905b8154815290600101906020018083116111b157829003601f168201915b5050505050905090565b6111e06113b3565b73ffffffffffffffffffffffffffffffffffffffff163373ffffffffffffffffffffffffffffffffffffffff1614151561121957600080fd5b6112216113b3565b73ffffffffffffffffffffffffffffffffffffffff167ff8df31144d9c2f0f6b59d69b8b98abd5459d07f2742c4df920b25aae33c6482060405160405180910390a261127561126e6113b3565b600061252b565b61127f60006125ff565b6112896000612666565b565b60008082600001516fffffffffffffffffffffffffffffffff161115156112b557600090506113ae565b6000826020015167ffffffffffffffff161115156112d657600090506113ae565b6000826040015167ffffffffffffffff161115156112f757600090506113ae565b600073ffffffffffffffffffffffffffffffffffffffff16826060015173ffffffffffffffffffffffffffffffffffffffff16141561133957600090506113ae565b600073ffffffffffffffffffffffffffffffffffffffff16826080015173ffffffffffffffffffffffffffffffffffffffff16141561137b57600090506113ae565b60008260a0015151141561139257600090506113ae565b60008260c001515114156113a957600090506113ae565b600190505b919050565b60008060405180807f636f6d2e6d61726b6574706c6163652e6f776e61626c656d616e616765722e6f81526020017f776e657200000000000000000000000000000000000000000000000000000000815250602401905060405180910390209050805491505090565b6000816000816fffffffffffffffffffffffffffffffff16111515611476576040517f08c379a000000000000000000000000000000000000000000000000000000000815260040161146d906136bf565b60405180910390fd5b61147e6118f8565b816fffffffffffffffffffffffffffffffff16111515156114d4576040517f08c379a00000000000000000000000000000000000000000000000000000000081526004016114cb906136bf565b60405180910390fd5b600260006114e1856126cd565b6000191660001916815260200190815260200160002060009054906101000a900467ffffffffffffffff16915050919050565b60006001905090565b60008060405180807f636f6d2e6d61726b6574706c6163652e6f776e61626c656d616e616765722e6f81526020017f776e61626c6544656c6567617465000000000000000000000000000000000000815250602e01905060405180910390209050805491505090565b61158e6113b3565b73ffffffffffffffffffffffffffffffffffffffff163373ffffffffffffffffffffffffffffffffffffffff161415156115c757600080fd5b7f3fd06971a1669386f272c36c0f88736dafb25abdc400efb23ff7cc61c8d563b0600b826040516115f9929190613668565b60405180910390a180600b9080519060200190611617929190612dab565b5050565b6116236113b3565b73ffffffffffffffffffffffffffffffffffffffff163373ffffffffffffffffffffffffffffffffffffffff1614151561165c57600080fd5b7ff19e969be7affb98a1d812094e0f24ecca36f1eabd6dd592c97020d47c64a00e600a8260405161168e929190613668565b60405180910390a180600a90805190602001906116ac929190612dab565b5050565b6000816000816fffffffffffffffffffffffffffffffff1611151561170a576040517f08c379a0000000000000000000000000000000000000000000000000000000008152600401611701906136bf565b60405180910390fd5b6117126118f8565b816fffffffffffffffffffffffffffffffff1611151515611768576040517f08c379a000000000000000000000000000000000000000000000000000000000815260040161175f906136bf565b60405180910390fd5b60046000611775856127df565b6000191660001916815260200190815260200160002060009054906101000a900473ffffffffffffffffffffffffffffffffffffffff16915050919050565b60006001905090565b7fd5111e7c8a683573f8f25f2ebff6b5952f8f46ec279de185b66fa3f1c2bf3d9f33346040516117ee9291906135e0565b60405180910390a1565b6000816000816fffffffffffffffffffffffffffffffff16111515611852576040517f08c379a0000000000000000000000000000000000000000000000000000000008152600401611849906136bf565b60405180910390fd5b61185a6118f8565b816fffffffffffffffffffffffffffffffff16111515156118b0576040517f08c379a00000000000000000000000000000000000000000000000000000000081526004016118a7906136bf565b60405180910390fd5b600160006118bd856128f1565b6000191660001916815260200190815260200160002060009054906101000a90046fffffffffffffffffffffffffffffffff16915050919050565b6000600c60009054906101000a90046fffffffffffffffffffffffffffffffff166fffffffffffffffffffffffffffffffff16905090565b6060816000816fffffffffffffffffffffffffffffffff1611151561198a576040517f08c379a0000000000000000000000000000000000000000000000000000000008152600401611981906136bf565b60405180910390fd5b6119926118f8565b816fffffffffffffffffffffffffffffffff16111515156119e8576040517f08c379a00000000000000000000000000000000000000000000000000000000081526004016119df906136bf565b60405180910390fd5b600360006119f585612a03565b600019166000191681526020019081526020016000208054600181600116156101000203166002900480601f016020809104026020016040519081016040528092919081815260200182805460018160011615610100020316600290048015611a9f5780601f10611a7457610100808354040283529160200191611a9f565b820191906000526020600020905b815481529060010190602001808311611a8257829003601f168201915b5050505050915050919050565b611ab46113b3565b73ffffffffffffffffffffffffffffffffffffffff163373ffffffffffffffffffffffffffffffffffffffff16141515611aed57600080fd5b600073ffffffffffffffffffffffffffffffffffffffff168173ffffffffffffffffffffffffffffffffffffffff16141515611bcb578073ffffffffffffffffffffffffffffffffffffffff1663b85456b26040518163ffffffff167c0100000000000000000000000000000000000000000000000000000000028152600401602060405180830381600087803b158015611b8757600080fd5b505af1158015611b9b573d6000803e3d6000fd5b505050506040513d601f19601f82011682018060405250611bbf91908101906130c3565b1515611bca57600080fd5b5b611bd481612666565b50565b611bdf6113b3565b73ffffffffffffffffffffffffffffffffffffffff163373ffffffffffffffffffffffffffffffffffffffff16141515611c1857600080fd5b611c2181612b15565b50565b60008160405160200180807f70726f6475637400000000000000000000000000000000000000000000000000815250600701807f696d616765555249000000000000000000000000000000000000000000000000815250600801826fffffffffffffffffffffffffffffffff166fffffffffffffffffffffffffffffffff167001000000000000000000000000000000000281526010019150506040516020818303038152906040526040518082805190602001908083835b602083101515611d025780518252602082019150602081019050602083039250611cdd565b6001836020036101000a03801982511681845116808217855250505050505090500191505060405180910390209050919050565b60008160405160200180807f70726f6475637400000000000000000000000000000000000000000000000000815250600701807f6e616d6500000000000000000000000000000000000000000000000000000000815250600401826fffffffffffffffffffffffffffffffff166fffffffffffffffffffffffffffffffff167001000000000000000000000000000000000281526010019150506040516020818303038152906040526040518082805190602001908083835b602083101515611e145780518252602082019150602081019050602083039250611def565b6001836020036101000a03801982511681845116808217855250505050505090500191505060405180910390209050919050565b611e518161128b565b1515611e92576040517f08c379a0000000000000000000000000000000000000000000000000000000008152600401611e899061369f565b60405180910390fd5b806000015160016000611ea88460000151612bcf565b6000191660001916815260200190815260200160002060006101000a8154816fffffffffffffffffffffffffffffffff02191690836fffffffffffffffffffffffffffffffff160217905550806020015160026000611f0a84600001516126cd565b6000191660001916815260200190815260200160002060006101000a81548167ffffffffffffffff021916908367ffffffffffffffff160217905550806040015160026000611f5c84600001516121f5565b6000191660001916815260200190815260200160002060006101000a81548167ffffffffffffffff021916908367ffffffffffffffff160217905550806060015160046000611fae8460000151612419565b6000191660001916815260200190815260200160002060006101000a81548173ffffffffffffffffffffffffffffffffffffffff021916908373ffffffffffffffffffffffffffffffffffffffff16021790555080608001516004600061201884600001516127df565b6000191660001916815260200190815260200160002060006101000a81548173ffffffffffffffffffffffffffffffffffffffff021916908373ffffffffffffffffffffffffffffffffffffffff1602179055508060a00151600360006120828460000151611d36565b6000191660001916815260200190815260200160002090805190602001906120ab929190612dab565b508060c00151600360006120c28460000151612a03565b6000191660001916815260200190815260200160002090805190602001906120eb929190612dab565b508060e00151600360006121028460000151611c24565b60001916600019168152602001908152602001600020908051906020019061212b929190612dab565b508061010001516001600061214384600001516128f1565b6000191660001916815260200190815260200160002060006101000a8154816fffffffffffffffffffffffffffffffff02191690836fffffffffffffffffffffffffffffffff160217905550806101200151600160006121a68460000151612307565b6000191660001916815260200190815260200160002060006101000a8154816fffffffffffffffffffffffffffffffff02191690836fffffffffffffffffffffffffffffffff16021790555050565b60008160405160200180807f70726f6475637400000000000000000000000000000000000000000000000000815250600701807f7570646174656441740000000000000000000000000000000000000000000000815250600901826fffffffffffffffffffffffffffffffff166fffffffffffffffffffffffffffffffff167001000000000000000000000000000000000281526010019150506040516020818303038152906040526040518082805190602001908083835b6020831015156122d357805182526020820191506020810190506020830392506122ae565b6001836020036101000a03801982511681845116808217855250505050505090500191505060405180910390209050919050565b60008160405160200180807f70726f6475637400000000000000000000000000000000000000000000000000815250600701807f696e76656e746f72790000000000000000000000000000000000000000000000815250600901826fffffffffffffffffffffffffffffffff166fffffffffffffffffffffffffffffffff167001000000000000000000000000000000000281526010019150506040516020818303038152906040526040518082805190602001908083835b6020831015156123e557805182526020820191506020810190506020830392506123c0565b6001836020036101000a03801982511681845116808217855250505050505090500191505060405180910390209050919050565b60008160405160200180807f70726f6475637400000000000000000000000000000000000000000000000000815250600701807f6372656174656442790000000000000000000000000000000000000000000000815250600901826fffffffffffffffffffffffffffffffff166fffffffffffffffffffffffffffffffff167001000000000000000000000000000000000281526010019150506040516020818303038152906040526040518082805190602001908083835b6020831015156124f757805182526020820191506020810190506020830392506124d2565b6001836020036101000a03801982511681845116808217855250505050505090500191505060405180910390209050919050565b600073ffffffffffffffffffffffffffffffffffffffff1661254b61151d565b73ffffffffffffffffffffffffffffffffffffffff161415156125fb5761257061151d565b73ffffffffffffffffffffffffffffffffffffffff16632d23b4623084846040518463ffffffff167c01000000000000000000000000000000000000000000000000000000000281526004016125c8939291906135a9565b600060405180830381600087803b1580156125e257600080fd5b505af11580156125f6573d6000803e3d6000fd5b505050505b5050565b600060405180807f636f6d2e6d61726b6574706c6163652e6f776e61626c656d616e616765722e6f81526020017f776e6572000000000000000000000000000000000000000000000000000000008152506024019050604051809103902090508181555050565b600060405180807f636f6d2e6d61726b6574706c6163652e6f776e61626c656d616e616765722e6f81526020017f776e61626c6544656c6567617465000000000000000000000000000000000000815250602e019050604051809103902090508181555050565b60008160405160200180807f70726f6475637400000000000000000000000000000000000000000000000000815250600701807f6372656174656441740000000000000000000000000000000000000000000000815250600901826fffffffffffffffffffffffffffffffff166fffffffffffffffffffffffffffffffff167001000000000000000000000000000000000281526010019150506040516020818303038152906040526040518082805190602001908083835b6020831015156127ab5780518252602082019150602081019050602083039250612786565b6001836020036101000a03801982511681845116808217855250505050505090500191505060405180910390209050919050565b60008160405160200180807f70726f6475637400000000000000000000000000000000000000000000000000815250600701807f7570646174656442790000000000000000000000000000000000000000000000815250600901826fffffffffffffffffffffffffffffffff166fffffffffffffffffffffffffffffffff167001000000000000000000000000000000000281526010019150506040516020818303038152906040526040518082805190602001908083835b6020831015156128bd5780518252602082019150602081019050602083039250612898565b6001836020036101000a03801982511681845116808217855250505050505090500191505060405180910390209050919050565b60008160405160200180807f70726f6475637400000000000000000000000000000000000000000000000000815250600701807f7072696365000000000000000000000000000000000000000000000000000000815250600501826fffffffffffffffffffffffffffffffff166fffffffffffffffffffffffffffffffff167001000000000000000000000000000000000281526010019150506040516020818303038152906040526040518082805190602001908083835b6020831015156129cf57805182526020820191506020810190506020830392506129aa565b6001836020036101000a03801982511681845116808217855250505050505090500191505060405180910390209050919050565b60008160405160200180807f70726f6475637400000000000000000000000000000000000000000000000000815250600701807f6465736372697074696f6e000000000000000000000000000000000000000000815250600b01826fffffffffffffffffffffffffffffffff166fffffffffffffffffffffffffffffffff167001000000000000000000000000000000000281526010019150506040516020818303038152906040526040518082805190602001908083835b602083101515612ae15780518252602082019150602081019050602083039250612abc565b6001836020036101000a03801982511681845116808217855250505050505090500191505060405180910390209050919050565b600073ffffffffffffffffffffffffffffffffffffffff168173ffffffffffffffffffffffffffffffffffffffff1614151515612b5157600080fd5b8073ffffffffffffffffffffffffffffffffffffffff16612b706113b3565b73ffffffffffffffffffffffffffffffffffffffff167f8be0079c531659141344cd1fd0a4f28419497f9722a3daafe3b4186f6b6457e060405160405180910390a3612bc3612bbd6113b3565b8261252b565b612bcc816125ff565b50565b60008160405160200180807f70726f6475637400000000000000000000000000000000000000000000000000815250600701807f6964000000000000000000000000000000000000000000000000000000000000815250600201826fffffffffffffffffffffffffffffffff166fffffffffffffffffffffffffffffffff167001000000000000000000000000000000000281526010019150506040516020818303038152906040526040518082805190602001908083835b602083101515612cad5780518252602082019150602081019050602083039250612c88565b6001836020036101000a03801982511681845116808217855250505050505090500191505060405180910390209050919050565b6101406040519081016040528060006fffffffffffffffffffffffffffffffff168152602001600067ffffffffffffffff168152602001600067ffffffffffffffff168152602001600073ffffffffffffffffffffffffffffffffffffffff168152602001600073ffffffffffffffffffffffffffffffffffffffff16815260200160608152602001606081526020016060815260200160006fffffffffffffffffffffffffffffffff16815260200160006fffffffffffffffffffffffffffffffff1681525090565b828054600181600116156101000203166002900490600052602060002090601f016020900481019282601f10612dec57805160ff1916838001178555612e1a565b82800160010185558215612e1a579182015b82811115612e19578251825591602001919060010190612dfe565b5b509050612e279190612e2b565b5090565b612e4d91905b80821115612e49576000816000905550600101612e31565b5090565b90565b6000612e5c82356138e9565b905092915050565b6000612e708251613909565b905092915050565b600082601f8301121515612e8b57600080fd5b8135612e9e612e99826137ea565b6137bd565b91508082526020830160208301858383011115612eba57600080fd5b612ec5838284613953565b50505092915050565b600082601f8301121515612ee157600080fd5b8135612ef4612eef82613816565b6137bd565b91508082526020830160208301858383011115612f1057600080fd5b612f1b838284613953565b50505092915050565b60006101408284031215612f3757600080fd5b612f426101406137bd565b90506000612f528482850161305e565b6000830152506020612f6684828501613086565b6020830152506040612f7a84828501613086565b6040830152506060612f8e84828501612e50565b6060830152506080612fa284828501612e50565b60808301525060a082013567ffffffffffffffff811115612fc257600080fd5b612fce84828501612e78565b60a08301525060c082013567ffffffffffffffff811115612fee57600080fd5b612ffa84828501612e78565b60c08301525060e082013567ffffffffffffffff81111561301a57600080fd5b61302684828501612e78565b60e08301525061010061303b8482850161305e565b610100830152506101206130518482850161305e565b6101208301525092915050565b600061306a8235613915565b905092915050565b600061307e8251613931565b905092915050565b6000613092823561393f565b905092915050565b6000602082840312156130ac57600080fd5b60006130ba84828501612e50565b91505092915050565b6000602082840312156130d557600080fd5b60006130e384828501612e64565b91505092915050565b6000602082840312156130fe57600080fd5b600082013567ffffffffffffffff81111561311857600080fd5b61312484828501612ece565b91505092915050565b600080600080600060a0868803121561314557600080fd5b600086013567ffffffffffffffff81111561315f57600080fd5b61316b88828901612ece565b955050602086013567ffffffffffffffff81111561318857600080fd5b61319488828901612ece565b945050604086013567ffffffffffffffff8111156131b157600080fd5b6131bd88828901612ece565b93505060606131ce8882890161305e565b92505060806131df8882890161305e565b9150509295509295909350565b6000602082840312156131fe57600080fd5b600082013567ffffffffffffffff81111561321857600080fd5b61322484828501612f24565b91505092915050565b60006020828403121561323f57600080fd5b600061324d8482850161305e565b91505092915050565b60006020828403121561326857600080fd5b600061327684828501613072565b91505092915050565b61328881613875565b82525050565b61329781613895565b82525050565b60006132a882613854565b8084526132bc816020860160208601613962565b6132c581613995565b602085010191505092915050565b60006132de8261386a565b8084526132f2816020860160208601613962565b6132fb81613995565b602085010191505092915050565b60006133148261385f565b808452613328816020860160208601613962565b61333181613995565b602085010191505092915050565b60008154600181166000811461335c576001811461337c576133bd565b607f600283041680865260ff1983166020870152604086019350506133bd565b6002820480865260208601955061339285613842565b60005b828110156133b457815481890152600182019150602081019050613395565b80880195505050505b505092915050565b6000601882527f50726f64756374206d6f64656c20697320696e76616c696400000000000000006020830152604082019050919050565b6000600a82527f496e76616c6964204964000000000000000000000000000000000000000000006020830152604082019050919050565b6000601e82527f4e6f20617661696c61626c652066756e647320746f20776974686472617700006020830152604082019050919050565b6000610140830160008301516134836000860182613552565b506020830151613496602086018261357f565b5060408301516134a9604086018261357f565b5060608301516134bc606086018261327f565b5060808301516134cf608086018261327f565b5060a083015184820360a08601526134e78282613309565b91505060c083015184820360c08601526135018282613309565b91505060e083015184820360e086015261351b8282613309565b915050610100830151613532610100860182613552565b50610120830151613547610120860182613552565b508091505092915050565b61355b816138a1565b82525050565b61356a816138bd565b82525050565b613579816138cb565b82525050565b613588816138d5565b82525050565b60006020820190506135a3600083018461327f565b92915050565b60006060820190506135be600083018661327f565b6135cb602083018561327f565b6135d8604083018461327f565b949350505050565b60006040820190506135f5600083018561327f565b6136026020830184613570565b9392505050565b600060208201905061361e600083018461328e565b92915050565b6000602082019050818103600083015261363e818461329d565b905092915050565b6000602082019050818103600083015261366081846132d3565b905092915050565b60006040820190508181036000830152613682818561333f565b9050818103602083015261369681846132d3565b90509392505050565b600060208201905081810360008301526136b8816133c5565b9050919050565b600060208201905081810360008301526136d8816133fc565b9050919050565b600060208201905081810360008301526136f881613433565b9050919050565b60006020820190508181036000830152613719818461346a565b905092915050565b60006020820190506137366000830184613552565b92915050565b60006020820190506137516000830184613561565b92915050565b600060408201905061376c6000830185613561565b818103602083015261377e818461329d565b90509392505050565b600060208201905061379c6000830184613570565b92915050565b60006020820190506137b7600083018461357f565b92915050565b6000604051905081810181811067ffffffffffffffff821117156137e057600080fd5b8060405250919050565b600067ffffffffffffffff82111561380157600080fd5b601f19601f8301169050602081019050919050565b600067ffffffffffffffff82111561382d57600080fd5b601f19601f8301169050602081019050919050565b60008160005260206000209050919050565b600081519050919050565b600081519050919050565b600081519050919050565b600073ffffffffffffffffffffffffffffffffffffffff82169050919050565b60008115159050919050565b60006fffffffffffffffffffffffffffffffff82169050919050565b600061ffff82169050919050565b6000819050919050565b600067ffffffffffffffff82169050919050565b600073ffffffffffffffffffffffffffffffffffffffff82169050919050565b60008115159050919050565b60006fffffffffffffffffffffffffffffffff82169050919050565b600061ffff82169050919050565b600067ffffffffffffffff82169050919050565b82818337600083830152505050565b60005b83811015613980578082015181840152602081019050613965565b8381111561398f576000848401525b50505050565b6000601f19601f83011690509190505600a265627a7a723058206cee6c8e57436a726b14ad55b061e3ebf9d7d33ce2b088d0acea5e8b4b6661526c6578706572696d656e74616cf50037",
  "source": "pragma solidity ^0.4.23;\npragma experimental ABIEncoderV2;\n\nimport \"../store/ProductStoreV1.sol\";\n\n/**\n* @title MockProductStore\n* @dev Mock contract used for ProductStoreV1 tests\n*/\ncontract MockProductStoreV1 is ProductStoreV1 {\n\n  /**\n  * @dev Constructor function\n  */\n  constructor() public { }\n\n  /**\n  * @dev DepositedFunds is emited every time a deposit is made\n  * @param _sender Address of sender that performed the deposit\n  * @param _amount Amount deposited\n  */\n  event DepositedFunds(address _sender, uint256 _amount);\n\n  /**\n  * @dev Accepts a value deposit and emits an event\n  */\n  function deposit() public payable {\n    emit DepositedFunds(msg.sender, msg.value);\n  }\n\n}",
  "sourcePath": "/Users/matias/Projects/consensys/eth-marketplace/contracts/mocks/MockProductStoreV1.sol",
  "compiler": {
    "name": "solc",
    "version": "0.4.24+commit.e67f0147.Emscripten.clang"
  },
  "schemaVersion": "2.0.1",
  "updatedAt": "2018-08-27T21:36:29.687Z"
}