{
  "contractName": "MockProxy",
  "abi": [
    {
      "constant": true,
      "inputs": [],
      "name": "isProxy",
      "outputs": [
        {
          "name": "",
          "type": "bool"
        }
      ],
      "payable": false,
      "stateMutability": "pure",
      "type": "function"
    },
    {
      "inputs": [
        {
          "name": "_implementation",
          "type": "address"
        }
      ],
      "payable": false,
      "stateMutability": "nonpayable",
      "type": "constructor"
    },
    {
      "payable": true,
      "stateMutability": "payable",
      "type": "fallback"
    },
    {
      "constant": true,
      "inputs": [],
      "name": "implementation",
      "outputs": [
        {
          "name": "",
          "type": "address"
        }
      ],
      "payable": false,
      "stateMutability": "view",
      "type": "function"
    }
  ],
  "bytecode": "0x608060405234801561001057600080fd5b5060405160208061028b83398101806040528101908080519060200190929190505050806000806101000a81548173ffffffffffffffffffffffffffffffffffffffff021916908373ffffffffffffffffffffffffffffffffffffffff16021790555050610208806100836000396000f30060806040526004361061004c576000357c0100000000000000000000000000000000000000000000000000000000900463ffffffff1680635c60da1b1461012457806364da4e6f1461017b575b60006100566101aa565b9050600073ffffffffffffffffffffffffffffffffffffffff168173ffffffffffffffffffffffffffffffffffffffff16141515156100fd576040517f08c379a000000000000000000000000000000000000000000000000000000000815260040180806020018281038252601e8152602001807f496d706c656d656e746174696f6e2061646472657373206e6f7420736574000081525060200191505060405180910390fd5b60405136600082376000803683855af43d806000843e8160008114610120578184f35b8184fd5b34801561013057600080fd5b506101396101aa565b604051808273ffffffffffffffffffffffffffffffffffffffff1673ffffffffffffffffffffffffffffffffffffffff16815260200191505060405180910390f35b34801561018757600080fd5b506101906101d3565b604051808215151515815260200191505060405180910390f35b60008060009054906101000a900473ffffffffffffffffffffffffffffffffffffffff16905090565b600060019050905600a165627a7a723058200778661ae5501b135d7a1a6a920c7d56e9a21da6db58916a1921d847e7f8a64e0029",
  "source": "pragma solidity ^0.4.23;\n\nimport \"../proxy/Proxy.sol\";\n\n/**\n* @title MockProxy\n* @dev Mock contract used for Proxy tests\n*/\ncontract MockProxy is Proxy {\n\n  address private proxyImplementation;\n\n  /**\n  * @dev Constructor function\n  * @param _implementation Address of implementation contract to which calls will be delegated\n  **/\n  constructor(address _implementation) {\n    proxyImplementation = _implementation;\n  }\n\n  /**\n  * @dev Tells the address of the implementation where every delegate call will be delegated\n  * @return Address of the implementation to which contract calls will be delegated\n  */\n  function implementation() public view returns (address) {\n    return proxyImplementation;\n  }\n\n}",
  "sourcePath": "/Users/matias/Projects/consensys/eth-marketplace/contracts/mocks/MockProxy.sol",
  "compiler": {
    "name": "solc",
    "version": "0.4.24+commit.e67f0147.Emscripten.clang"
  },
  "schemaVersion": "2.0.0",
  "updatedAt": "2018-08-26T19:45:30.916Z"
}