{
  "contractName": "MockProductV1",
  "abi": [
    {
      "constant": true,
      "inputs": [
        {
          "components": [
            {
              "name": "id",
              "type": "uint128"
            },
            {
              "name": "createdAt",
              "type": "uint64"
            },
            {
              "name": "updatedAt",
              "type": "uint64"
            },
            {
              "name": "createdBy",
              "type": "address"
            },
            {
              "name": "updatedBy",
              "type": "address"
            },
            {
              "name": "name",
              "type": "string"
            },
            {
              "name": "description",
              "type": "string"
            },
            {
              "name": "imageURI",
              "type": "string"
            },
            {
              "name": "price",
              "type": "uint128"
            },
            {
              "name": "inventory",
              "type": "uint128"
            }
          ],
          "name": "_product",
          "type": "tuple"
        }
      ],
      "name": "abiEncode",
      "outputs": [
        {
          "name": "",
          "type": "bytes"
        }
      ],
      "payable": false,
      "stateMutability": "pure",
      "type": "function"
    },
    {
      "constant": true,
      "inputs": [],
      "name": "version",
      "outputs": [
        {
          "name": "",
          "type": "uint16"
        }
      ],
      "payable": false,
      "stateMutability": "pure",
      "type": "function"
    },
    {
      "constant": true,
      "inputs": [
        {
          "components": [
            {
              "name": "id",
              "type": "uint128"
            },
            {
              "name": "createdAt",
              "type": "uint64"
            },
            {
              "name": "updatedAt",
              "type": "uint64"
            },
            {
              "name": "createdBy",
              "type": "address"
            },
            {
              "name": "updatedBy",
              "type": "address"
            },
            {
              "name": "name",
              "type": "string"
            },
            {
              "name": "description",
              "type": "string"
            },
            {
              "name": "imageURI",
              "type": "string"
            },
            {
              "name": "price",
              "type": "uint128"
            },
            {
              "name": "inventory",
              "type": "uint128"
            }
          ],
          "name": "_product",
          "type": "tuple"
        }
      ],
      "name": "isValid",
      "outputs": [
        {
          "name": "",
          "type": "bool"
        }
      ],
      "payable": false,
      "stateMutability": "pure",
      "type": "function"
    },
    {
      "constant": true,
      "inputs": [
        {
          "name": "_id",
          "type": "uint128"
        },
        {
          "name": "_createdAt",
          "type": "uint64"
        },
        {
          "name": "_updatedAt",
          "type": "uint64"
        },
        {
          "name": "_createdBy",
          "type": "address"
        },
        {
          "name": "_updatedBy",
          "type": "address"
        },
        {
          "name": "_name",
          "type": "string"
        },
        {
          "name": "_description",
          "type": "string"
        },
        {
          "name": "_imageURI",
          "type": "string"
        },
        {
          "name": "_price",
          "type": "uint128"
        },
        {
          "name": "_inventory",
          "type": "uint128"
        }
      ],
      "name": "__isValid",
      "outputs": [
        {
          "name": "",
          "type": "bool"
        }
      ],
      "payable": false,
      "stateMutability": "pure",
      "type": "function"
    },
    {
      "constant": true,
      "inputs": [
        {
          "name": "_id",
          "type": "uint128"
        }
      ],
      "name": "__idKey",
      "outputs": [
        {
          "name": "",
          "type": "bytes32"
        }
      ],
      "payable": false,
      "stateMutability": "pure",
      "type": "function"
    },
    {
      "constant": true,
      "inputs": [
        {
          "name": "_id",
          "type": "uint128"
        }
      ],
      "name": "__createdAtKey",
      "outputs": [
        {
          "name": "",
          "type": "bytes32"
        }
      ],
      "payable": false,
      "stateMutability": "pure",
      "type": "function"
    },
    {
      "constant": true,
      "inputs": [
        {
          "name": "_id",
          "type": "uint128"
        }
      ],
      "name": "__updatedAtKey",
      "outputs": [
        {
          "name": "",
          "type": "bytes32"
        }
      ],
      "payable": false,
      "stateMutability": "pure",
      "type": "function"
    },
    {
      "constant": true,
      "inputs": [
        {
          "name": "_id",
          "type": "uint128"
        }
      ],
      "name": "__createdByKey",
      "outputs": [
        {
          "name": "",
          "type": "bytes32"
        }
      ],
      "payable": false,
      "stateMutability": "pure",
      "type": "function"
    },
    {
      "constant": true,
      "inputs": [
        {
          "name": "_id",
          "type": "uint128"
        }
      ],
      "name": "__updatedByKey",
      "outputs": [
        {
          "name": "",
          "type": "bytes32"
        }
      ],
      "payable": false,
      "stateMutability": "pure",
      "type": "function"
    },
    {
      "constant": true,
      "inputs": [
        {
          "name": "_id",
          "type": "uint128"
        }
      ],
      "name": "__nameKey",
      "outputs": [
        {
          "name": "",
          "type": "bytes32"
        }
      ],
      "payable": false,
      "stateMutability": "pure",
      "type": "function"
    },
    {
      "constant": true,
      "inputs": [
        {
          "name": "_id",
          "type": "uint128"
        }
      ],
      "name": "__descriptionKey",
      "outputs": [
        {
          "name": "",
          "type": "bytes32"
        }
      ],
      "payable": false,
      "stateMutability": "pure",
      "type": "function"
    },
    {
      "constant": true,
      "inputs": [
        {
          "name": "_id",
          "type": "uint128"
        }
      ],
      "name": "__imageURIKey",
      "outputs": [
        {
          "name": "",
          "type": "bytes32"
        }
      ],
      "payable": false,
      "stateMutability": "pure",
      "type": "function"
    },
    {
      "constant": true,
      "inputs": [
        {
          "name": "_id",
          "type": "uint128"
        }
      ],
      "name": "__priceKey",
      "outputs": [
        {
          "name": "",
          "type": "bytes32"
        }
      ],
      "payable": false,
      "stateMutability": "pure",
      "type": "function"
    },
    {
      "constant": true,
      "inputs": [
        {
          "name": "_id",
          "type": "uint128"
        }
      ],
      "name": "__inventoryKey",
      "outputs": [
        {
          "name": "",
          "type": "bytes32"
        }
      ],
      "payable": false,
      "stateMutability": "pure",
      "type": "function"
    },
    {
      "constant": true,
      "inputs": [
        {
          "name": "_id",
          "type": "uint128"
        },
        {
          "name": "_createdAt",
          "type": "uint64"
        },
        {
          "name": "_updatedAt",
          "type": "uint64"
        },
        {
          "name": "_createdBy",
          "type": "address"
        },
        {
          "name": "_updatedBy",
          "type": "address"
        },
        {
          "name": "_name",
          "type": "string"
        },
        {
          "name": "_description",
          "type": "string"
        },
        {
          "name": "_imageURI",
          "type": "string"
        },
        {
          "name": "_price",
          "type": "uint128"
        },
        {
          "name": "_inventory",
          "type": "uint128"
        }
      ],
      "name": "__abiEncode",
      "outputs": [
        {
          "name": "",
          "type": "bytes"
        }
      ],
      "payable": false,
      "stateMutability": "pure",
      "type": "function"
    }
  ],
  "bytecode": "0x608060405234801561001057600080fd5b50611b91806100206000396000f3006080604052600436106100db576000357c0100000000000000000000000000000000000000000000000000000000900463ffffffff16806307409f57146100e057806311c4a6ac1461011d57806326d5e4d21461015a57806346847a2a1461019757806349615bc3146101d457806354fd4d50146102115780635a1c1d711461023c5780635ae8d61e146102795780636712440e146102b6578063840f4a64146102f35780638e91153114610330578063ac745da91461036d578063b6ca83d7146103aa578063c181061c146103e7578063d49c59ee14610424575b600080fd5b3480156100ec57600080fd5b5061010760048036036101029190810190611616565b610461565b604051610114919061192b565b60405180910390f35b34801561012957600080fd5b50610144600480360361013f9190810190611616565b610473565b604051610151919061192b565b60405180910390f35b34801561016657600080fd5b50610181600480360361017c91908101906115d5565b610485565b60405161018e9190611946565b60405180910390f35b3480156101a357600080fd5b506101be60048036036101b9919081019061163f565b6104ae565b6040516101cb9190611946565b60405180910390f35b3480156101e057600080fd5b506101fb60048036036101f6919081019061163f565b610591565b6040516102089190611910565b60405180910390f35b34801561021d57600080fd5b50610226610674565b604051610233919061198a565b60405180910390f35b34801561024857600080fd5b50610263600480360361025e9190810190611616565b61067d565b604051610270919061192b565b60405180910390f35b34801561028557600080fd5b506102a0600480360361029b9190810190611616565b61068f565b6040516102ad919061192b565b60405180910390f35b3480156102c257600080fd5b506102dd60048036036102d89190810190611616565b6106a1565b6040516102ea919061192b565b60405180910390f35b3480156102ff57600080fd5b5061031a600480360361031591908101906115d5565b6106b3565b6040516103279190611910565b60405180910390f35b34801561033c57600080fd5b5061035760048036036103529190810190611616565b6107db565b604051610364919061192b565b60405180910390f35b34801561037957600080fd5b50610394600480360361038f9190810190611616565b6107ed565b6040516103a1919061192b565b60405180910390f35b3480156103b657600080fd5b506103d160048036036103cc9190810190611616565b6107ff565b6040516103de919061192b565b60405180910390f35b3480156103f357600080fd5b5061040e60048036036104099190810190611616565b610811565b60405161041b919061192b565b60405180910390f35b34801561043057600080fd5b5061044b60048036036104469190810190611616565b610823565b604051610458919061192b565b60405180910390f35b600061046c82610835565b9050919050565b600061047e82610947565b9050919050565b6060816040516020016104989190611968565b6040516020818303038152906040529050919050565b60606104b86112e9565b610140604051908101604052808d6fffffffffffffffffffffffffffffffff1681526020018c67ffffffffffffffff1681526020018b67ffffffffffffffff1681526020018a73ffffffffffffffffffffffffffffffffffffffff1681526020018973ffffffffffffffffffffffffffffffffffffffff168152602001888152602001878152602001868152602001856fffffffffffffffffffffffffffffffff168152602001846fffffffffffffffffffffffffffffffff16815250905061058081610485565b9150509a9950505050505050505050565b600061059b6112e9565b610140604051908101604052808d6fffffffffffffffffffffffffffffffff1681526020018c67ffffffffffffffff1681526020018b67ffffffffffffffff1681526020018a73ffffffffffffffffffffffffffffffffffffffff1681526020018973ffffffffffffffffffffffffffffffffffffffff168152602001888152602001878152602001868152602001856fffffffffffffffffffffffffffffffff168152602001846fffffffffffffffffffffffffffffffff168152509050610663816106b3565b9150509a9950505050505050505050565b60006001905090565b600061068882610a59565b9050919050565b600061069a82610b6b565b9050919050565b60006106ac82610c7d565b9050919050565b60008082600001516fffffffffffffffffffffffffffffffff161115156106dd57600090506107d6565b6000826020015167ffffffffffffffff161115156106fe57600090506107d6565b6000826040015167ffffffffffffffff1611151561071f57600090506107d6565b600073ffffffffffffffffffffffffffffffffffffffff16826060015173ffffffffffffffffffffffffffffffffffffffff16141561076157600090506107d6565b600073ffffffffffffffffffffffffffffffffffffffff16826080015173ffffffffffffffffffffffffffffffffffffffff1614156107a357600090506107d6565b60008260a001515114156107ba57600090506107d6565b60008260c001515114156107d157600090506107d6565b600190505b919050565b60006107e682610d8f565b9050919050565b60006107f882610ea1565b9050919050565b600061080a82610fb3565b9050919050565b600061081c826110c5565b9050919050565b600061082e826111d7565b9050919050565b60008160405160200180807f70726f6475637400000000000000000000000000000000000000000000000000815250600701807f6465736372697074696f6e000000000000000000000000000000000000000000815250600b01826fffffffffffffffffffffffffffffffff166fffffffffffffffffffffffffffffffff167001000000000000000000000000000000000281526010019150506040516020818303038152906040526040518082805190602001908083835b60208310151561091357805182526020820191506020810190506020830392506108ee565b6001836020036101000a03801982511681845116808217855250505050505090500191505060405180910390209050919050565b60008160405160200180807f70726f6475637400000000000000000000000000000000000000000000000000815250600701807f6e616d6500000000000000000000000000000000000000000000000000000000815250600401826fffffffffffffffffffffffffffffffff166fffffffffffffffffffffffffffffffff167001000000000000000000000000000000000281526010019150506040516020818303038152906040526040518082805190602001908083835b602083101515610a255780518252602082019150602081019050602083039250610a00565b6001836020036101000a03801982511681845116808217855250505050505090500191505060405180910390209050919050565b60008160405160200180807f70726f6475637400000000000000000000000000000000000000000000000000815250600701807f696d616765555249000000000000000000000000000000000000000000000000815250600801826fffffffffffffffffffffffffffffffff166fffffffffffffffffffffffffffffffff167001000000000000000000000000000000000281526010019150506040516020818303038152906040526040518082805190602001908083835b602083101515610b375780518252602082019150602081019050602083039250610b12565b6001836020036101000a03801982511681845116808217855250505050505090500191505060405180910390209050919050565b60008160405160200180807f70726f6475637400000000000000000000000000000000000000000000000000815250600701807f6372656174656442790000000000000000000000000000000000000000000000815250600901826fffffffffffffffffffffffffffffffff166fffffffffffffffffffffffffffffffff167001000000000000000000000000000000000281526010019150506040516020818303038152906040526040518082805190602001908083835b602083101515610c495780518252602082019150602081019050602083039250610c24565b6001836020036101000a03801982511681845116808217855250505050505090500191505060405180910390209050919050565b60008160405160200180807f70726f6475637400000000000000000000000000000000000000000000000000815250600701807f6964000000000000000000000000000000000000000000000000000000000000815250600201826fffffffffffffffffffffffffffffffff166fffffffffffffffffffffffffffffffff167001000000000000000000000000000000000281526010019150506040516020818303038152906040526040518082805190602001908083835b602083101515610d5b5780518252602082019150602081019050602083039250610d36565b6001836020036101000a03801982511681845116808217855250505050505090500191505060405180910390209050919050565b60008160405160200180807f70726f6475637400000000000000000000000000000000000000000000000000815250600701807f7570646174656441740000000000000000000000000000000000000000000000815250600901826fffffffffffffffffffffffffffffffff166fffffffffffffffffffffffffffffffff167001000000000000000000000000000000000281526010019150506040516020818303038152906040526040518082805190602001908083835b602083101515610e6d5780518252602082019150602081019050602083039250610e48565b6001836020036101000a03801982511681845116808217855250505050505090500191505060405180910390209050919050565b60008160405160200180807f70726f6475637400000000000000000000000000000000000000000000000000815250600701807f7570646174656442790000000000000000000000000000000000000000000000815250600901826fffffffffffffffffffffffffffffffff166fffffffffffffffffffffffffffffffff167001000000000000000000000000000000000281526010019150506040516020818303038152906040526040518082805190602001908083835b602083101515610f7f5780518252602082019150602081019050602083039250610f5a565b6001836020036101000a03801982511681845116808217855250505050505090500191505060405180910390209050919050565b60008160405160200180807f70726f6475637400000000000000000000000000000000000000000000000000815250600701807f6372656174656441740000000000000000000000000000000000000000000000815250600901826fffffffffffffffffffffffffffffffff166fffffffffffffffffffffffffffffffff167001000000000000000000000000000000000281526010019150506040516020818303038152906040526040518082805190602001908083835b602083101515611091578051825260208201915060208101905060208303925061106c565b6001836020036101000a03801982511681845116808217855250505050505090500191505060405180910390209050919050565b60008160405160200180807f70726f6475637400000000000000000000000000000000000000000000000000815250600701807f696e76656e746f72790000000000000000000000000000000000000000000000815250600901826fffffffffffffffffffffffffffffffff166fffffffffffffffffffffffffffffffff167001000000000000000000000000000000000281526010019150506040516020818303038152906040526040518082805190602001908083835b6020831015156111a3578051825260208201915060208101905060208303925061117e565b6001836020036101000a03801982511681845116808217855250505050505090500191505060405180910390209050919050565b60008160405160200180807f70726f6475637400000000000000000000000000000000000000000000000000815250600701807f7072696365000000000000000000000000000000000000000000000000000000815250600501826fffffffffffffffffffffffffffffffff166fffffffffffffffffffffffffffffffff167001000000000000000000000000000000000281526010019150506040516020818303038152906040526040518082805190602001908083835b6020831015156112b55780518252602082019150602081019050602083039250611290565b6001836020036101000a03801982511681845116808217855250505050505090500191505060405180910390209050919050565b6101406040519081016040528060006fffffffffffffffffffffffffffffffff168152602001600067ffffffffffffffff168152602001600067ffffffffffffffff168152602001600073ffffffffffffffffffffffffffffffffffffffff168152602001600073ffffffffffffffffffffffffffffffffffffffff16815260200160608152602001606081526020016060815260200160006fffffffffffffffffffffffffffffffff16815260200160006fffffffffffffffffffffffffffffffff1681525090565b60006113bf8235611ab4565b905092915050565b600082601f83011215156113da57600080fd5b81356113ed6113e8826119d2565b6119a5565b9150808252602083016020830185838301111561140957600080fd5b611414838284611b04565b50505092915050565b600082601f830112151561143057600080fd5b813561144361143e826119fe565b6119a5565b9150808252602083016020830185838301111561145f57600080fd5b61146a838284611b04565b50505092915050565b6000610140828403121561148657600080fd5b6114916101406119a5565b905060006114a1848285016115ad565b60008301525060206114b5848285016115c1565b60208301525060406114c9848285016115c1565b60408301525060606114dd848285016113b3565b60608301525060806114f1848285016113b3565b60808301525060a082013567ffffffffffffffff81111561151157600080fd5b61151d848285016113c7565b60a08301525060c082013567ffffffffffffffff81111561153d57600080fd5b611549848285016113c7565b60c08301525060e082013567ffffffffffffffff81111561156957600080fd5b611575848285016113c7565b60e08301525061010061158a848285016115ad565b610100830152506101206115a0848285016115ad565b6101208301525092915050565b60006115b98235611ad4565b905092915050565b60006115cd8235611af0565b905092915050565b6000602082840312156115e757600080fd5b600082013567ffffffffffffffff81111561160157600080fd5b61160d84828501611473565b91505092915050565b60006020828403121561162857600080fd5b6000611636848285016115ad565b91505092915050565b6000806000806000806000806000806101408b8d03121561165f57600080fd5b600061166d8d828e016115ad565b9a5050602061167e8d828e016115c1565b995050604061168f8d828e016115c1565b98505060606116a08d828e016113b3565b97505060806116b18d828e016113b3565b96505060a08b013567ffffffffffffffff8111156116ce57600080fd5b6116da8d828e0161141d565b95505060c08b013567ffffffffffffffff8111156116f757600080fd5b6117038d828e0161141d565b94505060e08b013567ffffffffffffffff81111561172057600080fd5b61172c8d828e0161141d565b93505061010061173e8d828e016115ad565b9250506101206117508d828e016115ad565b9150509295989b9194979a5092959850565b61176b81611a40565b82525050565b61177a81611a60565b82525050565b61178981611a6c565b82525050565b600061179a82611a2a565b8084526117ae816020860160208601611b13565b6117b781611b46565b602085010191505092915050565b60006117d082611a35565b8084526117e4816020860160208601611b13565b6117ed81611b46565b602085010191505092915050565b60006101408301600083015161181460008601826118e3565b5060208301516118276020860182611901565b50604083015161183a6040860182611901565b50606083015161184d6060860182611762565b5060808301516118606080860182611762565b5060a083015184820360a086015261187882826117c5565b91505060c083015184820360c086015261189282826117c5565b91505060e083015184820360e08601526118ac82826117c5565b9150506101008301516118c36101008601826118e3565b506101208301516118d86101208601826118e3565b508091505092915050565b6118ec81611a76565b82525050565b6118fb81611a92565b82525050565b61190a81611aa0565b82525050565b60006020820190506119256000830184611771565b92915050565b60006020820190506119406000830184611780565b92915050565b60006020820190508181036000830152611960818461178f565b905092915050565b6000602082019050818103600083015261198281846117fb565b905092915050565b600060208201905061199f60008301846118f2565b92915050565b6000604051905081810181811067ffffffffffffffff821117156119c857600080fd5b8060405250919050565b600067ffffffffffffffff8211156119e957600080fd5b601f19601f8301169050602081019050919050565b600067ffffffffffffffff821115611a1557600080fd5b601f19601f8301169050602081019050919050565b600081519050919050565b600081519050919050565b600073ffffffffffffffffffffffffffffffffffffffff82169050919050565b60008115159050919050565b6000819050919050565b60006fffffffffffffffffffffffffffffffff82169050919050565b600061ffff82169050919050565b600067ffffffffffffffff82169050919050565b600073ffffffffffffffffffffffffffffffffffffffff82169050919050565b60006fffffffffffffffffffffffffffffffff82169050919050565b600067ffffffffffffffff82169050919050565b82818337600083830152505050565b60005b83811015611b31578082015181840152602081019050611b16565b83811115611b40576000848401525b50505050565b6000601f19601f83011690509190505600a265627a7a723058204122025019babbd93875fe2bbb19b2df8323ebabf21323d1d24190a33d0c919d6c6578706572696d656e74616cf50037",
  "source": "pragma solidity ^0.4.23;\npragma experimental ABIEncoderV2;\n\nimport \"../models/product/ProductV1.sol\";\n\n/**\n* @title MockProductV1\n* @dev Mock contract used for ProductV1 tests\n*/\ncontract MockProductV1 is ProductV1 {\n\n  /**\n  * @dev Performs validation on the given product model\n  * @return Boolean value representing the validity status of the product\n  */\n  function __isValid(\n    uint128 _id,\n    uint64 _createdAt,\n    uint64 _updatedAt,\n    address _createdBy,\n    address _updatedBy,\n    string _name,\n    string _description,\n    string _imageURI,\n    uint128 _price,\n    uint128 _inventory\n  ) \n    public pure returns(bool)\n  {\n    ModelV1 memory product = ModelV1({ id: _id,\n                                       createdAt: _createdAt,\n                                       updatedAt: _updatedAt,\n                                       createdBy: _createdBy,\n                                       updatedBy: _updatedBy,\n                                       name: _name,\n                                       description: _description,\n                                       imageURI: _imageURI,\n                                       price: _price,\n                                       inventory: _inventory\n                                      });\n    return isValid(product);\n  }\n\n  /**\n  * @dev Key parameters for retrieving data from Eternal Storage\n  */\n  function __idKey(uint128 _id) public pure returns(bytes32) {\n    return idKey(_id);\n  }\n\n  function __createdAtKey(uint128 _id) public pure returns(bytes32) {\n    return createdAtKey(_id);\n  }\n\n  function __updatedAtKey(uint128 _id) public pure returns(bytes32) {\n    return updatedAtKey(_id);\n  }\n\n  function __createdByKey(uint128 _id) public pure returns(bytes32) {\n    return createdByKey(_id);\n  }\n\n  function __updatedByKey(uint128 _id) public pure returns(bytes32) {\n    return updatedByKey(_id);\n  }\n\n  function __nameKey(uint128 _id) public pure returns(bytes32) {\n    return nameKey(_id);\n  }\n\n  function __descriptionKey(uint128 _id) public pure returns(bytes32) {\n    return descriptionKey(_id);\n  }\n\n  function __imageURIKey(uint128 _id) public pure returns(bytes32) {\n    return imageURIKey(_id);\n  }\n\n  function __priceKey(uint128 _id) public pure returns(bytes32) {\n    return priceKey(_id);\n  }\n\n  function __inventoryKey(uint128 _id) public pure returns(bytes32) {\n    return inventoryKey(_id);\n  }\n\n  /**\n  * @dev ABI encodes the given product\n  * @return ABI byte-encoded product model\n  */\n  function __abiEncode(\n    uint128 _id,\n    uint64 _createdAt,\n    uint64 _updatedAt,\n    address _createdBy,\n    address _updatedBy,\n    string _name,\n    string _description,\n    string _imageURI,\n    uint128 _price,\n    uint128 _inventory\n  ) public pure returns(bytes)\n  {\n    ModelV1 memory product = ModelV1({ id: _id,\n     createdAt: _createdAt,\n     updatedAt: _updatedAt,\n     createdBy: _createdBy,\n     updatedBy: _updatedBy,\n     name: _name,\n     description: _description,\n     imageURI: _imageURI,\n     price: _price,\n     inventory: _inventory\n    });\n\n    return abiEncode(product);\n  }\n\n}",
  "sourcePath": "/Users/matias/Projects/consensys/eth-marketplace/contracts/mocks/MockProductV1.sol",
  "compiler": {
    "name": "solc",
    "version": "0.4.24+commit.e67f0147.Emscripten.clang"
  },
  "schemaVersion": "2.0.1",
  "updatedAt": "2018-08-27T17:14:41.787Z"
}