{
  "contractName": "MockContract",
  "abi": [
    {
      "constant": true,
      "inputs": [],
      "name": "someValue",
      "outputs": [
        {
          "name": "",
          "type": "string"
        }
      ],
      "payable": false,
      "stateMutability": "view",
      "type": "function"
    },
    {
      "constant": true,
      "inputs": [],
      "name": "someString",
      "outputs": [
        {
          "name": "",
          "type": "string"
        }
      ],
      "payable": false,
      "stateMutability": "pure",
      "type": "function"
    },
    {
      "constant": true,
      "inputs": [],
      "name": "isMockContract",
      "outputs": [
        {
          "name": "",
          "type": "bool"
        }
      ],
      "payable": false,
      "stateMutability": "pure",
      "type": "function"
    }
  ],
  "bytecode": "0x60806040526040805190810160405280601681526020017f4d6f636b436f6e74726163742e736f6d6556616c7565000000000000000000008152506000908051906020019061004f929190610062565b5034801561005c57600080fd5b50610107565b828054600181600116156101000203166002900490600052602060002090601f016020900481019282601f106100a357805160ff19168380011785556100d1565b828001600101855582156100d1579182015b828111156100d05782518255916020019190600101906100b5565b5b5090506100de91906100e2565b5090565b61010491905b808211156101005760008160009055506001016100e8565b5090565b90565b6102bb806101166000396000f300608060405260043610610057576000357c0100000000000000000000000000000000000000000000000000000000900463ffffffff16806318f483d81461005c5780634a627e611461008b578063e7a96f6d1461011b575b600080fd5b34801561006857600080fd5b506100716101ab565b604051808215151515815260200191505060405180910390f35b34801561009757600080fd5b506100a06101b4565b6040518080602001828103825283818151815260200191508051906020019080838360005b838110156100e05780820151818401526020810190506100c5565b50505050905090810190601f16801561010d5780820380516001836020036101000a031916815260200191505b509250505060405180910390f35b34801561012757600080fd5b50610130610252565b6040518080602001828103825283818151815260200191508051906020019080838360005b83811015610170578082015181840152602081019050610155565b50505050905090810190601f16801561019d5780820380516001836020036101000a031916815260200191505b509250505060405180910390f35b60006001905090565b60008054600181600116156101000203166002900480601f01602080910402602001604051908101604052809291908181526020018280546001816001161561010002031660029004801561024a5780601f1061021f5761010080835404028352916020019161024a565b820191906000526020600020905b81548152906001019060200180831161022d57829003601f168201915b505050505081565b60606040805190810160405280600c81526020017f4d6f636b436f6e747261637400000000000000000000000000000000000000008152509050905600a165627a7a72305820ea1d266e0333d00bf679043072834b7734d9fe47aa914857f4a68a0c805227bb0029",
  "source": "pragma solidity ^0.4.23;\n\n/**\n* @title MockContract\n* @dev Generic mock contract used for testing\n*/\ncontract MockContract {\n  \n  string public someValue = \"MockContract.someValue\";\n\n  /**\n  * @dev Returns a string value\n  * @return Always returns the value 'MockContract'\n  */\n  function someString() public pure returns(string) {\n    return \"MockContract\";\n  }\n\n  /**\n  * @dev Returns a bool value\n  * @return Always returns true\n  */\n  function isMockContract() public pure returns(bool) {\n    return true;\n  }\n\n}",
  "sourcePath": "/Users/matias/Projects/consensys/eth-marketplace/contracts/mocks/MockContract.sol",
  "compiler": {
    "name": "solc",
    "version": "0.4.24+commit.e67f0147.Emscripten.clang"
  },
  "schemaVersion": "2.0.0",
  "updatedAt": "2018-08-26T19:45:30.916Z"
}