{
  "contractName": "MockProductV1",
  "abi": [
    {
      "constant": true,
      "inputs": [
        {
          "components": [
            {
              "name": "id",
              "type": "uint128"
            },
            {
              "name": "createdAt",
              "type": "uint64"
            },
            {
              "name": "updatedAt",
              "type": "uint64"
            },
            {
              "name": "createdBy",
              "type": "address"
            },
            {
              "name": "updatedBy",
              "type": "address"
            },
            {
              "name": "name",
              "type": "string"
            },
            {
              "name": "description",
              "type": "string"
            },
            {
              "name": "imageURI",
              "type": "string"
            },
            {
              "name": "price",
              "type": "uint128"
            },
            {
              "name": "inventory",
              "type": "uint128"
            }
          ],
          "name": "_product",
          "type": "tuple"
        }
      ],
      "name": "abiEncode",
      "outputs": [
        {
          "name": "",
          "type": "bytes"
        }
      ],
      "payable": false,
      "stateMutability": "pure",
      "type": "function"
    },
    {
      "constant": true,
      "inputs": [],
      "name": "version",
      "outputs": [
        {
          "name": "",
          "type": "uint16"
        }
      ],
      "payable": false,
      "stateMutability": "pure",
      "type": "function"
    },
    {
      "constant": true,
      "inputs": [
        {
          "components": [
            {
              "name": "id",
              "type": "uint128"
            },
            {
              "name": "createdAt",
              "type": "uint64"
            },
            {
              "name": "updatedAt",
              "type": "uint64"
            },
            {
              "name": "createdBy",
              "type": "address"
            },
            {
              "name": "updatedBy",
              "type": "address"
            },
            {
              "name": "name",
              "type": "string"
            },
            {
              "name": "description",
              "type": "string"
            },
            {
              "name": "imageURI",
              "type": "string"
            },
            {
              "name": "price",
              "type": "uint128"
            },
            {
              "name": "inventory",
              "type": "uint128"
            }
          ],
          "name": "_product",
          "type": "tuple"
        }
      ],
      "name": "isValid",
      "outputs": [
        {
          "name": "",
          "type": "bool"
        }
      ],
      "payable": false,
      "stateMutability": "pure",
      "type": "function"
    },
    {
      "constant": true,
      "inputs": [
        {
          "name": "_id",
          "type": "uint128"
        },
        {
          "name": "_createdAt",
          "type": "uint64"
        },
        {
          "name": "_updatedAt",
          "type": "uint64"
        },
        {
          "name": "_createdBy",
          "type": "address"
        },
        {
          "name": "_updatedBy",
          "type": "address"
        },
        {
          "name": "_name",
          "type": "string"
        },
        {
          "name": "_description",
          "type": "string"
        },
        {
          "name": "_imageURI",
          "type": "string"
        },
        {
          "name": "_price",
          "type": "uint128"
        },
        {
          "name": "_inventory",
          "type": "uint128"
        }
      ],
      "name": "__isValid",
      "outputs": [
        {
          "name": "",
          "type": "bool"
        }
      ],
      "payable": false,
      "stateMutability": "pure",
      "type": "function"
    },
    {
      "constant": true,
      "inputs": [
        {
          "name": "_id",
          "type": "uint128"
        }
      ],
      "name": "__idKey",
      "outputs": [
        {
          "name": "",
          "type": "bytes32"
        }
      ],
      "payable": false,
      "stateMutability": "pure",
      "type": "function"
    },
    {
      "constant": true,
      "inputs": [
        {
          "name": "_id",
          "type": "uint128"
        }
      ],
      "name": "__createdAtKey",
      "outputs": [
        {
          "name": "",
          "type": "bytes32"
        }
      ],
      "payable": false,
      "stateMutability": "pure",
      "type": "function"
    },
    {
      "constant": true,
      "inputs": [
        {
          "name": "_id",
          "type": "uint128"
        }
      ],
      "name": "__updatedAtKey",
      "outputs": [
        {
          "name": "",
          "type": "bytes32"
        }
      ],
      "payable": false,
      "stateMutability": "pure",
      "type": "function"
    },
    {
      "constant": true,
      "inputs": [
        {
          "name": "_id",
          "type": "uint128"
        }
      ],
      "name": "__createdByKey",
      "outputs": [
        {
          "name": "",
          "type": "bytes32"
        }
      ],
      "payable": false,
      "stateMutability": "pure",
      "type": "function"
    },
    {
      "constant": true,
      "inputs": [
        {
          "name": "_id",
          "type": "uint128"
        }
      ],
      "name": "__updatedByKey",
      "outputs": [
        {
          "name": "",
          "type": "bytes32"
        }
      ],
      "payable": false,
      "stateMutability": "pure",
      "type": "function"
    },
    {
      "constant": true,
      "inputs": [
        {
          "name": "_id",
          "type": "uint128"
        }
      ],
      "name": "__nameKey",
      "outputs": [
        {
          "name": "",
          "type": "bytes32"
        }
      ],
      "payable": false,
      "stateMutability": "pure",
      "type": "function"
    },
    {
      "constant": true,
      "inputs": [
        {
          "name": "_id",
          "type": "uint128"
        }
      ],
      "name": "__descriptionKey",
      "outputs": [
        {
          "name": "",
          "type": "bytes32"
        }
      ],
      "payable": false,
      "stateMutability": "pure",
      "type": "function"
    },
    {
      "constant": true,
      "inputs": [
        {
          "name": "_id",
          "type": "uint128"
        }
      ],
      "name": "__imageURIKey",
      "outputs": [
        {
          "name": "",
          "type": "bytes32"
        }
      ],
      "payable": false,
      "stateMutability": "pure",
      "type": "function"
    },
    {
      "constant": true,
      "inputs": [
        {
          "name": "_id",
          "type": "uint128"
        }
      ],
      "name": "__priceKey",
      "outputs": [
        {
          "name": "",
          "type": "bytes32"
        }
      ],
      "payable": false,
      "stateMutability": "pure",
      "type": "function"
    },
    {
      "constant": true,
      "inputs": [
        {
          "name": "_id",
          "type": "uint128"
        }
      ],
      "name": "__inventoryKey",
      "outputs": [
        {
          "name": "",
          "type": "bytes32"
        }
      ],
      "payable": false,
      "stateMutability": "pure",
      "type": "function"
    },
    {
      "constant": true,
      "inputs": [
        {
          "name": "_id",
          "type": "uint128"
        },
        {
          "name": "_createdAt",
          "type": "uint64"
        },
        {
          "name": "_updatedAt",
          "type": "uint64"
        },
        {
          "name": "_createdBy",
          "type": "address"
        },
        {
          "name": "_updatedBy",
          "type": "address"
        },
        {
          "name": "_name",
          "type": "string"
        },
        {
          "name": "_description",
          "type": "string"
        },
        {
          "name": "_imageURI",
          "type": "string"
        },
        {
          "name": "_price",
          "type": "uint128"
        },
        {
          "name": "_inventory",
          "type": "uint128"
        }
      ],
      "name": "__abiEncode",
      "outputs": [
        {
          "name": "",
          "type": "bytes"
        }
      ],
      "payable": false,
      "stateMutability": "pure",
      "type": "function"
    }
  ],
  "bytecode": "0x608060405234801561001057600080fd5b50611c95806100206000396000f3006080604052600436106100db576000357c0100000000000000000000000000000000000000000000000000000000900463ffffffff16806307409f57146100e057806311c4a6ac1461011d57806326d5e4d21461015a57806346847a2a1461019757806349615bc3146101d457806354fd4d50146102115780635a1c1d711461023c5780635ae8d61e146102795780636712440e146102b6578063840f4a64146102f35780638e91153114610330578063ac745da91461036d578063b6ca83d7146103aa578063c181061c146103e7578063d49c59ee14610424575b600080fd5b3480156100ec57600080fd5b5061010760048036036101029190810190611669565b610461565b604051610114919061197e565b60405180910390f35b34801561012957600080fd5b50610144600480360361013f9190810190611669565b610473565b604051610151919061197e565b60405180910390f35b34801561016657600080fd5b50610181600480360361017c9190810190611628565b610485565b60405161018e9190611999565b60405180910390f35b3480156101a357600080fd5b506101be60048036036101b99190810190611692565b6104ea565b6040516101cb9190611999565b60405180910390f35b3480156101e057600080fd5b506101fb60048036036101f69190810190611692565b6105e4565b6040516102089190611963565b60405180910390f35b34801561021d57600080fd5b506102266106c7565b6040516102339190611a8e565b60405180910390f35b34801561024857600080fd5b50610263600480360361025e9190810190611669565b6106d0565b604051610270919061197e565b60405180910390f35b34801561028557600080fd5b506102a0600480360361029b9190810190611669565b6106e2565b6040516102ad919061197e565b60405180910390f35b3480156102c257600080fd5b506102dd60048036036102d89190810190611669565b6106f4565b6040516102ea919061197e565b60405180910390f35b3480156102ff57600080fd5b5061031a60048036036103159190810190611628565b610706565b6040516103279190611963565b60405180910390f35b34801561033c57600080fd5b5061035760048036036103529190810190611669565b61082e565b604051610364919061197e565b60405180910390f35b34801561037957600080fd5b50610394600480360361038f9190810190611669565b610840565b6040516103a1919061197e565b60405180910390f35b3480156103b657600080fd5b506103d160048036036103cc9190810190611669565b610852565b6040516103de919061197e565b60405180910390f35b3480156103f357600080fd5b5061040e60048036036104099190810190611669565b610864565b60405161041b919061197e565b60405180910390f35b34801561043057600080fd5b5061044b60048036036104469190810190611669565b610876565b604051610458919061197e565b60405180910390f35b600061046c82610888565b9050919050565b600061047e8261099a565b9050919050565b6060816000015182602001518360400151846060015185608001518660a001518760c001518860e001518961010001518a61012001516040516020016104d49a999897969594939291906119dd565b6040516020818303038152906040529050919050565b60606104f461133c565b610140604051908101604052808d6fffffffffffffffffffffffffffffffff1681526020018c67ffffffffffffffff1681526020018b67ffffffffffffffff1681526020018a73ffffffffffffffffffffffffffffffffffffffff1681526020018973ffffffffffffffffffffffffffffffffffffffff168152602001888152602001878152602001868152602001856fffffffffffffffffffffffffffffffff168152602001846fffffffffffffffffffffffffffffffff168152509050806040516020016105c491906119bb565b6040516020818303038152906040529150509a9950505050505050505050565b60006105ee61133c565b610140604051908101604052808d6fffffffffffffffffffffffffffffffff1681526020018c67ffffffffffffffff1681526020018b67ffffffffffffffff1681526020018a73ffffffffffffffffffffffffffffffffffffffff1681526020018973ffffffffffffffffffffffffffffffffffffffff168152602001888152602001878152602001868152602001856fffffffffffffffffffffffffffffffff168152602001846fffffffffffffffffffffffffffffffff1681525090506106b681610706565b9150509a9950505050505050505050565b60006001905090565b60006106db82610aac565b9050919050565b60006106ed82610bbe565b9050919050565b60006106ff82610cd0565b9050919050565b60008082600001516fffffffffffffffffffffffffffffffff161115156107305760009050610829565b6000826020015167ffffffffffffffff161115156107515760009050610829565b6000826040015167ffffffffffffffff161115156107725760009050610829565b600073ffffffffffffffffffffffffffffffffffffffff16826060015173ffffffffffffffffffffffffffffffffffffffff1614156107b45760009050610829565b600073ffffffffffffffffffffffffffffffffffffffff16826080015173ffffffffffffffffffffffffffffffffffffffff1614156107f65760009050610829565b60008260a0015151141561080d5760009050610829565b60008260c001515114156108245760009050610829565b600190505b919050565b600061083982610de2565b9050919050565b600061084b82610ef4565b9050919050565b600061085d82611006565b9050919050565b600061086f82611118565b9050919050565b60006108818261122a565b9050919050565b60008160405160200180807f70726f6475637400000000000000000000000000000000000000000000000000815250600701807f6465736372697074696f6e000000000000000000000000000000000000000000815250600b01826fffffffffffffffffffffffffffffffff166fffffffffffffffffffffffffffffffff167001000000000000000000000000000000000281526010019150506040516020818303038152906040526040518082805190602001908083835b6020831015156109665780518252602082019150602081019050602083039250610941565b6001836020036101000a03801982511681845116808217855250505050505090500191505060405180910390209050919050565b60008160405160200180807f70726f6475637400000000000000000000000000000000000000000000000000815250600701807f6e616d6500000000000000000000000000000000000000000000000000000000815250600401826fffffffffffffffffffffffffffffffff166fffffffffffffffffffffffffffffffff167001000000000000000000000000000000000281526010019150506040516020818303038152906040526040518082805190602001908083835b602083101515610a785780518252602082019150602081019050602083039250610a53565b6001836020036101000a03801982511681845116808217855250505050505090500191505060405180910390209050919050565b60008160405160200180807f70726f6475637400000000000000000000000000000000000000000000000000815250600701807f696d616765555249000000000000000000000000000000000000000000000000815250600801826fffffffffffffffffffffffffffffffff166fffffffffffffffffffffffffffffffff167001000000000000000000000000000000000281526010019150506040516020818303038152906040526040518082805190602001908083835b602083101515610b8a5780518252602082019150602081019050602083039250610b65565b6001836020036101000a03801982511681845116808217855250505050505090500191505060405180910390209050919050565b60008160405160200180807f70726f6475637400000000000000000000000000000000000000000000000000815250600701807f6372656174656442790000000000000000000000000000000000000000000000815250600901826fffffffffffffffffffffffffffffffff166fffffffffffffffffffffffffffffffff167001000000000000000000000000000000000281526010019150506040516020818303038152906040526040518082805190602001908083835b602083101515610c9c5780518252602082019150602081019050602083039250610c77565b6001836020036101000a03801982511681845116808217855250505050505090500191505060405180910390209050919050565b60008160405160200180807f70726f6475637400000000000000000000000000000000000000000000000000815250600701807f6964000000000000000000000000000000000000000000000000000000000000815250600201826fffffffffffffffffffffffffffffffff166fffffffffffffffffffffffffffffffff167001000000000000000000000000000000000281526010019150506040516020818303038152906040526040518082805190602001908083835b602083101515610dae5780518252602082019150602081019050602083039250610d89565b6001836020036101000a03801982511681845116808217855250505050505090500191505060405180910390209050919050565b60008160405160200180807f70726f6475637400000000000000000000000000000000000000000000000000815250600701807f7570646174656441740000000000000000000000000000000000000000000000815250600901826fffffffffffffffffffffffffffffffff166fffffffffffffffffffffffffffffffff167001000000000000000000000000000000000281526010019150506040516020818303038152906040526040518082805190602001908083835b602083101515610ec05780518252602082019150602081019050602083039250610e9b565b6001836020036101000a03801982511681845116808217855250505050505090500191505060405180910390209050919050565b60008160405160200180807f70726f6475637400000000000000000000000000000000000000000000000000815250600701807f7570646174656442790000000000000000000000000000000000000000000000815250600901826fffffffffffffffffffffffffffffffff166fffffffffffffffffffffffffffffffff167001000000000000000000000000000000000281526010019150506040516020818303038152906040526040518082805190602001908083835b602083101515610fd25780518252602082019150602081019050602083039250610fad565b6001836020036101000a03801982511681845116808217855250505050505090500191505060405180910390209050919050565b60008160405160200180807f70726f6475637400000000000000000000000000000000000000000000000000815250600701807f6372656174656441740000000000000000000000000000000000000000000000815250600901826fffffffffffffffffffffffffffffffff166fffffffffffffffffffffffffffffffff167001000000000000000000000000000000000281526010019150506040516020818303038152906040526040518082805190602001908083835b6020831015156110e457805182526020820191506020810190506020830392506110bf565b6001836020036101000a03801982511681845116808217855250505050505090500191505060405180910390209050919050565b60008160405160200180807f70726f6475637400000000000000000000000000000000000000000000000000815250600701807f696e76656e746f72790000000000000000000000000000000000000000000000815250600901826fffffffffffffffffffffffffffffffff166fffffffffffffffffffffffffffffffff167001000000000000000000000000000000000281526010019150506040516020818303038152906040526040518082805190602001908083835b6020831015156111f657805182526020820191506020810190506020830392506111d1565b6001836020036101000a03801982511681845116808217855250505050505090500191505060405180910390209050919050565b60008160405160200180807f70726f6475637400000000000000000000000000000000000000000000000000815250600701807f7072696365000000000000000000000000000000000000000000000000000000815250600501826fffffffffffffffffffffffffffffffff166fffffffffffffffffffffffffffffffff167001000000000000000000000000000000000281526010019150506040516020818303038152906040526040518082805190602001908083835b60208310151561130857805182526020820191506020810190506020830392506112e3565b6001836020036101000a03801982511681845116808217855250505050505090500191505060405180910390209050919050565b6101406040519081016040528060006fffffffffffffffffffffffffffffffff168152602001600067ffffffffffffffff168152602001600067ffffffffffffffff168152602001600073ffffffffffffffffffffffffffffffffffffffff168152602001600073ffffffffffffffffffffffffffffffffffffffff16815260200160608152602001606081526020016060815260200160006fffffffffffffffffffffffffffffffff16815260200160006fffffffffffffffffffffffffffffffff1681525090565b60006114128235611bb8565b905092915050565b600082601f830112151561142d57600080fd5b813561144061143b82611ad6565b611aa9565b9150808252602083016020830185838301111561145c57600080fd5b611467838284611c08565b50505092915050565b600082601f830112151561148357600080fd5b813561149661149182611b02565b611aa9565b915080825260208301602083018583830111156114b257600080fd5b6114bd838284611c08565b50505092915050565b600061014082840312156114d957600080fd5b6114e4610140611aa9565b905060006114f484828501611600565b600083015250602061150884828501611614565b602083015250604061151c84828501611614565b604083015250606061153084828501611406565b606083015250608061154484828501611406565b60808301525060a082013567ffffffffffffffff81111561156457600080fd5b6115708482850161141a565b60a08301525060c082013567ffffffffffffffff81111561159057600080fd5b61159c8482850161141a565b60c08301525060e082013567ffffffffffffffff8111156115bc57600080fd5b6115c88482850161141a565b60e0830152506101006115dd84828501611600565b610100830152506101206115f384828501611600565b6101208301525092915050565b600061160c8235611bd8565b905092915050565b60006116208235611bf4565b905092915050565b60006020828403121561163a57600080fd5b600082013567ffffffffffffffff81111561165457600080fd5b611660848285016114c6565b91505092915050565b60006020828403121561167b57600080fd5b600061168984828501611600565b91505092915050565b6000806000806000806000806000806101408b8d0312156116b257600080fd5b60006116c08d828e01611600565b9a505060206116d18d828e01611614565b99505060406116e28d828e01611614565b98505060606116f38d828e01611406565b97505060806117048d828e01611406565b96505060a08b013567ffffffffffffffff81111561172157600080fd5b61172d8d828e01611470565b95505060c08b013567ffffffffffffffff81111561174a57600080fd5b6117568d828e01611470565b94505060e08b013567ffffffffffffffff81111561177357600080fd5b61177f8d828e01611470565b9350506101006117918d828e01611600565b9250506101206117a38d828e01611600565b9150509295989b9194979a5092959850565b6117be81611b44565b82525050565b6117cd81611b64565b82525050565b6117dc81611b70565b82525050565b60006117ed82611b2e565b808452611801816020860160208601611c17565b61180a81611c4a565b602085010191505092915050565b600061182382611b39565b808452611837816020860160208601611c17565b61184081611c4a565b602085010191505092915050565b6000610140830160008301516118676000860182611936565b50602083015161187a6020860182611954565b50604083015161188d6040860182611954565b5060608301516118a060608601826117b5565b5060808301516118b360808601826117b5565b5060a083015184820360a08601526118cb8282611818565b91505060c083015184820360c08601526118e58282611818565b91505060e083015184820360e08601526118ff8282611818565b915050610100830151611916610100860182611936565b5061012083015161192b610120860182611936565b508091505092915050565b61193f81611b7a565b82525050565b61194e81611b96565b82525050565b61195d81611ba4565b82525050565b600060208201905061197860008301846117c4565b92915050565b600060208201905061199360008301846117d3565b92915050565b600060208201905081810360008301526119b381846117e2565b905092915050565b600060208201905081810360008301526119d5818461184e565b905092915050565b6000610140820190506119f3600083018d611936565b611a00602083018c611954565b611a0d604083018b611954565b611a1a606083018a6117b5565b611a2760808301896117b5565b81810360a0830152611a398188611818565b905081810360c0830152611a4d8187611818565b905081810360e0830152611a618186611818565b9050611a71610100830185611936565b611a7f610120830184611936565b9b9a5050505050505050505050565b6000602082019050611aa36000830184611945565b92915050565b6000604051905081810181811067ffffffffffffffff82111715611acc57600080fd5b8060405250919050565b600067ffffffffffffffff821115611aed57600080fd5b601f19601f8301169050602081019050919050565b600067ffffffffffffffff821115611b1957600080fd5b601f19601f8301169050602081019050919050565b600081519050919050565b600081519050919050565b600073ffffffffffffffffffffffffffffffffffffffff82169050919050565b60008115159050919050565b6000819050919050565b60006fffffffffffffffffffffffffffffffff82169050919050565b600061ffff82169050919050565b600067ffffffffffffffff82169050919050565b600073ffffffffffffffffffffffffffffffffffffffff82169050919050565b60006fffffffffffffffffffffffffffffffff82169050919050565b600067ffffffffffffffff82169050919050565b82818337600083830152505050565b60005b83811015611c35578082015181840152602081019050611c1a565b83811115611c44576000848401525b50505050565b6000601f19601f83011690509190505600a265627a7a72305820c8638217cd4bdffc3196a7983f51186d6e06210431551a64670aed64455799656c6578706572696d656e74616cf50037",
  "source": "pragma solidity ^0.4.23;\npragma experimental ABIEncoderV2;\n\nimport \"../models/product/ProductV1.sol\";\n\n/**\n* @title MockProductV1\n* @dev Mock contract used for ProductV1 tests\n*/\ncontract MockProductV1 is ProductV1 {\n\n  /**\n  * @dev Performs validation on the given product model\n  * @return Boolean value representing the validity status of the product\n  */\n  function __isValid(\n    uint128 _id,\n    uint64 _createdAt,\n    uint64 _updatedAt,\n    address _createdBy,\n    address _updatedBy,\n    string _name,\n    string _description,\n    string _imageURI,\n    uint128 _price,\n    uint128 _inventory\n  ) \n    public pure returns(bool)\n  {\n    ModelV1 memory product = ModelV1({ id: _id,\n                                       createdAt: _createdAt,\n                                       updatedAt: _updatedAt,\n                                       createdBy: _createdBy,\n                                       updatedBy: _updatedBy,\n                                       name: _name,\n                                       description: _description,\n                                       imageURI: _imageURI,\n                                       price: _price,\n                                       inventory: _inventory\n                                      });\n    return isValid(product);\n  }\n\n  /**\n  * @dev Key parameters for retrieving data from Eternal Storage\n  */\n  function __idKey(uint128 _id) public pure returns(bytes32) {\n    return idKey(_id);\n  }\n\n  function __createdAtKey(uint128 _id) public pure returns(bytes32) {\n    return createdAtKey(_id);\n  }\n\n  function __updatedAtKey(uint128 _id) public pure returns(bytes32) {\n    return updatedAtKey(_id);\n  }\n\n  function __createdByKey(uint128 _id) public pure returns(bytes32) {\n    return createdByKey(_id);\n  }\n\n  function __updatedByKey(uint128 _id) public pure returns(bytes32) {\n    return updatedByKey(_id);\n  }\n\n  function __nameKey(uint128 _id) public pure returns(bytes32) {\n    return nameKey(_id);\n  }\n\n  function __descriptionKey(uint128 _id) public pure returns(bytes32) {\n    return descriptionKey(_id);\n  }\n\n  function __imageURIKey(uint128 _id) public pure returns(bytes32) {\n    return imageURIKey(_id);\n  }\n\n  function __priceKey(uint128 _id) public pure returns(bytes32) {\n    return priceKey(_id);\n  }\n\n  function __inventoryKey(uint128 _id) public pure returns(bytes32) {\n    return inventoryKey(_id);\n  }\n\n  /**\n  * @dev ABI encodes the given product\n  * @return ABI byte-encoded product model\n  */\n  function __abiEncode(\n    uint128 _id,\n    uint64 _createdAt,\n    uint64 _updatedAt,\n    address _createdBy,\n    address _updatedBy,\n    string _name,\n    string _description,\n    string _imageURI,\n    uint128 _price,\n    uint128 _inventory\n  ) public pure returns(bytes)\n  {\n    ModelV1 memory product = ModelV1({ id: _id,\n     createdAt: _createdAt,\n     updatedAt: _updatedAt,\n     createdBy: _createdBy,\n     updatedBy: _updatedBy,\n     name: _name,\n     description: _description,\n     imageURI: _imageURI,\n     price: _price,\n     inventory: _inventory\n    });\n\n    return abi.encode(product);\n  }\n  \n}",
  "sourcePath": "/Users/matias/Projects/consensys/eth-marketplace/contracts/mocks/MockProductV1.sol",
  "compiler": {
    "name": "solc",
    "version": "0.4.24+commit.e67f0147.Emscripten.clang"
  },
  "schemaVersion": "2.0.0",
  "updatedAt": "2018-08-27T16:48:04.796Z"
}