{
  "contractName": "MockEternalStorage",
  "abi": [
    {
      "constant": true,
      "inputs": [],
      "name": "isEternalStorage",
      "outputs": [
        {
          "name": "",
          "type": "bool"
        }
      ],
      "payable": false,
      "stateMutability": "pure",
      "type": "function"
    },
    {
      "constant": false,
      "inputs": [
        {
          "name": "_key",
          "type": "string"
        },
        {
          "name": "_value",
          "type": "uint256"
        }
      ],
      "name": "storeUInt",
      "outputs": [],
      "payable": false,
      "stateMutability": "nonpayable",
      "type": "function"
    },
    {
      "constant": true,
      "inputs": [
        {
          "name": "_key",
          "type": "string"
        }
      ],
      "name": "getUInt",
      "outputs": [
        {
          "name": "",
          "type": "uint256"
        }
      ],
      "payable": false,
      "stateMutability": "view",
      "type": "function"
    },
    {
      "constant": false,
      "inputs": [
        {
          "name": "_key",
          "type": "string"
        },
        {
          "name": "_value",
          "type": "uint128"
        }
      ],
      "name": "storeUInt128",
      "outputs": [],
      "payable": false,
      "stateMutability": "nonpayable",
      "type": "function"
    },
    {
      "constant": true,
      "inputs": [
        {
          "name": "_key",
          "type": "string"
        }
      ],
      "name": "getUInt128",
      "outputs": [
        {
          "name": "",
          "type": "uint128"
        }
      ],
      "payable": false,
      "stateMutability": "view",
      "type": "function"
    },
    {
      "constant": false,
      "inputs": [
        {
          "name": "_key",
          "type": "string"
        },
        {
          "name": "_value",
          "type": "uint64"
        }
      ],
      "name": "storeUInt64",
      "outputs": [],
      "payable": false,
      "stateMutability": "nonpayable",
      "type": "function"
    },
    {
      "constant": true,
      "inputs": [
        {
          "name": "_key",
          "type": "string"
        }
      ],
      "name": "getUInt64",
      "outputs": [
        {
          "name": "",
          "type": "uint64"
        }
      ],
      "payable": false,
      "stateMutability": "view",
      "type": "function"
    },
    {
      "constant": false,
      "inputs": [
        {
          "name": "_key",
          "type": "string"
        },
        {
          "name": "_value",
          "type": "string"
        }
      ],
      "name": "storeString",
      "outputs": [],
      "payable": false,
      "stateMutability": "nonpayable",
      "type": "function"
    },
    {
      "constant": true,
      "inputs": [
        {
          "name": "_key",
          "type": "string"
        }
      ],
      "name": "getString",
      "outputs": [
        {
          "name": "",
          "type": "string"
        }
      ],
      "payable": false,
      "stateMutability": "view",
      "type": "function"
    },
    {
      "constant": false,
      "inputs": [
        {
          "name": "_key",
          "type": "string"
        },
        {
          "name": "_value",
          "type": "address"
        }
      ],
      "name": "storeAddress",
      "outputs": [],
      "payable": false,
      "stateMutability": "nonpayable",
      "type": "function"
    },
    {
      "constant": true,
      "inputs": [
        {
          "name": "_key",
          "type": "string"
        }
      ],
      "name": "getAddress",
      "outputs": [
        {
          "name": "",
          "type": "address"
        }
      ],
      "payable": false,
      "stateMutability": "view",
      "type": "function"
    },
    {
      "constant": false,
      "inputs": [
        {
          "name": "_key",
          "type": "string"
        },
        {
          "name": "_value",
          "type": "bytes"
        }
      ],
      "name": "storeBytes",
      "outputs": [],
      "payable": false,
      "stateMutability": "nonpayable",
      "type": "function"
    },
    {
      "constant": true,
      "inputs": [
        {
          "name": "_key",
          "type": "string"
        }
      ],
      "name": "getBytes",
      "outputs": [
        {
          "name": "",
          "type": "bytes"
        }
      ],
      "payable": false,
      "stateMutability": "view",
      "type": "function"
    },
    {
      "constant": false,
      "inputs": [
        {
          "name": "_key",
          "type": "string"
        },
        {
          "name": "_value",
          "type": "bool"
        }
      ],
      "name": "storeBool",
      "outputs": [],
      "payable": false,
      "stateMutability": "nonpayable",
      "type": "function"
    },
    {
      "constant": true,
      "inputs": [
        {
          "name": "_key",
          "type": "string"
        }
      ],
      "name": "getBool",
      "outputs": [
        {
          "name": "",
          "type": "bool"
        }
      ],
      "payable": false,
      "stateMutability": "view",
      "type": "function"
    },
    {
      "constant": false,
      "inputs": [
        {
          "name": "_key",
          "type": "string"
        },
        {
          "name": "_value",
          "type": "int256"
        }
      ],
      "name": "storeInt",
      "outputs": [],
      "payable": false,
      "stateMutability": "nonpayable",
      "type": "function"
    },
    {
      "constant": true,
      "inputs": [
        {
          "name": "_key",
          "type": "string"
        }
      ],
      "name": "getInt",
      "outputs": [
        {
          "name": "",
          "type": "int256"
        }
      ],
      "payable": false,
      "stateMutability": "view",
      "type": "function"
    },
    {
      "constant": false,
      "inputs": [
        {
          "name": "_key",
          "type": "string"
        },
        {
          "name": "_value",
          "type": "int128"
        }
      ],
      "name": "storeInt128",
      "outputs": [],
      "payable": false,
      "stateMutability": "nonpayable",
      "type": "function"
    },
    {
      "constant": true,
      "inputs": [
        {
          "name": "_key",
          "type": "string"
        }
      ],
      "name": "getInt128",
      "outputs": [
        {
          "name": "",
          "type": "int128"
        }
      ],
      "payable": false,
      "stateMutability": "view",
      "type": "function"
    },
    {
      "constant": false,
      "inputs": [
        {
          "name": "_key",
          "type": "string"
        },
        {
          "name": "_value",
          "type": "int64"
        }
      ],
      "name": "storeInt64",
      "outputs": [],
      "payable": false,
      "stateMutability": "nonpayable",
      "type": "function"
    },
    {
      "constant": true,
      "inputs": [
        {
          "name": "_key",
          "type": "string"
        }
      ],
      "name": "getInt64",
      "outputs": [
        {
          "name": "",
          "type": "int64"
        }
      ],
      "payable": false,
      "stateMutability": "view",
      "type": "function"
    }
  ],
  "bytecode": "0x608060405234801561001057600080fd5b506114a1806100206000396000f30060806040526004361061011d576000357c0100000000000000000000000000000000000000000000000000000000900463ffffffff16806305a1f4ca1461012257806305b1f7751461019557806311df6e80146102445780632cb8f256146102c15780633536046a14610352578063447be9c3146103cf57806346e10a4a146104585780634c7b28b1146104db5780634f9ac6b71461055e578063562c70c7146105d45780635e4993d5146106595780636f5fa932146106cc5780638de9104a146107425780639535ce12146107b75780639c981fcb14610838578063abdf917b1461091a578063b1a6909a146109bb578063bf40fac1146109ea578063d8de899d14610a93578063dc6fbe7a14610b75578063fda69fae14610c24575b600080fd5b34801561012e57600080fd5b50610193600480360381019080803590602001908201803590602001908080601f016020809104026020016040519081016040528093929190818152602001838380828437820191505050505050919291929080359060200190929190505050610ca1565b005b3480156101a157600080fd5b50610242600480360381019080803590602001908201803590602001908080601f0160208091040260200160405190810160405280939291908181526020018383808284378201915050505050509192919290803590602001908201803590602001908080601f0160208091040260200160405190810160405280939291908181526020018383808284378201915050505050509192919290505050610ccc565b005b34801561025057600080fd5b506102bf600480360381019080803590602001908201803590602001908080601f0160208091040260200160405190810160405280939291908181526020018383808284378201915050505050509192919290803567ffffffffffffffff169060200190929190505050610d08565b005b3480156102cd57600080fd5b50610328600480360381019080803590602001908201803590602001908080601f0160208091040260200160405190810160405280939291908181526020018383808284378201915050505050509192919290505050610d56565b604051808267ffffffffffffffff1667ffffffffffffffff16815260200191505060405180910390f35b34801561035e57600080fd5b506103b9600480360381019080803590602001908201803590602001908080601f0160208091040260200160405190810160405280939291908181526020018383808284378201915050505050509192919290505050610d97565b6040518082815260200191505060405180910390f35b3480156103db57600080fd5b50610456600480360381019080803590602001908201803590602001908080601f0160208091040260200160405190810160405280939291908181526020018383808284378201915050505050509192919290803573ffffffffffffffffffffffffffffffffffffffff169060200190929190505050610dc3565b005b34801561046457600080fd5b506104bf600480360381019080803590602001908201803590602001908080601f0160208091040260200160405190810160405280939291908181526020018383808284378201915050505050509192919290505050610e29565b604051808260070b60070b815260200191505060405180910390f35b3480156104e757600080fd5b50610542600480360381019080803590602001908201803590602001908080601f0160208091040260200160405190810160405280939291908181526020018383808284378201915050505050509192919290505050610e63565b6040518082600f0b600f0b815260200191505060405180910390f35b34801561056a57600080fd5b506105d2600480360381019080803590602001908201803590602001908080601f0160208091040260200160405190810160405280939291908181526020018383808284378201915050505050509192919290803560070b9060200190929190505050610e9d565b005b3480156105e057600080fd5b50610657600480360381019080803590602001908201803590602001908080601f016020809104026020016040519081016040528093929190818152602001838380828437820191505050505050919291929080356fffffffffffffffffffffffffffffffff169060200190929190505050610eee565b005b34801561066557600080fd5b506106ca600480360381019080803590602001908201803590602001908080601f016020809104026020016040519081016040528093929190818152602001838380828437820191505050505050919291929080359060200190929190505050610f4c565b005b3480156106d857600080fd5b50610740600480360381019080803590602001908201803590602001908080601f01602080910402602001604051908101604052809392919081815260200183838082843782019150505050505091929192908035600f0b9060200190929190505050610f78565b005b34801561074e57600080fd5b506107b5600480360381019080803590602001908201803590602001908080601f0160208091040260200160405190810160405280939291908181526020018383808284378201915050505050509192919290803515159060200190929190505050610fd9565b005b3480156107c357600080fd5b5061081e600480360381019080803590602001908201803590602001908080601f0160208091040260200160405190810160405280939291908181526020018383808284378201915050505050509192919290505050611018565b604051808215151515815260200191505060405180910390f35b34801561084457600080fd5b5061089f600480360381019080803590602001908201803590602001908080601f0160208091040260200160405190810160405280939291908181526020018383808284378201915050505050509192919290505050611052565b6040518080602001828103825283818151815260200191508051906020019080838360005b838110156108df5780820151818401526020810190506108c4565b50505050905090810190601f16801561090c5780820380516001836020036101000a031916815260200191505b509250505060405180910390f35b34801561092657600080fd5b50610981600480360381019080803590602001908201803590602001908080601f0160208091040260200160405190810160405280939291908181526020018383808284378201915050505050509192919290505050611117565b60405180826fffffffffffffffffffffffffffffffff166fffffffffffffffffffffffffffffffff16815260200191505060405180910390f35b3480156109c757600080fd5b506109d0611160565b604051808215151515815260200191505060405180910390f35b3480156109f657600080fd5b50610a51600480360381019080803590602001908201803590602001908080601f0160208091040260200160405190810160405280939291908181526020018383808284378201915050505050509192919290505050611169565b604051808273ffffffffffffffffffffffffffffffffffffffff1673ffffffffffffffffffffffffffffffffffffffff16815260200191505060405180910390f35b348015610a9f57600080fd5b50610afa600480360381019080803590602001908201803590602001908080601f01602080910402602001604051908101604052809392919081815260200183838082843782019150505050505091929192905050506111b6565b6040518080602001828103825283818151815260200191508051906020019080838360005b83811015610b3a578082015181840152602081019050610b1f565b50505050905090810190601f168015610b675780820380516001836020036101000a031916815260200191505b509250505060405180910390f35b348015610b8157600080fd5b50610c22600480360381019080803590602001908201803590602001908080601f0160208091040260200160405190810160405280939291908181526020018383808284378201915050505050509192919290803590602001908201803590602001908080601f016020809104026020016040519081016040528093929190818152602001838380828437820191505050505050919291929050505061127b565b005b348015610c3057600080fd5b50610c8b600480360381019080803590602001908201803590602001908080601f01602080910402602001604051908101604052809392919081815260200183838082843782019150505050505091929192905050506112b7565b6040518082815260200191505060405180910390f35b80600080610cae856112e4565b60001916600019168152602001908152602001600020819055505050565b8060036000610cda856112e4565b600019166000191681526020019081526020016000209080519060200190610d03929190611350565b505050565b8060026000610d16856112e4565b6000191660001916815260200190815260200160002060006101000a81548167ffffffffffffffff021916908367ffffffffffffffff1602179055505050565b600060026000610d65846112e4565b6000191660001916815260200190815260200160002060009054906101000a900467ffffffffffffffff169050919050565b6000806000610da5846112e4565b60001916600019168152602001908152602001600020549050919050565b8060046000610dd1856112e4565b6000191660001916815260200190815260200160002060006101000a81548173ffffffffffffffffffffffffffffffffffffffff021916908373ffffffffffffffffffffffffffffffffffffffff1602179055505050565b600060096000610e38846112e4565b6000191660001916815260200190815260200160002060009054906101000a900460070b9050919050565b600060086000610e72846112e4565b6000191660001916815260200190815260200160002060009054906101000a9004600f0b9050919050565b8060096000610eab856112e4565b6000191660001916815260200190815260200160002060006101000a81548167ffffffffffffffff021916908360070b67ffffffffffffffff1602179055505050565b8060016000610efc856112e4565b6000191660001916815260200190815260200160002060006101000a8154816fffffffffffffffffffffffffffffffff02191690836fffffffffffffffffffffffffffffffff1602179055505050565b8060076000610f5a856112e4565b60001916600019168152602001908152602001600020819055505050565b8060086000610f86856112e4565b6000191660001916815260200190815260200160002060006101000a8154816fffffffffffffffffffffffffffffffff0219169083600f0b6fffffffffffffffffffffffffffffffff1602179055505050565b8060066000610fe7856112e4565b6000191660001916815260200190815260200160002060006101000a81548160ff0219169083151502179055505050565b600060066000611027846112e4565b6000191660001916815260200190815260200160002060009054906101000a900460ff169050919050565b606060036000611061846112e4565b600019166000191681526020019081526020016000208054600181600116156101000203166002900480601f01602080910402602001604051908101604052809291908181526020018280546001816001161561010002031660029004801561110b5780601f106110e05761010080835404028352916020019161110b565b820191906000526020600020905b8154815290600101906020018083116110ee57829003601f168201915b50505050509050919050565b600060016000611126846112e4565b6000191660001916815260200190815260200160002060009054906101000a90046fffffffffffffffffffffffffffffffff169050919050565b60006001905090565b600060046000611178846112e4565b6000191660001916815260200190815260200160002060009054906101000a900473ffffffffffffffffffffffffffffffffffffffff169050919050565b6060600560006111c5846112e4565b600019166000191681526020019081526020016000208054600181600116156101000203166002900480601f01602080910402602001604051908101604052809291908181526020018280546001816001161561010002031660029004801561126f5780601f106112445761010080835404028352916020019161126f565b820191906000526020600020905b81548152906001019060200180831161125257829003601f168201915b50505050509050919050565b8060056000611289856112e4565b6000191660001916815260200190815260200160002090805190602001906112b29291906113d0565b505050565b6000600760006112c6846112e4565b60001916600019168152602001908152602001600020549050919050565b6000816040518082805190602001908083835b60208310151561131c57805182526020820191506020810190506020830392506112f7565b6001836020036101000a03801982511681845116808217855250505050505090500191505060405180910390209050919050565b828054600181600116156101000203166002900490600052602060002090601f016020900481019282601f1061139157805160ff19168380011785556113bf565b828001600101855582156113bf579182015b828111156113be5782518255916020019190600101906113a3565b5b5090506113cc9190611450565b5090565b828054600181600116156101000203166002900490600052602060002090601f016020900481019282601f1061141157805160ff191683800117855561143f565b8280016001018555821561143f579182015b8281111561143e578251825591602001919060010190611423565b5b50905061144c9190611450565b5090565b61147291905b8082111561146e576000816000905550600101611456565b5090565b905600a165627a7a7230582004472e845c60e52bfedf2c0a6902597976b9987b730f3688ea03b92545b3ce890029",
  "source": "pragma solidity ^0.4.23;\n\nimport \"../storage/EternalStorage.sol\";\n\n/**\n* @title MockEternalStorage\n* @dev Mock contract used for EternalStorage tests\n*/\ncontract MockEternalStorage is EternalStorage {\n\n  /**\n  * @dev Returns the bytes32 value for the provided key string\n  * @param _key Key value to be encoded as bytes32\n  * @return bytes32 encoding of the provided string key\n  */\n  function keyFor(string _key) internal pure returns(bytes32) {\n    return keccak256(_key);\n  }\n\n  /* UInt Accessors */\n  function storeUInt(string _key, uint256 _value) public {\n    uintStorage[keyFor(_key)] = _value;\n  }\n\n  function getUInt(string _key) public view returns(uint256) {\n    return uintStorage[keyFor(_key)];\n  }\n\n  /* UInt128 Accessors */\n  function storeUInt128(string _key, uint128 _value) public {\n    uint128Storage[keyFor(_key)] = _value;\n  }\n\n  function getUInt128(string _key) public view returns(uint128) {\n    return uint128Storage[keyFor(_key)];\n  }\n\n  /* UInt64 Accessors */\n  function storeUInt64(string _key, uint64 _value) public {\n    uint64Storage[keyFor(_key)] = _value;\n  }\n\n  function getUInt64(string _key) public view returns(uint64) {\n    return uint64Storage[keyFor(_key)];\n  }\n\n  /* String Accessors */\n  function storeString(string _key, string _value) public {\n    stringStorage[keyFor(_key)] = _value;\n  }\n\n  function getString(string _key) public view returns(string) {\n    return stringStorage[keyFor(_key)];\n  }\n\n  /* Address Accessors */\n  function storeAddress(string _key, address _value) public {\n    addressStorage[keyFor(_key)] = _value;\n  }\n\n  function getAddress(string _key) public view returns(address) {\n    return addressStorage[keyFor(_key)];\n  }\n\n  /* Bytes Accessors */\n  function storeBytes(string _key, bytes _value) public {\n    bytesStorage[keyFor(_key)] = _value;\n  }\n\n  function getBytes(string _key) public view returns(bytes) {\n    return bytesStorage[keyFor(_key)];\n  }\n\n  /* Bool Accessors */\n  function storeBool(string _key, bool _value) public {\n    boolStorage[keyFor(_key)] = _value;\n  }\n\n  function getBool(string _key) public view returns(bool) {\n    return boolStorage[keyFor(_key)];\n  }\n\n  /* Int Accessors */\n  function storeInt(string _key, int256 _value) public {\n    intStorage[keyFor(_key)] = _value;\n  }\n\n  function getInt(string _key) public view returns(int256) {\n    return intStorage[keyFor(_key)];\n  }\n\n  /* Int128 Accessors */\n  function storeInt128(string _key, int128 _value) public {\n    int128Storage[keyFor(_key)] = _value;\n  }\n\n  function getInt128(string _key) public view returns(int128) {\n    return int128Storage[keyFor(_key)];\n  }\n\n  /* Int64 Accessors */\n  function storeInt64(string _key, int64 _value) public {\n    int64Storage[keyFor(_key)] = _value;\n  }\n\n  function getInt64(string _key) public view returns(int64) {\n    return int64Storage[keyFor(_key)];\n  }\n\n}",
  "sourcePath": "/Users/matias/Projects/consensys/eth-marketplace/contracts/mocks/MockEternalStorage.sol",
  "compiler": {
    "name": "solc",
    "version": "0.4.24+commit.e67f0147.Emscripten.clang"
  },
  "schemaVersion": "2.0.0",
  "updatedAt": "2018-08-27T00:53:52.783Z"
}