{
  "contractName": "MockPausableProxy",
  "abi": [
    {
      "constant": false,
      "inputs": [],
      "name": "unpause",
      "outputs": [],
      "payable": false,
      "stateMutability": "nonpayable",
      "type": "function"
    },
    {
      "constant": true,
      "inputs": [],
      "name": "isProxy",
      "outputs": [
        {
          "name": "",
          "type": "bool"
        }
      ],
      "payable": false,
      "stateMutability": "pure",
      "type": "function"
    },
    {
      "constant": false,
      "inputs": [],
      "name": "pause",
      "outputs": [],
      "payable": false,
      "stateMutability": "nonpayable",
      "type": "function"
    },
    {
      "constant": false,
      "inputs": [
        {
          "name": "_newAddress",
          "type": "address"
        }
      ],
      "name": "updateACL",
      "outputs": [],
      "payable": false,
      "stateMutability": "nonpayable",
      "type": "function"
    },
    {
      "constant": true,
      "inputs": [],
      "name": "isPaused",
      "outputs": [
        {
          "name": "_isPaused",
          "type": "bool"
        }
      ],
      "payable": false,
      "stateMutability": "view",
      "type": "function"
    },
    {
      "constant": true,
      "inputs": [],
      "name": "acl",
      "outputs": [
        {
          "name": "_acl",
          "type": "address"
        }
      ],
      "payable": false,
      "stateMutability": "view",
      "type": "function"
    },
    {
      "inputs": [
        {
          "name": "_aclAddress",
          "type": "address"
        }
      ],
      "payable": false,
      "stateMutability": "nonpayable",
      "type": "constructor"
    },
    {
      "payable": true,
      "stateMutability": "payable",
      "type": "fallback"
    },
    {
      "anonymous": false,
      "inputs": [],
      "name": "Paused",
      "type": "event"
    },
    {
      "anonymous": false,
      "inputs": [],
      "name": "Unpaused",
      "type": "event"
    },
    {
      "anonymous": false,
      "inputs": [
        {
          "indexed": true,
          "name": "_oldAddress",
          "type": "address"
        },
        {
          "indexed": true,
          "name": "_newAddress",
          "type": "address"
        }
      ],
      "name": "ACLUpdated",
      "type": "event"
    },
    {
      "constant": false,
      "inputs": [
        {
          "name": "_proxyImplementation",
          "type": "address"
        }
      ],
      "name": "setImplementation",
      "outputs": [],
      "payable": false,
      "stateMutability": "nonpayable",
      "type": "function"
    },
    {
      "constant": true,
      "inputs": [],
      "name": "implementation",
      "outputs": [
        {
          "name": "",
          "type": "address"
        }
      ],
      "payable": false,
      "stateMutability": "view",
      "type": "function"
    }
  ],
  "bytecode": "0x608060405234801561001057600080fd5b50604051602080610e778339810180604052810190808051906020019092919050505080808061004e816100b2640100000000026401000000009004565b8073ffffffffffffffffffffffffffffffffffffffff16600073ffffffffffffffffffffffffffffffffffffffff167fd9c4a08818b5e0b58c0856ec8285d83c51f0654438a200ef0f9e0e968f583ca960405160405180910390a3505050506102f5565b60006100d0826102e264010000000002610b34176401000000009004565b151561016a576040517f08c379a00000000000000000000000000000000000000000000000000000000081526004018080602001828103825260218152602001807f4e65772041434c2061646472657373206973206e6f74206120636f6e7472616381526020017f740000000000000000000000000000000000000000000000000000000000000081525060400191505060405180910390fd5b8173ffffffffffffffffffffffffffffffffffffffff1663a8218cd36040518163ffffffff167c0100000000000000000000000000000000000000000000000000000000028152600401602060405180830381600087803b1580156101ce57600080fd5b505af11580156101e2573d6000803e3d6000fd5b505050506040513d60208110156101f857600080fd5b810190808051906020019092919050505015156102a3576040517f08c379a00000000000000000000000000000000000000000000000000000000081526004018080602001828103825260328152602001807f4e65772041434c206164647265737320646f6573206e6f7420636f6e666f726d81526020017f20746f204941434c20696e74657266616365000000000000000000000000000081525060400191505060405180910390fd5b60405180807f636f6d2e6d61726b6574706c6163652e61636c726571756972696e672e61636c8152506020019050604051809103902090508181555050565b600080823b905060008111915050919050565b610b73806103046000396000f30060806040526004361061008e576000357c0100000000000000000000000000000000000000000000000000000000900463ffffffff1680633f4ba83a1461017f5780635c60da1b1461019657806364da4e6f146101ed5780638456cb591461021c57806387a7066b14610233578063b187bd2614610276578063d784d426146102a5578063de287359146102e8575b600080151561009b61033f565b15151415156100a957600080fd5b6100b16103a8565b9050600073ffffffffffffffffffffffffffffffffffffffff168173ffffffffffffffffffffffffffffffffffffffff1614151515610158576040517f08c379a000000000000000000000000000000000000000000000000000000000815260040180806020018281038252601e8152602001807f496d706c656d656e746174696f6e2061646472657373206e6f7420736574000081525060200191505060405180910390fd5b60405136600082376000803683855af43d806000843e816000811461017b578184f35b8184fd5b34801561018b57600080fd5b506101946103d1565b005b3480156101a257600080fd5b506101ab6103a8565b604051808273ffffffffffffffffffffffffffffffffffffffff1673ffffffffffffffffffffffffffffffffffffffff16815260200191505060405180910390f35b3480156101f957600080fd5b5061020261050a565b604051808215151515815260200191505060405180910390f35b34801561022857600080fd5b50610231610513565b005b34801561023f57600080fd5b50610274600480360381019080803573ffffffffffffffffffffffffffffffffffffffff169060200190929190505050610653565b005b34801561028257600080fd5b5061028b61033f565b604051808215151515815260200191505060405180910390f35b3480156102b157600080fd5b506102e6600480360381019080803573ffffffffffffffffffffffffffffffffffffffff16906020019092919050505061082a565b005b3480156102f457600080fd5b506102fd61086d565b604051808273ffffffffffffffffffffffffffffffffffffffff1673ffffffffffffffffffffffffffffffffffffffff16815260200191505060405180910390f35b60008060405180807f636f6d2e6d61726b6574706c6163652e7061757361626c652e6973706175736581526020017f6400000000000000000000000000000000000000000000000000000000000000815250602101905060405180910390209050805491505090565b60008060009054906101000a900473ffffffffffffffffffffffffffffffffffffffff16905090565b60006103db61086d565b90508073ffffffffffffffffffffffffffffffffffffffff1663bb6a4520336040518263ffffffff167c0100000000000000000000000000000000000000000000000000000000028152600401808273ffffffffffffffffffffffffffffffffffffffff1673ffffffffffffffffffffffffffffffffffffffff168152602001915050602060405180830381600087803b15801561047857600080fd5b505af115801561048c573d6000803e3d6000fd5b505050506040513d60208110156104a257600080fd5b810190808051906020019092919050505015156104be57600080fd5b6104c661033f565b15156104d157600080fd5b6104db60006108b0565b7fa45f47fdea8a1efdd9029a5691c7f759c32b7c698632b563573e155625d1693360405160405180910390a150565b60006001905090565b600061051d61086d565b90508073ffffffffffffffffffffffffffffffffffffffff1663bb6a4520336040518263ffffffff167c0100000000000000000000000000000000000000000000000000000000028152600401808273ffffffffffffffffffffffffffffffffffffffff1673ffffffffffffffffffffffffffffffffffffffff168152602001915050602060405180830381600087803b1580156105ba57600080fd5b505af11580156105ce573d6000803e3d6000fd5b505050506040513d60208110156105e457600080fd5b8101908080519060200190929190505050151561060057600080fd5b6000151561060c61033f565b151514151561061a57600080fd5b61062460016108b0565b7f9e87fac88ff661f02d44f95383c817fece4bce600a3dab7a54406878b965e75260405160405180910390a150565b60008061065e61086d565b90508073ffffffffffffffffffffffffffffffffffffffff1663bb6a4520336040518263ffffffff167c0100000000000000000000000000000000000000000000000000000000028152600401808273ffffffffffffffffffffffffffffffffffffffff1673ffffffffffffffffffffffffffffffffffffffff168152602001915050602060405180830381600087803b1580156106fb57600080fd5b505af115801561070f573d6000803e3d6000fd5b505050506040513d602081101561072557600080fd5b8101908080519060200190929190505050151561074157600080fd5b600073ffffffffffffffffffffffffffffffffffffffff168373ffffffffffffffffffffffffffffffffffffffff161415151561077d57600080fd5b61078561086d565b91508173ffffffffffffffffffffffffffffffffffffffff168373ffffffffffffffffffffffffffffffffffffffff16141515156107c257600080fd5b6107cb83610917565b8273ffffffffffffffffffffffffffffffffffffffff168273ffffffffffffffffffffffffffffffffffffffff167fd9c4a08818b5e0b58c0856ec8285d83c51f0654438a200ef0f9e0e968f583ca960405160405180910390a3505050565b806000806101000a81548173ffffffffffffffffffffffffffffffffffffffff021916908373ffffffffffffffffffffffffffffffffffffffff16021790555050565b60008060405180807f636f6d2e6d61726b6574706c6163652e61636c726571756972696e672e61636c815250602001905060405180910390209050805491505090565b600060405180807f636f6d2e6d61726b6574706c6163652e7061757361626c652e6973706175736581526020017f64000000000000000000000000000000000000000000000000000000000000008152506021019050604051809103902090508181555050565b600061092282610b34565b15156109bc576040517f08c379a00000000000000000000000000000000000000000000000000000000081526004018080602001828103825260218152602001807f4e65772041434c2061646472657373206973206e6f74206120636f6e7472616381526020017f740000000000000000000000000000000000000000000000000000000000000081525060400191505060405180910390fd5b8173ffffffffffffffffffffffffffffffffffffffff1663a8218cd36040518163ffffffff167c0100000000000000000000000000000000000000000000000000000000028152600401602060405180830381600087803b158015610a2057600080fd5b505af1158015610a34573d6000803e3d6000fd5b505050506040513d6020811015610a4a57600080fd5b81019080805190602001909291905050501515610af5576040517f08c379a00000000000000000000000000000000000000000000000000000000081526004018080602001828103825260328152602001807f4e65772041434c206164647265737320646f6573206e6f7420636f6e666f726d81526020017f20746f204941434c20696e74657266616365000000000000000000000000000081525060400191505060405180910390fd5b60405180807f636f6d2e6d61726b6574706c6163652e61636c726571756972696e672e61636c8152506020019050604051809103902090508181555050565b600080823b9050600081119150509190505600a165627a7a72305820f25fd79ab4f423d256065eaf5888c20c7a0b7140e1544a07e6035162c76ee85a0029",
  "source": "pragma solidity ^0.4.23;\n\nimport \"../proxy/PausableProxy.sol\";\n\n/**\n* @title MockProxy\n* @dev Mock contract used for Proxy tests\n*/\ncontract MockPausableProxy is PausableProxy {\n\n  address private proxyImplementation;\n\n  /**\n  * @dev Constructor function\n  * @param _aclAddress Address of the ACL contract to be used for pausing/unpausing authorization\n  */\n  constructor(address _aclAddress) PausableProxy(_aclAddress) public { }\n\n  /**\n  * @dev Sets implementation address to where every delegate call will be delegated\n  * @param _proxyImplementation Address of implementation contract to which calls will be delegated\n  **/\n  function setImplementation(address _proxyImplementation) public {\n    proxyImplementation = _proxyImplementation;\n  }\n\n  /**\n  * @dev Tells the address of the implementation where every delegate call will be delegated\n  * @return Address of the implementation to which contract calls will be delegated\n  */\n  function implementation() public view returns (address) {\n    return proxyImplementation;\n  }\n\n}",
  "sourcePath": "/Users/matias/Projects/consensys/eth-marketplace/contracts/mocks/MockPausableProxy.sol",
  "compiler": {
    "name": "solc",
    "version": "0.4.24+commit.e67f0147.Emscripten.clang"
  },
  "schemaVersion": "2.0.1",
  "updatedAt": "2018-08-28T00:22:10.366Z"
}