{
  "contractName": "MockProxy",
  "abi": [
    {
      "constant": true,
      "inputs": [],
      "name": "isProxy",
      "outputs": [
        {
          "name": "",
          "type": "bool"
        }
      ],
      "payable": false,
      "stateMutability": "pure",
      "type": "function"
    },
    {
      "payable": true,
      "stateMutability": "payable",
      "type": "fallback"
    },
    {
      "constant": false,
      "inputs": [
        {
          "name": "_proxyImplementation",
          "type": "address"
        }
      ],
      "name": "setImplementation",
      "outputs": [],
      "payable": false,
      "stateMutability": "nonpayable",
      "type": "function"
    },
    {
      "constant": true,
      "inputs": [],
      "name": "implementation",
      "outputs": [
        {
          "name": "",
          "type": "address"
        }
      ],
      "payable": false,
      "stateMutability": "view",
      "type": "function"
    }
  ],
  "bytecode": "0x608060405234801561001057600080fd5b50610299806100206000396000f300608060405260043610610057576000357c0100000000000000000000000000000000000000000000000000000000900463ffffffff1680635c60da1b1461012f57806364da4e6f14610186578063d784d426146101b5575b60006100616101f8565b9050600073ffffffffffffffffffffffffffffffffffffffff168173ffffffffffffffffffffffffffffffffffffffff1614151515610108576040517f08c379a000000000000000000000000000000000000000000000000000000000815260040180806020018281038252601e8152602001807f496d706c656d656e746174696f6e2061646472657373206e6f7420736574000081525060200191505060405180910390fd5b60405136600082376000803683855af43d806000843e816000811461012b578184f35b8184fd5b34801561013b57600080fd5b506101446101f8565b604051808273ffffffffffffffffffffffffffffffffffffffff1673ffffffffffffffffffffffffffffffffffffffff16815260200191505060405180910390f35b34801561019257600080fd5b5061019b610221565b604051808215151515815260200191505060405180910390f35b3480156101c157600080fd5b506101f6600480360381019080803573ffffffffffffffffffffffffffffffffffffffff16906020019092919050505061022a565b005b60008060009054906101000a900473ffffffffffffffffffffffffffffffffffffffff16905090565b60006001905090565b806000806101000a81548173ffffffffffffffffffffffffffffffffffffffff021916908373ffffffffffffffffffffffffffffffffffffffff160217905550505600a165627a7a72305820293a5b8acb7475fa3b4009a8703b97f74d8cf7f8fde34a4b828ec2f7fd6ba69d0029",
  "source": "pragma solidity ^0.4.23;\n\nimport \"../proxy/Proxy.sol\";\n\n/**\n* @title MockProxy\n* @dev Mock contract used for Proxy tests\n*/\ncontract MockProxy is Proxy {\n\n  address private proxyImplementation;\n\n  /**\n  * @dev Sets implementation address to where every delegate call will be delegated\n  * @param _proxyImplementation Address of implementation contract to which calls will be delegated\n  **/\n  function setImplementation(address _proxyImplementation) public {\n    proxyImplementation = _proxyImplementation;\n  }\n\n  /**\n  * @dev Tells the address of the implementation where every delegate call will be delegated\n  * @return Address of the implementation to which contract calls will be delegated\n  */\n  function implementation() public view returns (address) {\n    return proxyImplementation;\n  }\n\n}",
  "sourcePath": "/Users/matias/Projects/consensys/eth-marketplace/contracts/mocks/MockProxy.sol",
  "compiler": {
    "name": "solc",
    "version": "0.4.24+commit.e67f0147.Emscripten.clang"
  },
  "schemaVersion": "2.0.1",
  "updatedAt": "2018-08-27T17:14:41.788Z"
}