{
  "contractName": "MockACLRequiring",
  "abi": [
    {
      "constant": false,
      "inputs": [
        {
          "name": "_newAddress",
          "type": "address"
        }
      ],
      "name": "updateACL",
      "outputs": [],
      "payable": false,
      "stateMutability": "nonpayable",
      "type": "function"
    },
    {
      "constant": true,
      "inputs": [],
      "name": "acl",
      "outputs": [
        {
          "name": "_acl",
          "type": "address"
        }
      ],
      "payable": false,
      "stateMutability": "view",
      "type": "function"
    },
    {
      "inputs": [
        {
          "name": "_aclAddress",
          "type": "address"
        }
      ],
      "payable": false,
      "stateMutability": "nonpayable",
      "type": "constructor"
    },
    {
      "anonymous": false,
      "inputs": [
        {
          "indexed": true,
          "name": "_oldAddress",
          "type": "address"
        },
        {
          "indexed": true,
          "name": "_newAddress",
          "type": "address"
        }
      ],
      "name": "ACLUpdated",
      "type": "event"
    },
    {
      "constant": true,
      "inputs": [],
      "name": "onlyForProductOwner",
      "outputs": [
        {
          "name": "",
          "type": "bool"
        }
      ],
      "payable": false,
      "stateMutability": "view",
      "type": "function"
    },
    {
      "constant": true,
      "inputs": [],
      "name": "onlyForAuthorizedAddress",
      "outputs": [
        {
          "name": "",
          "type": "bool"
        }
      ],
      "payable": false,
      "stateMutability": "view",
      "type": "function"
    }
  ],
  "bytecode": "0x608060405234801561001057600080fd5b50604051602080610ac1833981018060405281019080805190602001909291905050508061004c816100ae640100000000026401000000009004565b8073ffffffffffffffffffffffffffffffffffffffff16600073ffffffffffffffffffffffffffffffffffffffff167fd9c4a08818b5e0b58c0856ec8285d83c51f0654438a200ef0f9e0e968f583ca960405160405180910390a350506102f1565b60006100cc826102de64010000000002610782176401000000009004565b1515610166576040517f08c379a00000000000000000000000000000000000000000000000000000000081526004018080602001828103825260218152602001807f4e65772041434c2061646472657373206973206e6f74206120636f6e7472616381526020017f740000000000000000000000000000000000000000000000000000000000000081525060400191505060405180910390fd5b8173ffffffffffffffffffffffffffffffffffffffff1663a8218cd36040518163ffffffff167c0100000000000000000000000000000000000000000000000000000000028152600401602060405180830381600087803b1580156101ca57600080fd5b505af11580156101de573d6000803e3d6000fd5b505050506040513d60208110156101f457600080fd5b8101908080519060200190929190505050151561029f576040517f08c379a00000000000000000000000000000000000000000000000000000000081526004018080602001828103825260328152602001807f4e65772041434c206164647265737320646f6573206e6f7420636f6e666f726d81526020017f20746f204941434c20696e74657266616365000000000000000000000000000081525060400191505060405180910390fd5b60405180807f636f6d2e6d61726b6574706c6163652e61636c726571756972696e672e61636c8152506020019050604051809103902090508181555050565b600080823b905060008111915050919050565b6107c1806103006000396000f300608060405260043610610062576000357c0100000000000000000000000000000000000000000000000000000000900463ffffffff1680632a33d4721461006757806387a7066b14610096578063d76ecf69146100d9578063de28735914610108575b600080fd5b34801561007357600080fd5b5061007c61015f565b604051808215151515815260200191505060405180910390f35b3480156100a257600080fd5b506100d7600480360381019080803573ffffffffffffffffffffffffffffffffffffffff169060200190929190505050610255565b005b3480156100e557600080fd5b506100ee61042c565b604051808215151515815260200191505060405180910390f35b34801561011457600080fd5b5061011d610522565b604051808273ffffffffffffffffffffffffffffffffffffffff1673ffffffffffffffffffffffffffffffffffffffff16815260200191505060405180910390f35b60008061016a610522565b90508073ffffffffffffffffffffffffffffffffffffffff1663fe9fbb80336040518263ffffffff167c0100000000000000000000000000000000000000000000000000000000028152600401808273ffffffffffffffffffffffffffffffffffffffff1673ffffffffffffffffffffffffffffffffffffffff168152602001915050602060405180830381600087803b15801561020757600080fd5b505af115801561021b573d6000803e3d6000fd5b505050506040513d602081101561023157600080fd5b8101908080519060200190929190505050151561024d57600080fd5b600191505090565b600080610260610522565b90508073ffffffffffffffffffffffffffffffffffffffff1663bb6a4520336040518263ffffffff167c0100000000000000000000000000000000000000000000000000000000028152600401808273ffffffffffffffffffffffffffffffffffffffff1673ffffffffffffffffffffffffffffffffffffffff168152602001915050602060405180830381600087803b1580156102fd57600080fd5b505af1158015610311573d6000803e3d6000fd5b505050506040513d602081101561032757600080fd5b8101908080519060200190929190505050151561034357600080fd5b600073ffffffffffffffffffffffffffffffffffffffff168373ffffffffffffffffffffffffffffffffffffffff161415151561037f57600080fd5b610387610522565b91508173ffffffffffffffffffffffffffffffffffffffff168373ffffffffffffffffffffffffffffffffffffffff16141515156103c457600080fd5b6103cd83610565565b8273ffffffffffffffffffffffffffffffffffffffff168273ffffffffffffffffffffffffffffffffffffffff167fd9c4a08818b5e0b58c0856ec8285d83c51f0654438a200ef0f9e0e968f583ca960405160405180910390a3505050565b600080610437610522565b90508073ffffffffffffffffffffffffffffffffffffffff1663bb6a4520336040518263ffffffff167c0100000000000000000000000000000000000000000000000000000000028152600401808273ffffffffffffffffffffffffffffffffffffffff1673ffffffffffffffffffffffffffffffffffffffff168152602001915050602060405180830381600087803b1580156104d457600080fd5b505af11580156104e8573d6000803e3d6000fd5b505050506040513d60208110156104fe57600080fd5b8101908080519060200190929190505050151561051a57600080fd5b600191505090565b60008060405180807f636f6d2e6d61726b6574706c6163652e61636c726571756972696e672e61636c815250602001905060405180910390209050805491505090565b600061057082610782565b151561060a576040517f08c379a00000000000000000000000000000000000000000000000000000000081526004018080602001828103825260218152602001807f4e65772041434c2061646472657373206973206e6f74206120636f6e7472616381526020017f740000000000000000000000000000000000000000000000000000000000000081525060400191505060405180910390fd5b8173ffffffffffffffffffffffffffffffffffffffff1663a8218cd36040518163ffffffff167c0100000000000000000000000000000000000000000000000000000000028152600401602060405180830381600087803b15801561066e57600080fd5b505af1158015610682573d6000803e3d6000fd5b505050506040513d602081101561069857600080fd5b81019080805190602001909291905050501515610743576040517f08c379a00000000000000000000000000000000000000000000000000000000081526004018080602001828103825260328152602001807f4e65772041434c206164647265737320646f6573206e6f7420636f6e666f726d81526020017f20746f204941434c20696e74657266616365000000000000000000000000000081525060400191505060405180910390fd5b60405180807f636f6d2e6d61726b6574706c6163652e61636c726571756972696e672e61636c8152506020019050604051809103902090508181555050565b600080823b9050600081119150509190505600a165627a7a723058204fca7cffaf3ee9145ae80a0a537dd3ec1bc357ed2e7495747cec8ef278c178e50029",
  "source": "pragma solidity ^0.4.23;\n\nimport \"../acl/ACLRequiring.sol\";\n\n/**\n* @title MockACLRequiring\n* @dev Mock contract used for ACLRequiring tests\n*/\ncontract MockACLRequiring is ACLRequiring {\n\n  /**\n  * @dev Constructor function\n  * @param _aclAddress Address of the ACL contract to be used\n  */\n  constructor(address _aclAddress) ACLRequiring(_aclAddress) public { }\n\n  /**\n  * @dev Returns true if the sender is the product owner, otherwise it throws\n  * @return Returns true if sender is the product owner\n  */\n  function onlyForProductOwner() onlyProductOwner public view returns(bool) {\n    return true;\n  }\n\n  /**\n  * @dev Returns true if the sender is an authorized account, otherwise it throws\n  * @return Returns true if sender is an authorized account\n  */\n  function onlyForAuthorizedAddress() onlyAuthorized public view returns(bool) {\n    return true;\n  }\n\n}",
  "sourcePath": "/Users/matias/Projects/consensys/eth-marketplace/contracts/mocks/MockACLRequiring.sol",
  "compiler": {
    "name": "solc",
    "version": "0.4.24+commit.e67f0147.Emscripten.clang"
  },
  "schemaVersion": "2.0.1",
  "updatedAt": "2018-08-27T21:49:03.323Z"
}