{
  "contractName": "MockContract",
  "abi": [
    {
      "constant": true,
      "inputs": [],
      "name": "someString",
      "outputs": [
        {
          "name": "",
          "type": "string"
        }
      ],
      "payable": false,
      "stateMutability": "pure",
      "type": "function"
    },
    {
      "constant": true,
      "inputs": [],
      "name": "isMockContract",
      "outputs": [
        {
          "name": "",
          "type": "bool"
        }
      ],
      "payable": false,
      "stateMutability": "pure",
      "type": "function"
    }
  ],
  "bytecode": "0x608060405234801561001057600080fd5b50610182806100206000396000f30060806040526004361061004c576000357c0100000000000000000000000000000000000000000000000000000000900463ffffffff16806318f483d814610051578063e7a96f6d14610080575b600080fd5b34801561005d57600080fd5b50610066610110565b604051808215151515815260200191505060405180910390f35b34801561008c57600080fd5b50610095610119565b6040518080602001828103825283818151815260200191508051906020019080838360005b838110156100d55780820151818401526020810190506100ba565b50505050905090810190601f1680156101025780820380516001836020036101000a031916815260200191505b509250505060405180910390f35b60006001905090565b60606040805190810160405280600c81526020017f4d6f636b436f6e747261637400000000000000000000000000000000000000008152509050905600a165627a7a7230582097955e2ab7d83048faff3055cdfcc95a4248f5b1478afd1134830ee6c0f31a130029",
  "source": "pragma solidity ^0.4.23;\n\n/**\n* @title MockContract\n* @dev Generic mock contract used for testing\n*/\ncontract MockContract {\n\n  /**\n  * @dev Returns a string value\n  * @return Always returns the value 'MockContract'\n  */\n  function someString() public pure returns(string) {\n    return \"MockContract\";\n  }\n\n  /**\n  * @dev Returns a bool value\n  * @return Always returns true\n  */\n  function isMockContract() public pure returns(bool) {\n    return true;\n  }\n\n}",
  "sourcePath": "/Users/matias/Projects/consensys/eth-marketplace/contracts/mocks/MockContract.sol",
  "compiler": {
    "name": "solc",
    "version": "0.4.24+commit.e67f0147.Emscripten.clang"
  },
  "schemaVersion": "2.0.0",
  "updatedAt": "2018-08-26T22:53:56.916Z"
}