{
  "contractName": "MockOwnableDelegate",
  "abi": [
    {
      "constant": true,
      "inputs": [],
      "name": "lastContractModified",
      "outputs": [
        {
          "name": "",
          "type": "address"
        }
      ],
      "payable": false,
      "stateMutability": "view",
      "type": "function"
    },
    {
      "constant": true,
      "inputs": [],
      "name": "previousOwner",
      "outputs": [
        {
          "name": "",
          "type": "address"
        }
      ],
      "payable": false,
      "stateMutability": "view",
      "type": "function"
    },
    {
      "constant": true,
      "inputs": [],
      "name": "newOwner",
      "outputs": [
        {
          "name": "",
          "type": "address"
        }
      ],
      "payable": false,
      "stateMutability": "view",
      "type": "function"
    },
    {
      "constant": false,
      "inputs": [
        {
          "name": "_contract",
          "type": "address"
        },
        {
          "name": "_previousOwner",
          "type": "address"
        },
        {
          "name": "_newOwner",
          "type": "address"
        }
      ],
      "name": "didUpdateOwner",
      "outputs": [],
      "payable": false,
      "stateMutability": "nonpayable",
      "type": "function"
    },
    {
      "constant": true,
      "inputs": [],
      "name": "isOwnableDelegate",
      "outputs": [
        {
          "name": "",
          "type": "bool"
        }
      ],
      "payable": false,
      "stateMutability": "pure",
      "type": "function"
    }
  ],
  "bytecode": "0x608060405234801561001057600080fd5b50610396806100206000396000f30060806040526004361061006d576000357c0100000000000000000000000000000000000000000000000000000000900463ffffffff1680632d23b462146100725780633b1d6d30146100f5578063674f220f1461014c578063b85456b2146101a3578063d4ee1d90146101d2575b600080fd5b34801561007e57600080fd5b506100f3600480360381019080803573ffffffffffffffffffffffffffffffffffffffff169060200190929190803573ffffffffffffffffffffffffffffffffffffffff169060200190929190803573ffffffffffffffffffffffffffffffffffffffff169060200190929190505050610229565b005b34801561010157600080fd5b5061010a6102f0565b604051808273ffffffffffffffffffffffffffffffffffffffff1673ffffffffffffffffffffffffffffffffffffffff16815260200191505060405180910390f35b34801561015857600080fd5b50610161610315565b604051808273ffffffffffffffffffffffffffffffffffffffff1673ffffffffffffffffffffffffffffffffffffffff16815260200191505060405180910390f35b3480156101af57600080fd5b506101b861033b565b604051808215151515815260200191505060405180910390f35b3480156101de57600080fd5b506101e7610344565b604051808273ffffffffffffffffffffffffffffffffffffffff1673ffffffffffffffffffffffffffffffffffffffff16815260200191505060405180910390f35b826000806101000a81548173ffffffffffffffffffffffffffffffffffffffff021916908373ffffffffffffffffffffffffffffffffffffffff16021790555081600160006101000a81548173ffffffffffffffffffffffffffffffffffffffff021916908373ffffffffffffffffffffffffffffffffffffffff16021790555080600260006101000a81548173ffffffffffffffffffffffffffffffffffffffff021916908373ffffffffffffffffffffffffffffffffffffffff160217905550505050565b6000809054906101000a900473ffffffffffffffffffffffffffffffffffffffff1681565b600160009054906101000a900473ffffffffffffffffffffffffffffffffffffffff1681565b60006001905090565b600260009054906101000a900473ffffffffffffffffffffffffffffffffffffffff16815600a165627a7a723058201da1be60b75eb6f5e44b6eeeb375dfee6d9d67d35e2eedc801d7e4eb7154927f0029",
  "source": "pragma solidity ^0.4.23;\n\nimport \"../ownership/IOwnableDelegate.sol\";\n\n/**\n* @title MockOwnableDelegate\n* @dev Mock contract used for Ownable tests\n*/\ncontract MockOwnableDelegate is IOwnableDelegate {\n\n    address public lastContractModified;\n    address public previousOwner;\n    address public newOwner;\n\n    /**\n    * @dev Updates the contract storage to reflect these values\n    * @param _contract Address of Ownserhip contract changed\n    * @param _previousOwner Address of previous owner\n    * @param _newOwner Address of new owner\n    */\n    function didUpdateOwner(address _contract, address _previousOwner, address _newOwner) external {\n      lastContractModified = _contract;\n      previousOwner = _previousOwner;\n      newOwner = _newOwner;  \n    }\n\n    /**\n    * @dev Returns true for contracts that adhere to the OwnableDelegate interface \n    * @return Always returns true for this contract\n    */\n    function isOwnableDelegate() public pure returns (bool) {\n      return true;\n    }\n\n}",
  "sourcePath": "/Users/matias/Projects/consensys/eth-marketplace/contracts/mocks/MockOwnableDelegate.sol",
  "compiler": {
    "name": "solc",
    "version": "0.4.24+commit.e67f0147.Emscripten.clang"
  },
  "schemaVersion": "2.0.1",
  "updatedAt": "2018-08-27T17:14:41.786Z"
}