{
  "contractName": "OwnableManager",
  "abi": [
    {
      "inputs": [],
      "payable": false,
      "stateMutability": "nonpayable",
      "type": "constructor"
    },
    {
      "anonymous": false,
      "inputs": [
        {
          "indexed": true,
          "name": "_previousOwner",
          "type": "address"
        }
      ],
      "name": "OwnershipRenounced",
      "type": "event"
    },
    {
      "anonymous": false,
      "inputs": [
        {
          "indexed": true,
          "name": "_oldAddress",
          "type": "address"
        },
        {
          "indexed": true,
          "name": "_newAddress",
          "type": "address"
        }
      ],
      "name": "OwnershipTransferred",
      "type": "event"
    },
    {
      "constant": true,
      "inputs": [],
      "name": "owner",
      "outputs": [
        {
          "name": "_owner",
          "type": "address"
        }
      ],
      "payable": false,
      "stateMutability": "view",
      "type": "function"
    },
    {
      "constant": true,
      "inputs": [],
      "name": "ownableDelegate",
      "outputs": [
        {
          "name": "_ownableDelegate",
          "type": "address"
        }
      ],
      "payable": false,
      "stateMutability": "view",
      "type": "function"
    },
    {
      "constant": false,
      "inputs": [],
      "name": "renounceOwnership",
      "outputs": [],
      "payable": false,
      "stateMutability": "nonpayable",
      "type": "function"
    },
    {
      "constant": false,
      "inputs": [
        {
          "name": "_newOwner",
          "type": "address"
        }
      ],
      "name": "transferOwnership",
      "outputs": [],
      "payable": false,
      "stateMutability": "nonpayable",
      "type": "function"
    },
    {
      "constant": false,
      "inputs": [
        {
          "name": "_ownableDelegate",
          "type": "address"
        }
      ],
      "name": "setOwnableDelegate",
      "outputs": [],
      "payable": false,
      "stateMutability": "nonpayable",
      "type": "function"
    }
  ],
  "bytecode": "0x608060405234801561001057600080fd5b506100293361002e640100000000026401000000009004565b610095565b600060405180807f636f6d2e6d61726b6574706c6163652e6f776e61626c656d616e616765722e6f81526020017f776e6572000000000000000000000000000000000000000000000000000000008152506024019050604051809103902090508181555050565b6107d5806100a46000396000f30060806040526004361061006d576000357c0100000000000000000000000000000000000000000000000000000000900463ffffffff168063715018a6146100725780638da5cb5b14610089578063bd3e65df146100e0578063f195905b14610137578063f2fde38b1461017a575b600080fd5b34801561007e57600080fd5b506100876101bd565b005b34801561009557600080fd5b5061009e610270565b604051808273ffffffffffffffffffffffffffffffffffffffff1673ffffffffffffffffffffffffffffffffffffffff16815260200191505060405180910390f35b3480156100ec57600080fd5b506100f56102d9565b604051808273ffffffffffffffffffffffffffffffffffffffff1673ffffffffffffffffffffffffffffffffffffffff16815260200191505060405180910390f35b34801561014357600080fd5b50610178600480360381019080803573ffffffffffffffffffffffffffffffffffffffff169060200190929190505050610342565b005b34801561018657600080fd5b506101bb600480360381019080803573ffffffffffffffffffffffffffffffffffffffff169060200190929190505050610470565b005b6101c5610270565b73ffffffffffffffffffffffffffffffffffffffff163373ffffffffffffffffffffffffffffffffffffffff161415156101fe57600080fd5b610206610270565b73ffffffffffffffffffffffffffffffffffffffff167ff8df31144d9c2f0f6b59d69b8b98abd5459d07f2742c4df920b25aae33c6482060405160405180910390a261025a610253610270565b60006104bd565b6102646000610621565b61026e6000610688565b565b60008060405180807f636f6d2e6d61726b6574706c6163652e6f776e61626c656d616e616765722e6f81526020017f776e657200000000000000000000000000000000000000000000000000000000815250602401905060405180910390209050805491505090565b60008060405180807f636f6d2e6d61726b6574706c6163652e6f776e61626c656d616e616765722e6f81526020017f776e61626c6544656c6567617465000000000000000000000000000000000000815250602e01905060405180910390209050805491505090565b61034a610270565b73ffffffffffffffffffffffffffffffffffffffff163373ffffffffffffffffffffffffffffffffffffffff1614151561038357600080fd5b600073ffffffffffffffffffffffffffffffffffffffff168173ffffffffffffffffffffffffffffffffffffffff16141515610464578073ffffffffffffffffffffffffffffffffffffffff1663b85456b26040518163ffffffff167c0100000000000000000000000000000000000000000000000000000000028152600401602060405180830381600087803b15801561041d57600080fd5b505af1158015610431573d6000803e3d6000fd5b505050506040513d602081101561044757600080fd5b8101908080519060200190929190505050151561046357600080fd5b5b61046d81610688565b50565b610478610270565b73ffffffffffffffffffffffffffffffffffffffff163373ffffffffffffffffffffffffffffffffffffffff161415156104b157600080fd5b6104ba816106ef565b50565b600073ffffffffffffffffffffffffffffffffffffffff166104dd6102d9565b73ffffffffffffffffffffffffffffffffffffffff1614151561061d576105026102d9565b73ffffffffffffffffffffffffffffffffffffffff16632d23b4623084846040518463ffffffff167c0100000000000000000000000000000000000000000000000000000000028152600401808473ffffffffffffffffffffffffffffffffffffffff1673ffffffffffffffffffffffffffffffffffffffff1681526020018373ffffffffffffffffffffffffffffffffffffffff1673ffffffffffffffffffffffffffffffffffffffff1681526020018273ffffffffffffffffffffffffffffffffffffffff1673ffffffffffffffffffffffffffffffffffffffff1681526020019350505050600060405180830381600087803b15801561060457600080fd5b505af1158015610618573d6000803e3d6000fd5b505050505b5050565b600060405180807f636f6d2e6d61726b6574706c6163652e6f776e61626c656d616e616765722e6f81526020017f776e6572000000000000000000000000000000000000000000000000000000008152506024019050604051809103902090508181555050565b600060405180807f636f6d2e6d61726b6574706c6163652e6f776e61626c656d616e616765722e6f81526020017f776e61626c6544656c6567617465000000000000000000000000000000000000815250602e019050604051809103902090508181555050565b600073ffffffffffffffffffffffffffffffffffffffff168173ffffffffffffffffffffffffffffffffffffffff161415151561072b57600080fd5b8073ffffffffffffffffffffffffffffffffffffffff1661074a610270565b73ffffffffffffffffffffffffffffffffffffffff167f8be0079c531659141344cd1fd0a4f28419497f9722a3daafe3b4186f6b6457e060405160405180910390a361079d610797610270565b826104bd565b6107a681610621565b505600a165627a7a72305820faf24524831e859f4bd23c1adb2bf49172d40e97e791ab3ca2501241779cd6080029",
  "source": "pragma solidity ^0.4.24;\n\n// Adapted from:\n// https://github.com/OpenZeppelin/openzeppelin-solidity/blob/0e65947efbffc592cffea8c2ae9d3b8e11659854/contracts/ownership/Ownable.sol\n\nimport \"./IOwnableDelegate.sol\";\n\n/**\n * @title OwnableManager\n * @dev The OwnableManager contract has an owner address, and provides basic authorization control\n * functions, this simplifies the implementation of \"user permissions\".\n */\ncontract OwnableManager {\n\n  /**\n  * @dev The storage position in the contract storage where the implementation address will be stored\n  * @notice The implementation value is stored using the 'key-value' nature of the contract storage and\n  *         is thus not affected by the contract's state data layout\n  */\n  bytes32 private constant ownerStorePosition = keccak256(\"com.marketplace.ownablemanager.owner\");\n  bytes32 private constant ownableDelegateStorePosition = keccak256(\"com.marketplace.ownablemanager.ownableDelegate\");\n\n  /**\n  * @dev OwnershipTransferred is emitted after the ownership of this contract has been renounced\n  * @param _previousOwner Old product owner address\n  */\n  event OwnershipRenounced(address indexed _previousOwner);\n\n  /**\n  * @dev OwnershipTransferred event is emitted every time the owner address is updated\n  * @param _oldAddress Old owner address\n  * @param _newAddress New owner address\n  */\n  event OwnershipTransferred(\n    address indexed _oldAddress,\n    address indexed _newAddress\n  );\n\n  /**\n   * @dev The Ownable constructor sets the original `owner` of the contract to the sender\n   * account.\n   */\n  constructor() public {\n    _setOwner(msg.sender);\n  }\n\n  /**\n   * @dev Throws if called by any account other than the owner\n   */\n  modifier onlyOwner() {\n    require(msg.sender == owner());\n    _;\n  }\n\n  /**\n  * @dev Returns the address of the current owner\n  * @return _owner Address of the current owner\n  */\n  function owner() public view returns (address _owner) {\n    bytes32 position = ownerStorePosition;\n    assembly {\n      _owner := sload(position)\n    }\n  }\n\n  /**\n  * @dev Sets the address of the current owner\n  * @param _owner Address of the new owner to be set\n  */\n  function _setOwner(address _owner) internal {\n    bytes32 position = ownerStorePosition;\n    assembly {\n      sstore(position, _owner)\n    }\n  }\n\n  /**\n  * @dev Returns the address of the current ownable delegate contract\n  * @return _ownableDelegate Address of the current ownable delegate contract\n  */\n  function ownableDelegate() public view returns (address _ownableDelegate) {\n    bytes32 position = ownableDelegateStorePosition;\n    assembly {\n      _ownableDelegate := sload(position)\n    }\n  }\n\n  /**\n  * @dev Sets the address of the current ownable delegate contract\n  * @param _ownableDelegate Address of the new ownable delegate contract\n  */\n  function _setOwnableDelegate(address _ownableDelegate) internal {\n    bytes32 position = ownableDelegateStorePosition;\n    assembly {\n      sstore(position, _ownableDelegate)\n    }\n  }\n\n  /**\n   * @dev Allows the current owner to relinquish control of the contract\n   * @notice Renouncing to ownership will leave the contract without an owner\n   * It will not be possible to call the functions with the `onlyOwner`\n   * modifier anymore.\n   */\n  function renounceOwnership() public onlyOwner {\n    emit OwnershipRenounced(owner());\n    updateOwnableDelegate(owner(), address(0));\n    _setOwner(address(0));\n    _setOwnableDelegate(address(0));\n  }\n\n  /**\n   * @dev Allows the current owner to transfer control of the contract to a newOwner\n   * @param _newOwner The address to transfer ownership to\n   */\n  function transferOwnership(address _newOwner) public onlyOwner {\n    _transferOwnership(_newOwner);\n  }\n\n  /**\n   * @dev Transfers control of the contract to a newOwner\n   * @param _newOwner The address to transfer ownership to\n   */\n  function _transferOwnership(address _newOwner) internal {\n    require(_newOwner != address(0));\n    emit OwnershipTransferred(owner(), _newOwner);\n    updateOwnableDelegate(owner(), _newOwner);\n    _setOwner(_newOwner);\n  }\n\n  /**\n  * @dev Sets the ownable delegate contract addressf\n  * @param _ownableDelegate Address of the ownable delegate contract to set\n  * @notice The ownable delegate contract must implement the OwnableDelegate interface\n  */\n  function setOwnableDelegate(address _ownableDelegate) onlyOwner public {\n    if (_ownableDelegate != address(0)) {\n      require(IOwnableDelegate(_ownableDelegate).isOwnableDelegate());\n    }\n    _setOwnableDelegate(_ownableDelegate);\n  }\n\n  /**\n  * @dev Calls didUpdateOwner on the ownable delegate contract\n  * @param _previousOwner Previous owner address\n  * @param _newOwner New owner address\n  */\n  function updateOwnableDelegate(address _previousOwner, address _newOwner) internal {\n    if (ownableDelegate() != address(0)) {\n      IOwnableDelegate(ownableDelegate()).didUpdateOwner(address(this), _previousOwner, _newOwner);\n    }\n  }\n  \n}\n",
  "sourcePath": "/Users/matias/Projects/consensys/eth-marketplace/contracts/ownership/OwnableManager.sol",
  "compiler": {
    "name": "solc",
    "version": "0.4.24+commit.e67f0147.Emscripten.clang"
  },
  "schemaVersion": "2.0.1",
  "updatedAt": "2018-08-27T19:49:44.170Z"
}