{
  "contractName": "Pausable",
  "abi": [
    {
      "constant": false,
      "inputs": [
        {
          "name": "_newAddress",
          "type": "address"
        }
      ],
      "name": "updateACL",
      "outputs": [],
      "payable": false,
      "stateMutability": "nonpayable",
      "type": "function"
    },
    {
      "constant": true,
      "inputs": [],
      "name": "acl",
      "outputs": [
        {
          "name": "_acl",
          "type": "address"
        }
      ],
      "payable": false,
      "stateMutability": "view",
      "type": "function"
    },
    {
      "inputs": [
        {
          "name": "_aclAddress",
          "type": "address"
        }
      ],
      "payable": false,
      "stateMutability": "nonpayable",
      "type": "constructor"
    },
    {
      "anonymous": false,
      "inputs": [],
      "name": "Paused",
      "type": "event"
    },
    {
      "anonymous": false,
      "inputs": [],
      "name": "Unpaused",
      "type": "event"
    },
    {
      "anonymous": false,
      "inputs": [
        {
          "indexed": true,
          "name": "_oldAddress",
          "type": "address"
        },
        {
          "indexed": true,
          "name": "_newAddress",
          "type": "address"
        }
      ],
      "name": "ACLUpdated",
      "type": "event"
    },
    {
      "constant": true,
      "inputs": [],
      "name": "isPaused",
      "outputs": [
        {
          "name": "_isPaused",
          "type": "bool"
        }
      ],
      "payable": false,
      "stateMutability": "view",
      "type": "function"
    },
    {
      "constant": false,
      "inputs": [],
      "name": "pause",
      "outputs": [],
      "payable": false,
      "stateMutability": "nonpayable",
      "type": "function"
    },
    {
      "constant": false,
      "inputs": [],
      "name": "unpause",
      "outputs": [],
      "payable": false,
      "stateMutability": "nonpayable",
      "type": "function"
    }
  ],
  "bytecode": "0x608060405234801561001057600080fd5b50604051602080610c28833981018060405281019080805190602001909291905050508061004c816100ae640100000000026401000000009004565b8073ffffffffffffffffffffffffffffffffffffffff16600073ffffffffffffffffffffffffffffffffffffffff167fd9c4a08818b5e0b58c0856ec8285d83c51f0654438a200ef0f9e0e968f583ca960405160405180910390a350506102f1565b60006100cc826102de640100000000026108e9176401000000009004565b1515610166576040517f08c379a00000000000000000000000000000000000000000000000000000000081526004018080602001828103825260218152602001807f4e65772041434c2061646472657373206973206e6f74206120636f6e7472616381526020017f740000000000000000000000000000000000000000000000000000000000000081525060400191505060405180910390fd5b8173ffffffffffffffffffffffffffffffffffffffff1663a8218cd36040518163ffffffff167c0100000000000000000000000000000000000000000000000000000000028152600401602060405180830381600087803b1580156101ca57600080fd5b505af11580156101de573d6000803e3d6000fd5b505050506040513d60208110156101f457600080fd5b8101908080519060200190929190505050151561029f576040517f08c379a00000000000000000000000000000000000000000000000000000000081526004018080602001828103825260328152602001807f4e65772041434c206164647265737320646f6573206e6f7420636f6e666f726d81526020017f20746f204941434c20696e74657266616365000000000000000000000000000081525060400191505060405180910390fd5b60405180807f636f6d2e6d61726b6574706c6163652e61636c726571756972696e672e61636c8152506020019050604051809103902090508181555050565b600080823b905060008111915050919050565b610928806103006000396000f30060806040526004361061006d576000357c0100000000000000000000000000000000000000000000000000000000900463ffffffff1680633f4ba83a146100725780638456cb591461008957806387a7066b146100a0578063b187bd26146100e3578063de28735914610112575b600080fd5b34801561007e57600080fd5b50610087610169565b005b34801561009557600080fd5b5061009e6102a2565b005b3480156100ac57600080fd5b506100e1600480360381019080803573ffffffffffffffffffffffffffffffffffffffff1690602001909291905050506103e2565b005b3480156100ef57600080fd5b506100f86105b9565b604051808215151515815260200191505060405180910390f35b34801561011e57600080fd5b50610127610622565b604051808273ffffffffffffffffffffffffffffffffffffffff1673ffffffffffffffffffffffffffffffffffffffff16815260200191505060405180910390f35b6000610173610622565b90508073ffffffffffffffffffffffffffffffffffffffff1663bb6a4520336040518263ffffffff167c0100000000000000000000000000000000000000000000000000000000028152600401808273ffffffffffffffffffffffffffffffffffffffff1673ffffffffffffffffffffffffffffffffffffffff168152602001915050602060405180830381600087803b15801561021057600080fd5b505af1158015610224573d6000803e3d6000fd5b505050506040513d602081101561023a57600080fd5b8101908080519060200190929190505050151561025657600080fd5b61025e6105b9565b151561026957600080fd5b6102736000610665565b7fa45f47fdea8a1efdd9029a5691c7f759c32b7c698632b563573e155625d1693360405160405180910390a150565b60006102ac610622565b90508073ffffffffffffffffffffffffffffffffffffffff1663bb6a4520336040518263ffffffff167c0100000000000000000000000000000000000000000000000000000000028152600401808273ffffffffffffffffffffffffffffffffffffffff1673ffffffffffffffffffffffffffffffffffffffff168152602001915050602060405180830381600087803b15801561034957600080fd5b505af115801561035d573d6000803e3d6000fd5b505050506040513d602081101561037357600080fd5b8101908080519060200190929190505050151561038f57600080fd5b6000151561039b6105b9565b15151415156103a957600080fd5b6103b36001610665565b7f9e87fac88ff661f02d44f95383c817fece4bce600a3dab7a54406878b965e75260405160405180910390a150565b6000806103ed610622565b90508073ffffffffffffffffffffffffffffffffffffffff1663bb6a4520336040518263ffffffff167c0100000000000000000000000000000000000000000000000000000000028152600401808273ffffffffffffffffffffffffffffffffffffffff1673ffffffffffffffffffffffffffffffffffffffff168152602001915050602060405180830381600087803b15801561048a57600080fd5b505af115801561049e573d6000803e3d6000fd5b505050506040513d60208110156104b457600080fd5b810190808051906020019092919050505015156104d057600080fd5b600073ffffffffffffffffffffffffffffffffffffffff168373ffffffffffffffffffffffffffffffffffffffff161415151561050c57600080fd5b610514610622565b91508173ffffffffffffffffffffffffffffffffffffffff168373ffffffffffffffffffffffffffffffffffffffff161415151561055157600080fd5b61055a836106cc565b8273ffffffffffffffffffffffffffffffffffffffff168273ffffffffffffffffffffffffffffffffffffffff167fd9c4a08818b5e0b58c0856ec8285d83c51f0654438a200ef0f9e0e968f583ca960405160405180910390a3505050565b60008060405180807f636f6d2e6d61726b6574706c6163652e7061757361626c652e6973706175736581526020017f6400000000000000000000000000000000000000000000000000000000000000815250602101905060405180910390209050805491505090565b60008060405180807f636f6d2e6d61726b6574706c6163652e61636c726571756972696e672e61636c815250602001905060405180910390209050805491505090565b600060405180807f636f6d2e6d61726b6574706c6163652e7061757361626c652e6973706175736581526020017f64000000000000000000000000000000000000000000000000000000000000008152506021019050604051809103902090508181555050565b60006106d7826108e9565b1515610771576040517f08c379a00000000000000000000000000000000000000000000000000000000081526004018080602001828103825260218152602001807f4e65772041434c2061646472657373206973206e6f74206120636f6e7472616381526020017f740000000000000000000000000000000000000000000000000000000000000081525060400191505060405180910390fd5b8173ffffffffffffffffffffffffffffffffffffffff1663a8218cd36040518163ffffffff167c0100000000000000000000000000000000000000000000000000000000028152600401602060405180830381600087803b1580156107d557600080fd5b505af11580156107e9573d6000803e3d6000fd5b505050506040513d60208110156107ff57600080fd5b810190808051906020019092919050505015156108aa576040517f08c379a00000000000000000000000000000000000000000000000000000000081526004018080602001828103825260328152602001807f4e65772041434c206164647265737320646f6573206e6f7420636f6e666f726d81526020017f20746f204941434c20696e74657266616365000000000000000000000000000081525060400191505060405180910390fd5b60405180807f636f6d2e6d61726b6574706c6163652e61636c726571756972696e672e61636c8152506020019050604051809103902090508181555050565b600080823b9050600081119150509190505600a165627a7a723058202236e67d5c4f453799e164407c82e55005b420cc96013a05b3a5f2abd607e66a0029",
  "source": "pragma solidity ^0.4.23;\n\n// Adapted from:\n// https://github.com/OpenZeppelin/openzeppelin-solidity/blob/ad12381549c4c0711c2f3310e9fb1f65d51c299c/contracts/lifecycle/Pausable.sol\n\nimport \"../acl/ACLRequiring.sol\";\n\n/**\n* @title Pausable\n* @dev Allows a contract functionality to be paused\n* @notice Uses an ACL contract to check for proper authorization to pause/unpause a contract\n*/\ncontract Pausable is ACLRequiring {\n\n  /**\n  * @dev The storage position in the contract storage where the implementation address will be stored\n  * @notice The implementation value is stored using the 'key-value' nature of the contract storage and\n  *         is thus not affected by the contract's state data layout\n  */\n  bytes32 private constant isPausedStorePosition = keccak256(\"com.marketplace.pausable.ispaused\");\n\n  /**\n  * @dev Paused event is emitted every time the contract is paused\n  */\n  event Paused();\n\n  /**\n  * @dev Unpaused event is emitted every time the contract is unpaused\n  */\n  event Unpaused();\n\n  /**\n  * @dev Constructor function\n  * @param _aclAddress Address of the ACL contract to be used for authorization purposes\n  */\n  constructor(address _aclAddress) ACLRequiring(_aclAddress) public { }\n\n  /**\n  * @dev Modifier restricts execution by requiring contract to be in an unpaused state\n  */\n  modifier whenNotPaused() {\n    require(isPaused() == false);\n    _;\n  }\n\n  /**\n  * @dev Modifier restricts execution by requiring contract to be in an paused state\n  */\n  modifier whenPaused() {\n    require(isPaused());\n    _;\n  }\n\n  /**\n  * @dev Returns whether the contract is paused\n  * @return _isPaused Returns true if the contract is paused\n  */\n  function isPaused() public view returns(bool _isPaused) {\n    bytes32 position = isPausedStorePosition;\n    assembly {\n      _isPaused := sload(position)\n    }\n  }\n\n  /**\n  * @dev Sets the paused state of the contract\n  * @param _isPaused New value of the paused state\n  */\n  function setIsPaused(bool _isPaused) private {\n    bytes32 position = isPausedStorePosition;\n    assembly {\n      sstore(position, _isPaused)\n    }\n  }\n\n  /**\n  * @dev Pauses the contract execution\n  */\n  function pause() onlyProductOwner whenNotPaused public {\n    setIsPaused(true);\n    emit Paused();\n  }\n\n  /**\n  * @dev Unpauses the contract execution\n  */\n  function unpause() onlyProductOwner whenPaused public {\n    setIsPaused(false);\n    emit Unpaused();\n  }\n\n}",
  "sourcePath": "/Users/matias/Projects/consensys/eth-marketplace/contracts/lifecycle/Pausable.sol",
  "compiler": {
    "name": "solc",
    "version": "0.4.24+commit.e67f0147.Emscripten.clang"
  },
  "schemaVersion": "2.0.0",
  "updatedAt": "2018-08-26T21:41:03.453Z"
}