{
  "contractName": "ProductStoreFactory",
  "abi": [
    {
      "constant": false,
      "inputs": [],
      "name": "unpause",
      "outputs": [],
      "payable": false,
      "stateMutability": "nonpayable",
      "type": "function"
    },
    {
      "constant": false,
      "inputs": [],
      "name": "pause",
      "outputs": [],
      "payable": false,
      "stateMutability": "nonpayable",
      "type": "function"
    },
    {
      "constant": false,
      "inputs": [
        {
          "name": "_newAddress",
          "type": "address"
        }
      ],
      "name": "updateACL",
      "outputs": [],
      "payable": false,
      "stateMutability": "nonpayable",
      "type": "function"
    },
    {
      "constant": true,
      "inputs": [],
      "name": "isPaused",
      "outputs": [
        {
          "name": "_isPaused",
          "type": "bool"
        }
      ],
      "payable": false,
      "stateMutability": "view",
      "type": "function"
    },
    {
      "constant": true,
      "inputs": [],
      "name": "acl",
      "outputs": [
        {
          "name": "_acl",
          "type": "address"
        }
      ],
      "payable": false,
      "stateMutability": "view",
      "type": "function"
    },
    {
      "inputs": [
        {
          "name": "_aclAddress",
          "type": "address"
        }
      ],
      "payable": false,
      "stateMutability": "nonpayable",
      "type": "constructor"
    },
    {
      "anonymous": false,
      "inputs": [],
      "name": "Paused",
      "type": "event"
    },
    {
      "anonymous": false,
      "inputs": [],
      "name": "Unpaused",
      "type": "event"
    },
    {
      "anonymous": false,
      "inputs": [
        {
          "indexed": true,
          "name": "_oldAddress",
          "type": "address"
        },
        {
          "indexed": true,
          "name": "_newAddress",
          "type": "address"
        }
      ],
      "name": "ACLUpdated",
      "type": "event"
    },
    {
      "constant": false,
      "inputs": [],
      "name": "makeProductStore",
      "outputs": [
        {
          "name": "",
          "type": "address"
        }
      ],
      "payable": false,
      "stateMutability": "nonpayable",
      "type": "function"
    }
  ],
  "bytecode": "0x60806040523480156200001157600080fd5b506040516020806200697783398101806040526200003391908101906200027a565b80806200004f81620000b3640100000000026401000000009004565b8073ffffffffffffffffffffffffffffffffffffffff16600073ffffffffffffffffffffffffffffffffffffffff167fd9c4a08818b5e0b58c0856ec8285d83c51f0654438a200ef0f9e0e968f583ca960405160405180910390a3505050620003fc565b6000620000d4826200023b6401000000000262000a02176401000000009004565b151562000118576040517f08c379a00000000000000000000000000000000000000000000000000000000081526004016200010f906200038c565b60405180910390fd5b8173ffffffffffffffffffffffffffffffffffffffff1663a8218cd36040518163ffffffff167c0100000000000000000000000000000000000000000000000000000000028152600401602060405180830381600087803b1580156200017d57600080fd5b505af115801562000192573d6000803e3d6000fd5b505050506040513d601f19601f82011682018060405250620001b89190810190620002a6565b1515620001fc576040517f08c379a0000000000000000000000000000000000000000000000000000000008152600401620001f390620003ae565b60405180910390fd5b60405180807f636f6d2e6d61726b6574706c6163652e61636c726571756972696e672e61636c8152506020019050604051809103902090508181555050565b600080823b905060008111915050919050565b60006200025c8251620003d0565b905092915050565b6000620002728251620003f0565b905092915050565b6000602082840312156200028d57600080fd5b60006200029d848285016200024e565b91505092915050565b600060208284031215620002b957600080fd5b6000620002c98482850162000264565b91505092915050565b6000602182527f4e65772041434c2061646472657373206973206e6f74206120636f6e7472616360208301527f74000000000000000000000000000000000000000000000000000000000000006040830152606082019050919050565b6000603282527f4e65772041434c206164647265737320646f6573206e6f7420636f6e666f726d60208301527f20746f204941434c20696e7465726661636500000000000000000000000000006040830152606082019050919050565b60006020820190508181036000830152620003a781620002d2565b9050919050565b60006020820190508181036000830152620003c9816200032f565b9050919050565b600073ffffffffffffffffffffffffffffffffffffffff82169050919050565b60008115159050919050565b61656b806200040c6000396000f3006080604052600436106200007f576000357c0100000000000000000000000000000000000000000000000000000000900463ffffffff168063269fef8914620000845780633f4ba83a14620000b45780638456cb5914620000ce57806387a7066b14620000e8578063b187bd261462000116578063de2873591462000146575b600080fd5b3480156200009157600080fd5b506200009c62000176565b604051620000ab919062000c04565b60405180910390f35b348015620000c157600080fd5b50620000cc6200038d565b005b348015620000db57600080fd5b50620000e6620004a5565b005b348015620000f557600080fd5b506200011460048036036200010e919081019062000a74565b620005c4565b005b3480156200012357600080fd5b506200012e6200077b565b6040516200013d919062000be7565b60405180910390f35b3480156200015357600080fd5b506200015e620007e4565b6040516200016d919062000bca565b60405180910390f35b600080600080600062000188620007e4565b90508073ffffffffffffffffffffffffffffffffffffffff1663fe9fbb80336040518263ffffffff167c0100000000000000000000000000000000000000000000000000000000028152600401620001e1919062000bca565b602060405180830381600087803b158015620001fc57600080fd5b505af115801562000211573d6000803e3d6000fd5b505050506040513d601f19601f8201168201806040525062000237919081019062000aa0565b15156200024357600080fd5b60001515620002516200077b565b15151415156200026057600080fd5b6200026a62000a15565b604051809103906000f08015801562000287573d6000803e3d6000fd5b509350836200029562000a26565b620002a1919062000bca565b604051809103906000f080158015620002be573d6000803e3d6000fd5b50925083620002cc62000a37565b620002d8919062000bca565b604051809103906000f080158015620002f5573d6000803e3d6000fd5b5091508173ffffffffffffffffffffffffffffffffffffffff16633659cfe6846040518263ffffffff167c01000000000000000000000000000000000000000000000000000000000281526004016200034f919062000c21565b600060405180830381600087803b1580156200036a57600080fd5b505af11580156200037f573d6000803e3d6000fd5b505050508194505050505090565b600062000399620007e4565b90508073ffffffffffffffffffffffffffffffffffffffff1663bb6a4520336040518263ffffffff167c0100000000000000000000000000000000000000000000000000000000028152600401620003f2919062000bca565b602060405180830381600087803b1580156200040d57600080fd5b505af115801562000422573d6000803e3d6000fd5b505050506040513d601f19601f8201168201806040525062000448919081019062000aa0565b15156200045457600080fd5b6200045e6200077b565b15156200046a57600080fd5b62000476600062000827565b7fa45f47fdea8a1efdd9029a5691c7f759c32b7c698632b563573e155625d1693360405160405180910390a150565b6000620004b1620007e4565b90508073ffffffffffffffffffffffffffffffffffffffff1663bb6a4520336040518263ffffffff167c01000000000000000000000000000000000000000000000000000000000281526004016200050a919062000bca565b602060405180830381600087803b1580156200052557600080fd5b505af11580156200053a573d6000803e3d6000fd5b505050506040513d601f19601f8201168201806040525062000560919081019062000aa0565b15156200056c57600080fd5b600015156200057a6200077b565b15151415156200058957600080fd5b62000595600162000827565b7f9e87fac88ff661f02d44f95383c817fece4bce600a3dab7a54406878b965e75260405160405180910390a150565b600080620005d1620007e4565b90508073ffffffffffffffffffffffffffffffffffffffff1663bb6a4520336040518263ffffffff167c01000000000000000000000000000000000000000000000000000000000281526004016200062a919062000bca565b602060405180830381600087803b1580156200064557600080fd5b505af11580156200065a573d6000803e3d6000fd5b505050506040513d601f19601f8201168201806040525062000680919081019062000aa0565b15156200068c57600080fd5b600073ffffffffffffffffffffffffffffffffffffffff168373ffffffffffffffffffffffffffffffffffffffff1614151515620006c957600080fd5b620006d3620007e4565b91508173ffffffffffffffffffffffffffffffffffffffff168373ffffffffffffffffffffffffffffffffffffffff16141515156200071157600080fd5b6200071c836200088e565b8273ffffffffffffffffffffffffffffffffffffffff168273ffffffffffffffffffffffffffffffffffffffff167fd9c4a08818b5e0b58c0856ec8285d83c51f0654438a200ef0f9e0e968f583ca960405160405180910390a3505050565b60008060405180807f636f6d2e6d61726b6574706c6163652e7061757361626c652e6973706175736581526020017f6400000000000000000000000000000000000000000000000000000000000000815250602101905060405180910390209050805491505090565b60008060405180807f636f6d2e6d61726b6574706c6163652e61636c726571756972696e672e61636c815250602001905060405180910390209050805491505090565b600060405180807f636f6d2e6d61726b6574706c6163652e7061757361626c652e6973706175736581526020017f64000000000000000000000000000000000000000000000000000000000000008152506021019050604051809103902090508181555050565b60006200089b8262000a02565b1515620008df576040517f08c379a0000000000000000000000000000000000000000000000000000000008152600401620008d69062000c3e565b60405180910390fd5b8173ffffffffffffffffffffffffffffffffffffffff1663a8218cd36040518163ffffffff167c0100000000000000000000000000000000000000000000000000000000028152600401602060405180830381600087803b1580156200094457600080fd5b505af115801562000959573d6000803e3d6000fd5b505050506040513d601f19601f820116820180604052506200097f919081019062000aa0565b1515620009c3576040517f08c379a0000000000000000000000000000000000000000000000000000000008152600401620009ba9062000c60565b60405180910390fd5b60405180807f636f6d2e6d61726b6574706c6163652e61636c726571756972696e672e61636c8152506020019050604051809103902090508181555050565b600080823b905060008111915050919050565b60405161077e8062000d0383390190565b604051613dad806200148183390190565b604051611304806200522e83390190565b600062000a56823562000cae565b905092915050565b600062000a6c825162000cce565b905092915050565b60006020828403121562000a8757600080fd5b600062000a978482850162000a48565b91505092915050565b60006020828403121562000ab357600080fd5b600062000ac38482850162000a5e565b91505092915050565b62000ad78162000c82565b82525050565b62000ae88162000ca2565b82525050565b62000af98162000cda565b82525050565b62000b0a8162000cee565b82525050565b6000602182527f4e65772041434c2061646472657373206973206e6f74206120636f6e7472616360208301527f74000000000000000000000000000000000000000000000000000000000000006040830152606082019050919050565b6000603282527f4e65772041434c206164647265737320646f6573206e6f7420636f6e666f726d60208301527f20746f204941434c20696e7465726661636500000000000000000000000000006040830152606082019050919050565b600060208201905062000be1600083018462000acc565b92915050565b600060208201905062000bfe600083018462000add565b92915050565b600060208201905062000c1b600083018462000aee565b92915050565b600060208201905062000c38600083018462000aff565b92915050565b6000602082019050818103600083015262000c598162000b10565b9050919050565b6000602082019050818103600083015262000c7b8162000b6d565b9050919050565b600073ffffffffffffffffffffffffffffffffffffffff82169050919050565b60008115159050919050565b600073ffffffffffffffffffffffffffffffffffffffff82169050919050565b60008115159050919050565b600062000ce78262000c82565b9050919050565b600062000cfb8262000c82565b90509190505600608060405234801561001057600080fd5b50336000806101000a81548173ffffffffffffffffffffffffffffffffffffffff021916908373ffffffffffffffffffffffffffffffffffffffff1602179055507f9f83351d7067410bb7c79ef094e09407af666cec86e4c5d13474144b195d00bc600033604051808373ffffffffffffffffffffffffffffffffffffffff1673ffffffffffffffffffffffffffffffffffffffff1681526020018273ffffffffffffffffffffffffffffffffffffffff1673ffffffffffffffffffffffffffffffffffffffff1681526020019250505060405180910390a1610686806100f86000396000f300608060405260043610610078576000357c0100000000000000000000000000000000000000000000000000000000900463ffffffff16806335b281531461007d5780637d5cb0a5146100c057806394f3f81d14610103578063a8218cd314610146578063bb6a452014610175578063fe9fbb80146101d0575b600080fd5b34801561008957600080fd5b506100be600480360381019080803573ffffffffffffffffffffffffffffffffffffffff16906020019092919050505061022b565b005b3480156100cc57600080fd5b50610101600480360381019080803573ffffffffffffffffffffffffffffffffffffffff169060200190929190505050610309565b005b34801561010f57600080fd5b50610144600480360381019080803573ffffffffffffffffffffffffffffffffffffffff169060200190929190505050610465565b005b34801561015257600080fd5b5061015b610544565b604051808215151515815260200191505060405180910390f35b34801561018157600080fd5b506101b6600480360381019080803573ffffffffffffffffffffffffffffffffffffffff16906020019092919050505061054d565b604051808215151515815260200191505060405180910390f35b3480156101dc57600080fd5b50610211600480360381019080803573ffffffffffffffffffffffffffffffffffffffff1690602001909291905050506105a6565b604051808215151515815260200191505060405180910390f35b610234336105a6565b151561023f57600080fd5b60018060008373ffffffffffffffffffffffffffffffffffffffff1673ffffffffffffffffffffffffffffffffffffffff16815260200190815260200160002060006101000a81548160ff0219169083151502179055507feadbbcd289747ecc98af25e8a89485e7182680fe5dfc0d547a6383470b54728e816001604051808373ffffffffffffffffffffffffffffffffffffffff1673ffffffffffffffffffffffffffffffffffffffff168152602001821515151581526020019250505060405180910390a150565b60008060009054906101000a900473ffffffffffffffffffffffffffffffffffffffff1673ffffffffffffffffffffffffffffffffffffffff163373ffffffffffffffffffffffffffffffffffffffff1614151561036657600080fd5b6000809054906101000a900473ffffffffffffffffffffffffffffffffffffffff169050816000806101000a81548173ffffffffffffffffffffffffffffffffffffffff021916908373ffffffffffffffffffffffffffffffffffffffff1602179055507f9f83351d7067410bb7c79ef094e09407af666cec86e4c5d13474144b195d00bc8183604051808373ffffffffffffffffffffffffffffffffffffffff1673ffffffffffffffffffffffffffffffffffffffff1681526020018273ffffffffffffffffffffffffffffffffffffffff1673ffffffffffffffffffffffffffffffffffffffff1681526020019250505060405180910390a15050565b61046e336105a6565b151561047957600080fd5b6000600160008373ffffffffffffffffffffffffffffffffffffffff1673ffffffffffffffffffffffffffffffffffffffff16815260200190815260200160002060006101000a81548160ff0219169083151502179055507feadbbcd289747ecc98af25e8a89485e7182680fe5dfc0d547a6383470b54728e816000604051808373ffffffffffffffffffffffffffffffffffffffff1673ffffffffffffffffffffffffffffffffffffffff168152602001821515151581526020019250505060405180910390a150565b60006001905090565b60008173ffffffffffffffffffffffffffffffffffffffff166000809054906101000a900473ffffffffffffffffffffffffffffffffffffffff1673ffffffffffffffffffffffffffffffffffffffff16149050919050565b60008060009054906101000a900473ffffffffffffffffffffffffffffffffffffffff1673ffffffffffffffffffffffffffffffffffffffff168273ffffffffffffffffffffffffffffffffffffffff161480610653575060011515600160008473ffffffffffffffffffffffffffffffffffffffff1673ffffffffffffffffffffffffffffffffffffffff16815260200190815260200160002060009054906101000a900460ff161515145b90509190505600a165627a7a72305820590350d94c6b3addbfa301ca316f8511911cbb9d8ed5f627956d3a37c6cd882b002960806040523480156200001157600080fd5b5060405160208062003dad833981018060405262000033919081019062000278565b806200004e81620000b1640100000000026401000000009004565b8073ffffffffffffffffffffffffffffffffffffffff16600073ffffffffffffffffffffffffffffffffffffffff167fd9c4a08818b5e0b58c0856ec8285d83c51f0654438a200ef0f9e0e968f583ca960405160405180910390a35050620003fa565b6000620000d282620002396401000000000262002bf7176401000000009004565b151562000116576040517f08c379a00000000000000000000000000000000000000000000000000000000081526004016200010d906200038a565b60405180910390fd5b8173ffffffffffffffffffffffffffffffffffffffff1663a8218cd36040518163ffffffff167c0100000000000000000000000000000000000000000000000000000000028152600401602060405180830381600087803b1580156200017b57600080fd5b505af115801562000190573d6000803e3d6000fd5b505050506040513d601f19601f82011682018060405250620001b69190810190620002a4565b1515620001fa576040517f08c379a0000000000000000000000000000000000000000000000000000000008152600401620001f190620003ac565b60405180910390fd5b60405180807f636f6d2e6d61726b6574706c6163652e61636c726571756972696e672e61636c8152506020019050604051809103902090508181555050565b600080823b905060008111915050919050565b60006200025a8251620003ce565b905092915050565b6000620002708251620003ee565b905092915050565b6000602082840312156200028b57600080fd5b60006200029b848285016200024c565b91505092915050565b600060208284031215620002b757600080fd5b6000620002c78482850162000262565b91505092915050565b6000602182527f4e65772041434c2061646472657373206973206e6f74206120636f6e7472616360208301527f74000000000000000000000000000000000000000000000000000000000000006040830152606082019050919050565b6000603282527f4e65772041434c206164647265737320646f6573206e6f7420636f6e666f726d60208301527f20746f204941434c20696e7465726661636500000000000000000000000000006040830152606082019050919050565b60006020820190508181036000830152620003a581620002d0565b9050919050565b60006020820190508181036000830152620003c7816200032d565b9050919050565b600073ffffffffffffffffffffffffffffffffffffffff82169050919050565b60008115159050919050565b6139a3806200040a6000396000f300608060405260043610610133576000357c0100000000000000000000000000000000000000000000000000000000900463ffffffff16806306fdde03146101385780630744f0c11461016357806324600fc3146101a057806326d5e4d2146101b75780632b64d441146101f45780632b91a7011461023157806354fd4d501461026e5780635a610f3f146102995780635d834a01146102d6578063646253a2146103135780636bb38b2814610350578063840f4a641461037b57806387a7066b146103b857806398df6543146103e1578063b1a6909a1461041e578063c30ff6df14610449578063c47f002714610472578063c6ebfe9d1461049b578063cdbdb0a5146104d8578063de28735914610503578063de3572b41461052e578063e0f6ef871461056b578063e131010c14610596575b600080fd5b34801561014457600080fd5b5061014d6105d3565b60405161015a91906135c9565b60405180910390f35b34801561016f57600080fd5b5061018a60048036036101859190810190613156565b610675565b60405161019791906135c9565b60405180910390f35b3480156101ac57600080fd5b506101b56107f1565b005b3480156101c357600080fd5b506101de60048036036101d99190810190613115565b6109a4565b6040516101eb91906135a7565b60405180910390f35b34801561020057600080fd5b5061021b60048036036102169190810190613156565b6109cd565b60405161022891906135c9565b60405180910390f35b34801561023d57600080fd5b5061025860048036036102539190810190613056565b610b49565b60405161026591906136e4565b60405180910390f35b34801561027a57600080fd5b50610283610e8c565b60405161029091906136ff565b60405180910390f35b3480156102a557600080fd5b506102c060048036036102bb9190810190613156565b610e95565b6040516102cd9190613765565b60405180910390f35b3480156102e257600080fd5b506102fd60048036036102f89190810190613156565b610f8d565b60405161030a91906136e4565b60405180910390f35b34801561031f57600080fd5b5061033a60048036036103359190810190613156565b61108d565b6040516103479190613571565b60405180910390f35b34801561035c57600080fd5b50610365611191565b60405161037291906135c9565b60405180910390f35b34801561038757600080fd5b506103a2600480360361039d9190810190613115565b611233565b6040516103af919061358c565b60405180910390f35b3480156103c457600080fd5b506103df60048036036103da9190810190612fc3565b61135b565b005b3480156103ed57600080fd5b5061040860048036036104039190810190613156565b611503565b6040516104159190613765565b60405180910390f35b34801561042a57600080fd5b506104336115fb565b604051610440919061358c565b60405180910390f35b34801561045557600080fd5b50610470600480360361046b9190810190613015565b611604565b005b34801561047e57600080fd5b5061049960048036036104949190810190613015565b611717565b005b3480156104a757600080fd5b506104c260048036036104bd9190810190613156565b61182a565b6040516104cf9190613571565b60405180910390f35b3480156104e457600080fd5b506104ed61192e565b6040516104fa919061358c565b60405180910390f35b34801561050f57600080fd5b50610518611937565b6040516105259190613571565b60405180910390f35b34801561053a57600080fd5b5061055560048036036105509190810190613156565b61197a565b60405161056291906136e4565b60405180910390f35b34801561057757600080fd5b50610580611a7a565b60405161058d919061374a565b60405180910390f35b3480156105a257600080fd5b506105bd60048036036105b89190810190613156565b611ab2565b6040516105ca91906135c9565b60405180910390f35b6060600a8054600181600116156101000203166002900480601f01602080910402602001604051908101604052809291908181526020018280546001816001161561010002031660029004801561066b5780601f106106405761010080835404028352916020019161066b565b820191906000526020600020905b81548152906001019060200180831161064e57829003601f168201915b5050505050905090565b6060816000816fffffffffffffffffffffffffffffffff161115156106cf576040517f08c379a00000000000000000000000000000000000000000000000000000000081526004016106c690613662565b60405180910390fd5b6106d7611a7a565b816fffffffffffffffffffffffffffffffff161115151561072d576040517f08c379a000000000000000000000000000000000000000000000000000000000815260040161072490613662565b60405180910390fd5b6003600061073a85611c2e565b600019166000191681526020019081526020016000208054600181600116156101000203166002900480601f0160208091040260200160405190810160405280929190818152602001828054600181600116156101000203166002900480156107e45780601f106107b9576101008083540402835291602001916107e4565b820191906000526020600020905b8154815290600101906020018083116107c757829003601f168201915b5050505050915050919050565b60008060006107fe611937565b90508073ffffffffffffffffffffffffffffffffffffffff1663bb6a4520336040518263ffffffff167c01000000000000000000000000000000000000000000000000000000000281526004016108559190613571565b602060405180830381600087803b15801561086f57600080fd5b505af1158015610883573d6000803e3d6000fd5b505050506040513d601f19601f820116820180604052506108a79190810190612fec565b15156108b257600080fd5b3392503073ffffffffffffffffffffffffffffffffffffffff16319150600082111515610914576040517f08c379a000000000000000000000000000000000000000000000000000000000815260040161090b90613682565b60405180910390fd5b8273ffffffffffffffffffffffffffffffffffffffff166108fc839081150290604051600060405180830381858888f1935050505015801561095a573d6000803e3d6000fd5b50818373ffffffffffffffffffffffffffffffffffffffff167feaff4b37086828766ad3268786972c0cd24259d4c87a80f9d3963a3c3d999b0d60405160405180910390a3505050565b6060816040516020016109b791906136c2565b6040516020818303038152906040529050919050565b6060816000816fffffffffffffffffffffffffffffffff16111515610a27576040517f08c379a0000000000000000000000000000000000000000000000000000000008152600401610a1e90613662565b60405180910390fd5b610a2f611a7a565b816fffffffffffffffffffffffffffffffff1611151515610a85576040517f08c379a0000000000000000000000000000000000000000000000000000000008152600401610a7c90613662565b60405180910390fd5b60036000610a9285611d40565b600019166000191681526020019081526020016000208054600181600116156101000203166002900480601f016020809104026020016040519081016040528092919081815260200182805460018160011615610100020316600290048015610b3c5780601f10610b1157610100808354040283529160200191610b3c565b820191906000526020600020905b815481529060010190602001808311610b1f57829003601f168201915b5050505050915050919050565b6000806000610b56612c0a565b6000610b60611937565b90508073ffffffffffffffffffffffffffffffffffffffff1663bb6a4520336040518263ffffffff167c0100000000000000000000000000000000000000000000000000000000028152600401610bb79190613571565b602060405180830381600087803b158015610bd157600080fd5b505af1158015610be5573d6000803e3d6000fd5b505050506040513d601f19601f82011682018060405250610c099190810190612fec565b1515610c1457600080fd5b6001600c60009054906101000a90046fffffffffffffffffffffffffffffffff1601935042925061014060405190810160405280856fffffffffffffffffffffffffffffffff1681526020018467ffffffffffffffff1681526020018467ffffffffffffffff1681526020013373ffffffffffffffffffffffffffffffffffffffff1681526020013373ffffffffffffffffffffffffffffffffffffffff1681526020018b81526020018a8152602001898152602001886fffffffffffffffffffffffffffffffff168152602001876fffffffffffffffffffffffffffffffff168152509150610d0382611e52565b600c600081819054906101000a90046fffffffffffffffffffffffffffffffff168092919060010191906101000a8154816fffffffffffffffffffffffffffffffff02191690836fffffffffffffffffffffffffffffffff16021790555050816080015173ffffffffffffffffffffffffffffffffffffffff16826040015167ffffffffffffffff1683600001516fffffffffffffffffffffffffffffffff167f24b910cee83acebdf0e3c0e4c00d70907a15d2e792ea13e69f4ea9588bf1d5be3073ffffffffffffffffffffffffffffffffffffffff166354fd4d506040518163ffffffff167c0100000000000000000000000000000000000000000000000000000000028152600401602060405180830381600087803b158015610e2857600080fd5b505af1158015610e3c573d6000803e3d6000fd5b505050506040513d601f19601f82011682018060405250610e60919081019061317f565b610e69876109a4565b604051610e7792919061371a565b60405180910390a45050505095945050505050565b60006001905090565b6000816000816fffffffffffffffffffffffffffffffff16111515610eef576040517f08c379a0000000000000000000000000000000000000000000000000000000008152600401610ee690613662565b60405180910390fd5b610ef7611a7a565b816fffffffffffffffffffffffffffffffff1611151515610f4d576040517f08c379a0000000000000000000000000000000000000000000000000000000008152600401610f4490613662565b60405180910390fd5b60026000610f5a856121ff565b6000191660001916815260200190815260200160002060009054906101000a900467ffffffffffffffff16915050919050565b6000816000816fffffffffffffffffffffffffffffffff16111515610fe7576040517f08c379a0000000000000000000000000000000000000000000000000000000008152600401610fde90613662565b60405180910390fd5b610fef611a7a565b816fffffffffffffffffffffffffffffffff1611151515611045576040517f08c379a000000000000000000000000000000000000000000000000000000000815260040161103c90613662565b60405180910390fd5b6001600061105285612311565b6000191660001916815260200190815260200160002060009054906101000a90046fffffffffffffffffffffffffffffffff16915050919050565b6000816000816fffffffffffffffffffffffffffffffff161115156110e7576040517f08c379a00000000000000000000000000000000000000000000000000000000081526004016110de90613662565b60405180910390fd5b6110ef611a7a565b816fffffffffffffffffffffffffffffffff1611151515611145576040517f08c379a000000000000000000000000000000000000000000000000000000000815260040161113c90613662565b60405180910390fd5b6004600061115285612423565b6000191660001916815260200190815260200160002060009054906101000a900473ffffffffffffffffffffffffffffffffffffffff16915050919050565b6060600b8054600181600116156101000203166002900480601f0160208091040260200160405190810160405280929190818152602001828054600181600116156101000203166002900480156112295780601f106111fe57610100808354040283529160200191611229565b820191906000526020600020905b81548152906001019060200180831161120c57829003601f168201915b5050505050905090565b60008082600001516fffffffffffffffffffffffffffffffff1611151561125d5760009050611356565b6000826020015167ffffffffffffffff1611151561127e5760009050611356565b6000826040015167ffffffffffffffff1611151561129f5760009050611356565b600073ffffffffffffffffffffffffffffffffffffffff16826060015173ffffffffffffffffffffffffffffffffffffffff1614156112e15760009050611356565b600073ffffffffffffffffffffffffffffffffffffffff16826080015173ffffffffffffffffffffffffffffffffffffffff1614156113235760009050611356565b60008260a0015151141561133a5760009050611356565b60008260c001515114156113515760009050611356565b600190505b919050565b600080611366611937565b90508073ffffffffffffffffffffffffffffffffffffffff1663bb6a4520336040518263ffffffff167c01000000000000000000000000000000000000000000000000000000000281526004016113bd9190613571565b602060405180830381600087803b1580156113d757600080fd5b505af11580156113eb573d6000803e3d6000fd5b505050506040513d601f19601f8201168201806040525061140f9190810190612fec565b151561141a57600080fd5b600073ffffffffffffffffffffffffffffffffffffffff168373ffffffffffffffffffffffffffffffffffffffff161415151561145657600080fd5b61145e611937565b91508173ffffffffffffffffffffffffffffffffffffffff168373ffffffffffffffffffffffffffffffffffffffff161415151561149b57600080fd5b6114a483612535565b8273ffffffffffffffffffffffffffffffffffffffff168273ffffffffffffffffffffffffffffffffffffffff167fd9c4a08818b5e0b58c0856ec8285d83c51f0654438a200ef0f9e0e968f583ca960405160405180910390a3505050565b6000816000816fffffffffffffffffffffffffffffffff1611151561155d576040517f08c379a000000000000000000000000000000000000000000000000000000000815260040161155490613662565b60405180910390fd5b611565611a7a565b816fffffffffffffffffffffffffffffffff16111515156115bb576040517f08c379a00000000000000000000000000000000000000000000000000000000081526004016115b290613662565b60405180910390fd5b600260006115c88561269d565b6000191660001916815260200190815260200160002060009054906101000a900467ffffffffffffffff16915050919050565b60006001905090565b600061160e611937565b90508073ffffffffffffffffffffffffffffffffffffffff1663bb6a4520336040518263ffffffff167c01000000000000000000000000000000000000000000000000000000000281526004016116659190613571565b602060405180830381600087803b15801561167f57600080fd5b505af1158015611693573d6000803e3d6000fd5b505050506040513d601f19601f820116820180604052506116b79190810190612fec565b15156116c257600080fd5b7f3fd06971a1669386f272c36c0f88736dafb25abdc400efb23ff7cc61c8d563b0600b836040516116f49291906135eb565b60405180910390a181600b9080519060200190611712929190612cd4565b505050565b6000611721611937565b90508073ffffffffffffffffffffffffffffffffffffffff1663bb6a4520336040518263ffffffff167c01000000000000000000000000000000000000000000000000000000000281526004016117789190613571565b602060405180830381600087803b15801561179257600080fd5b505af11580156117a6573d6000803e3d6000fd5b505050506040513d601f19601f820116820180604052506117ca9190810190612fec565b15156117d557600080fd5b7ff19e969be7affb98a1d812094e0f24ecca36f1eabd6dd592c97020d47c64a00e600a836040516118079291906135eb565b60405180910390a181600a9080519060200190611825929190612cd4565b505050565b6000816000816fffffffffffffffffffffffffffffffff16111515611884576040517f08c379a000000000000000000000000000000000000000000000000000000000815260040161187b90613662565b60405180910390fd5b61188c611a7a565b816fffffffffffffffffffffffffffffffff16111515156118e2576040517f08c379a00000000000000000000000000000000000000000000000000000000081526004016118d990613662565b60405180910390fd5b600460006118ef856127af565b6000191660001916815260200190815260200160002060009054906101000a900473ffffffffffffffffffffffffffffffffffffffff16915050919050565b60006001905090565b60008060405180807f636f6d2e6d61726b6574706c6163652e61636c726571756972696e672e61636c815250602001905060405180910390209050805491505090565b6000816000816fffffffffffffffffffffffffffffffff161115156119d4576040517f08c379a00000000000000000000000000000000000000000000000000000000081526004016119cb90613662565b60405180910390fd5b6119dc611a7a565b816fffffffffffffffffffffffffffffffff1611151515611a32576040517f08c379a0000000000000000000000000000000000000000000000000000000008152600401611a2990613662565b60405180910390fd5b60016000611a3f856128c1565b6000191660001916815260200190815260200160002060009054906101000a90046fffffffffffffffffffffffffffffffff16915050919050565b6000600c60009054906101000a90046fffffffffffffffffffffffffffffffff166fffffffffffffffffffffffffffffffff16905090565b6060816000816fffffffffffffffffffffffffffffffff16111515611b0c576040517f08c379a0000000000000000000000000000000000000000000000000000000008152600401611b0390613662565b60405180910390fd5b611b14611a7a565b816fffffffffffffffffffffffffffffffff1611151515611b6a576040517f08c379a0000000000000000000000000000000000000000000000000000000008152600401611b6190613662565b60405180910390fd5b60036000611b77856129d3565b600019166000191681526020019081526020016000208054600181600116156101000203166002900480601f016020809104026020016040519081016040528092919081815260200182805460018160011615610100020316600290048015611c215780601f10611bf657610100808354040283529160200191611c21565b820191906000526020600020905b815481529060010190602001808311611c0457829003601f168201915b5050505050915050919050565b60008160405160200180807f70726f6475637400000000000000000000000000000000000000000000000000815250600701807f696d616765555249000000000000000000000000000000000000000000000000815250600801826fffffffffffffffffffffffffffffffff166fffffffffffffffffffffffffffffffff167001000000000000000000000000000000000281526010019150506040516020818303038152906040526040518082805190602001908083835b602083101515611d0c5780518252602082019150602081019050602083039250611ce7565b6001836020036101000a03801982511681845116808217855250505050505090500191505060405180910390209050919050565b60008160405160200180807f70726f6475637400000000000000000000000000000000000000000000000000815250600701807f6e616d6500000000000000000000000000000000000000000000000000000000815250600401826fffffffffffffffffffffffffffffffff166fffffffffffffffffffffffffffffffff167001000000000000000000000000000000000281526010019150506040516020818303038152906040526040518082805190602001908083835b602083101515611e1e5780518252602082019150602081019050602083039250611df9565b6001836020036101000a03801982511681845116808217855250505050505090500191505060405180910390209050919050565b611e5b81611233565b1515611e9c576040517f08c379a0000000000000000000000000000000000000000000000000000000008152600401611e9390613622565b60405180910390fd5b806000015160016000611eb28460000151612ae5565b6000191660001916815260200190815260200160002060006101000a8154816fffffffffffffffffffffffffffffffff02191690836fffffffffffffffffffffffffffffffff160217905550806020015160026000611f14846000015161269d565b6000191660001916815260200190815260200160002060006101000a81548167ffffffffffffffff021916908367ffffffffffffffff160217905550806040015160026000611f6684600001516121ff565b6000191660001916815260200190815260200160002060006101000a81548167ffffffffffffffff021916908367ffffffffffffffff160217905550806060015160046000611fb88460000151612423565b6000191660001916815260200190815260200160002060006101000a81548173ffffffffffffffffffffffffffffffffffffffff021916908373ffffffffffffffffffffffffffffffffffffffff16021790555080608001516004600061202284600001516127af565b6000191660001916815260200190815260200160002060006101000a81548173ffffffffffffffffffffffffffffffffffffffff021916908373ffffffffffffffffffffffffffffffffffffffff1602179055508060a001516003600061208c8460000151611d40565b6000191660001916815260200190815260200160002090805190602001906120b5929190612cd4565b508060c00151600360006120cc84600001516129d3565b6000191660001916815260200190815260200160002090805190602001906120f5929190612cd4565b508060e001516003600061210c8460000151611c2e565b600019166000191681526020019081526020016000209080519060200190612135929190612cd4565b508061010001516001600061214d84600001516128c1565b6000191660001916815260200190815260200160002060006101000a8154816fffffffffffffffffffffffffffffffff02191690836fffffffffffffffffffffffffffffffff160217905550806101200151600160006121b08460000151612311565b6000191660001916815260200190815260200160002060006101000a8154816fffffffffffffffffffffffffffffffff02191690836fffffffffffffffffffffffffffffffff16021790555050565b60008160405160200180807f70726f6475637400000000000000000000000000000000000000000000000000815250600701807f7570646174656441740000000000000000000000000000000000000000000000815250600901826fffffffffffffffffffffffffffffffff166fffffffffffffffffffffffffffffffff167001000000000000000000000000000000000281526010019150506040516020818303038152906040526040518082805190602001908083835b6020831015156122dd57805182526020820191506020810190506020830392506122b8565b6001836020036101000a03801982511681845116808217855250505050505090500191505060405180910390209050919050565b60008160405160200180807f70726f6475637400000000000000000000000000000000000000000000000000815250600701807f696e76656e746f72790000000000000000000000000000000000000000000000815250600901826fffffffffffffffffffffffffffffffff166fffffffffffffffffffffffffffffffff167001000000000000000000000000000000000281526010019150506040516020818303038152906040526040518082805190602001908083835b6020831015156123ef57805182526020820191506020810190506020830392506123ca565b6001836020036101000a03801982511681845116808217855250505050505090500191505060405180910390209050919050565b60008160405160200180807f70726f6475637400000000000000000000000000000000000000000000000000815250600701807f6372656174656442790000000000000000000000000000000000000000000000815250600901826fffffffffffffffffffffffffffffffff166fffffffffffffffffffffffffffffffff167001000000000000000000000000000000000281526010019150506040516020818303038152906040526040518082805190602001908083835b60208310151561250157805182526020820191506020810190506020830392506124dc565b6001836020036101000a03801982511681845116808217855250505050505090500191505060405180910390209050919050565b600061254082612bf7565b1515612581576040517f08c379a000000000000000000000000000000000000000000000000000000000815260040161257890613642565b60405180910390fd5b8173ffffffffffffffffffffffffffffffffffffffff1663a8218cd36040518163ffffffff167c0100000000000000000000000000000000000000000000000000000000028152600401602060405180830381600087803b1580156125e557600080fd5b505af11580156125f9573d6000803e3d6000fd5b505050506040513d601f19601f8201168201806040525061261d9190810190612fec565b151561265e576040517f08c379a0000000000000000000000000000000000000000000000000000000008152600401612655906136a2565b60405180910390fd5b60405180807f636f6d2e6d61726b6574706c6163652e61636c726571756972696e672e61636c8152506020019050604051809103902090508181555050565b60008160405160200180807f70726f6475637400000000000000000000000000000000000000000000000000815250600701807f6372656174656441740000000000000000000000000000000000000000000000815250600901826fffffffffffffffffffffffffffffffff166fffffffffffffffffffffffffffffffff167001000000000000000000000000000000000281526010019150506040516020818303038152906040526040518082805190602001908083835b60208310151561277b5780518252602082019150602081019050602083039250612756565b6001836020036101000a03801982511681845116808217855250505050505090500191505060405180910390209050919050565b60008160405160200180807f70726f6475637400000000000000000000000000000000000000000000000000815250600701807f7570646174656442790000000000000000000000000000000000000000000000815250600901826fffffffffffffffffffffffffffffffff166fffffffffffffffffffffffffffffffff167001000000000000000000000000000000000281526010019150506040516020818303038152906040526040518082805190602001908083835b60208310151561288d5780518252602082019150602081019050602083039250612868565b6001836020036101000a03801982511681845116808217855250505050505090500191505060405180910390209050919050565b60008160405160200180807f70726f6475637400000000000000000000000000000000000000000000000000815250600701807f7072696365000000000000000000000000000000000000000000000000000000815250600501826fffffffffffffffffffffffffffffffff166fffffffffffffffffffffffffffffffff167001000000000000000000000000000000000281526010019150506040516020818303038152906040526040518082805190602001908083835b60208310151561299f578051825260208201915060208101905060208303925061297a565b6001836020036101000a03801982511681845116808217855250505050505090500191505060405180910390209050919050565b60008160405160200180807f70726f6475637400000000000000000000000000000000000000000000000000815250600701807f6465736372697074696f6e000000000000000000000000000000000000000000815250600b01826fffffffffffffffffffffffffffffffff166fffffffffffffffffffffffffffffffff167001000000000000000000000000000000000281526010019150506040516020818303038152906040526040518082805190602001908083835b602083101515612ab15780518252602082019150602081019050602083039250612a8c565b6001836020036101000a03801982511681845116808217855250505050505090500191505060405180910390209050919050565b60008160405160200180807f70726f6475637400000000000000000000000000000000000000000000000000815250600701807f6964000000000000000000000000000000000000000000000000000000000000815250600201826fffffffffffffffffffffffffffffffff166fffffffffffffffffffffffffffffffff167001000000000000000000000000000000000281526010019150506040516020818303038152906040526040518082805190602001908083835b602083101515612bc35780518252602082019150602081019050602083039250612b9e565b6001836020036101000a03801982511681845116808217855250505050505090500191505060405180910390209050919050565b600080823b905060008111915050919050565b6101406040519081016040528060006fffffffffffffffffffffffffffffffff168152602001600067ffffffffffffffff168152602001600067ffffffffffffffff168152602001600073ffffffffffffffffffffffffffffffffffffffff168152602001600073ffffffffffffffffffffffffffffffffffffffff16815260200160608152602001606081526020016060815260200160006fffffffffffffffffffffffffffffffff16815260200160006fffffffffffffffffffffffffffffffff1681525090565b828054600181600116156101000203166002900490600052602060002090601f016020900481019282601f10612d1557805160ff1916838001178555612d43565b82800160010185558215612d43579182015b82811115612d42578251825591602001919060010190612d27565b5b509050612d509190612d54565b5090565b612d7691905b80821115612d72576000816000905550600101612d5a565b5090565b90565b6000612d8582356138ac565b905092915050565b6000612d9982516138cc565b905092915050565b600082601f8301121515612db457600080fd5b8135612dc7612dc2826137ad565b613780565b91508082526020830160208301858383011115612de357600080fd5b612dee838284613916565b50505092915050565b600082601f8301121515612e0a57600080fd5b8135612e1d612e18826137d9565b613780565b91508082526020830160208301858383011115612e3957600080fd5b612e44838284613916565b50505092915050565b60006101408284031215612e6057600080fd5b612e6b610140613780565b90506000612e7b84828501612f87565b6000830152506020612e8f84828501612faf565b6020830152506040612ea384828501612faf565b6040830152506060612eb784828501612d79565b6060830152506080612ecb84828501612d79565b60808301525060a082013567ffffffffffffffff811115612eeb57600080fd5b612ef784828501612da1565b60a08301525060c082013567ffffffffffffffff811115612f1757600080fd5b612f2384828501612da1565b60c08301525060e082013567ffffffffffffffff811115612f4357600080fd5b612f4f84828501612da1565b60e083015250610100612f6484828501612f87565b61010083015250610120612f7a84828501612f87565b6101208301525092915050565b6000612f9382356138d8565b905092915050565b6000612fa782516138f4565b905092915050565b6000612fbb8235613902565b905092915050565b600060208284031215612fd557600080fd5b6000612fe384828501612d79565b91505092915050565b600060208284031215612ffe57600080fd5b600061300c84828501612d8d565b91505092915050565b60006020828403121561302757600080fd5b600082013567ffffffffffffffff81111561304157600080fd5b61304d84828501612df7565b91505092915050565b600080600080600060a0868803121561306e57600080fd5b600086013567ffffffffffffffff81111561308857600080fd5b61309488828901612df7565b955050602086013567ffffffffffffffff8111156130b157600080fd5b6130bd88828901612df7565b945050604086013567ffffffffffffffff8111156130da57600080fd5b6130e688828901612df7565b93505060606130f788828901612f87565b925050608061310888828901612f87565b9150509295509295909350565b60006020828403121561312757600080fd5b600082013567ffffffffffffffff81111561314157600080fd5b61314d84828501612e4d565b91505092915050565b60006020828403121561316857600080fd5b600061317684828501612f87565b91505092915050565b60006020828403121561319157600080fd5b600061319f84828501612f9b565b91505092915050565b6131b181613838565b82525050565b6131c081613858565b82525050565b60006131d182613817565b8084526131e5816020860160208601613925565b6131ee81613958565b602085010191505092915050565b60006132078261382d565b80845261321b816020860160208601613925565b61322481613958565b602085010191505092915050565b600061323d82613822565b808452613251816020860160208601613925565b61325a81613958565b602085010191505092915050565b60008154600181166000811461328557600181146132a5576132e6565b607f600283041680865260ff1983166020870152604086019350506132e6565b600282048086526020860195506132bb85613805565b60005b828110156132dd578154818901526001820191506020810190506132be565b80880195505050505b505092915050565b6000601882527f50726f64756374206d6f64656c20697320696e76616c696400000000000000006020830152604082019050919050565b6000602182527f4e65772041434c2061646472657373206973206e6f74206120636f6e7472616360208301527f74000000000000000000000000000000000000000000000000000000000000006040830152606082019050919050565b6000600a82527f496e76616c6964204964000000000000000000000000000000000000000000006020830152604082019050919050565b6000601e82527f4e6f20617661696c61626c652066756e647320746f20776974686472617700006020830152604082019050919050565b6000603282527f4e65772041434c206164647265737320646f6573206e6f7420636f6e666f726d60208301527f20746f204941434c20696e7465726661636500000000000000000000000000006040830152606082019050919050565b6000610140830160008301516134666000860182613535565b5060208301516134796020860182613562565b50604083015161348c6040860182613562565b50606083015161349f60608601826131a8565b5060808301516134b260808601826131a8565b5060a083015184820360a08601526134ca8282613232565b91505060c083015184820360c08601526134e48282613232565b91505060e083015184820360e08601526134fe8282613232565b915050610100830151613515610100860182613535565b5061012083015161352a610120860182613535565b508091505092915050565b61353e81613864565b82525050565b61354d81613880565b82525050565b61355c8161388e565b82525050565b61356b81613898565b82525050565b600060208201905061358660008301846131a8565b92915050565b60006020820190506135a160008301846131b7565b92915050565b600060208201905081810360008301526135c181846131c6565b905092915050565b600060208201905081810360008301526135e381846131fc565b905092915050565b600060408201905081810360008301526136058185613268565b9050818103602083015261361981846131fc565b90509392505050565b6000602082019050818103600083015261363b816132ee565b9050919050565b6000602082019050818103600083015261365b81613325565b9050919050565b6000602082019050818103600083015261367b81613382565b9050919050565b6000602082019050818103600083015261369b816133b9565b9050919050565b600060208201905081810360008301526136bb816133f0565b9050919050565b600060208201905081810360008301526136dc818461344d565b905092915050565b60006020820190506136f96000830184613535565b92915050565b60006020820190506137146000830184613544565b92915050565b600060408201905061372f6000830185613544565b818103602083015261374181846131c6565b90509392505050565b600060208201905061375f6000830184613553565b92915050565b600060208201905061377a6000830184613562565b92915050565b6000604051905081810181811067ffffffffffffffff821117156137a357600080fd5b8060405250919050565b600067ffffffffffffffff8211156137c457600080fd5b601f19601f8301169050602081019050919050565b600067ffffffffffffffff8211156137f057600080fd5b601f19601f8301169050602081019050919050565b60008160005260206000209050919050565b600081519050919050565b600081519050919050565b600081519050919050565b600073ffffffffffffffffffffffffffffffffffffffff82169050919050565b60008115159050919050565b60006fffffffffffffffffffffffffffffffff82169050919050565b600061ffff82169050919050565b6000819050919050565b600067ffffffffffffffff82169050919050565b600073ffffffffffffffffffffffffffffffffffffffff82169050919050565b60008115159050919050565b60006fffffffffffffffffffffffffffffffff82169050919050565b600061ffff82169050919050565b600067ffffffffffffffff82169050919050565b82818337600083830152505050565b60005b83811015613943578082015181840152602081019050613928565b83811115613952576000848401525b50505050565b6000601f19601f83011690509190505600a265627a7a72305820724a69073b90597da236b8814f47880c925780f06af601ee4acd6a2f606b65846c6578706572696d656e74616cf50037608060405234801561001057600080fd5b50604051602080611304833981018060405281019080805190602001909291905050508080808080610050816100b6640100000000026401000000009004565b8073ffffffffffffffffffffffffffffffffffffffff16600073ffffffffffffffffffffffffffffffffffffffff167fd9c4a08818b5e0b58c0856ec8285d83c51f0654438a200ef0f9e0e968f583ca960405160405180910390a35050505050506102f9565b60006100d4826102e664010000000002610fbd176401000000009004565b151561016e576040517f08c379a00000000000000000000000000000000000000000000000000000000081526004018080602001828103825260218152602001807f4e65772041434c2061646472657373206973206e6f74206120636f6e7472616381526020017f740000000000000000000000000000000000000000000000000000000000000081525060400191505060405180910390fd5b8173ffffffffffffffffffffffffffffffffffffffff1663a8218cd36040518163ffffffff167c0100000000000000000000000000000000000000000000000000000000028152600401602060405180830381600087803b1580156101d257600080fd5b505af11580156101e6573d6000803e3d6000fd5b505050506040513d60208110156101fc57600080fd5b810190808051906020019092919050505015156102a7576040517f08c379a00000000000000000000000000000000000000000000000000000000081526004018080602001828103825260328152602001807f4e65772041434c206164647265737320646f6573206e6f7420636f6e666f726d81526020017f20746f204941434c20696e74657266616365000000000000000000000000000081525060400191505060405180910390fd5b60405180807f636f6d2e6d61726b6574706c6163652e61636c726571756972696e672e61636c8152506020019050604051809103902090508181555050565b600080823b905060008111915050919050565b610ffc806103086000396000f3006080604052600436106100a4576000357c0100000000000000000000000000000000000000000000000000000000900463ffffffff1680633659cfe6146101955780633f4ba83a146101d85780635c60da1b146101ef57806364da4e6f146102465780638456cb591461027557806387a7066b1461028c578063b187bd26146102cf578063b1a6909a146102fe578063daa3a1631461032d578063de2873591461035c575b60008015156100b16103b3565b15151415156100bf57600080fd5b6100c761041c565b9050600073ffffffffffffffffffffffffffffffffffffffff168173ffffffffffffffffffffffffffffffffffffffff161415151561016e576040517f08c379a000000000000000000000000000000000000000000000000000000000815260040180806020018281038252601e8152602001807f496d706c656d656e746174696f6e2061646472657373206e6f7420736574000081525060200191505060405180910390fd5b60405136600082376000803683855af43d806000843e8160008114610191578184f35b8184fd5b3480156101a157600080fd5b506101d6600480360381019080803573ffffffffffffffffffffffffffffffffffffffff169060200190929190505050610485565b005b3480156101e457600080fd5b506101ed610629565b005b3480156101fb57600080fd5b5061020461041c565b604051808273ffffffffffffffffffffffffffffffffffffffff1673ffffffffffffffffffffffffffffffffffffffff16815260200191505060405180910390f35b34801561025257600080fd5b5061025b610762565b604051808215151515815260200191505060405180910390f35b34801561028157600080fd5b5061028a61076b565b005b34801561029857600080fd5b506102cd600480360381019080803573ffffffffffffffffffffffffffffffffffffffff1690602001909291905050506108ab565b005b3480156102db57600080fd5b506102e46103b3565b604051808215151515815260200191505060405180910390f35b34801561030a57600080fd5b50610313610a82565b604051808215151515815260200191505060405180910390f35b34801561033957600080fd5b50610342610a8b565b604051808215151515815260200191505060405180910390f35b34801561036857600080fd5b50610371610a94565b604051808273ffffffffffffffffffffffffffffffffffffffff1673ffffffffffffffffffffffffffffffffffffffff16815260200191505060405180910390f35b60008060405180807f636f6d2e6d61726b6574706c6163652e7061757361626c652e6973706175736581526020017f6400000000000000000000000000000000000000000000000000000000000000815250602101905060405180910390209050805491505090565b60008060405180807f636f6d2e6d61726b6574706c6163652e70726f78792e696d706c656d656e746181526020017f74696f6e00000000000000000000000000000000000000000000000000000000815250602401905060405180910390209050805491505090565b600061048f610a94565b90508073ffffffffffffffffffffffffffffffffffffffff1663bb6a4520336040518263ffffffff167c0100000000000000000000000000000000000000000000000000000000028152600401808273ffffffffffffffffffffffffffffffffffffffff1673ffffffffffffffffffffffffffffffffffffffff168152602001915050602060405180830381600087803b15801561052c57600080fd5b505af1158015610540573d6000803e3d6000fd5b505050506040513d602081101561055657600080fd5b8101908080519060200190929190505050151561057257600080fd5b8173ffffffffffffffffffffffffffffffffffffffff1663cdbdb0a56040518163ffffffff167c0100000000000000000000000000000000000000000000000000000000028152600401602060405180830381600087803b1580156105d657600080fd5b505af11580156105ea573d6000803e3d6000fd5b505050506040513d602081101561060057600080fd5b8101908080519060200190929190505050151561061c57600080fd5b61062582610ad7565b5050565b6000610633610a94565b90508073ffffffffffffffffffffffffffffffffffffffff1663bb6a4520336040518263ffffffff167c0100000000000000000000000000000000000000000000000000000000028152600401808273ffffffffffffffffffffffffffffffffffffffff1673ffffffffffffffffffffffffffffffffffffffff168152602001915050602060405180830381600087803b1580156106d057600080fd5b505af11580156106e4573d6000803e3d6000fd5b505050506040513d60208110156106fa57600080fd5b8101908080519060200190929190505050151561071657600080fd5b61071e6103b3565b151561072957600080fd5b6107336000610c16565b7fa45f47fdea8a1efdd9029a5691c7f759c32b7c698632b563573e155625d1693360405160405180910390a150565b60006001905090565b6000610775610a94565b90508073ffffffffffffffffffffffffffffffffffffffff1663bb6a4520336040518263ffffffff167c0100000000000000000000000000000000000000000000000000000000028152600401808273ffffffffffffffffffffffffffffffffffffffff1673ffffffffffffffffffffffffffffffffffffffff168152602001915050602060405180830381600087803b15801561081257600080fd5b505af1158015610826573d6000803e3d6000fd5b505050506040513d602081101561083c57600080fd5b8101908080519060200190929190505050151561085857600080fd5b600015156108646103b3565b151514151561087257600080fd5b61087c6001610c16565b7f9e87fac88ff661f02d44f95383c817fece4bce600a3dab7a54406878b965e75260405160405180910390a150565b6000806108b6610a94565b90508073ffffffffffffffffffffffffffffffffffffffff1663bb6a4520336040518263ffffffff167c0100000000000000000000000000000000000000000000000000000000028152600401808273ffffffffffffffffffffffffffffffffffffffff1673ffffffffffffffffffffffffffffffffffffffff168152602001915050602060405180830381600087803b15801561095357600080fd5b505af1158015610967573d6000803e3d6000fd5b505050506040513d602081101561097d57600080fd5b8101908080519060200190929190505050151561099957600080fd5b600073ffffffffffffffffffffffffffffffffffffffff168373ffffffffffffffffffffffffffffffffffffffff16141515156109d557600080fd5b6109dd610a94565b91508173ffffffffffffffffffffffffffffffffffffffff168373ffffffffffffffffffffffffffffffffffffffff1614151515610a1a57600080fd5b610a2383610c7d565b8273ffffffffffffffffffffffffffffffffffffffff168273ffffffffffffffffffffffffffffffffffffffff167fd9c4a08818b5e0b58c0856ec8285d83c51f0654438a200ef0f9e0e968f583ca960405160405180910390a3505050565b60006001905090565b60006001905090565b60008060405180807f636f6d2e6d61726b6574706c6163652e61636c726571756972696e672e61636c815250602001905060405180910390209050805491505090565b6000801515610ae46103b3565b1515141515610af257600080fd5b610afa61041c565b90508173ffffffffffffffffffffffffffffffffffffffff168173ffffffffffffffffffffffffffffffffffffffff1614151515610bc6576040517f08c379a00000000000000000000000000000000000000000000000000000000081526004018080602001828103825260398152602001807f4e657720696d706c656d656e746174696f6e206164647265737320697320746881526020017f652073616d652061732063757272656e7420616464726573730000000000000081525060400191505060405180910390fd5b610bcf82610e9a565b8173ffffffffffffffffffffffffffffffffffffffff167fbc7cd75a20ee27fd9adebab32041f755214dbc6bffa90cc0225b39da2e5c2d3b60405160405180910390a25050565b600060405180807f636f6d2e6d61726b6574706c6163652e7061757361626c652e6973706175736581526020017f64000000000000000000000000000000000000000000000000000000000000008152506021019050604051809103902090508181555050565b6000610c8882610fbd565b1515610d22576040517f08c379a00000000000000000000000000000000000000000000000000000000081526004018080602001828103825260218152602001807f4e65772041434c2061646472657373206973206e6f74206120636f6e7472616381526020017f740000000000000000000000000000000000000000000000000000000000000081525060400191505060405180910390fd5b8173ffffffffffffffffffffffffffffffffffffffff1663a8218cd36040518163ffffffff167c0100000000000000000000000000000000000000000000000000000000028152600401602060405180830381600087803b158015610d8657600080fd5b505af1158015610d9a573d6000803e3d6000fd5b505050506040513d6020811015610db057600080fd5b81019080805190602001909291905050501515610e5b576040517f08c379a00000000000000000000000000000000000000000000000000000000081526004018080602001828103825260328152602001807f4e65772041434c206164647265737320646f6573206e6f7420636f6e666f726d81526020017f20746f204941434c20696e74657266616365000000000000000000000000000081525060400191505060405180910390fd5b60405180807f636f6d2e6d61726b6574706c6163652e61636c726571756972696e672e61636c8152506020019050604051809103902090508181555050565b6000801515610ea76103b3565b1515141515610eb557600080fd5b610ebe82610fbd565b1515610f58576040517f08c379a000000000000000000000000000000000000000000000000000000000815260040180806020018281038252602c8152602001807f4e657720696d706c656d656e746174696f6e2061646472657373206973206e6f81526020017f74206120636f6e7472616374000000000000000000000000000000000000000081525060400191505060405180910390fd5b60405180807f636f6d2e6d61726b6574706c6163652e70726f78792e696d706c656d656e746181526020017f74696f6e000000000000000000000000000000000000000000000000000000008152506024019050604051809103902090508181555050565b600080823b9050600081119150509190505600a165627a7a723058203c94adeee92985d88e32010c71672ce669d5f2b50f214d3a13abfea0fe5ed6820029a265627a7a72305820cee0c505fda8a0bf8d0f4572792bcc9919d46b9ac60dc44744abfa1bf42980186c6578706572696d656e74616cf50037",
  "source": "pragma solidity ^0.4.23;\npragma experimental ABIEncoderV2;\n\nimport \"../acl/ACLV1.sol\";\nimport \"../acl/ACLRequiring.sol\";\nimport \"../lifecycle/Pausable.sol\";\nimport \"./ProductStoreProxy.sol\";\nimport \"./ProductStoreV1.sol\";\n\n/**\n* @title ProductStoreFactory\n* @dev Factory for ProductStore contracts\n*/\ncontract ProductStoreFactory is ACLRequiring, Pausable {\n\n  /**\n  * @dev Constructor function\n  * @param _aclAddress Address of ACL contract\n  */\n  constructor(address _aclAddress) Pausable(_aclAddress) public { }\n\n  /**\n  * @dev Produces a ProductStore and ProductStoreProxy linked to the store\n  * @return ProductStoreProxy contract\n  */\n  function makeProductStore() public onlyAuthorized whenNotPaused returns (ProductStoreProxy) {\n    ACLV1 acl = new ACLV1();\n    ProductStoreV1 store = new ProductStoreV1(address(acl));\n    ProductStoreProxy proxy = new ProductStoreProxy(address(acl));\n    proxy.upgradeTo(store);\n    return proxy;\n  }\n\n}",
  "sourcePath": "/Users/matias/Projects/consensys/eth-marketplace/contracts/store/ProductStoreFactory.sol",
  "compiler": {
    "name": "solc",
    "version": "0.4.24+commit.e67f0147.Emscripten.clang"
  },
  "schemaVersion": "2.0.1",
  "updatedAt": "2018-08-27T22:28:38.360Z"
}