{
  "contractName": "ProductStoreProxy",
  "abi": [
    {
      "constant": false,
      "inputs": [],
      "name": "unpause",
      "outputs": [],
      "payable": false,
      "stateMutability": "nonpayable",
      "type": "function"
    },
    {
      "constant": true,
      "inputs": [],
      "name": "implementation",
      "outputs": [
        {
          "name": "_implementation",
          "type": "address"
        }
      ],
      "payable": false,
      "stateMutability": "view",
      "type": "function"
    },
    {
      "constant": true,
      "inputs": [],
      "name": "isProxy",
      "outputs": [
        {
          "name": "",
          "type": "bool"
        }
      ],
      "payable": false,
      "stateMutability": "pure",
      "type": "function"
    },
    {
      "constant": false,
      "inputs": [],
      "name": "pause",
      "outputs": [],
      "payable": false,
      "stateMutability": "nonpayable",
      "type": "function"
    },
    {
      "constant": false,
      "inputs": [
        {
          "name": "_newAddress",
          "type": "address"
        }
      ],
      "name": "updateACL",
      "outputs": [],
      "payable": false,
      "stateMutability": "nonpayable",
      "type": "function"
    },
    {
      "constant": true,
      "inputs": [],
      "name": "isPaused",
      "outputs": [
        {
          "name": "_isPaused",
          "type": "bool"
        }
      ],
      "payable": false,
      "stateMutability": "view",
      "type": "function"
    },
    {
      "constant": true,
      "inputs": [],
      "name": "isEternalStorage",
      "outputs": [
        {
          "name": "",
          "type": "bool"
        }
      ],
      "payable": false,
      "stateMutability": "pure",
      "type": "function"
    },
    {
      "constant": true,
      "inputs": [],
      "name": "isUpgradeable",
      "outputs": [
        {
          "name": "",
          "type": "bool"
        }
      ],
      "payable": false,
      "stateMutability": "pure",
      "type": "function"
    },
    {
      "constant": true,
      "inputs": [],
      "name": "acl",
      "outputs": [
        {
          "name": "_acl",
          "type": "address"
        }
      ],
      "payable": false,
      "stateMutability": "view",
      "type": "function"
    },
    {
      "inputs": [
        {
          "name": "_aclAddress",
          "type": "address"
        }
      ],
      "payable": false,
      "stateMutability": "nonpayable",
      "type": "constructor"
    },
    {
      "payable": true,
      "stateMutability": "payable",
      "type": "fallback"
    },
    {
      "anonymous": false,
      "inputs": [
        {
          "indexed": true,
          "name": "_implementation",
          "type": "address"
        }
      ],
      "name": "Upgraded",
      "type": "event"
    },
    {
      "anonymous": false,
      "inputs": [],
      "name": "Paused",
      "type": "event"
    },
    {
      "anonymous": false,
      "inputs": [],
      "name": "Unpaused",
      "type": "event"
    },
    {
      "anonymous": false,
      "inputs": [
        {
          "indexed": true,
          "name": "_oldAddress",
          "type": "address"
        },
        {
          "indexed": true,
          "name": "_newAddress",
          "type": "address"
        }
      ],
      "name": "ACLUpdated",
      "type": "event"
    },
    {
      "constant": false,
      "inputs": [
        {
          "name": "_newImplementation",
          "type": "address"
        }
      ],
      "name": "upgradeTo",
      "outputs": [],
      "payable": false,
      "stateMutability": "nonpayable",
      "type": "function"
    }
  ],
  "bytecode": "0x608060405234801561001057600080fd5b50604051602080611304833981018060405281019080805190602001909291905050508080808080610050816100b6640100000000026401000000009004565b8073ffffffffffffffffffffffffffffffffffffffff16600073ffffffffffffffffffffffffffffffffffffffff167fd9c4a08818b5e0b58c0856ec8285d83c51f0654438a200ef0f9e0e968f583ca960405160405180910390a35050505050506102f9565b60006100d4826102e664010000000002610fbd176401000000009004565b151561016e576040517f08c379a00000000000000000000000000000000000000000000000000000000081526004018080602001828103825260218152602001807f4e65772041434c2061646472657373206973206e6f74206120636f6e7472616381526020017f740000000000000000000000000000000000000000000000000000000000000081525060400191505060405180910390fd5b8173ffffffffffffffffffffffffffffffffffffffff1663a8218cd36040518163ffffffff167c0100000000000000000000000000000000000000000000000000000000028152600401602060405180830381600087803b1580156101d257600080fd5b505af11580156101e6573d6000803e3d6000fd5b505050506040513d60208110156101fc57600080fd5b810190808051906020019092919050505015156102a7576040517f08c379a00000000000000000000000000000000000000000000000000000000081526004018080602001828103825260328152602001807f4e65772041434c206164647265737320646f6573206e6f7420636f6e666f726d81526020017f20746f204941434c20696e74657266616365000000000000000000000000000081525060400191505060405180910390fd5b60405180807f636f6d2e6d61726b6574706c6163652e61636c726571756972696e672e61636c8152506020019050604051809103902090508181555050565b600080823b905060008111915050919050565b610ffc806103086000396000f3006080604052600436106100a4576000357c0100000000000000000000000000000000000000000000000000000000900463ffffffff1680633659cfe6146101955780633f4ba83a146101d85780635c60da1b146101ef57806364da4e6f146102465780638456cb591461027557806387a7066b1461028c578063b187bd26146102cf578063b1a6909a146102fe578063daa3a1631461032d578063de2873591461035c575b60008015156100b16103b3565b15151415156100bf57600080fd5b6100c761041c565b9050600073ffffffffffffffffffffffffffffffffffffffff168173ffffffffffffffffffffffffffffffffffffffff161415151561016e576040517f08c379a000000000000000000000000000000000000000000000000000000000815260040180806020018281038252601e8152602001807f496d706c656d656e746174696f6e2061646472657373206e6f7420736574000081525060200191505060405180910390fd5b60405136600082376000803683855af43d806000843e8160008114610191578184f35b8184fd5b3480156101a157600080fd5b506101d6600480360381019080803573ffffffffffffffffffffffffffffffffffffffff169060200190929190505050610485565b005b3480156101e457600080fd5b506101ed610629565b005b3480156101fb57600080fd5b5061020461041c565b604051808273ffffffffffffffffffffffffffffffffffffffff1673ffffffffffffffffffffffffffffffffffffffff16815260200191505060405180910390f35b34801561025257600080fd5b5061025b610762565b604051808215151515815260200191505060405180910390f35b34801561028157600080fd5b5061028a61076b565b005b34801561029857600080fd5b506102cd600480360381019080803573ffffffffffffffffffffffffffffffffffffffff1690602001909291905050506108ab565b005b3480156102db57600080fd5b506102e46103b3565b604051808215151515815260200191505060405180910390f35b34801561030a57600080fd5b50610313610a82565b604051808215151515815260200191505060405180910390f35b34801561033957600080fd5b50610342610a8b565b604051808215151515815260200191505060405180910390f35b34801561036857600080fd5b50610371610a94565b604051808273ffffffffffffffffffffffffffffffffffffffff1673ffffffffffffffffffffffffffffffffffffffff16815260200191505060405180910390f35b60008060405180807f636f6d2e6d61726b6574706c6163652e7061757361626c652e6973706175736581526020017f6400000000000000000000000000000000000000000000000000000000000000815250602101905060405180910390209050805491505090565b60008060405180807f636f6d2e6d61726b6574706c6163652e70726f78792e696d706c656d656e746181526020017f74696f6e00000000000000000000000000000000000000000000000000000000815250602401905060405180910390209050805491505090565b600061048f610a94565b90508073ffffffffffffffffffffffffffffffffffffffff1663bb6a4520336040518263ffffffff167c0100000000000000000000000000000000000000000000000000000000028152600401808273ffffffffffffffffffffffffffffffffffffffff1673ffffffffffffffffffffffffffffffffffffffff168152602001915050602060405180830381600087803b15801561052c57600080fd5b505af1158015610540573d6000803e3d6000fd5b505050506040513d602081101561055657600080fd5b8101908080519060200190929190505050151561057257600080fd5b8173ffffffffffffffffffffffffffffffffffffffff1663cdbdb0a56040518163ffffffff167c0100000000000000000000000000000000000000000000000000000000028152600401602060405180830381600087803b1580156105d657600080fd5b505af11580156105ea573d6000803e3d6000fd5b505050506040513d602081101561060057600080fd5b8101908080519060200190929190505050151561061c57600080fd5b61062582610ad7565b5050565b6000610633610a94565b90508073ffffffffffffffffffffffffffffffffffffffff1663bb6a4520336040518263ffffffff167c0100000000000000000000000000000000000000000000000000000000028152600401808273ffffffffffffffffffffffffffffffffffffffff1673ffffffffffffffffffffffffffffffffffffffff168152602001915050602060405180830381600087803b1580156106d057600080fd5b505af11580156106e4573d6000803e3d6000fd5b505050506040513d60208110156106fa57600080fd5b8101908080519060200190929190505050151561071657600080fd5b61071e6103b3565b151561072957600080fd5b6107336000610c16565b7fa45f47fdea8a1efdd9029a5691c7f759c32b7c698632b563573e155625d1693360405160405180910390a150565b60006001905090565b6000610775610a94565b90508073ffffffffffffffffffffffffffffffffffffffff1663bb6a4520336040518263ffffffff167c0100000000000000000000000000000000000000000000000000000000028152600401808273ffffffffffffffffffffffffffffffffffffffff1673ffffffffffffffffffffffffffffffffffffffff168152602001915050602060405180830381600087803b15801561081257600080fd5b505af1158015610826573d6000803e3d6000fd5b505050506040513d602081101561083c57600080fd5b8101908080519060200190929190505050151561085857600080fd5b600015156108646103b3565b151514151561087257600080fd5b61087c6001610c16565b7f9e87fac88ff661f02d44f95383c817fece4bce600a3dab7a54406878b965e75260405160405180910390a150565b6000806108b6610a94565b90508073ffffffffffffffffffffffffffffffffffffffff1663bb6a4520336040518263ffffffff167c0100000000000000000000000000000000000000000000000000000000028152600401808273ffffffffffffffffffffffffffffffffffffffff1673ffffffffffffffffffffffffffffffffffffffff168152602001915050602060405180830381600087803b15801561095357600080fd5b505af1158015610967573d6000803e3d6000fd5b505050506040513d602081101561097d57600080fd5b8101908080519060200190929190505050151561099957600080fd5b600073ffffffffffffffffffffffffffffffffffffffff168373ffffffffffffffffffffffffffffffffffffffff16141515156109d557600080fd5b6109dd610a94565b91508173ffffffffffffffffffffffffffffffffffffffff168373ffffffffffffffffffffffffffffffffffffffff1614151515610a1a57600080fd5b610a2383610c7d565b8273ffffffffffffffffffffffffffffffffffffffff168273ffffffffffffffffffffffffffffffffffffffff167fd9c4a08818b5e0b58c0856ec8285d83c51f0654438a200ef0f9e0e968f583ca960405160405180910390a3505050565b60006001905090565b60006001905090565b60008060405180807f636f6d2e6d61726b6574706c6163652e61636c726571756972696e672e61636c815250602001905060405180910390209050805491505090565b6000801515610ae46103b3565b1515141515610af257600080fd5b610afa61041c565b90508173ffffffffffffffffffffffffffffffffffffffff168173ffffffffffffffffffffffffffffffffffffffff1614151515610bc6576040517f08c379a00000000000000000000000000000000000000000000000000000000081526004018080602001828103825260398152602001807f4e657720696d706c656d656e746174696f6e206164647265737320697320746881526020017f652073616d652061732063757272656e7420616464726573730000000000000081525060400191505060405180910390fd5b610bcf82610e9a565b8173ffffffffffffffffffffffffffffffffffffffff167fbc7cd75a20ee27fd9adebab32041f755214dbc6bffa90cc0225b39da2e5c2d3b60405160405180910390a25050565b600060405180807f636f6d2e6d61726b6574706c6163652e7061757361626c652e6973706175736581526020017f64000000000000000000000000000000000000000000000000000000000000008152506021019050604051809103902090508181555050565b6000610c8882610fbd565b1515610d22576040517f08c379a00000000000000000000000000000000000000000000000000000000081526004018080602001828103825260218152602001807f4e65772041434c2061646472657373206973206e6f74206120636f6e7472616381526020017f740000000000000000000000000000000000000000000000000000000000000081525060400191505060405180910390fd5b8173ffffffffffffffffffffffffffffffffffffffff1663a8218cd36040518163ffffffff167c0100000000000000000000000000000000000000000000000000000000028152600401602060405180830381600087803b158015610d8657600080fd5b505af1158015610d9a573d6000803e3d6000fd5b505050506040513d6020811015610db057600080fd5b81019080805190602001909291905050501515610e5b576040517f08c379a00000000000000000000000000000000000000000000000000000000081526004018080602001828103825260328152602001807f4e65772041434c206164647265737320646f6573206e6f7420636f6e666f726d81526020017f20746f204941434c20696e74657266616365000000000000000000000000000081525060400191505060405180910390fd5b60405180807f636f6d2e6d61726b6574706c6163652e61636c726571756972696e672e61636c8152506020019050604051809103902090508181555050565b6000801515610ea76103b3565b1515141515610eb557600080fd5b610ebe82610fbd565b1515610f58576040517f08c379a000000000000000000000000000000000000000000000000000000000815260040180806020018281038252602c8152602001807f4e657720696d706c656d656e746174696f6e2061646472657373206973206e6f81526020017f74206120636f6e7472616374000000000000000000000000000000000000000081525060400191505060405180910390fd5b60405180807f636f6d2e6d61726b6574706c6163652e70726f78792e696d706c656d656e746181526020017f74696f6e000000000000000000000000000000000000000000000000000000008152506024019050604051809103902090508181555050565b600080823b9050600081119150509190505600a165627a7a7230582026d19d9aa48af398b1d29a69f3d86c5bf88d5170c6e3940a8f706bf4cd181c190029",
  "source": "pragma solidity ^0.4.23;\n\nimport \"./IProductStore.sol\";\nimport \"../storage/EternalStorage.sol\";\nimport \"../proxy/ACLUpgradeableProxy.sol\";\n\n/**\n* @title ProductStoreProxy\n* @dev Proxy contract for ProductStore implementation\n*/\ncontract ProductStoreProxy is EternalStorage, ACLUpgradeableProxy {\n\n  /**\n  * @dev Constructor function\n  * @param _aclAddress Adress of the ACL contract to be used for permissioning\n  */\n  constructor(address _aclAddress) ACLUpgradeableProxy(_aclAddress) public { }\n\n  /**\n  * @dev Upgrades the contract implementation address\n  * @param _newImplementation New contract implementation address\n  * @notice New contract implementation must conform to IProductStore\n  */\n  function upgradeTo(address _newImplementation) public onlyProductOwner {\n    require(IProductStore(_newImplementation).isProductStore());\n    _upgradeTo(_newImplementation);\n  }\n\n}\n",
  "sourcePath": "/Users/matias/Projects/consensys/eth-marketplace/contracts/store/ProductStoreProxy.sol",
  "compiler": {
    "name": "solc",
    "version": "0.4.24+commit.e67f0147.Emscripten.clang"
  },
  "schemaVersion": "2.0.1",
  "updatedAt": "2018-08-27T20:20:56.390Z"
}