{
  "contractName": "ProductStoreV1",
  "abi": [
    {
      "constant": true,
      "inputs": [
        {
          "components": [
            {
              "name": "id",
              "type": "uint128"
            },
            {
              "name": "createdAt",
              "type": "uint64"
            },
            {
              "name": "updatedAt",
              "type": "uint64"
            },
            {
              "name": "createdBy",
              "type": "address"
            },
            {
              "name": "updatedBy",
              "type": "address"
            },
            {
              "name": "name",
              "type": "string"
            },
            {
              "name": "description",
              "type": "string"
            },
            {
              "name": "imageURI",
              "type": "string"
            },
            {
              "name": "price",
              "type": "uint128"
            },
            {
              "name": "inventory",
              "type": "uint128"
            }
          ],
          "name": "_product",
          "type": "tuple"
        }
      ],
      "name": "abiEncode",
      "outputs": [
        {
          "name": "",
          "type": "bytes"
        }
      ],
      "payable": false,
      "stateMutability": "pure",
      "type": "function"
    },
    {
      "constant": false,
      "inputs": [],
      "name": "renounceOwnership",
      "outputs": [],
      "payable": false,
      "stateMutability": "nonpayable",
      "type": "function"
    },
    {
      "constant": true,
      "inputs": [
        {
          "components": [
            {
              "name": "id",
              "type": "uint128"
            },
            {
              "name": "createdAt",
              "type": "uint64"
            },
            {
              "name": "updatedAt",
              "type": "uint64"
            },
            {
              "name": "createdBy",
              "type": "address"
            },
            {
              "name": "updatedBy",
              "type": "address"
            },
            {
              "name": "name",
              "type": "string"
            },
            {
              "name": "description",
              "type": "string"
            },
            {
              "name": "imageURI",
              "type": "string"
            },
            {
              "name": "price",
              "type": "uint128"
            },
            {
              "name": "inventory",
              "type": "uint128"
            }
          ],
          "name": "_product",
          "type": "tuple"
        }
      ],
      "name": "isValid",
      "outputs": [
        {
          "name": "",
          "type": "bool"
        }
      ],
      "payable": false,
      "stateMutability": "pure",
      "type": "function"
    },
    {
      "constant": true,
      "inputs": [],
      "name": "owner",
      "outputs": [
        {
          "name": "",
          "type": "address"
        }
      ],
      "payable": false,
      "stateMutability": "view",
      "type": "function"
    },
    {
      "constant": true,
      "inputs": [],
      "name": "isEternalStorage",
      "outputs": [
        {
          "name": "",
          "type": "bool"
        }
      ],
      "payable": false,
      "stateMutability": "pure",
      "type": "function"
    },
    {
      "constant": true,
      "inputs": [],
      "name": "ownableDelegate",
      "outputs": [
        {
          "name": "",
          "type": "address"
        }
      ],
      "payable": false,
      "stateMutability": "view",
      "type": "function"
    },
    {
      "constant": false,
      "inputs": [
        {
          "name": "_ownableDelegate",
          "type": "address"
        }
      ],
      "name": "setOwnableDelegate",
      "outputs": [],
      "payable": false,
      "stateMutability": "nonpayable",
      "type": "function"
    },
    {
      "constant": false,
      "inputs": [
        {
          "name": "_newOwner",
          "type": "address"
        }
      ],
      "name": "transferOwnership",
      "outputs": [],
      "payable": false,
      "stateMutability": "nonpayable",
      "type": "function"
    },
    {
      "inputs": [
        {
          "name": "__name",
          "type": "string"
        }
      ],
      "payable": false,
      "stateMutability": "nonpayable",
      "type": "constructor"
    },
    {
      "anonymous": false,
      "inputs": [
        {
          "indexed": true,
          "name": "_id",
          "type": "uint128"
        },
        {
          "indexed": true,
          "name": "_updatedAt",
          "type": "uint64"
        },
        {
          "indexed": true,
          "name": "_updatedBy",
          "type": "address"
        },
        {
          "indexed": false,
          "name": "_modelVersion",
          "type": "uint16"
        },
        {
          "indexed": false,
          "name": "_data",
          "type": "bytes"
        }
      ],
      "name": "ArticleUpdated",
      "type": "event"
    },
    {
      "anonymous": false,
      "inputs": [
        {
          "indexed": false,
          "name": "_oldName",
          "type": "string"
        },
        {
          "indexed": false,
          "name": "_newName",
          "type": "string"
        }
      ],
      "name": "NameUpdated",
      "type": "event"
    },
    {
      "anonymous": false,
      "inputs": [
        {
          "indexed": false,
          "name": "_oldLogoURI",
          "type": "string"
        },
        {
          "indexed": false,
          "name": "_newLogoURI",
          "type": "string"
        }
      ],
      "name": "LogoUpdated",
      "type": "event"
    },
    {
      "anonymous": false,
      "inputs": [
        {
          "indexed": true,
          "name": "_previousOwner",
          "type": "address"
        }
      ],
      "name": "OwnershipRenounced",
      "type": "event"
    },
    {
      "anonymous": false,
      "inputs": [
        {
          "indexed": true,
          "name": "_oldAddress",
          "type": "address"
        },
        {
          "indexed": true,
          "name": "_newAddress",
          "type": "address"
        }
      ],
      "name": "OwnershipTransferred",
      "type": "event"
    },
    {
      "constant": true,
      "inputs": [],
      "name": "name",
      "outputs": [
        {
          "name": "",
          "type": "string"
        }
      ],
      "payable": false,
      "stateMutability": "view",
      "type": "function"
    },
    {
      "constant": true,
      "inputs": [],
      "name": "logoURI",
      "outputs": [
        {
          "name": "",
          "type": "string"
        }
      ],
      "payable": false,
      "stateMutability": "view",
      "type": "function"
    },
    {
      "constant": true,
      "inputs": [],
      "name": "productCount",
      "outputs": [
        {
          "name": "",
          "type": "uint256"
        }
      ],
      "payable": false,
      "stateMutability": "view",
      "type": "function"
    },
    {
      "constant": false,
      "inputs": [
        {
          "name": "__name",
          "type": "string"
        }
      ],
      "name": "setName",
      "outputs": [],
      "payable": false,
      "stateMutability": "nonpayable",
      "type": "function"
    },
    {
      "constant": false,
      "inputs": [
        {
          "name": "__logoURI",
          "type": "string"
        }
      ],
      "name": "setLogoURI",
      "outputs": [],
      "payable": false,
      "stateMutability": "nonpayable",
      "type": "function"
    },
    {
      "constant": false,
      "inputs": [
        {
          "name": "__name",
          "type": "string"
        },
        {
          "name": "__description",
          "type": "string"
        },
        {
          "name": "__imageURI",
          "type": "string"
        },
        {
          "name": "__price",
          "type": "uint128"
        },
        {
          "name": "__inventory",
          "type": "uint128"
        }
      ],
      "name": "addProduct",
      "outputs": [
        {
          "name": "",
          "type": "uint128"
        }
      ],
      "payable": false,
      "stateMutability": "nonpayable",
      "type": "function"
    },
    {
      "constant": true,
      "inputs": [
        {
          "name": "_id",
          "type": "uint128"
        }
      ],
      "name": "getCreatedAt",
      "outputs": [
        {
          "name": "",
          "type": "uint64"
        }
      ],
      "payable": false,
      "stateMutability": "view",
      "type": "function"
    },
    {
      "constant": true,
      "inputs": [
        {
          "name": "_id",
          "type": "uint128"
        }
      ],
      "name": "getUpdatedAt",
      "outputs": [
        {
          "name": "",
          "type": "uint64"
        }
      ],
      "payable": false,
      "stateMutability": "view",
      "type": "function"
    },
    {
      "constant": true,
      "inputs": [
        {
          "name": "_id",
          "type": "uint128"
        }
      ],
      "name": "getCreatedBy",
      "outputs": [
        {
          "name": "",
          "type": "address"
        }
      ],
      "payable": false,
      "stateMutability": "view",
      "type": "function"
    },
    {
      "constant": true,
      "inputs": [
        {
          "name": "_id",
          "type": "uint128"
        }
      ],
      "name": "getUpdatedBy",
      "outputs": [
        {
          "name": "",
          "type": "address"
        }
      ],
      "payable": false,
      "stateMutability": "view",
      "type": "function"
    },
    {
      "constant": true,
      "inputs": [
        {
          "name": "_id",
          "type": "uint128"
        }
      ],
      "name": "getName",
      "outputs": [
        {
          "name": "",
          "type": "string"
        }
      ],
      "payable": false,
      "stateMutability": "view",
      "type": "function"
    },
    {
      "constant": true,
      "inputs": [
        {
          "name": "_id",
          "type": "uint128"
        }
      ],
      "name": "getDescription",
      "outputs": [
        {
          "name": "",
          "type": "string"
        }
      ],
      "payable": false,
      "stateMutability": "view",
      "type": "function"
    },
    {
      "constant": true,
      "inputs": [
        {
          "name": "_id",
          "type": "uint128"
        }
      ],
      "name": "getImageURI",
      "outputs": [
        {
          "name": "",
          "type": "string"
        }
      ],
      "payable": false,
      "stateMutability": "view",
      "type": "function"
    },
    {
      "constant": true,
      "inputs": [
        {
          "name": "_id",
          "type": "uint128"
        }
      ],
      "name": "getPrice",
      "outputs": [
        {
          "name": "",
          "type": "uint128"
        }
      ],
      "payable": false,
      "stateMutability": "view",
      "type": "function"
    },
    {
      "constant": true,
      "inputs": [
        {
          "name": "_id",
          "type": "uint128"
        }
      ],
      "name": "getInventory",
      "outputs": [
        {
          "name": "",
          "type": "uint128"
        }
      ],
      "payable": false,
      "stateMutability": "view",
      "type": "function"
    },
    {
      "constant": true,
      "inputs": [],
      "name": "isProductStore",
      "outputs": [
        {
          "name": "",
          "type": "bool"
        }
      ],
      "payable": false,
      "stateMutability": "pure",
      "type": "function"
    },
    {
      "constant": true,
      "inputs": [],
      "name": "version",
      "outputs": [
        {
          "name": "",
          "type": "uint16"
        }
      ],
      "payable": false,
      "stateMutability": "pure",
      "type": "function"
    }
  ],
  "bytecode": "0x60806040523480156200001157600080fd5b5060405162003b0638038062003b068339810180604052620000379190810190620001a4565b336000806101000a81548173ffffffffffffffffffffffffffffffffffffffff021916908373ffffffffffffffffffffffffffffffffffffffff16021790555080600c90805190602001906200008f92919062000097565b50506200027a565b828054600181600116156101000203166002900490600052602060002090601f016020900481019282601f10620000da57805160ff19168380011785556200010b565b828001600101855582156200010b579182015b828111156200010a578251825591602001919060010190620000ed565b5b5090506200011a91906200011e565b5090565b6200014391905b808211156200013f57600081600090555060010162000125565b5090565b90565b600082601f83011215156200015a57600080fd5b8151620001716200016b8262000217565b620001e9565b915080825260208301602083018583830111156200018e57600080fd5b6200019b83828462000244565b50505092915050565b600060208284031215620001b757600080fd5b600082015167ffffffffffffffff811115620001d257600080fd5b620001e08482850162000146565b91505092915050565b6000604051905081810181811067ffffffffffffffff821117156200020d57600080fd5b8060405250919050565b600067ffffffffffffffff8211156200022f57600080fd5b601f19601f8301169050602081019050919050565b60005b838110156200026457808201518184015260208101905062000247565b8381111562000274576000848401525b50505050565b61387c806200028a6000396000f300608060405260043610610149576000357c0100000000000000000000000000000000000000000000000000000000900463ffffffff16806306fdde031461014e5780630744f0c11461017957806326d5e4d2146101b65780632b64d441146101f35780632b91a7011461023057806354fd4d501461026d5780635a610f3f146102985780635d834a01146102d5578063646253a2146103125780636bb38b281461034f578063715018a61461037a578063840f4a64146103915780638da5cb5b146103ce57806398df6543146103f9578063b1a6909a14610436578063bd3e65df14610461578063c30ff6df1461048c578063c47f0027146104b5578063c6ebfe9d146104de578063cdbdb0a51461051b578063de3572b414610546578063e0f6ef8714610583578063e131010c146105ae578063f195905b146105eb578063f2fde38b14610614575b600080fd5b34801561015a57600080fd5b5061016361063d565b6040516101709190613502565b60405180910390f35b34801561018557600080fd5b506101a0600480360361019b9190810190613149565b6106df565b6040516101ad9190613502565b60405180910390f35b3480156101c257600080fd5b506101dd60048036036101d89190810190613108565b61085b565b6040516101ea91906134e0565b60405180910390f35b3480156101ff57600080fd5b5061021a60048036036102159190810190613149565b610884565b6040516102279190613502565b60405180910390f35b34801561023c57600080fd5b5061025760048036036102529190810190613049565b610a00565b60405161026491906135bd565b60405180910390f35b34801561027957600080fd5b50610282610cdf565b60405161028f91906135d8565b60405180910390f35b3480156102a457600080fd5b506102bf60048036036102ba9190810190613149565b610ce8565b6040516102cc919061363e565b60405180910390f35b3480156102e157600080fd5b506102fc60048036036102f79190810190613149565b610de0565b60405161030991906135bd565b60405180910390f35b34801561031e57600080fd5b5061033960048036036103349190810190613149565b610ee0565b6040516103469190613473565b60405180910390f35b34801561035b57600080fd5b50610364610fe4565b6040516103719190613502565b60405180910390f35b34801561038657600080fd5b5061038f611086565b005b34801561039d57600080fd5b506103b860048036036103b39190810190613108565b6111f6565b6040516103c591906134c5565b60405180910390f35b3480156103da57600080fd5b506103e361131e565b6040516103f09190613473565b60405180910390f35b34801561040557600080fd5b50610420600480360361041b9190810190613149565b611343565b60405161042d919061363e565b60405180910390f35b34801561044257600080fd5b5061044b61143b565b60405161045891906134c5565b60405180910390f35b34801561046d57600080fd5b50610476611444565b6040516104839190613473565b60405180910390f35b34801561049857600080fd5b506104b360048036036104ae9190810190613008565b61146a565b005b3480156104c157600080fd5b506104dc60048036036104d79190810190613008565b611519565b005b3480156104ea57600080fd5b5061050560048036036105009190810190613149565b6115c8565b6040516105129190613473565b60405180910390f35b34801561052757600080fd5b506105306116cc565b60405161053d91906134c5565b60405180910390f35b34801561055257600080fd5b5061056d60048036036105689190810190613149565b6116d5565b60405161057a91906135bd565b60405180910390f35b34801561058f57600080fd5b506105986117d5565b6040516105a59190613623565b60405180910390f35b3480156105ba57600080fd5b506105d560048036036105d09190810190613149565b61180d565b6040516105e29190613502565b60405180910390f35b3480156105f757600080fd5b50610612600480360361060d9190810190612fb6565b611989565b005b34801561062057600080fd5b5061063b60048036036106369190810190612fb6565b611b06565b005b6060600c8054600181600116156101000203166002900480601f0160208091040260200160405190810160405280929190818152602001828054600181600116156101000203166002900480156106d55780601f106106aa576101008083540402835291602001916106d5565b820191906000526020600020905b8154815290600101906020018083116106b857829003601f168201915b5050505050905090565b6060816000816fffffffffffffffffffffffffffffffff16111515610739576040517f08c379a00000000000000000000000000000000000000000000000000000000081526004016107309061357b565b60405180910390fd5b6107416117d5565b816fffffffffffffffffffffffffffffffff1611151515610797576040517f08c379a000000000000000000000000000000000000000000000000000000000815260040161078e9061357b565b60405180910390fd5b600560006107a485611b6d565b600019166000191681526020019081526020016000208054600181600116156101000203166002900480601f01602080910402602001604051908101604052809291908181526020018280546001816001161561010002031660029004801561084e5780601f106108235761010080835404028352916020019161084e565b820191906000526020600020905b81548152906001019060200180831161083157829003601f168201915b5050505050915050919050565b60608160405160200161086e919061359b565b6040516020818303038152906040529050919050565b6060816000816fffffffffffffffffffffffffffffffff161115156108de576040517f08c379a00000000000000000000000000000000000000000000000000000000081526004016108d59061357b565b60405180910390fd5b6108e66117d5565b816fffffffffffffffffffffffffffffffff161115151561093c576040517f08c379a00000000000000000000000000000000000000000000000000000000081526004016109339061357b565b60405180910390fd5b6005600061094985611c7f565b600019166000191681526020019081526020016000208054600181600116156101000203166002900480601f0160208091040260200160405190810160405280929190818152602001828054600181600116156101000203166002900480156109f35780601f106109c8576101008083540402835291602001916109f3565b820191906000526020600020905b8154815290600101906020018083116109d657829003601f168201915b5050505050915050919050565b6000806000610a0d612bfd565b6000809054906101000a900473ffffffffffffffffffffffffffffffffffffffff1673ffffffffffffffffffffffffffffffffffffffff163373ffffffffffffffffffffffffffffffffffffffff16141515610a6857600080fd5b6001600e60009054906101000a90046fffffffffffffffffffffffffffffffff1601925042915061014060405190810160405280846fffffffffffffffffffffffffffffffff1681526020018367ffffffffffffffff1681526020018367ffffffffffffffff1681526020013373ffffffffffffffffffffffffffffffffffffffff1681526020013373ffffffffffffffffffffffffffffffffffffffff1681526020018a8152602001898152602001888152602001876fffffffffffffffffffffffffffffffff168152602001866fffffffffffffffffffffffffffffffff168152509050610b5781611d91565b600e600081819054906101000a90046fffffffffffffffffffffffffffffffff168092919060010191906101000a8154816fffffffffffffffffffffffffffffffff02191690836fffffffffffffffffffffffffffffffff16021790555050806080015173ffffffffffffffffffffffffffffffffffffffff16816040015167ffffffffffffffff1682600001516fffffffffffffffffffffffffffffffff167f24b910cee83acebdf0e3c0e4c00d70907a15d2e792ea13e69f4ea9588bf1d5be3073ffffffffffffffffffffffffffffffffffffffff166354fd4d506040518163ffffffff167c0100000000000000000000000000000000000000000000000000000000028152600401602060405180830381600087803b158015610c7c57600080fd5b505af1158015610c90573d6000803e3d6000fd5b505050506040513d601f19601f82011682018060405250610cb49190810190613172565b610cbd8661085b565b604051610ccb9291906135f3565b60405180910390a450505095945050505050565b60006001905090565b6000816000816fffffffffffffffffffffffffffffffff16111515610d42576040517f08c379a0000000000000000000000000000000000000000000000000000000008152600401610d399061357b565b60405180910390fd5b610d4a6117d5565b816fffffffffffffffffffffffffffffffff1611151515610da0576040517f08c379a0000000000000000000000000000000000000000000000000000000008152600401610d979061357b565b60405180910390fd5b60046000610dad8561213e565b6000191660001916815260200190815260200160002060009054906101000a900467ffffffffffffffff16915050919050565b6000816000816fffffffffffffffffffffffffffffffff16111515610e3a576040517f08c379a0000000000000000000000000000000000000000000000000000000008152600401610e319061357b565b60405180910390fd5b610e426117d5565b816fffffffffffffffffffffffffffffffff1611151515610e98576040517f08c379a0000000000000000000000000000000000000000000000000000000008152600401610e8f9061357b565b60405180910390fd5b60036000610ea585612250565b6000191660001916815260200190815260200160002060009054906101000a90046fffffffffffffffffffffffffffffffff16915050919050565b6000816000816fffffffffffffffffffffffffffffffff16111515610f3a576040517f08c379a0000000000000000000000000000000000000000000000000000000008152600401610f319061357b565b60405180910390fd5b610f426117d5565b816fffffffffffffffffffffffffffffffff1611151515610f98576040517f08c379a0000000000000000000000000000000000000000000000000000000008152600401610f8f9061357b565b60405180910390fd5b60066000610fa585612362565b6000191660001916815260200190815260200160002060009054906101000a900473ffffffffffffffffffffffffffffffffffffffff16915050919050565b6060600d8054600181600116156101000203166002900480601f01602080910402602001604051908101604052809291908181526020018280546001816001161561010002031660029004801561107c5780601f106110515761010080835404028352916020019161107c565b820191906000526020600020905b81548152906001019060200180831161105f57829003601f168201915b5050505050905090565b6000809054906101000a900473ffffffffffffffffffffffffffffffffffffffff1673ffffffffffffffffffffffffffffffffffffffff163373ffffffffffffffffffffffffffffffffffffffff161415156110e157600080fd5b6000809054906101000a900473ffffffffffffffffffffffffffffffffffffffff1673ffffffffffffffffffffffffffffffffffffffff167ff8df31144d9c2f0f6b59d69b8b98abd5459d07f2742c4df920b25aae33c6482060405160405180910390a26111716000809054906101000a900473ffffffffffffffffffffffffffffffffffffffff166000612474565b60008060006101000a81548173ffffffffffffffffffffffffffffffffffffffff021916908373ffffffffffffffffffffffffffffffffffffffff1602179055506000600160006101000a81548173ffffffffffffffffffffffffffffffffffffffff021916908373ffffffffffffffffffffffffffffffffffffffff160217905550565b60008082600001516fffffffffffffffffffffffffffffffff161115156112205760009050611319565b6000826020015167ffffffffffffffff161115156112415760009050611319565b6000826040015167ffffffffffffffff161115156112625760009050611319565b600073ffffffffffffffffffffffffffffffffffffffff16826060015173ffffffffffffffffffffffffffffffffffffffff1614156112a45760009050611319565b600073ffffffffffffffffffffffffffffffffffffffff16826080015173ffffffffffffffffffffffffffffffffffffffff1614156112e65760009050611319565b60008260a001515114156112fd5760009050611319565b60008260c001515114156113145760009050611319565b600190505b919050565b6000809054906101000a900473ffffffffffffffffffffffffffffffffffffffff1681565b6000816000816fffffffffffffffffffffffffffffffff1611151561139d576040517f08c379a00000000000000000000000000000000000000000000000000000000081526004016113949061357b565b60405180910390fd5b6113a56117d5565b816fffffffffffffffffffffffffffffffff16111515156113fb576040517f08c379a00000000000000000000000000000000000000000000000000000000081526004016113f29061357b565b60405180910390fd5b600460006114088561257e565b6000191660001916815260200190815260200160002060009054906101000a900467ffffffffffffffff16915050919050565b60006001905090565b600160009054906101000a900473ffffffffffffffffffffffffffffffffffffffff1681565b6000809054906101000a900473ffffffffffffffffffffffffffffffffffffffff1673ffffffffffffffffffffffffffffffffffffffff163373ffffffffffffffffffffffffffffffffffffffff161415156114c557600080fd5b7f3fd06971a1669386f272c36c0f88736dafb25abdc400efb23ff7cc61c8d563b0600d826040516114f7929190613524565b60405180910390a180600d9080519060200190611515929190612cc7565b5050565b6000809054906101000a900473ffffffffffffffffffffffffffffffffffffffff1673ffffffffffffffffffffffffffffffffffffffff163373ffffffffffffffffffffffffffffffffffffffff1614151561157457600080fd5b7ff19e969be7affb98a1d812094e0f24ecca36f1eabd6dd592c97020d47c64a00e600c826040516115a6929190613524565b60405180910390a180600c90805190602001906115c4929190612cc7565b5050565b6000816000816fffffffffffffffffffffffffffffffff16111515611622576040517f08c379a00000000000000000000000000000000000000000000000000000000081526004016116199061357b565b60405180910390fd5b61162a6117d5565b816fffffffffffffffffffffffffffffffff1611151515611680576040517f08c379a00000000000000000000000000000000000000000000000000000000081526004016116779061357b565b60405180910390fd5b6006600061168d85612690565b6000191660001916815260200190815260200160002060009054906101000a900473ffffffffffffffffffffffffffffffffffffffff16915050919050565b60006001905090565b6000816000816fffffffffffffffffffffffffffffffff1611151561172f576040517f08c379a00000000000000000000000000000000000000000000000000000000081526004016117269061357b565b60405180910390fd5b6117376117d5565b816fffffffffffffffffffffffffffffffff161115151561178d576040517f08c379a00000000000000000000000000000000000000000000000000000000081526004016117849061357b565b60405180910390fd5b6003600061179a856127a2565b6000191660001916815260200190815260200160002060009054906101000a90046fffffffffffffffffffffffffffffffff16915050919050565b6000600e60009054906101000a90046fffffffffffffffffffffffffffffffff166fffffffffffffffffffffffffffffffff16905090565b6060816000816fffffffffffffffffffffffffffffffff16111515611867576040517f08c379a000000000000000000000000000000000000000000000000000000000815260040161185e9061357b565b60405180910390fd5b61186f6117d5565b816fffffffffffffffffffffffffffffffff16111515156118c5576040517f08c379a00000000000000000000000000000000000000000000000000000000081526004016118bc9061357b565b60405180910390fd5b600560006118d2856128b4565b600019166000191681526020019081526020016000208054600181600116156101000203166002900480601f01602080910402602001604051908101604052809291908181526020018280546001816001161561010002031660029004801561197c5780601f106119515761010080835404028352916020019161197c565b820191906000526020600020905b81548152906001019060200180831161195f57829003601f168201915b5050505050915050919050565b6000809054906101000a900473ffffffffffffffffffffffffffffffffffffffff1673ffffffffffffffffffffffffffffffffffffffff163373ffffffffffffffffffffffffffffffffffffffff161415156119e457600080fd5b600073ffffffffffffffffffffffffffffffffffffffff168173ffffffffffffffffffffffffffffffffffffffff16141515611ac2578073ffffffffffffffffffffffffffffffffffffffff1663b85456b26040518163ffffffff167c0100000000000000000000000000000000000000000000000000000000028152600401602060405180830381600087803b158015611a7e57600080fd5b505af1158015611a92573d6000803e3d6000fd5b505050506040513d601f19601f82011682018060405250611ab69190810190612fdf565b1515611ac157600080fd5b5b80600160006101000a81548173ffffffffffffffffffffffffffffffffffffffff021916908373ffffffffffffffffffffffffffffffffffffffff16021790555050565b6000809054906101000a900473ffffffffffffffffffffffffffffffffffffffff1673ffffffffffffffffffffffffffffffffffffffff163373ffffffffffffffffffffffffffffffffffffffff16141515611b6157600080fd5b611b6a816129c6565b50565b60008160405160200180807f70726f6475637400000000000000000000000000000000000000000000000000815250600701807f696d616765555249000000000000000000000000000000000000000000000000815250600801826fffffffffffffffffffffffffffffffff166fffffffffffffffffffffffffffffffff167001000000000000000000000000000000000281526010019150506040516020818303038152906040526040518082805190602001908083835b602083101515611c4b5780518252602082019150602081019050602083039250611c26565b6001836020036101000a03801982511681845116808217855250505050505090500191505060405180910390209050919050565b60008160405160200180807f70726f6475637400000000000000000000000000000000000000000000000000815250600701807f6e616d6500000000000000000000000000000000000000000000000000000000815250600401826fffffffffffffffffffffffffffffffff166fffffffffffffffffffffffffffffffff167001000000000000000000000000000000000281526010019150506040516020818303038152906040526040518082805190602001908083835b602083101515611d5d5780518252602082019150602081019050602083039250611d38565b6001836020036101000a03801982511681845116808217855250505050505090500191505060405180910390209050919050565b611d9a816111f6565b1515611ddb576040517f08c379a0000000000000000000000000000000000000000000000000000000008152600401611dd29061355b565b60405180910390fd5b806000015160036000611df18460000151612aeb565b6000191660001916815260200190815260200160002060006101000a8154816fffffffffffffffffffffffffffffffff02191690836fffffffffffffffffffffffffffffffff160217905550806020015160046000611e53846000015161257e565b6000191660001916815260200190815260200160002060006101000a81548167ffffffffffffffff021916908367ffffffffffffffff160217905550806040015160046000611ea5846000015161213e565b6000191660001916815260200190815260200160002060006101000a81548167ffffffffffffffff021916908367ffffffffffffffff160217905550806060015160066000611ef78460000151612362565b6000191660001916815260200190815260200160002060006101000a81548173ffffffffffffffffffffffffffffffffffffffff021916908373ffffffffffffffffffffffffffffffffffffffff160217905550806080015160066000611f618460000151612690565b6000191660001916815260200190815260200160002060006101000a81548173ffffffffffffffffffffffffffffffffffffffff021916908373ffffffffffffffffffffffffffffffffffffffff1602179055508060a0015160056000611fcb8460000151611c7f565b600019166000191681526020019081526020016000209080519060200190611ff4929190612cc7565b508060c001516005600061200b84600001516128b4565b600019166000191681526020019081526020016000209080519060200190612034929190612cc7565b508060e001516005600061204b8460000151611b6d565b600019166000191681526020019081526020016000209080519060200190612074929190612cc7565b508061010001516003600061208c84600001516127a2565b6000191660001916815260200190815260200160002060006101000a8154816fffffffffffffffffffffffffffffffff02191690836fffffffffffffffffffffffffffffffff160217905550806101200151600360006120ef8460000151612250565b6000191660001916815260200190815260200160002060006101000a8154816fffffffffffffffffffffffffffffffff02191690836fffffffffffffffffffffffffffffffff16021790555050565b60008160405160200180807f70726f6475637400000000000000000000000000000000000000000000000000815250600701807f7570646174656441740000000000000000000000000000000000000000000000815250600901826fffffffffffffffffffffffffffffffff166fffffffffffffffffffffffffffffffff167001000000000000000000000000000000000281526010019150506040516020818303038152906040526040518082805190602001908083835b60208310151561221c57805182526020820191506020810190506020830392506121f7565b6001836020036101000a03801982511681845116808217855250505050505090500191505060405180910390209050919050565b60008160405160200180807f70726f6475637400000000000000000000000000000000000000000000000000815250600701807f696e76656e746f72790000000000000000000000000000000000000000000000815250600901826fffffffffffffffffffffffffffffffff166fffffffffffffffffffffffffffffffff167001000000000000000000000000000000000281526010019150506040516020818303038152906040526040518082805190602001908083835b60208310151561232e5780518252602082019150602081019050602083039250612309565b6001836020036101000a03801982511681845116808217855250505050505090500191505060405180910390209050919050565b60008160405160200180807f70726f6475637400000000000000000000000000000000000000000000000000815250600701807f6372656174656442790000000000000000000000000000000000000000000000815250600901826fffffffffffffffffffffffffffffffff166fffffffffffffffffffffffffffffffff167001000000000000000000000000000000000281526010019150506040516020818303038152906040526040518082805190602001908083835b602083101515612440578051825260208201915060208101905060208303925061241b565b6001836020036101000a03801982511681845116808217855250505050505090500191505060405180910390209050919050565b600073ffffffffffffffffffffffffffffffffffffffff16600160009054906101000a900473ffffffffffffffffffffffffffffffffffffffff1673ffffffffffffffffffffffffffffffffffffffff1614151561257a57600160009054906101000a900473ffffffffffffffffffffffffffffffffffffffff1673ffffffffffffffffffffffffffffffffffffffff16632d23b4623084846040518463ffffffff167c01000000000000000000000000000000000000000000000000000000000281526004016125479392919061348e565b600060405180830381600087803b15801561256157600080fd5b505af1158015612575573d6000803e3d6000fd5b505050505b5050565b60008160405160200180807f70726f6475637400000000000000000000000000000000000000000000000000815250600701807f6372656174656441740000000000000000000000000000000000000000000000815250600901826fffffffffffffffffffffffffffffffff166fffffffffffffffffffffffffffffffff167001000000000000000000000000000000000281526010019150506040516020818303038152906040526040518082805190602001908083835b60208310151561265c5780518252602082019150602081019050602083039250612637565b6001836020036101000a03801982511681845116808217855250505050505090500191505060405180910390209050919050565b60008160405160200180807f70726f6475637400000000000000000000000000000000000000000000000000815250600701807f7570646174656442790000000000000000000000000000000000000000000000815250600901826fffffffffffffffffffffffffffffffff166fffffffffffffffffffffffffffffffff167001000000000000000000000000000000000281526010019150506040516020818303038152906040526040518082805190602001908083835b60208310151561276e5780518252602082019150602081019050602083039250612749565b6001836020036101000a03801982511681845116808217855250505050505090500191505060405180910390209050919050565b60008160405160200180807f70726f6475637400000000000000000000000000000000000000000000000000815250600701807f7072696365000000000000000000000000000000000000000000000000000000815250600501826fffffffffffffffffffffffffffffffff166fffffffffffffffffffffffffffffffff167001000000000000000000000000000000000281526010019150506040516020818303038152906040526040518082805190602001908083835b602083101515612880578051825260208201915060208101905060208303925061285b565b6001836020036101000a03801982511681845116808217855250505050505090500191505060405180910390209050919050565b60008160405160200180807f70726f6475637400000000000000000000000000000000000000000000000000815250600701807f6465736372697074696f6e000000000000000000000000000000000000000000815250600b01826fffffffffffffffffffffffffffffffff166fffffffffffffffffffffffffffffffff167001000000000000000000000000000000000281526010019150506040516020818303038152906040526040518082805190602001908083835b602083101515612992578051825260208201915060208101905060208303925061296d565b6001836020036101000a03801982511681845116808217855250505050505090500191505060405180910390209050919050565b600073ffffffffffffffffffffffffffffffffffffffff168173ffffffffffffffffffffffffffffffffffffffff1614151515612a0257600080fd5b8073ffffffffffffffffffffffffffffffffffffffff166000809054906101000a900473ffffffffffffffffffffffffffffffffffffffff1673ffffffffffffffffffffffffffffffffffffffff167f8be0079c531659141344cd1fd0a4f28419497f9722a3daafe3b4186f6b6457e060405160405180910390a3612aa86000809054906101000a900473ffffffffffffffffffffffffffffffffffffffff1682612474565b806000806101000a81548173ffffffffffffffffffffffffffffffffffffffff021916908373ffffffffffffffffffffffffffffffffffffffff16021790555050565b60008160405160200180807f70726f6475637400000000000000000000000000000000000000000000000000815250600701807f6964000000000000000000000000000000000000000000000000000000000000815250600201826fffffffffffffffffffffffffffffffff166fffffffffffffffffffffffffffffffff167001000000000000000000000000000000000281526010019150506040516020818303038152906040526040518082805190602001908083835b602083101515612bc95780518252602082019150602081019050602083039250612ba4565b6001836020036101000a03801982511681845116808217855250505050505090500191505060405180910390209050919050565b6101406040519081016040528060006fffffffffffffffffffffffffffffffff168152602001600067ffffffffffffffff168152602001600067ffffffffffffffff168152602001600073ffffffffffffffffffffffffffffffffffffffff168152602001600073ffffffffffffffffffffffffffffffffffffffff16815260200160608152602001606081526020016060815260200160006fffffffffffffffffffffffffffffffff16815260200160006fffffffffffffffffffffffffffffffff1681525090565b828054600181600116156101000203166002900490600052602060002090601f016020900481019282601f10612d0857805160ff1916838001178555612d36565b82800160010185558215612d36579182015b82811115612d35578251825591602001919060010190612d1a565b5b509050612d439190612d47565b5090565b612d6991905b80821115612d65576000816000905550600101612d4d565b5090565b90565b6000612d788235613785565b905092915050565b6000612d8c82516137a5565b905092915050565b600082601f8301121515612da757600080fd5b8135612dba612db582613686565b613659565b91508082526020830160208301858383011115612dd657600080fd5b612de18382846137ef565b50505092915050565b600082601f8301121515612dfd57600080fd5b8135612e10612e0b826136b2565b613659565b91508082526020830160208301858383011115612e2c57600080fd5b612e378382846137ef565b50505092915050565b60006101408284031215612e5357600080fd5b612e5e610140613659565b90506000612e6e84828501612f7a565b6000830152506020612e8284828501612fa2565b6020830152506040612e9684828501612fa2565b6040830152506060612eaa84828501612d6c565b6060830152506080612ebe84828501612d6c565b60808301525060a082013567ffffffffffffffff811115612ede57600080fd5b612eea84828501612d94565b60a08301525060c082013567ffffffffffffffff811115612f0a57600080fd5b612f1684828501612d94565b60c08301525060e082013567ffffffffffffffff811115612f3657600080fd5b612f4284828501612d94565b60e083015250610100612f5784828501612f7a565b61010083015250610120612f6d84828501612f7a565b6101208301525092915050565b6000612f8682356137b1565b905092915050565b6000612f9a82516137cd565b905092915050565b6000612fae82356137db565b905092915050565b600060208284031215612fc857600080fd5b6000612fd684828501612d6c565b91505092915050565b600060208284031215612ff157600080fd5b6000612fff84828501612d80565b91505092915050565b60006020828403121561301a57600080fd5b600082013567ffffffffffffffff81111561303457600080fd5b61304084828501612dea565b91505092915050565b600080600080600060a0868803121561306157600080fd5b600086013567ffffffffffffffff81111561307b57600080fd5b61308788828901612dea565b955050602086013567ffffffffffffffff8111156130a457600080fd5b6130b088828901612dea565b945050604086013567ffffffffffffffff8111156130cd57600080fd5b6130d988828901612dea565b93505060606130ea88828901612f7a565b92505060806130fb88828901612f7a565b9150509295509295909350565b60006020828403121561311a57600080fd5b600082013567ffffffffffffffff81111561313457600080fd5b61314084828501612e40565b91505092915050565b60006020828403121561315b57600080fd5b600061316984828501612f7a565b91505092915050565b60006020828403121561318457600080fd5b600061319284828501612f8e565b91505092915050565b6131a481613711565b82525050565b6131b381613731565b82525050565b60006131c4826136f0565b8084526131d88160208601602086016137fe565b6131e181613831565b602085010191505092915050565b60006131fa82613706565b80845261320e8160208601602086016137fe565b61321781613831565b602085010191505092915050565b6000613230826136fb565b8084526132448160208601602086016137fe565b61324d81613831565b602085010191505092915050565b6000815460018116600081146132785760018114613298576132d9565b607f600283041680865260ff1983166020870152604086019350506132d9565b600282048086526020860195506132ae856136de565b60005b828110156132d0578154818901526001820191506020810190506132b1565b80880195505050505b505092915050565b6000601882527f50726f64756374206d6f64656c20697320696e76616c696400000000000000006020830152604082019050919050565b6000600a82527f496e76616c6964204964000000000000000000000000000000000000000000006020830152604082019050919050565b6000610140830160008301516133686000860182613437565b50602083015161337b6020860182613464565b50604083015161338e6040860182613464565b5060608301516133a1606086018261319b565b5060808301516133b4608086018261319b565b5060a083015184820360a08601526133cc8282613225565b91505060c083015184820360c08601526133e68282613225565b91505060e083015184820360e08601526134008282613225565b915050610100830151613417610100860182613437565b5061012083015161342c610120860182613437565b508091505092915050565b6134408161373d565b82525050565b61344f81613759565b82525050565b61345e81613767565b82525050565b61346d81613771565b82525050565b6000602082019050613488600083018461319b565b92915050565b60006060820190506134a3600083018661319b565b6134b0602083018561319b565b6134bd604083018461319b565b949350505050565b60006020820190506134da60008301846131aa565b92915050565b600060208201905081810360008301526134fa81846131b9565b905092915050565b6000602082019050818103600083015261351c81846131ef565b905092915050565b6000604082019050818103600083015261353e818561325b565b9050818103602083015261355281846131ef565b90509392505050565b60006020820190508181036000830152613574816132e1565b9050919050565b6000602082019050818103600083015261359481613318565b9050919050565b600060208201905081810360008301526135b5818461334f565b905092915050565b60006020820190506135d26000830184613437565b92915050565b60006020820190506135ed6000830184613446565b92915050565b60006040820190506136086000830185613446565b818103602083015261361a81846131b9565b90509392505050565b60006020820190506136386000830184613455565b92915050565b60006020820190506136536000830184613464565b92915050565b6000604051905081810181811067ffffffffffffffff8211171561367c57600080fd5b8060405250919050565b600067ffffffffffffffff82111561369d57600080fd5b601f19601f8301169050602081019050919050565b600067ffffffffffffffff8211156136c957600080fd5b601f19601f8301169050602081019050919050565b60008160005260206000209050919050565b600081519050919050565b600081519050919050565b600081519050919050565b600073ffffffffffffffffffffffffffffffffffffffff82169050919050565b60008115159050919050565b60006fffffffffffffffffffffffffffffffff82169050919050565b600061ffff82169050919050565b6000819050919050565b600067ffffffffffffffff82169050919050565b600073ffffffffffffffffffffffffffffffffffffffff82169050919050565b60008115159050919050565b60006fffffffffffffffffffffffffffffffff82169050919050565b600061ffff82169050919050565b600067ffffffffffffffff82169050919050565b82818337600083830152505050565b60005b8381101561381c578082015181840152602081019050613801565b8381111561382b576000848401525b50505050565b6000601f19601f83011690509190505600a265627a7a723058206850952bb92d77e8051ffe2539ec74aa09a1ebd775012ad1448812baaef3283c6c6578706572696d656e74616cf50037",
  "source": "pragma solidity ^0.4.23;\npragma experimental ABIEncoderV2;\n\nimport \"../ownership/OwnableManager.sol\";\nimport \"../storage/EternalStorage.sol\";\nimport \"./IProductStore.sol\";\nimport \"../models/product/ProductV1.sol\";\n\n/**\n* @title ProductStore\n* @dev Store contract implementation\n* @notice v1\n*/\ncontract ProductStoreV1 is OwnableManager, EternalStorage, IProductStore, ProductV1 { \n  \n  string internal _name;\n  string internal _logoURI;\n  uint128 internal _productCount;\n  \n  /**\n  * @dev ArticleUpdated is emited when a product is added or modified from storage\n  * @param _id The product id\n  * @param _updatedAt The timestamp when the update was processed\n  * @param _updatedBy Address of the account that performed the update\n  * @param _modelVersion The product model version for the struct\n  * @param _data The abi-encoded product model\n  */\n  event ArticleUpdated(\n    uint128 indexed _id,\n    uint64 indexed _updatedAt,\n    address indexed _updatedBy,\n    uint16 _modelVersion,\n    bytes _data\n  );\n\n  /**\n  * @dev NameUpdated is emited when the store name is updated\n  * @param _oldName Old store name\n  * @param _newName New store name\n  */\n  event NameUpdated(string _oldName, string _newName);\n\n  /**\n  * @dev LogoUpdated is emited when the store logo URI is updated\n  * @param _oldLogoURI Old store logo URI\n  * @param _newLogoURI New store logo URI\n  */\n  event LogoUpdated(string _oldLogoURI, string _newLogoURI);\n\n  /**\n  * @dev Constructor function\n  * @param __name Name of the store\n  */\n  constructor(string __name) public {\n    _name = __name;\n  }\n\n  /**\n  * @dev Modifier to check if the provided id parameter is valid\n  * @param _id Id pertaining to an Product model\n  */\n  modifier requiresValidId(uint128 _id) {\n    require(_id > 0, \"Invalid Id\");\n    require(_id <= productCount(), \"Invalid Id\");\n    _;\n  }\n\n  //-- Contract Getters\n\n  /**\n  * @dev Returns the store name\n  * @return Store name\n  */\n  function name() public view returns(string) {\n    return _name;\n  }\n\n  /**\n  * @dev Returns a URI for the store logo\n  * @return URI for the store logo\n  * @notice This is an optional value and thus might return an empty string\n  */\n  function logoURI() public view returns(string) {\n    return _logoURI;\n  }\n\n  /**\n  * @dev Returns the total number of products stored\n  * @return Total number of products stored\n  */\n  function productCount() public view returns(uint) {\n    return _productCount;\n  }\n\n  //-- Contract Setters\n\n  /**\n  * @dev Sets the store name\n  * @param __name Name of the store\n  */\n  function setName(string __name) public onlyOwner {\n    emit NameUpdated(_name, __name);\n    _name = __name;\n  }\n\n  /**\n  * @dev Sets the store logo\n  * @param __logoURI URI for the store logo\n  */\n  function setLogoURI(string __logoURI) public onlyOwner {\n    emit LogoUpdated(_logoURI, __logoURI);\n    _logoURI = __logoURI;\n  }\n\n  /**\n  * @dev Adds an product to storage if valid\n  * @param __name Name of the product\n  * @param __description Description of the product\n  * @param __imageURI Optional image URI\n  * @param __price Price for the product in wei\n  * @param __inventory Available inventory to be sold for the product\n  * @return Id of the stored product\n  */\n  function addProduct(\n    string __name,\n    string __description,\n    string __imageURI,\n    uint128 __price,\n    uint128 __inventory\n  )\n    public onlyOwner returns(uint128)\n  {\n    uint128 id = _productCount + 1;\n\n    // solium-disable-next-line security/no-block-members\n    uint64 timestamp = uint64(block.timestamp);\n\n    ModelV1 memory product = ModelV1({ id: id,\n                                       createdAt: timestamp,\n                                       updatedAt: timestamp,\n                                       createdBy: msg.sender,\n                                       updatedBy: msg.sender,\n                                       name: __name,\n                                       description: __description,\n                                       imageURI: __imageURI,\n                                       price: __price,\n                                       inventory: __inventory\n                                      });\n    \n    storeProduct(product);\n    _productCount++;\n\n    emit ArticleUpdated(product.id,\n                        product.updatedAt,\n                        product.updatedBy,\n                        ProductV1(this).version(),\n                        abiEncode(product));\n  }\n\n  /**\n  * @dev Validates the given product and stores it in Eternal Storage\n  * @param _product Product model struct to store\n  */\n  function storeProduct(ModelV1 _product) internal {\n    require(isValid(_product), \"Product model is invalid\");\n    uint128Storage[idKey(_product.id)] = _product.id;\n    uint64Storage[createdAtKey(_product.id)] = _product.createdAt;\n    uint64Storage[updatedAtKey(_product.id)] = _product.updatedAt;\n    addressStorage[createdByKey(_product.id)] = _product.createdBy;\n    addressStorage[updatedByKey(_product.id)] = _product.updatedBy;\n    stringStorage[nameKey(_product.id)] = _product.name;\n    stringStorage[descriptionKey(_product.id)] = _product.description;\n    stringStorage[imageURIKey(_product.id)] = _product.imageURI;\n    uint128Storage[priceKey(_product.id)] = _product.price;\n    uint128Storage[inventoryKey(_product.id)] = _product.inventory;\n  }\n\n  //-- Utility functions for retrieving data from Eternal Storage for a Product\n\n  /**\n  * @dev Returns the createdAt value for a given product id\n  * @param _id Product id to be used for lookup\n  */\n  function getCreatedAt(uint128 _id) public view requiresValidId(_id) returns(uint64) {\n    return uint64Storage[createdAtKey(_id)];\n  } \n\n  /**\n  * @dev Returns the updatedAt value for a given product id\n  * @param _id Product id to be used for lookup\n  */\n  function getUpdatedAt(uint128 _id) public view requiresValidId(_id) returns(uint64) {\n    return uint64Storage[updatedAtKey(_id)];\n  } \n\n  /**\n  * @dev Returns the createdBy value for a given product id\n  * @param _id Product id to be used for lookup\n  */\n  function getCreatedBy(uint128 _id) public view requiresValidId(_id) returns(address) {\n    return addressStorage[createdByKey(_id)];\n  } \n\n  /**\n  * @dev Returns the updatedBy value for a given product id\n  * @param _id Product id to be used for lookup\n  */\n  function getUpdatedBy(uint128 _id) public view requiresValidId(_id) returns(address) {\n    return addressStorage[updatedByKey(_id)];\n  } \n\n  /**\n  * @dev Returns the name value for a given product id\n  * @param _id Product id to be used for lookup\n  */\n  function getName(uint128 _id) public view requiresValidId(_id) returns(string) {\n    return stringStorage[nameKey(_id)];\n  } \n\n  /**\n  * @dev Returns the description value for a given product id\n  * @param _id Product id to be used for lookup\n  */\n  function getDescription(uint128 _id) public view requiresValidId(_id) returns(string) {\n    return stringStorage[descriptionKey(_id)];\n  }\n\n  /**\n  * @dev Returns the image URI value for a given product id\n  * @param _id Product id to be used for lookup\n  */\n  function getImageURI(uint128 _id) public view requiresValidId(_id) returns(string) {\n    return stringStorage[imageURIKey(_id)];\n  }\n\n  /**\n  * @dev Returns the price value for a given product id\n  * @param _id Product id to be used for lookup\n  */\n  function getPrice(uint128 _id) public view requiresValidId(_id) returns(uint128) {\n    return uint128Storage[priceKey(_id)];\n  } \n\n  /**\n  * @dev Returns the inventory value for a given product id\n  * @param _id Product id to be used for lookup\n  */\n  function getInventory(uint128 _id) public view requiresValidId(_id) returns(uint128) {\n    return uint128Storage[inventoryKey(_id)];\n  } \n\n  /**\n  * @dev Returns true for contracts that adhere to the ProductStore interface\n  * @return Always returns true for this contract\n  */\n  function isProductStore() public pure returns (bool) {\n    return true;\n  }\n\n  /**\n  * @dev Returns the version of the ProductStore contract interface\n  * @return Version of the contract interface\n  */\n  function version() public pure returns (uint16) { \n    return 1;\n  }\n\n}\n",
  "sourcePath": "/Users/matias/Projects/consensys/eth-marketplace/contracts/store/ProductStoreV1.sol",
  "compiler": {
    "name": "solc",
    "version": "0.4.24+commit.e67f0147.Emscripten.clang"
  },
  "schemaVersion": "2.0.1",
  "updatedAt": "2018-08-27T19:14:16.004Z"
}