{
  "contractName": "ProductStoreV1",
  "abi": [
    {
      "constant": true,
      "inputs": [
        {
          "components": [
            {
              "name": "id",
              "type": "uint128"
            },
            {
              "name": "createdAt",
              "type": "uint64"
            },
            {
              "name": "updatedAt",
              "type": "uint64"
            },
            {
              "name": "createdBy",
              "type": "address"
            },
            {
              "name": "updatedBy",
              "type": "address"
            },
            {
              "name": "name",
              "type": "string"
            },
            {
              "name": "description",
              "type": "string"
            },
            {
              "name": "imageURI",
              "type": "string"
            },
            {
              "name": "price",
              "type": "uint128"
            },
            {
              "name": "inventory",
              "type": "uint128"
            }
          ],
          "name": "_product",
          "type": "tuple"
        }
      ],
      "name": "abiEncode",
      "outputs": [
        {
          "name": "",
          "type": "bytes"
        }
      ],
      "payable": false,
      "stateMutability": "pure",
      "type": "function"
    },
    {
      "constant": false,
      "inputs": [],
      "name": "renounceOwnership",
      "outputs": [],
      "payable": false,
      "stateMutability": "nonpayable",
      "type": "function"
    },
    {
      "constant": true,
      "inputs": [
        {
          "components": [
            {
              "name": "id",
              "type": "uint128"
            },
            {
              "name": "createdAt",
              "type": "uint64"
            },
            {
              "name": "updatedAt",
              "type": "uint64"
            },
            {
              "name": "createdBy",
              "type": "address"
            },
            {
              "name": "updatedBy",
              "type": "address"
            },
            {
              "name": "name",
              "type": "string"
            },
            {
              "name": "description",
              "type": "string"
            },
            {
              "name": "imageURI",
              "type": "string"
            },
            {
              "name": "price",
              "type": "uint128"
            },
            {
              "name": "inventory",
              "type": "uint128"
            }
          ],
          "name": "_product",
          "type": "tuple"
        }
      ],
      "name": "isValid",
      "outputs": [
        {
          "name": "",
          "type": "bool"
        }
      ],
      "payable": false,
      "stateMutability": "pure",
      "type": "function"
    },
    {
      "constant": true,
      "inputs": [],
      "name": "owner",
      "outputs": [
        {
          "name": "_owner",
          "type": "address"
        }
      ],
      "payable": false,
      "stateMutability": "view",
      "type": "function"
    },
    {
      "constant": true,
      "inputs": [],
      "name": "isEternalStorage",
      "outputs": [
        {
          "name": "",
          "type": "bool"
        }
      ],
      "payable": false,
      "stateMutability": "pure",
      "type": "function"
    },
    {
      "constant": true,
      "inputs": [],
      "name": "ownableDelegate",
      "outputs": [
        {
          "name": "_ownableDelegate",
          "type": "address"
        }
      ],
      "payable": false,
      "stateMutability": "view",
      "type": "function"
    },
    {
      "constant": false,
      "inputs": [
        {
          "name": "_ownableDelegate",
          "type": "address"
        }
      ],
      "name": "setOwnableDelegate",
      "outputs": [],
      "payable": false,
      "stateMutability": "nonpayable",
      "type": "function"
    },
    {
      "constant": false,
      "inputs": [
        {
          "name": "_newOwner",
          "type": "address"
        }
      ],
      "name": "transferOwnership",
      "outputs": [],
      "payable": false,
      "stateMutability": "nonpayable",
      "type": "function"
    },
    {
      "inputs": [
        {
          "name": "__name",
          "type": "string"
        }
      ],
      "payable": false,
      "stateMutability": "nonpayable",
      "type": "constructor"
    },
    {
      "anonymous": false,
      "inputs": [
        {
          "indexed": true,
          "name": "_id",
          "type": "uint128"
        },
        {
          "indexed": true,
          "name": "_updatedAt",
          "type": "uint64"
        },
        {
          "indexed": true,
          "name": "_updatedBy",
          "type": "address"
        },
        {
          "indexed": false,
          "name": "_modelVersion",
          "type": "uint16"
        },
        {
          "indexed": false,
          "name": "_data",
          "type": "bytes"
        }
      ],
      "name": "ArticleUpdated",
      "type": "event"
    },
    {
      "anonymous": false,
      "inputs": [
        {
          "indexed": false,
          "name": "_oldName",
          "type": "string"
        },
        {
          "indexed": false,
          "name": "_newName",
          "type": "string"
        }
      ],
      "name": "NameUpdated",
      "type": "event"
    },
    {
      "anonymous": false,
      "inputs": [
        {
          "indexed": false,
          "name": "_oldLogoURI",
          "type": "string"
        },
        {
          "indexed": false,
          "name": "_newLogoURI",
          "type": "string"
        }
      ],
      "name": "LogoUpdated",
      "type": "event"
    },
    {
      "anonymous": false,
      "inputs": [
        {
          "indexed": true,
          "name": "_previousOwner",
          "type": "address"
        }
      ],
      "name": "OwnershipRenounced",
      "type": "event"
    },
    {
      "anonymous": false,
      "inputs": [
        {
          "indexed": true,
          "name": "_oldAddress",
          "type": "address"
        },
        {
          "indexed": true,
          "name": "_newAddress",
          "type": "address"
        }
      ],
      "name": "OwnershipTransferred",
      "type": "event"
    },
    {
      "constant": true,
      "inputs": [],
      "name": "name",
      "outputs": [
        {
          "name": "",
          "type": "string"
        }
      ],
      "payable": false,
      "stateMutability": "view",
      "type": "function"
    },
    {
      "constant": true,
      "inputs": [],
      "name": "logoURI",
      "outputs": [
        {
          "name": "",
          "type": "string"
        }
      ],
      "payable": false,
      "stateMutability": "view",
      "type": "function"
    },
    {
      "constant": true,
      "inputs": [],
      "name": "productCount",
      "outputs": [
        {
          "name": "",
          "type": "uint256"
        }
      ],
      "payable": false,
      "stateMutability": "view",
      "type": "function"
    },
    {
      "constant": false,
      "inputs": [
        {
          "name": "__name",
          "type": "string"
        }
      ],
      "name": "setName",
      "outputs": [],
      "payable": false,
      "stateMutability": "nonpayable",
      "type": "function"
    },
    {
      "constant": false,
      "inputs": [
        {
          "name": "__logoURI",
          "type": "string"
        }
      ],
      "name": "setLogoURI",
      "outputs": [],
      "payable": false,
      "stateMutability": "nonpayable",
      "type": "function"
    },
    {
      "constant": false,
      "inputs": [
        {
          "name": "__name",
          "type": "string"
        },
        {
          "name": "__description",
          "type": "string"
        },
        {
          "name": "__imageURI",
          "type": "string"
        },
        {
          "name": "__price",
          "type": "uint128"
        },
        {
          "name": "__inventory",
          "type": "uint128"
        }
      ],
      "name": "addProduct",
      "outputs": [
        {
          "name": "",
          "type": "uint128"
        }
      ],
      "payable": false,
      "stateMutability": "nonpayable",
      "type": "function"
    },
    {
      "constant": true,
      "inputs": [
        {
          "name": "_id",
          "type": "uint128"
        }
      ],
      "name": "getCreatedAt",
      "outputs": [
        {
          "name": "",
          "type": "uint64"
        }
      ],
      "payable": false,
      "stateMutability": "view",
      "type": "function"
    },
    {
      "constant": true,
      "inputs": [
        {
          "name": "_id",
          "type": "uint128"
        }
      ],
      "name": "getUpdatedAt",
      "outputs": [
        {
          "name": "",
          "type": "uint64"
        }
      ],
      "payable": false,
      "stateMutability": "view",
      "type": "function"
    },
    {
      "constant": true,
      "inputs": [
        {
          "name": "_id",
          "type": "uint128"
        }
      ],
      "name": "getCreatedBy",
      "outputs": [
        {
          "name": "",
          "type": "address"
        }
      ],
      "payable": false,
      "stateMutability": "view",
      "type": "function"
    },
    {
      "constant": true,
      "inputs": [
        {
          "name": "_id",
          "type": "uint128"
        }
      ],
      "name": "getUpdatedBy",
      "outputs": [
        {
          "name": "",
          "type": "address"
        }
      ],
      "payable": false,
      "stateMutability": "view",
      "type": "function"
    },
    {
      "constant": true,
      "inputs": [
        {
          "name": "_id",
          "type": "uint128"
        }
      ],
      "name": "getName",
      "outputs": [
        {
          "name": "",
          "type": "string"
        }
      ],
      "payable": false,
      "stateMutability": "view",
      "type": "function"
    },
    {
      "constant": true,
      "inputs": [
        {
          "name": "_id",
          "type": "uint128"
        }
      ],
      "name": "getDescription",
      "outputs": [
        {
          "name": "",
          "type": "string"
        }
      ],
      "payable": false,
      "stateMutability": "view",
      "type": "function"
    },
    {
      "constant": true,
      "inputs": [
        {
          "name": "_id",
          "type": "uint128"
        }
      ],
      "name": "getImageURI",
      "outputs": [
        {
          "name": "",
          "type": "string"
        }
      ],
      "payable": false,
      "stateMutability": "view",
      "type": "function"
    },
    {
      "constant": true,
      "inputs": [
        {
          "name": "_id",
          "type": "uint128"
        }
      ],
      "name": "getPrice",
      "outputs": [
        {
          "name": "",
          "type": "uint128"
        }
      ],
      "payable": false,
      "stateMutability": "view",
      "type": "function"
    },
    {
      "constant": true,
      "inputs": [
        {
          "name": "_id",
          "type": "uint128"
        }
      ],
      "name": "getInventory",
      "outputs": [
        {
          "name": "",
          "type": "uint128"
        }
      ],
      "payable": false,
      "stateMutability": "view",
      "type": "function"
    },
    {
      "constant": true,
      "inputs": [],
      "name": "isProductStore",
      "outputs": [
        {
          "name": "",
          "type": "bool"
        }
      ],
      "payable": false,
      "stateMutability": "pure",
      "type": "function"
    },
    {
      "constant": true,
      "inputs": [],
      "name": "version",
      "outputs": [
        {
          "name": "",
          "type": "uint16"
        }
      ],
      "payable": false,
      "stateMutability": "pure",
      "type": "function"
    }
  ],
  "bytecode": "0x60806040523480156200001157600080fd5b5060405162003a8438038062003a848339810180604052620000379190810190620001e5565b620000513362000071640100000000026401000000009004565b80600a908051906020019062000069929190620000d8565b5050620002bb565b600060405180807f636f6d2e6d61726b6574706c6163652e6f776e61626c656d616e616765722e6f81526020017f776e6572000000000000000000000000000000000000000000000000000000008152506024019050604051809103902090508181555050565b828054600181600116156101000203166002900490600052602060002090601f016020900481019282601f106200011b57805160ff19168380011785556200014c565b828001600101855582156200014c579182015b828111156200014b5782518255916020019190600101906200012e565b5b5090506200015b91906200015f565b5090565b6200018491905b808211156200018057600081600090555060010162000166565b5090565b90565b600082601f83011215156200019b57600080fd5b8151620001b2620001ac8262000258565b6200022a565b91508082526020830160208301858383011115620001cf57600080fd5b620001dc83828462000285565b50505092915050565b600060208284031215620001f857600080fd5b600082015167ffffffffffffffff8111156200021357600080fd5b620002218482850162000187565b91505092915050565b6000604051905081810181811067ffffffffffffffff821117156200024e57600080fd5b8060405250919050565b600067ffffffffffffffff8211156200027057600080fd5b601f19601f8301169050602081019050919050565b60005b83811015620002a557808201518184015260208101905062000288565b83811115620002b5576000848401525b50505050565b6137b980620002cb6000396000f300608060405260043610610149576000357c0100000000000000000000000000000000000000000000000000000000900463ffffffff16806306fdde031461014e5780630744f0c11461017957806326d5e4d2146101b65780632b64d441146101f35780632b91a7011461023057806354fd4d501461026d5780635a610f3f146102985780635d834a01146102d5578063646253a2146103125780636bb38b281461034f578063715018a61461037a578063840f4a64146103915780638da5cb5b146103ce57806398df6543146103f9578063b1a6909a14610436578063bd3e65df14610461578063c30ff6df1461048c578063c47f0027146104b5578063c6ebfe9d146104de578063cdbdb0a51461051b578063de3572b414610546578063e0f6ef8714610583578063e131010c146105ae578063f195905b146105eb578063f2fde38b14610614575b600080fd5b34801561015a57600080fd5b5061016361063d565b604051610170919061343f565b60405180910390f35b34801561018557600080fd5b506101a0600480360361019b9190810190613086565b6106df565b6040516101ad919061343f565b60405180910390f35b3480156101c257600080fd5b506101dd60048036036101d89190810190613045565b61085b565b6040516101ea919061341d565b60405180910390f35b3480156101ff57600080fd5b5061021a60048036036102159190810190613086565b610884565b604051610227919061343f565b60405180910390f35b34801561023c57600080fd5b5061025760048036036102529190810190612f86565b610a00565b60405161026491906134fa565b60405180910390f35b34801561027957600080fd5b50610282610cc5565b60405161028f9190613515565b60405180910390f35b3480156102a457600080fd5b506102bf60048036036102ba9190810190613086565b610cce565b6040516102cc919061357b565b60405180910390f35b3480156102e157600080fd5b506102fc60048036036102f79190810190613086565b610dc6565b60405161030991906134fa565b60405180910390f35b34801561031e57600080fd5b5061033960048036036103349190810190613086565b610ec6565b60405161034691906133b0565b60405180910390f35b34801561035b57600080fd5b50610364610fca565b604051610371919061343f565b60405180910390f35b34801561038657600080fd5b5061038f61106c565b005b34801561039d57600080fd5b506103b860048036036103b39190810190613045565b61111f565b6040516103c59190613402565b60405180910390f35b3480156103da57600080fd5b506103e3611247565b6040516103f091906133b0565b60405180910390f35b34801561040557600080fd5b50610420600480360361041b9190810190613086565b6112b0565b60405161042d919061357b565b60405180910390f35b34801561044257600080fd5b5061044b6113a8565b6040516104589190613402565b60405180910390f35b34801561046d57600080fd5b506104766113b1565b60405161048391906133b0565b60405180910390f35b34801561049857600080fd5b506104b360048036036104ae9190810190612f45565b61141a565b005b3480156104c157600080fd5b506104dc60048036036104d79190810190612f45565b6114af565b005b3480156104ea57600080fd5b5061050560048036036105009190810190613086565b611544565b60405161051291906133b0565b60405180910390f35b34801561052757600080fd5b50610530611648565b60405161053d9190613402565b60405180910390f35b34801561055257600080fd5b5061056d60048036036105689190810190613086565b611651565b60405161057a91906134fa565b60405180910390f35b34801561058f57600080fd5b50610598611751565b6040516105a59190613560565b60405180910390f35b3480156105ba57600080fd5b506105d560048036036105d09190810190613086565b611789565b6040516105e2919061343f565b60405180910390f35b3480156105f757600080fd5b50610612600480360361060d9190810190612ef3565b611905565b005b34801561062057600080fd5b5061063b60048036036106369190810190612ef3565b611a30565b005b6060600a8054600181600116156101000203166002900480601f0160208091040260200160405190810160405280929190818152602001828054600181600116156101000203166002900480156106d55780601f106106aa576101008083540402835291602001916106d5565b820191906000526020600020905b8154815290600101906020018083116106b857829003601f168201915b5050505050905090565b6060816000816fffffffffffffffffffffffffffffffff16111515610739576040517f08c379a0000000000000000000000000000000000000000000000000000000008152600401610730906134b8565b60405180910390fd5b610741611751565b816fffffffffffffffffffffffffffffffff1611151515610797576040517f08c379a000000000000000000000000000000000000000000000000000000000815260040161078e906134b8565b60405180910390fd5b600360006107a485611a7d565b600019166000191681526020019081526020016000208054600181600116156101000203166002900480601f01602080910402602001604051908101604052809291908181526020018280546001816001161561010002031660029004801561084e5780601f106108235761010080835404028352916020019161084e565b820191906000526020600020905b81548152906001019060200180831161083157829003601f168201915b5050505050915050919050565b60608160405160200161086e91906134d8565b6040516020818303038152906040529050919050565b6060816000816fffffffffffffffffffffffffffffffff161115156108de576040517f08c379a00000000000000000000000000000000000000000000000000000000081526004016108d5906134b8565b60405180910390fd5b6108e6611751565b816fffffffffffffffffffffffffffffffff161115151561093c576040517f08c379a0000000000000000000000000000000000000000000000000000000008152600401610933906134b8565b60405180910390fd5b6003600061094985611b8f565b600019166000191681526020019081526020016000208054600181600116156101000203166002900480601f0160208091040260200160405190810160405280929190818152602001828054600181600116156101000203166002900480156109f35780601f106109c8576101008083540402835291602001916109f3565b820191906000526020600020905b8154815290600101906020018083116109d657829003601f168201915b5050505050915050919050565b6000806000610a0d612b3a565b610a15611247565b73ffffffffffffffffffffffffffffffffffffffff163373ffffffffffffffffffffffffffffffffffffffff16141515610a4e57600080fd5b6001600c60009054906101000a90046fffffffffffffffffffffffffffffffff1601925042915061014060405190810160405280846fffffffffffffffffffffffffffffffff1681526020018367ffffffffffffffff1681526020018367ffffffffffffffff1681526020013373ffffffffffffffffffffffffffffffffffffffff1681526020013373ffffffffffffffffffffffffffffffffffffffff1681526020018a8152602001898152602001888152602001876fffffffffffffffffffffffffffffffff168152602001866fffffffffffffffffffffffffffffffff168152509050610b3d81611ca1565b600c600081819054906101000a90046fffffffffffffffffffffffffffffffff168092919060010191906101000a8154816fffffffffffffffffffffffffffffffff02191690836fffffffffffffffffffffffffffffffff16021790555050806080015173ffffffffffffffffffffffffffffffffffffffff16816040015167ffffffffffffffff1682600001516fffffffffffffffffffffffffffffffff167f24b910cee83acebdf0e3c0e4c00d70907a15d2e792ea13e69f4ea9588bf1d5be3073ffffffffffffffffffffffffffffffffffffffff166354fd4d506040518163ffffffff167c0100000000000000000000000000000000000000000000000000000000028152600401602060405180830381600087803b158015610c6257600080fd5b505af1158015610c76573d6000803e3d6000fd5b505050506040513d601f19601f82011682018060405250610c9a91908101906130af565b610ca38661085b565b604051610cb1929190613530565b60405180910390a450505095945050505050565b60006001905090565b6000816000816fffffffffffffffffffffffffffffffff16111515610d28576040517f08c379a0000000000000000000000000000000000000000000000000000000008152600401610d1f906134b8565b60405180910390fd5b610d30611751565b816fffffffffffffffffffffffffffffffff1611151515610d86576040517f08c379a0000000000000000000000000000000000000000000000000000000008152600401610d7d906134b8565b60405180910390fd5b60026000610d938561204e565b6000191660001916815260200190815260200160002060009054906101000a900467ffffffffffffffff16915050919050565b6000816000816fffffffffffffffffffffffffffffffff16111515610e20576040517f08c379a0000000000000000000000000000000000000000000000000000000008152600401610e17906134b8565b60405180910390fd5b610e28611751565b816fffffffffffffffffffffffffffffffff1611151515610e7e576040517f08c379a0000000000000000000000000000000000000000000000000000000008152600401610e75906134b8565b60405180910390fd5b60016000610e8b85612160565b6000191660001916815260200190815260200160002060009054906101000a90046fffffffffffffffffffffffffffffffff16915050919050565b6000816000816fffffffffffffffffffffffffffffffff16111515610f20576040517f08c379a0000000000000000000000000000000000000000000000000000000008152600401610f17906134b8565b60405180910390fd5b610f28611751565b816fffffffffffffffffffffffffffffffff1611151515610f7e576040517f08c379a0000000000000000000000000000000000000000000000000000000008152600401610f75906134b8565b60405180910390fd5b60046000610f8b85612272565b6000191660001916815260200190815260200160002060009054906101000a900473ffffffffffffffffffffffffffffffffffffffff16915050919050565b6060600b8054600181600116156101000203166002900480601f0160208091040260200160405190810160405280929190818152602001828054600181600116156101000203166002900480156110625780601f1061103757610100808354040283529160200191611062565b820191906000526020600020905b81548152906001019060200180831161104557829003601f168201915b5050505050905090565b611074611247565b73ffffffffffffffffffffffffffffffffffffffff163373ffffffffffffffffffffffffffffffffffffffff161415156110ad57600080fd5b6110b5611247565b73ffffffffffffffffffffffffffffffffffffffff167ff8df31144d9c2f0f6b59d69b8b98abd5459d07f2742c4df920b25aae33c6482060405160405180910390a2611109611102611247565b6000612384565b6111136000612458565b61111d60006124bf565b565b60008082600001516fffffffffffffffffffffffffffffffff161115156111495760009050611242565b6000826020015167ffffffffffffffff1611151561116a5760009050611242565b6000826040015167ffffffffffffffff1611151561118b5760009050611242565b600073ffffffffffffffffffffffffffffffffffffffff16826060015173ffffffffffffffffffffffffffffffffffffffff1614156111cd5760009050611242565b600073ffffffffffffffffffffffffffffffffffffffff16826080015173ffffffffffffffffffffffffffffffffffffffff16141561120f5760009050611242565b60008260a001515114156112265760009050611242565b60008260c0015151141561123d5760009050611242565b600190505b919050565b60008060405180807f636f6d2e6d61726b6574706c6163652e6f776e61626c656d616e616765722e6f81526020017f776e657200000000000000000000000000000000000000000000000000000000815250602401905060405180910390209050805491505090565b6000816000816fffffffffffffffffffffffffffffffff1611151561130a576040517f08c379a0000000000000000000000000000000000000000000000000000000008152600401611301906134b8565b60405180910390fd5b611312611751565b816fffffffffffffffffffffffffffffffff1611151515611368576040517f08c379a000000000000000000000000000000000000000000000000000000000815260040161135f906134b8565b60405180910390fd5b6002600061137585612526565b6000191660001916815260200190815260200160002060009054906101000a900467ffffffffffffffff16915050919050565b60006001905090565b60008060405180807f636f6d2e6d61726b6574706c6163652e6f776e61626c656d616e616765722e6f81526020017f776e61626c6544656c6567617465000000000000000000000000000000000000815250602e01905060405180910390209050805491505090565b611422611247565b73ffffffffffffffffffffffffffffffffffffffff163373ffffffffffffffffffffffffffffffffffffffff1614151561145b57600080fd5b7f3fd06971a1669386f272c36c0f88736dafb25abdc400efb23ff7cc61c8d563b0600b8260405161148d929190613461565b60405180910390a180600b90805190602001906114ab929190612c04565b5050565b6114b7611247565b73ffffffffffffffffffffffffffffffffffffffff163373ffffffffffffffffffffffffffffffffffffffff161415156114f057600080fd5b7ff19e969be7affb98a1d812094e0f24ecca36f1eabd6dd592c97020d47c64a00e600a82604051611522929190613461565b60405180910390a180600a9080519060200190611540929190612c04565b5050565b6000816000816fffffffffffffffffffffffffffffffff1611151561159e576040517f08c379a0000000000000000000000000000000000000000000000000000000008152600401611595906134b8565b60405180910390fd5b6115a6611751565b816fffffffffffffffffffffffffffffffff16111515156115fc576040517f08c379a00000000000000000000000000000000000000000000000000000000081526004016115f3906134b8565b60405180910390fd5b6004600061160985612638565b6000191660001916815260200190815260200160002060009054906101000a900473ffffffffffffffffffffffffffffffffffffffff16915050919050565b60006001905090565b6000816000816fffffffffffffffffffffffffffffffff161115156116ab576040517f08c379a00000000000000000000000000000000000000000000000000000000081526004016116a2906134b8565b60405180910390fd5b6116b3611751565b816fffffffffffffffffffffffffffffffff1611151515611709576040517f08c379a0000000000000000000000000000000000000000000000000000000008152600401611700906134b8565b60405180910390fd5b600160006117168561274a565b6000191660001916815260200190815260200160002060009054906101000a90046fffffffffffffffffffffffffffffffff16915050919050565b6000600c60009054906101000a90046fffffffffffffffffffffffffffffffff166fffffffffffffffffffffffffffffffff16905090565b6060816000816fffffffffffffffffffffffffffffffff161115156117e3576040517f08c379a00000000000000000000000000000000000000000000000000000000081526004016117da906134b8565b60405180910390fd5b6117eb611751565b816fffffffffffffffffffffffffffffffff1611151515611841576040517f08c379a0000000000000000000000000000000000000000000000000000000008152600401611838906134b8565b60405180910390fd5b6003600061184e8561285c565b600019166000191681526020019081526020016000208054600181600116156101000203166002900480601f0160208091040260200160405190810160405280929190818152602001828054600181600116156101000203166002900480156118f85780601f106118cd576101008083540402835291602001916118f8565b820191906000526020600020905b8154815290600101906020018083116118db57829003601f168201915b5050505050915050919050565b61190d611247565b73ffffffffffffffffffffffffffffffffffffffff163373ffffffffffffffffffffffffffffffffffffffff1614151561194657600080fd5b600073ffffffffffffffffffffffffffffffffffffffff168173ffffffffffffffffffffffffffffffffffffffff16141515611a24578073ffffffffffffffffffffffffffffffffffffffff1663b85456b26040518163ffffffff167c0100000000000000000000000000000000000000000000000000000000028152600401602060405180830381600087803b1580156119e057600080fd5b505af11580156119f4573d6000803e3d6000fd5b505050506040513d601f19601f82011682018060405250611a189190810190612f1c565b1515611a2357600080fd5b5b611a2d816124bf565b50565b611a38611247565b73ffffffffffffffffffffffffffffffffffffffff163373ffffffffffffffffffffffffffffffffffffffff16141515611a7157600080fd5b611a7a8161296e565b50565b60008160405160200180807f70726f6475637400000000000000000000000000000000000000000000000000815250600701807f696d616765555249000000000000000000000000000000000000000000000000815250600801826fffffffffffffffffffffffffffffffff166fffffffffffffffffffffffffffffffff167001000000000000000000000000000000000281526010019150506040516020818303038152906040526040518082805190602001908083835b602083101515611b5b5780518252602082019150602081019050602083039250611b36565b6001836020036101000a03801982511681845116808217855250505050505090500191505060405180910390209050919050565b60008160405160200180807f70726f6475637400000000000000000000000000000000000000000000000000815250600701807f6e616d6500000000000000000000000000000000000000000000000000000000815250600401826fffffffffffffffffffffffffffffffff166fffffffffffffffffffffffffffffffff167001000000000000000000000000000000000281526010019150506040516020818303038152906040526040518082805190602001908083835b602083101515611c6d5780518252602082019150602081019050602083039250611c48565b6001836020036101000a03801982511681845116808217855250505050505090500191505060405180910390209050919050565b611caa8161111f565b1515611ceb576040517f08c379a0000000000000000000000000000000000000000000000000000000008152600401611ce290613498565b60405180910390fd5b806000015160016000611d018460000151612a28565b6000191660001916815260200190815260200160002060006101000a8154816fffffffffffffffffffffffffffffffff02191690836fffffffffffffffffffffffffffffffff160217905550806020015160026000611d638460000151612526565b6000191660001916815260200190815260200160002060006101000a81548167ffffffffffffffff021916908367ffffffffffffffff160217905550806040015160026000611db5846000015161204e565b6000191660001916815260200190815260200160002060006101000a81548167ffffffffffffffff021916908367ffffffffffffffff160217905550806060015160046000611e078460000151612272565b6000191660001916815260200190815260200160002060006101000a81548173ffffffffffffffffffffffffffffffffffffffff021916908373ffffffffffffffffffffffffffffffffffffffff160217905550806080015160046000611e718460000151612638565b6000191660001916815260200190815260200160002060006101000a81548173ffffffffffffffffffffffffffffffffffffffff021916908373ffffffffffffffffffffffffffffffffffffffff1602179055508060a0015160036000611edb8460000151611b8f565b600019166000191681526020019081526020016000209080519060200190611f04929190612c04565b508060c0015160036000611f1b846000015161285c565b600019166000191681526020019081526020016000209080519060200190611f44929190612c04565b508060e0015160036000611f5b8460000151611a7d565b600019166000191681526020019081526020016000209080519060200190611f84929190612c04565b5080610100015160016000611f9c846000015161274a565b6000191660001916815260200190815260200160002060006101000a8154816fffffffffffffffffffffffffffffffff02191690836fffffffffffffffffffffffffffffffff16021790555080610120015160016000611fff8460000151612160565b6000191660001916815260200190815260200160002060006101000a8154816fffffffffffffffffffffffffffffffff02191690836fffffffffffffffffffffffffffffffff16021790555050565b60008160405160200180807f70726f6475637400000000000000000000000000000000000000000000000000815250600701807f7570646174656441740000000000000000000000000000000000000000000000815250600901826fffffffffffffffffffffffffffffffff166fffffffffffffffffffffffffffffffff167001000000000000000000000000000000000281526010019150506040516020818303038152906040526040518082805190602001908083835b60208310151561212c5780518252602082019150602081019050602083039250612107565b6001836020036101000a03801982511681845116808217855250505050505090500191505060405180910390209050919050565b60008160405160200180807f70726f6475637400000000000000000000000000000000000000000000000000815250600701807f696e76656e746f72790000000000000000000000000000000000000000000000815250600901826fffffffffffffffffffffffffffffffff166fffffffffffffffffffffffffffffffff167001000000000000000000000000000000000281526010019150506040516020818303038152906040526040518082805190602001908083835b60208310151561223e5780518252602082019150602081019050602083039250612219565b6001836020036101000a03801982511681845116808217855250505050505090500191505060405180910390209050919050565b60008160405160200180807f70726f6475637400000000000000000000000000000000000000000000000000815250600701807f6372656174656442790000000000000000000000000000000000000000000000815250600901826fffffffffffffffffffffffffffffffff166fffffffffffffffffffffffffffffffff167001000000000000000000000000000000000281526010019150506040516020818303038152906040526040518082805190602001908083835b602083101515612350578051825260208201915060208101905060208303925061232b565b6001836020036101000a03801982511681845116808217855250505050505090500191505060405180910390209050919050565b600073ffffffffffffffffffffffffffffffffffffffff166123a46113b1565b73ffffffffffffffffffffffffffffffffffffffff16141515612454576123c96113b1565b73ffffffffffffffffffffffffffffffffffffffff16632d23b4623084846040518463ffffffff167c0100000000000000000000000000000000000000000000000000000000028152600401612421939291906133cb565b600060405180830381600087803b15801561243b57600080fd5b505af115801561244f573d6000803e3d6000fd5b505050505b5050565b600060405180807f636f6d2e6d61726b6574706c6163652e6f776e61626c656d616e616765722e6f81526020017f776e6572000000000000000000000000000000000000000000000000000000008152506024019050604051809103902090508181555050565b600060405180807f636f6d2e6d61726b6574706c6163652e6f776e61626c656d616e616765722e6f81526020017f776e61626c6544656c6567617465000000000000000000000000000000000000815250602e019050604051809103902090508181555050565b60008160405160200180807f70726f6475637400000000000000000000000000000000000000000000000000815250600701807f6372656174656441740000000000000000000000000000000000000000000000815250600901826fffffffffffffffffffffffffffffffff166fffffffffffffffffffffffffffffffff167001000000000000000000000000000000000281526010019150506040516020818303038152906040526040518082805190602001908083835b60208310151561260457805182526020820191506020810190506020830392506125df565b6001836020036101000a03801982511681845116808217855250505050505090500191505060405180910390209050919050565b60008160405160200180807f70726f6475637400000000000000000000000000000000000000000000000000815250600701807f7570646174656442790000000000000000000000000000000000000000000000815250600901826fffffffffffffffffffffffffffffffff166fffffffffffffffffffffffffffffffff167001000000000000000000000000000000000281526010019150506040516020818303038152906040526040518082805190602001908083835b60208310151561271657805182526020820191506020810190506020830392506126f1565b6001836020036101000a03801982511681845116808217855250505050505090500191505060405180910390209050919050565b60008160405160200180807f70726f6475637400000000000000000000000000000000000000000000000000815250600701807f7072696365000000000000000000000000000000000000000000000000000000815250600501826fffffffffffffffffffffffffffffffff166fffffffffffffffffffffffffffffffff167001000000000000000000000000000000000281526010019150506040516020818303038152906040526040518082805190602001908083835b6020831015156128285780518252602082019150602081019050602083039250612803565b6001836020036101000a03801982511681845116808217855250505050505090500191505060405180910390209050919050565b60008160405160200180807f70726f6475637400000000000000000000000000000000000000000000000000815250600701807f6465736372697074696f6e000000000000000000000000000000000000000000815250600b01826fffffffffffffffffffffffffffffffff166fffffffffffffffffffffffffffffffff167001000000000000000000000000000000000281526010019150506040516020818303038152906040526040518082805190602001908083835b60208310151561293a5780518252602082019150602081019050602083039250612915565b6001836020036101000a03801982511681845116808217855250505050505090500191505060405180910390209050919050565b600073ffffffffffffffffffffffffffffffffffffffff168173ffffffffffffffffffffffffffffffffffffffff16141515156129aa57600080fd5b8073ffffffffffffffffffffffffffffffffffffffff166129c9611247565b73ffffffffffffffffffffffffffffffffffffffff167f8be0079c531659141344cd1fd0a4f28419497f9722a3daafe3b4186f6b6457e060405160405180910390a3612a1c612a16611247565b82612384565b612a2581612458565b50565b60008160405160200180807f70726f6475637400000000000000000000000000000000000000000000000000815250600701807f6964000000000000000000000000000000000000000000000000000000000000815250600201826fffffffffffffffffffffffffffffffff166fffffffffffffffffffffffffffffffff167001000000000000000000000000000000000281526010019150506040516020818303038152906040526040518082805190602001908083835b602083101515612b065780518252602082019150602081019050602083039250612ae1565b6001836020036101000a03801982511681845116808217855250505050505090500191505060405180910390209050919050565b6101406040519081016040528060006fffffffffffffffffffffffffffffffff168152602001600067ffffffffffffffff168152602001600067ffffffffffffffff168152602001600073ffffffffffffffffffffffffffffffffffffffff168152602001600073ffffffffffffffffffffffffffffffffffffffff16815260200160608152602001606081526020016060815260200160006fffffffffffffffffffffffffffffffff16815260200160006fffffffffffffffffffffffffffffffff1681525090565b828054600181600116156101000203166002900490600052602060002090601f016020900481019282601f10612c4557805160ff1916838001178555612c73565b82800160010185558215612c73579182015b82811115612c72578251825591602001919060010190612c57565b5b509050612c809190612c84565b5090565b612ca691905b80821115612ca2576000816000905550600101612c8a565b5090565b90565b6000612cb582356136c2565b905092915050565b6000612cc982516136e2565b905092915050565b600082601f8301121515612ce457600080fd5b8135612cf7612cf2826135c3565b613596565b91508082526020830160208301858383011115612d1357600080fd5b612d1e83828461372c565b50505092915050565b600082601f8301121515612d3a57600080fd5b8135612d4d612d48826135ef565b613596565b91508082526020830160208301858383011115612d6957600080fd5b612d7483828461372c565b50505092915050565b60006101408284031215612d9057600080fd5b612d9b610140613596565b90506000612dab84828501612eb7565b6000830152506020612dbf84828501612edf565b6020830152506040612dd384828501612edf565b6040830152506060612de784828501612ca9565b6060830152506080612dfb84828501612ca9565b60808301525060a082013567ffffffffffffffff811115612e1b57600080fd5b612e2784828501612cd1565b60a08301525060c082013567ffffffffffffffff811115612e4757600080fd5b612e5384828501612cd1565b60c08301525060e082013567ffffffffffffffff811115612e7357600080fd5b612e7f84828501612cd1565b60e083015250610100612e9484828501612eb7565b61010083015250610120612eaa84828501612eb7565b6101208301525092915050565b6000612ec382356136ee565b905092915050565b6000612ed7825161370a565b905092915050565b6000612eeb8235613718565b905092915050565b600060208284031215612f0557600080fd5b6000612f1384828501612ca9565b91505092915050565b600060208284031215612f2e57600080fd5b6000612f3c84828501612cbd565b91505092915050565b600060208284031215612f5757600080fd5b600082013567ffffffffffffffff811115612f7157600080fd5b612f7d84828501612d27565b91505092915050565b600080600080600060a08688031215612f9e57600080fd5b600086013567ffffffffffffffff811115612fb857600080fd5b612fc488828901612d27565b955050602086013567ffffffffffffffff811115612fe157600080fd5b612fed88828901612d27565b945050604086013567ffffffffffffffff81111561300a57600080fd5b61301688828901612d27565b935050606061302788828901612eb7565b925050608061303888828901612eb7565b9150509295509295909350565b60006020828403121561305757600080fd5b600082013567ffffffffffffffff81111561307157600080fd5b61307d84828501612d7d565b91505092915050565b60006020828403121561309857600080fd5b60006130a684828501612eb7565b91505092915050565b6000602082840312156130c157600080fd5b60006130cf84828501612ecb565b91505092915050565b6130e18161364e565b82525050565b6130f08161366e565b82525050565b60006131018261362d565b80845261311581602086016020860161373b565b61311e8161376e565b602085010191505092915050565b600061313782613643565b80845261314b81602086016020860161373b565b6131548161376e565b602085010191505092915050565b600061316d82613638565b80845261318181602086016020860161373b565b61318a8161376e565b602085010191505092915050565b6000815460018116600081146131b557600181146131d557613216565b607f600283041680865260ff198316602087015260408601935050613216565b600282048086526020860195506131eb8561361b565b60005b8281101561320d578154818901526001820191506020810190506131ee565b80880195505050505b505092915050565b6000601882527f50726f64756374206d6f64656c20697320696e76616c696400000000000000006020830152604082019050919050565b6000600a82527f496e76616c6964204964000000000000000000000000000000000000000000006020830152604082019050919050565b6000610140830160008301516132a56000860182613374565b5060208301516132b860208601826133a1565b5060408301516132cb60408601826133a1565b5060608301516132de60608601826130d8565b5060808301516132f160808601826130d8565b5060a083015184820360a08601526133098282613162565b91505060c083015184820360c08601526133238282613162565b91505060e083015184820360e086015261333d8282613162565b915050610100830151613354610100860182613374565b50610120830151613369610120860182613374565b508091505092915050565b61337d8161367a565b82525050565b61338c81613696565b82525050565b61339b816136a4565b82525050565b6133aa816136ae565b82525050565b60006020820190506133c560008301846130d8565b92915050565b60006060820190506133e060008301866130d8565b6133ed60208301856130d8565b6133fa60408301846130d8565b949350505050565b600060208201905061341760008301846130e7565b92915050565b6000602082019050818103600083015261343781846130f6565b905092915050565b60006020820190508181036000830152613459818461312c565b905092915050565b6000604082019050818103600083015261347b8185613198565b9050818103602083015261348f818461312c565b90509392505050565b600060208201905081810360008301526134b18161321e565b9050919050565b600060208201905081810360008301526134d181613255565b9050919050565b600060208201905081810360008301526134f2818461328c565b905092915050565b600060208201905061350f6000830184613374565b92915050565b600060208201905061352a6000830184613383565b92915050565b60006040820190506135456000830185613383565b818103602083015261355781846130f6565b90509392505050565b60006020820190506135756000830184613392565b92915050565b600060208201905061359060008301846133a1565b92915050565b6000604051905081810181811067ffffffffffffffff821117156135b957600080fd5b8060405250919050565b600067ffffffffffffffff8211156135da57600080fd5b601f19601f8301169050602081019050919050565b600067ffffffffffffffff82111561360657600080fd5b601f19601f8301169050602081019050919050565b60008160005260206000209050919050565b600081519050919050565b600081519050919050565b600081519050919050565b600073ffffffffffffffffffffffffffffffffffffffff82169050919050565b60008115159050919050565b60006fffffffffffffffffffffffffffffffff82169050919050565b600061ffff82169050919050565b6000819050919050565b600067ffffffffffffffff82169050919050565b600073ffffffffffffffffffffffffffffffffffffffff82169050919050565b60008115159050919050565b60006fffffffffffffffffffffffffffffffff82169050919050565b600061ffff82169050919050565b600067ffffffffffffffff82169050919050565b82818337600083830152505050565b60005b8381101561375957808201518184015260208101905061373e565b83811115613768576000848401525b50505050565b6000601f19601f83011690509190505600a265627a7a72305820ce9f4daf4641834f554bd2ab61513a14c994ec9b3af06e2066d1934bd1c213f16c6578706572696d656e74616cf50037",
  "source": "pragma solidity ^0.4.23;\npragma experimental ABIEncoderV2;\n\nimport \"../ownership/OwnableManager.sol\";\nimport \"../storage/EternalStorage.sol\";\nimport \"./IProductStore.sol\";\nimport \"../models/product/ProductV1.sol\";\n\n/**\n* @title ProductStore\n* @dev Store contract implementation\n* @notice v1\n*/\ncontract ProductStoreV1 is OwnableManager, EternalStorage, IProductStore, ProductV1 { \n  \n  string internal _name;\n  string internal _logoURI;\n  uint128 internal _productCount;\n  \n  /**\n  * @dev ArticleUpdated is emited when a product is added or modified from storage\n  * @param _id The product id\n  * @param _updatedAt The timestamp when the update was processed\n  * @param _updatedBy Address of the account that performed the update\n  * @param _modelVersion The product model version for the struct\n  * @param _data The abi-encoded product model\n  */\n  event ArticleUpdated(\n    uint128 indexed _id,\n    uint64 indexed _updatedAt,\n    address indexed _updatedBy,\n    uint16 _modelVersion,\n    bytes _data\n  );\n\n  /**\n  * @dev NameUpdated is emited when the store name is updated\n  * @param _oldName Old store name\n  * @param _newName New store name\n  */\n  event NameUpdated(string _oldName, string _newName);\n\n  /**\n  * @dev LogoUpdated is emited when the store logo URI is updated\n  * @param _oldLogoURI Old store logo URI\n  * @param _newLogoURI New store logo URI\n  */\n  event LogoUpdated(string _oldLogoURI, string _newLogoURI);\n\n  /**\n  * @dev Constructor function\n  * @param __name Name of the store\n  */\n  constructor(string __name) public {\n    _name = __name;\n  }\n\n  /**\n  * @dev Modifier to check if the provided id parameter is valid\n  * @param _id Id pertaining to an Product model\n  */\n  modifier requiresValidId(uint128 _id) {\n    require(_id > 0, \"Invalid Id\");\n    require(_id <= productCount(), \"Invalid Id\");\n    _;\n  }\n\n  //-- Contract Getters\n\n  /**\n  * @dev Returns the store name\n  * @return Store name\n  */\n  function name() public view returns(string) {\n    return _name;\n  }\n\n  /**\n  * @dev Returns a URI for the store logo\n  * @return URI for the store logo\n  * @notice This is an optional value and thus might return an empty string\n  */\n  function logoURI() public view returns(string) {\n    return _logoURI;\n  }\n\n  /**\n  * @dev Returns the total number of products stored\n  * @return Total number of products stored\n  */\n  function productCount() public view returns(uint) {\n    return _productCount;\n  }\n\n  //-- Contract Setters\n\n  /**\n  * @dev Sets the store name\n  * @param __name Name of the store\n  */\n  function setName(string __name) public onlyOwner {\n    emit NameUpdated(_name, __name);\n    _name = __name;\n  }\n\n  /**\n  * @dev Sets the store logo\n  * @param __logoURI URI for the store logo\n  */\n  function setLogoURI(string __logoURI) public onlyOwner {\n    emit LogoUpdated(_logoURI, __logoURI);\n    _logoURI = __logoURI;\n  }\n\n  /**\n  * @dev Adds an product to storage if valid\n  * @param __name Name of the product\n  * @param __description Description of the product\n  * @param __imageURI Optional image URI\n  * @param __price Price for the product in wei\n  * @param __inventory Available inventory to be sold for the product\n  * @return Id of the stored product\n  */\n  function addProduct(\n    string __name,\n    string __description,\n    string __imageURI,\n    uint128 __price,\n    uint128 __inventory\n  )\n    public onlyOwner returns(uint128)\n  {\n    uint128 id = _productCount + 1;\n\n    // solium-disable-next-line security/no-block-members\n    uint64 timestamp = uint64(block.timestamp);\n\n    ModelV1 memory product = ModelV1({ id: id,\n                                       createdAt: timestamp,\n                                       updatedAt: timestamp,\n                                       createdBy: msg.sender,\n                                       updatedBy: msg.sender,\n                                       name: __name,\n                                       description: __description,\n                                       imageURI: __imageURI,\n                                       price: __price,\n                                       inventory: __inventory\n                                      });\n    \n    storeProduct(product);\n    _productCount++;\n\n    emit ArticleUpdated(product.id,\n                        product.updatedAt,\n                        product.updatedBy,\n                        ProductV1(this).version(),\n                        abiEncode(product));\n  }\n\n  /**\n  * @dev Validates the given product and stores it in Eternal Storage\n  * @param _product Product model struct to store\n  */\n  function storeProduct(ModelV1 _product) internal {\n    require(isValid(_product), \"Product model is invalid\");\n    uint128Storage[idKey(_product.id)] = _product.id;\n    uint64Storage[createdAtKey(_product.id)] = _product.createdAt;\n    uint64Storage[updatedAtKey(_product.id)] = _product.updatedAt;\n    addressStorage[createdByKey(_product.id)] = _product.createdBy;\n    addressStorage[updatedByKey(_product.id)] = _product.updatedBy;\n    stringStorage[nameKey(_product.id)] = _product.name;\n    stringStorage[descriptionKey(_product.id)] = _product.description;\n    stringStorage[imageURIKey(_product.id)] = _product.imageURI;\n    uint128Storage[priceKey(_product.id)] = _product.price;\n    uint128Storage[inventoryKey(_product.id)] = _product.inventory;\n  }\n\n  //-- Utility functions for retrieving data from Eternal Storage for a Product\n\n  /**\n  * @dev Returns the createdAt value for a given product id\n  * @param _id Product id to be used for lookup\n  */\n  function getCreatedAt(uint128 _id) public view requiresValidId(_id) returns(uint64) {\n    return uint64Storage[createdAtKey(_id)];\n  } \n\n  /**\n  * @dev Returns the updatedAt value for a given product id\n  * @param _id Product id to be used for lookup\n  */\n  function getUpdatedAt(uint128 _id) public view requiresValidId(_id) returns(uint64) {\n    return uint64Storage[updatedAtKey(_id)];\n  } \n\n  /**\n  * @dev Returns the createdBy value for a given product id\n  * @param _id Product id to be used for lookup\n  */\n  function getCreatedBy(uint128 _id) public view requiresValidId(_id) returns(address) {\n    return addressStorage[createdByKey(_id)];\n  } \n\n  /**\n  * @dev Returns the updatedBy value for a given product id\n  * @param _id Product id to be used for lookup\n  */\n  function getUpdatedBy(uint128 _id) public view requiresValidId(_id) returns(address) {\n    return addressStorage[updatedByKey(_id)];\n  } \n\n  /**\n  * @dev Returns the name value for a given product id\n  * @param _id Product id to be used for lookup\n  */\n  function getName(uint128 _id) public view requiresValidId(_id) returns(string) {\n    return stringStorage[nameKey(_id)];\n  } \n\n  /**\n  * @dev Returns the description value for a given product id\n  * @param _id Product id to be used for lookup\n  */\n  function getDescription(uint128 _id) public view requiresValidId(_id) returns(string) {\n    return stringStorage[descriptionKey(_id)];\n  }\n\n  /**\n  * @dev Returns the image URI value for a given product id\n  * @param _id Product id to be used for lookup\n  */\n  function getImageURI(uint128 _id) public view requiresValidId(_id) returns(string) {\n    return stringStorage[imageURIKey(_id)];\n  }\n\n  /**\n  * @dev Returns the price value for a given product id\n  * @param _id Product id to be used for lookup\n  */\n  function getPrice(uint128 _id) public view requiresValidId(_id) returns(uint128) {\n    return uint128Storage[priceKey(_id)];\n  } \n\n  /**\n  * @dev Returns the inventory value for a given product id\n  * @param _id Product id to be used for lookup\n  */\n  function getInventory(uint128 _id) public view requiresValidId(_id) returns(uint128) {\n    return uint128Storage[inventoryKey(_id)];\n  } \n\n  /**\n  * @dev Returns true for contracts that adhere to the ProductStore interface\n  * @return Always returns true for this contract\n  */\n  function isProductStore() public pure returns (bool) {\n    return true;\n  }\n\n  /**\n  * @dev Returns the version of the ProductStore contract interface\n  * @return Version of the contract interface\n  */\n  function version() public pure returns (uint16) { \n    return 1;\n  }\n\n}\n",
  "sourcePath": "/Users/matias/Projects/consensys/eth-marketplace/contracts/store/ProductStoreV1.sol",
  "compiler": {
    "name": "solc",
    "version": "0.4.24+commit.e67f0147.Emscripten.clang"
  },
  "schemaVersion": "2.0.1",
  "updatedAt": "2018-08-27T19:49:44.176Z"
}