{
  "contractName": "ProductStoreV1",
  "abi": [
    {
      "constant": true,
      "inputs": [
        {
          "components": [
            {
              "name": "id",
              "type": "uint128"
            },
            {
              "name": "createdAt",
              "type": "uint64"
            },
            {
              "name": "updatedAt",
              "type": "uint64"
            },
            {
              "name": "createdBy",
              "type": "address"
            },
            {
              "name": "updatedBy",
              "type": "address"
            },
            {
              "name": "name",
              "type": "string"
            },
            {
              "name": "description",
              "type": "string"
            },
            {
              "name": "imageURI",
              "type": "string"
            },
            {
              "name": "price",
              "type": "uint128"
            },
            {
              "name": "inventory",
              "type": "uint128"
            }
          ],
          "name": "_product",
          "type": "tuple"
        }
      ],
      "name": "abiEncode",
      "outputs": [
        {
          "name": "",
          "type": "bytes"
        }
      ],
      "payable": false,
      "stateMutability": "pure",
      "type": "function"
    },
    {
      "constant": false,
      "inputs": [],
      "name": "renounceOwnership",
      "outputs": [],
      "payable": false,
      "stateMutability": "nonpayable",
      "type": "function"
    },
    {
      "constant": true,
      "inputs": [
        {
          "components": [
            {
              "name": "id",
              "type": "uint128"
            },
            {
              "name": "createdAt",
              "type": "uint64"
            },
            {
              "name": "updatedAt",
              "type": "uint64"
            },
            {
              "name": "createdBy",
              "type": "address"
            },
            {
              "name": "updatedBy",
              "type": "address"
            },
            {
              "name": "name",
              "type": "string"
            },
            {
              "name": "description",
              "type": "string"
            },
            {
              "name": "imageURI",
              "type": "string"
            },
            {
              "name": "price",
              "type": "uint128"
            },
            {
              "name": "inventory",
              "type": "uint128"
            }
          ],
          "name": "_product",
          "type": "tuple"
        }
      ],
      "name": "isValid",
      "outputs": [
        {
          "name": "",
          "type": "bool"
        }
      ],
      "payable": false,
      "stateMutability": "pure",
      "type": "function"
    },
    {
      "constant": true,
      "inputs": [],
      "name": "owner",
      "outputs": [
        {
          "name": "_owner",
          "type": "address"
        }
      ],
      "payable": false,
      "stateMutability": "view",
      "type": "function"
    },
    {
      "constant": true,
      "inputs": [],
      "name": "isEternalStorage",
      "outputs": [
        {
          "name": "",
          "type": "bool"
        }
      ],
      "payable": false,
      "stateMutability": "pure",
      "type": "function"
    },
    {
      "constant": true,
      "inputs": [],
      "name": "ownableDelegate",
      "outputs": [
        {
          "name": "_ownableDelegate",
          "type": "address"
        }
      ],
      "payable": false,
      "stateMutability": "view",
      "type": "function"
    },
    {
      "constant": false,
      "inputs": [
        {
          "name": "_ownableDelegate",
          "type": "address"
        }
      ],
      "name": "setOwnableDelegate",
      "outputs": [],
      "payable": false,
      "stateMutability": "nonpayable",
      "type": "function"
    },
    {
      "constant": false,
      "inputs": [
        {
          "name": "_newOwner",
          "type": "address"
        }
      ],
      "name": "transferOwnership",
      "outputs": [],
      "payable": false,
      "stateMutability": "nonpayable",
      "type": "function"
    },
    {
      "inputs": [],
      "payable": false,
      "stateMutability": "nonpayable",
      "type": "constructor"
    },
    {
      "anonymous": false,
      "inputs": [
        {
          "indexed": true,
          "name": "_id",
          "type": "uint128"
        },
        {
          "indexed": true,
          "name": "_updatedAt",
          "type": "uint64"
        },
        {
          "indexed": true,
          "name": "_updatedBy",
          "type": "address"
        },
        {
          "indexed": false,
          "name": "_modelVersion",
          "type": "uint16"
        },
        {
          "indexed": false,
          "name": "_data",
          "type": "bytes"
        }
      ],
      "name": "ArticleUpdated",
      "type": "event"
    },
    {
      "anonymous": false,
      "inputs": [
        {
          "indexed": false,
          "name": "_oldName",
          "type": "string"
        },
        {
          "indexed": false,
          "name": "_newName",
          "type": "string"
        }
      ],
      "name": "NameUpdated",
      "type": "event"
    },
    {
      "anonymous": false,
      "inputs": [
        {
          "indexed": false,
          "name": "_oldLogoURI",
          "type": "string"
        },
        {
          "indexed": false,
          "name": "_newLogoURI",
          "type": "string"
        }
      ],
      "name": "LogoUpdated",
      "type": "event"
    },
    {
      "anonymous": false,
      "inputs": [
        {
          "indexed": true,
          "name": "_payee",
          "type": "address"
        },
        {
          "indexed": true,
          "name": "_amount",
          "type": "uint256"
        }
      ],
      "name": "FundsWithdrawn",
      "type": "event"
    },
    {
      "anonymous": false,
      "inputs": [
        {
          "indexed": true,
          "name": "_previousOwner",
          "type": "address"
        }
      ],
      "name": "OwnershipRenounced",
      "type": "event"
    },
    {
      "anonymous": false,
      "inputs": [
        {
          "indexed": true,
          "name": "_oldAddress",
          "type": "address"
        },
        {
          "indexed": true,
          "name": "_newAddress",
          "type": "address"
        }
      ],
      "name": "OwnershipTransferred",
      "type": "event"
    },
    {
      "constant": true,
      "inputs": [],
      "name": "name",
      "outputs": [
        {
          "name": "",
          "type": "string"
        }
      ],
      "payable": false,
      "stateMutability": "view",
      "type": "function"
    },
    {
      "constant": true,
      "inputs": [],
      "name": "logoURI",
      "outputs": [
        {
          "name": "",
          "type": "string"
        }
      ],
      "payable": false,
      "stateMutability": "view",
      "type": "function"
    },
    {
      "constant": true,
      "inputs": [],
      "name": "productCount",
      "outputs": [
        {
          "name": "",
          "type": "uint256"
        }
      ],
      "payable": false,
      "stateMutability": "view",
      "type": "function"
    },
    {
      "constant": false,
      "inputs": [
        {
          "name": "__name",
          "type": "string"
        }
      ],
      "name": "setName",
      "outputs": [],
      "payable": false,
      "stateMutability": "nonpayable",
      "type": "function"
    },
    {
      "constant": false,
      "inputs": [
        {
          "name": "__logoURI",
          "type": "string"
        }
      ],
      "name": "setLogoURI",
      "outputs": [],
      "payable": false,
      "stateMutability": "nonpayable",
      "type": "function"
    },
    {
      "constant": false,
      "inputs": [],
      "name": "withdrawFunds",
      "outputs": [],
      "payable": false,
      "stateMutability": "nonpayable",
      "type": "function"
    },
    {
      "constant": false,
      "inputs": [
        {
          "name": "__name",
          "type": "string"
        },
        {
          "name": "__description",
          "type": "string"
        },
        {
          "name": "__imageURI",
          "type": "string"
        },
        {
          "name": "__price",
          "type": "uint128"
        },
        {
          "name": "__inventory",
          "type": "uint128"
        }
      ],
      "name": "addProduct",
      "outputs": [
        {
          "name": "",
          "type": "uint128"
        }
      ],
      "payable": false,
      "stateMutability": "nonpayable",
      "type": "function"
    },
    {
      "constant": true,
      "inputs": [
        {
          "name": "_id",
          "type": "uint128"
        }
      ],
      "name": "getCreatedAt",
      "outputs": [
        {
          "name": "",
          "type": "uint64"
        }
      ],
      "payable": false,
      "stateMutability": "view",
      "type": "function"
    },
    {
      "constant": true,
      "inputs": [
        {
          "name": "_id",
          "type": "uint128"
        }
      ],
      "name": "getUpdatedAt",
      "outputs": [
        {
          "name": "",
          "type": "uint64"
        }
      ],
      "payable": false,
      "stateMutability": "view",
      "type": "function"
    },
    {
      "constant": true,
      "inputs": [
        {
          "name": "_id",
          "type": "uint128"
        }
      ],
      "name": "getCreatedBy",
      "outputs": [
        {
          "name": "",
          "type": "address"
        }
      ],
      "payable": false,
      "stateMutability": "view",
      "type": "function"
    },
    {
      "constant": true,
      "inputs": [
        {
          "name": "_id",
          "type": "uint128"
        }
      ],
      "name": "getUpdatedBy",
      "outputs": [
        {
          "name": "",
          "type": "address"
        }
      ],
      "payable": false,
      "stateMutability": "view",
      "type": "function"
    },
    {
      "constant": true,
      "inputs": [
        {
          "name": "_id",
          "type": "uint128"
        }
      ],
      "name": "getName",
      "outputs": [
        {
          "name": "",
          "type": "string"
        }
      ],
      "payable": false,
      "stateMutability": "view",
      "type": "function"
    },
    {
      "constant": true,
      "inputs": [
        {
          "name": "_id",
          "type": "uint128"
        }
      ],
      "name": "getDescription",
      "outputs": [
        {
          "name": "",
          "type": "string"
        }
      ],
      "payable": false,
      "stateMutability": "view",
      "type": "function"
    },
    {
      "constant": true,
      "inputs": [
        {
          "name": "_id",
          "type": "uint128"
        }
      ],
      "name": "getImageURI",
      "outputs": [
        {
          "name": "",
          "type": "string"
        }
      ],
      "payable": false,
      "stateMutability": "view",
      "type": "function"
    },
    {
      "constant": true,
      "inputs": [
        {
          "name": "_id",
          "type": "uint128"
        }
      ],
      "name": "getPrice",
      "outputs": [
        {
          "name": "",
          "type": "uint128"
        }
      ],
      "payable": false,
      "stateMutability": "view",
      "type": "function"
    },
    {
      "constant": true,
      "inputs": [
        {
          "name": "_id",
          "type": "uint128"
        }
      ],
      "name": "getInventory",
      "outputs": [
        {
          "name": "",
          "type": "uint128"
        }
      ],
      "payable": false,
      "stateMutability": "view",
      "type": "function"
    },
    {
      "constant": true,
      "inputs": [],
      "name": "isProductStore",
      "outputs": [
        {
          "name": "",
          "type": "bool"
        }
      ],
      "payable": false,
      "stateMutability": "pure",
      "type": "function"
    },
    {
      "constant": true,
      "inputs": [],
      "name": "version",
      "outputs": [
        {
          "name": "",
          "type": "uint16"
        }
      ],
      "payable": false,
      "stateMutability": "pure",
      "type": "function"
    }
  ],
  "bytecode": "0x60806040523480156200001157600080fd5b506200002c3362000032640100000000026401000000009004565b62000099565b600060405180807f636f6d2e6d61726b6574706c6163652e6f776e61626c656d616e616765722e6f81526020017f776e6572000000000000000000000000000000000000000000000000000000008152506024019050604051809103902090508181555050565b61396780620000a96000396000f300608060405260043610610154576000357c0100000000000000000000000000000000000000000000000000000000900463ffffffff16806306fdde03146101595780630744f0c11461018457806324600fc3146101c157806326d5e4d2146101d85780632b64d441146102155780632b91a7011461025257806354fd4d501461028f5780635a610f3f146102ba5780635d834a01146102f7578063646253a2146103345780636bb38b2814610371578063715018a61461039c578063840f4a64146103b35780638da5cb5b146103f057806398df65431461041b578063b1a6909a14610458578063bd3e65df14610483578063c30ff6df146104ae578063c47f0027146104d7578063c6ebfe9d14610500578063cdbdb0a51461053d578063de3572b414610568578063e0f6ef87146105a5578063e131010c146105d0578063f195905b1461060d578063f2fde38b14610636575b600080fd5b34801561016557600080fd5b5061016e61065f565b60405161017b91906135cd565b60405180910390f35b34801561019057600080fd5b506101ab60048036036101a691908101906131dd565b610701565b6040516101b891906135cd565b60405180910390f35b3480156101cd57600080fd5b506101d661087d565b005b3480156101e457600080fd5b506101ff60048036036101fa919081019061319c565b6109b2565b60405161020c91906135ab565b60405180910390f35b34801561022157600080fd5b5061023c600480360361023791908101906131dd565b6109db565b60405161024991906135cd565b60405180910390f35b34801561025e57600080fd5b50610279600480360361027491908101906130dd565b610b57565b60405161028691906136a8565b60405180910390f35b34801561029b57600080fd5b506102a4610e1c565b6040516102b191906136c3565b60405180910390f35b3480156102c657600080fd5b506102e160048036036102dc91908101906131dd565b610e25565b6040516102ee9190613729565b60405180910390f35b34801561030357600080fd5b5061031e600480360361031991908101906131dd565b610f1d565b60405161032b91906136a8565b60405180910390f35b34801561034057600080fd5b5061035b600480360361035691908101906131dd565b61101d565b604051610368919061353e565b60405180910390f35b34801561037d57600080fd5b50610386611121565b60405161039391906135cd565b60405180910390f35b3480156103a857600080fd5b506103b16111c3565b005b3480156103bf57600080fd5b506103da60048036036103d5919081019061319c565b611276565b6040516103e79190613590565b60405180910390f35b3480156103fc57600080fd5b5061040561139e565b604051610412919061353e565b60405180910390f35b34801561042757600080fd5b50610442600480360361043d91908101906131dd565b611407565b60405161044f9190613729565b60405180910390f35b34801561046457600080fd5b5061046d6114ff565b60405161047a9190613590565b60405180910390f35b34801561048f57600080fd5b50610498611508565b6040516104a5919061353e565b60405180910390f35b3480156104ba57600080fd5b506104d560048036036104d0919081019061309c565b611571565b005b3480156104e357600080fd5b506104fe60048036036104f9919081019061309c565b611606565b005b34801561050c57600080fd5b50610527600480360361052291908101906131dd565b61169b565b604051610534919061353e565b60405180910390f35b34801561054957600080fd5b5061055261179f565b60405161055f9190613590565b60405180910390f35b34801561057457600080fd5b5061058f600480360361058a91908101906131dd565b6117a8565b60405161059c91906136a8565b60405180910390f35b3480156105b157600080fd5b506105ba6118a8565b6040516105c7919061370e565b60405180910390f35b3480156105dc57600080fd5b506105f760048036036105f291908101906131dd565b6118e0565b60405161060491906135cd565b60405180910390f35b34801561061957600080fd5b50610634600480360361062f919081019061304a565b611a5c565b005b34801561064257600080fd5b5061065d6004803603610658919081019061304a565b611b87565b005b6060600a8054600181600116156101000203166002900480601f0160208091040260200160405190810160405280929190818152602001828054600181600116156101000203166002900480156106f75780601f106106cc576101008083540402835291602001916106f7565b820191906000526020600020905b8154815290600101906020018083116106da57829003601f168201915b5050505050905090565b6060816000816fffffffffffffffffffffffffffffffff1611151561075b576040517f08c379a000000000000000000000000000000000000000000000000000000000815260040161075290613646565b60405180910390fd5b6107636118a8565b816fffffffffffffffffffffffffffffffff16111515156107b9576040517f08c379a00000000000000000000000000000000000000000000000000000000081526004016107b090613646565b60405180910390fd5b600360006107c685611bd4565b600019166000191681526020019081526020016000208054600181600116156101000203166002900480601f0160208091040260200160405190810160405280929190818152602001828054600181600116156101000203166002900480156108705780601f1061084557610100808354040283529160200191610870565b820191906000526020600020905b81548152906001019060200180831161085357829003601f168201915b5050505050915050919050565b60008061088861139e565b73ffffffffffffffffffffffffffffffffffffffff163373ffffffffffffffffffffffffffffffffffffffff161415156108c157600080fd5b3391503073ffffffffffffffffffffffffffffffffffffffff16319050600081111515610923576040517f08c379a000000000000000000000000000000000000000000000000000000000815260040161091a90613666565b60405180910390fd5b8173ffffffffffffffffffffffffffffffffffffffff166108fc829081150290604051600060405180830381858888f19350505050158015610969573d6000803e3d6000fd5b50808273ffffffffffffffffffffffffffffffffffffffff167feaff4b37086828766ad3268786972c0cd24259d4c87a80f9d3963a3c3d999b0d60405160405180910390a35050565b6060816040516020016109c59190613686565b6040516020818303038152906040529050919050565b6060816000816fffffffffffffffffffffffffffffffff16111515610a35576040517f08c379a0000000000000000000000000000000000000000000000000000000008152600401610a2c90613646565b60405180910390fd5b610a3d6118a8565b816fffffffffffffffffffffffffffffffff1611151515610a93576040517f08c379a0000000000000000000000000000000000000000000000000000000008152600401610a8a90613646565b60405180910390fd5b60036000610aa085611ce6565b600019166000191681526020019081526020016000208054600181600116156101000203166002900480601f016020809104026020016040519081016040528092919081815260200182805460018160011615610100020316600290048015610b4a5780601f10610b1f57610100808354040283529160200191610b4a565b820191906000526020600020905b815481529060010190602001808311610b2d57829003601f168201915b5050505050915050919050565b6000806000610b64612c91565b610b6c61139e565b73ffffffffffffffffffffffffffffffffffffffff163373ffffffffffffffffffffffffffffffffffffffff16141515610ba557600080fd5b6001600c60009054906101000a90046fffffffffffffffffffffffffffffffff1601925042915061014060405190810160405280846fffffffffffffffffffffffffffffffff1681526020018367ffffffffffffffff1681526020018367ffffffffffffffff1681526020013373ffffffffffffffffffffffffffffffffffffffff1681526020013373ffffffffffffffffffffffffffffffffffffffff1681526020018a8152602001898152602001888152602001876fffffffffffffffffffffffffffffffff168152602001866fffffffffffffffffffffffffffffffff168152509050610c9481611df8565b600c600081819054906101000a90046fffffffffffffffffffffffffffffffff168092919060010191906101000a8154816fffffffffffffffffffffffffffffffff02191690836fffffffffffffffffffffffffffffffff16021790555050806080015173ffffffffffffffffffffffffffffffffffffffff16816040015167ffffffffffffffff1682600001516fffffffffffffffffffffffffffffffff167f24b910cee83acebdf0e3c0e4c00d70907a15d2e792ea13e69f4ea9588bf1d5be3073ffffffffffffffffffffffffffffffffffffffff166354fd4d506040518163ffffffff167c0100000000000000000000000000000000000000000000000000000000028152600401602060405180830381600087803b158015610db957600080fd5b505af1158015610dcd573d6000803e3d6000fd5b505050506040513d601f19601f82011682018060405250610df19190810190613206565b610dfa866109b2565b604051610e089291906136de565b60405180910390a450505095945050505050565b60006001905090565b6000816000816fffffffffffffffffffffffffffffffff16111515610e7f576040517f08c379a0000000000000000000000000000000000000000000000000000000008152600401610e7690613646565b60405180910390fd5b610e876118a8565b816fffffffffffffffffffffffffffffffff1611151515610edd576040517f08c379a0000000000000000000000000000000000000000000000000000000008152600401610ed490613646565b60405180910390fd5b60026000610eea856121a5565b6000191660001916815260200190815260200160002060009054906101000a900467ffffffffffffffff16915050919050565b6000816000816fffffffffffffffffffffffffffffffff16111515610f77576040517f08c379a0000000000000000000000000000000000000000000000000000000008152600401610f6e90613646565b60405180910390fd5b610f7f6118a8565b816fffffffffffffffffffffffffffffffff1611151515610fd5576040517f08c379a0000000000000000000000000000000000000000000000000000000008152600401610fcc90613646565b60405180910390fd5b60016000610fe2856122b7565b6000191660001916815260200190815260200160002060009054906101000a90046fffffffffffffffffffffffffffffffff16915050919050565b6000816000816fffffffffffffffffffffffffffffffff16111515611077576040517f08c379a000000000000000000000000000000000000000000000000000000000815260040161106e90613646565b60405180910390fd5b61107f6118a8565b816fffffffffffffffffffffffffffffffff16111515156110d5576040517f08c379a00000000000000000000000000000000000000000000000000000000081526004016110cc90613646565b60405180910390fd5b600460006110e2856123c9565b6000191660001916815260200190815260200160002060009054906101000a900473ffffffffffffffffffffffffffffffffffffffff16915050919050565b6060600b8054600181600116156101000203166002900480601f0160208091040260200160405190810160405280929190818152602001828054600181600116156101000203166002900480156111b95780601f1061118e576101008083540402835291602001916111b9565b820191906000526020600020905b81548152906001019060200180831161119c57829003601f168201915b5050505050905090565b6111cb61139e565b73ffffffffffffffffffffffffffffffffffffffff163373ffffffffffffffffffffffffffffffffffffffff1614151561120457600080fd5b61120c61139e565b73ffffffffffffffffffffffffffffffffffffffff167ff8df31144d9c2f0f6b59d69b8b98abd5459d07f2742c4df920b25aae33c6482060405160405180910390a261126061125961139e565b60006124db565b61126a60006125af565b6112746000612616565b565b60008082600001516fffffffffffffffffffffffffffffffff161115156112a05760009050611399565b6000826020015167ffffffffffffffff161115156112c15760009050611399565b6000826040015167ffffffffffffffff161115156112e25760009050611399565b600073ffffffffffffffffffffffffffffffffffffffff16826060015173ffffffffffffffffffffffffffffffffffffffff1614156113245760009050611399565b600073ffffffffffffffffffffffffffffffffffffffff16826080015173ffffffffffffffffffffffffffffffffffffffff1614156113665760009050611399565b60008260a0015151141561137d5760009050611399565b60008260c001515114156113945760009050611399565b600190505b919050565b60008060405180807f636f6d2e6d61726b6574706c6163652e6f776e61626c656d616e616765722e6f81526020017f776e657200000000000000000000000000000000000000000000000000000000815250602401905060405180910390209050805491505090565b6000816000816fffffffffffffffffffffffffffffffff16111515611461576040517f08c379a000000000000000000000000000000000000000000000000000000000815260040161145890613646565b60405180910390fd5b6114696118a8565b816fffffffffffffffffffffffffffffffff16111515156114bf576040517f08c379a00000000000000000000000000000000000000000000000000000000081526004016114b690613646565b60405180910390fd5b600260006114cc8561267d565b6000191660001916815260200190815260200160002060009054906101000a900467ffffffffffffffff16915050919050565b60006001905090565b60008060405180807f636f6d2e6d61726b6574706c6163652e6f776e61626c656d616e616765722e6f81526020017f776e61626c6544656c6567617465000000000000000000000000000000000000815250602e01905060405180910390209050805491505090565b61157961139e565b73ffffffffffffffffffffffffffffffffffffffff163373ffffffffffffffffffffffffffffffffffffffff161415156115b257600080fd5b7f3fd06971a1669386f272c36c0f88736dafb25abdc400efb23ff7cc61c8d563b0600b826040516115e49291906135ef565b60405180910390a180600b9080519060200190611602929190612d5b565b5050565b61160e61139e565b73ffffffffffffffffffffffffffffffffffffffff163373ffffffffffffffffffffffffffffffffffffffff1614151561164757600080fd5b7ff19e969be7affb98a1d812094e0f24ecca36f1eabd6dd592c97020d47c64a00e600a826040516116799291906135ef565b60405180910390a180600a9080519060200190611697929190612d5b565b5050565b6000816000816fffffffffffffffffffffffffffffffff161115156116f5576040517f08c379a00000000000000000000000000000000000000000000000000000000081526004016116ec90613646565b60405180910390fd5b6116fd6118a8565b816fffffffffffffffffffffffffffffffff1611151515611753576040517f08c379a000000000000000000000000000000000000000000000000000000000815260040161174a90613646565b60405180910390fd5b600460006117608561278f565b6000191660001916815260200190815260200160002060009054906101000a900473ffffffffffffffffffffffffffffffffffffffff16915050919050565b60006001905090565b6000816000816fffffffffffffffffffffffffffffffff16111515611802576040517f08c379a00000000000000000000000000000000000000000000000000000000081526004016117f990613646565b60405180910390fd5b61180a6118a8565b816fffffffffffffffffffffffffffffffff1611151515611860576040517f08c379a000000000000000000000000000000000000000000000000000000000815260040161185790613646565b60405180910390fd5b6001600061186d856128a1565b6000191660001916815260200190815260200160002060009054906101000a90046fffffffffffffffffffffffffffffffff16915050919050565b6000600c60009054906101000a90046fffffffffffffffffffffffffffffffff166fffffffffffffffffffffffffffffffff16905090565b6060816000816fffffffffffffffffffffffffffffffff1611151561193a576040517f08c379a000000000000000000000000000000000000000000000000000000000815260040161193190613646565b60405180910390fd5b6119426118a8565b816fffffffffffffffffffffffffffffffff1611151515611998576040517f08c379a000000000000000000000000000000000000000000000000000000000815260040161198f90613646565b60405180910390fd5b600360006119a5856129b3565b600019166000191681526020019081526020016000208054600181600116156101000203166002900480601f016020809104026020016040519081016040528092919081815260200182805460018160011615610100020316600290048015611a4f5780601f10611a2457610100808354040283529160200191611a4f565b820191906000526020600020905b815481529060010190602001808311611a3257829003601f168201915b5050505050915050919050565b611a6461139e565b73ffffffffffffffffffffffffffffffffffffffff163373ffffffffffffffffffffffffffffffffffffffff16141515611a9d57600080fd5b600073ffffffffffffffffffffffffffffffffffffffff168173ffffffffffffffffffffffffffffffffffffffff16141515611b7b578073ffffffffffffffffffffffffffffffffffffffff1663b85456b26040518163ffffffff167c0100000000000000000000000000000000000000000000000000000000028152600401602060405180830381600087803b158015611b3757600080fd5b505af1158015611b4b573d6000803e3d6000fd5b505050506040513d601f19601f82011682018060405250611b6f9190810190613073565b1515611b7a57600080fd5b5b611b8481612616565b50565b611b8f61139e565b73ffffffffffffffffffffffffffffffffffffffff163373ffffffffffffffffffffffffffffffffffffffff16141515611bc857600080fd5b611bd181612ac5565b50565b60008160405160200180807f70726f6475637400000000000000000000000000000000000000000000000000815250600701807f696d616765555249000000000000000000000000000000000000000000000000815250600801826fffffffffffffffffffffffffffffffff166fffffffffffffffffffffffffffffffff167001000000000000000000000000000000000281526010019150506040516020818303038152906040526040518082805190602001908083835b602083101515611cb25780518252602082019150602081019050602083039250611c8d565b6001836020036101000a03801982511681845116808217855250505050505090500191505060405180910390209050919050565b60008160405160200180807f70726f6475637400000000000000000000000000000000000000000000000000815250600701807f6e616d6500000000000000000000000000000000000000000000000000000000815250600401826fffffffffffffffffffffffffffffffff166fffffffffffffffffffffffffffffffff167001000000000000000000000000000000000281526010019150506040516020818303038152906040526040518082805190602001908083835b602083101515611dc45780518252602082019150602081019050602083039250611d9f565b6001836020036101000a03801982511681845116808217855250505050505090500191505060405180910390209050919050565b611e0181611276565b1515611e42576040517f08c379a0000000000000000000000000000000000000000000000000000000008152600401611e3990613626565b60405180910390fd5b806000015160016000611e588460000151612b7f565b6000191660001916815260200190815260200160002060006101000a8154816fffffffffffffffffffffffffffffffff02191690836fffffffffffffffffffffffffffffffff160217905550806020015160026000611eba846000015161267d565b6000191660001916815260200190815260200160002060006101000a81548167ffffffffffffffff021916908367ffffffffffffffff160217905550806040015160026000611f0c84600001516121a5565b6000191660001916815260200190815260200160002060006101000a81548167ffffffffffffffff021916908367ffffffffffffffff160217905550806060015160046000611f5e84600001516123c9565b6000191660001916815260200190815260200160002060006101000a81548173ffffffffffffffffffffffffffffffffffffffff021916908373ffffffffffffffffffffffffffffffffffffffff160217905550806080015160046000611fc8846000015161278f565b6000191660001916815260200190815260200160002060006101000a81548173ffffffffffffffffffffffffffffffffffffffff021916908373ffffffffffffffffffffffffffffffffffffffff1602179055508060a00151600360006120328460000151611ce6565b60001916600019168152602001908152602001600020908051906020019061205b929190612d5b565b508060c001516003600061207284600001516129b3565b60001916600019168152602001908152602001600020908051906020019061209b929190612d5b565b508060e00151600360006120b28460000151611bd4565b6000191660001916815260200190815260200160002090805190602001906120db929190612d5b565b50806101000151600160006120f384600001516128a1565b6000191660001916815260200190815260200160002060006101000a8154816fffffffffffffffffffffffffffffffff02191690836fffffffffffffffffffffffffffffffff1602179055508061012001516001600061215684600001516122b7565b6000191660001916815260200190815260200160002060006101000a8154816fffffffffffffffffffffffffffffffff02191690836fffffffffffffffffffffffffffffffff16021790555050565b60008160405160200180807f70726f6475637400000000000000000000000000000000000000000000000000815250600701807f7570646174656441740000000000000000000000000000000000000000000000815250600901826fffffffffffffffffffffffffffffffff166fffffffffffffffffffffffffffffffff167001000000000000000000000000000000000281526010019150506040516020818303038152906040526040518082805190602001908083835b602083101515612283578051825260208201915060208101905060208303925061225e565b6001836020036101000a03801982511681845116808217855250505050505090500191505060405180910390209050919050565b60008160405160200180807f70726f6475637400000000000000000000000000000000000000000000000000815250600701807f696e76656e746f72790000000000000000000000000000000000000000000000815250600901826fffffffffffffffffffffffffffffffff166fffffffffffffffffffffffffffffffff167001000000000000000000000000000000000281526010019150506040516020818303038152906040526040518082805190602001908083835b6020831015156123955780518252602082019150602081019050602083039250612370565b6001836020036101000a03801982511681845116808217855250505050505090500191505060405180910390209050919050565b60008160405160200180807f70726f6475637400000000000000000000000000000000000000000000000000815250600701807f6372656174656442790000000000000000000000000000000000000000000000815250600901826fffffffffffffffffffffffffffffffff166fffffffffffffffffffffffffffffffff167001000000000000000000000000000000000281526010019150506040516020818303038152906040526040518082805190602001908083835b6020831015156124a75780518252602082019150602081019050602083039250612482565b6001836020036101000a03801982511681845116808217855250505050505090500191505060405180910390209050919050565b600073ffffffffffffffffffffffffffffffffffffffff166124fb611508565b73ffffffffffffffffffffffffffffffffffffffff161415156125ab57612520611508565b73ffffffffffffffffffffffffffffffffffffffff16632d23b4623084846040518463ffffffff167c010000000000000000000000000000000000000000000000000000000002815260040161257893929190613559565b600060405180830381600087803b15801561259257600080fd5b505af11580156125a6573d6000803e3d6000fd5b505050505b5050565b600060405180807f636f6d2e6d61726b6574706c6163652e6f776e61626c656d616e616765722e6f81526020017f776e6572000000000000000000000000000000000000000000000000000000008152506024019050604051809103902090508181555050565b600060405180807f636f6d2e6d61726b6574706c6163652e6f776e61626c656d616e616765722e6f81526020017f776e61626c6544656c6567617465000000000000000000000000000000000000815250602e019050604051809103902090508181555050565b60008160405160200180807f70726f6475637400000000000000000000000000000000000000000000000000815250600701807f6372656174656441740000000000000000000000000000000000000000000000815250600901826fffffffffffffffffffffffffffffffff166fffffffffffffffffffffffffffffffff167001000000000000000000000000000000000281526010019150506040516020818303038152906040526040518082805190602001908083835b60208310151561275b5780518252602082019150602081019050602083039250612736565b6001836020036101000a03801982511681845116808217855250505050505090500191505060405180910390209050919050565b60008160405160200180807f70726f6475637400000000000000000000000000000000000000000000000000815250600701807f7570646174656442790000000000000000000000000000000000000000000000815250600901826fffffffffffffffffffffffffffffffff166fffffffffffffffffffffffffffffffff167001000000000000000000000000000000000281526010019150506040516020818303038152906040526040518082805190602001908083835b60208310151561286d5780518252602082019150602081019050602083039250612848565b6001836020036101000a03801982511681845116808217855250505050505090500191505060405180910390209050919050565b60008160405160200180807f70726f6475637400000000000000000000000000000000000000000000000000815250600701807f7072696365000000000000000000000000000000000000000000000000000000815250600501826fffffffffffffffffffffffffffffffff166fffffffffffffffffffffffffffffffff167001000000000000000000000000000000000281526010019150506040516020818303038152906040526040518082805190602001908083835b60208310151561297f578051825260208201915060208101905060208303925061295a565b6001836020036101000a03801982511681845116808217855250505050505090500191505060405180910390209050919050565b60008160405160200180807f70726f6475637400000000000000000000000000000000000000000000000000815250600701807f6465736372697074696f6e000000000000000000000000000000000000000000815250600b01826fffffffffffffffffffffffffffffffff166fffffffffffffffffffffffffffffffff167001000000000000000000000000000000000281526010019150506040516020818303038152906040526040518082805190602001908083835b602083101515612a915780518252602082019150602081019050602083039250612a6c565b6001836020036101000a03801982511681845116808217855250505050505090500191505060405180910390209050919050565b600073ffffffffffffffffffffffffffffffffffffffff168173ffffffffffffffffffffffffffffffffffffffff1614151515612b0157600080fd5b8073ffffffffffffffffffffffffffffffffffffffff16612b2061139e565b73ffffffffffffffffffffffffffffffffffffffff167f8be0079c531659141344cd1fd0a4f28419497f9722a3daafe3b4186f6b6457e060405160405180910390a3612b73612b6d61139e565b826124db565b612b7c816125af565b50565b60008160405160200180807f70726f6475637400000000000000000000000000000000000000000000000000815250600701807f6964000000000000000000000000000000000000000000000000000000000000815250600201826fffffffffffffffffffffffffffffffff166fffffffffffffffffffffffffffffffff167001000000000000000000000000000000000281526010019150506040516020818303038152906040526040518082805190602001908083835b602083101515612c5d5780518252602082019150602081019050602083039250612c38565b6001836020036101000a03801982511681845116808217855250505050505090500191505060405180910390209050919050565b6101406040519081016040528060006fffffffffffffffffffffffffffffffff168152602001600067ffffffffffffffff168152602001600067ffffffffffffffff168152602001600073ffffffffffffffffffffffffffffffffffffffff168152602001600073ffffffffffffffffffffffffffffffffffffffff16815260200160608152602001606081526020016060815260200160006fffffffffffffffffffffffffffffffff16815260200160006fffffffffffffffffffffffffffffffff1681525090565b828054600181600116156101000203166002900490600052602060002090601f016020900481019282601f10612d9c57805160ff1916838001178555612dca565b82800160010185558215612dca579182015b82811115612dc9578251825591602001919060010190612dae565b5b509050612dd79190612ddb565b5090565b612dfd91905b80821115612df9576000816000905550600101612de1565b5090565b90565b6000612e0c8235613870565b905092915050565b6000612e208251613890565b905092915050565b600082601f8301121515612e3b57600080fd5b8135612e4e612e4982613771565b613744565b91508082526020830160208301858383011115612e6a57600080fd5b612e758382846138da565b50505092915050565b600082601f8301121515612e9157600080fd5b8135612ea4612e9f8261379d565b613744565b91508082526020830160208301858383011115612ec057600080fd5b612ecb8382846138da565b50505092915050565b60006101408284031215612ee757600080fd5b612ef2610140613744565b90506000612f028482850161300e565b6000830152506020612f1684828501613036565b6020830152506040612f2a84828501613036565b6040830152506060612f3e84828501612e00565b6060830152506080612f5284828501612e00565b60808301525060a082013567ffffffffffffffff811115612f7257600080fd5b612f7e84828501612e28565b60a08301525060c082013567ffffffffffffffff811115612f9e57600080fd5b612faa84828501612e28565b60c08301525060e082013567ffffffffffffffff811115612fca57600080fd5b612fd684828501612e28565b60e083015250610100612feb8482850161300e565b610100830152506101206130018482850161300e565b6101208301525092915050565b600061301a823561389c565b905092915050565b600061302e82516138b8565b905092915050565b600061304282356138c6565b905092915050565b60006020828403121561305c57600080fd5b600061306a84828501612e00565b91505092915050565b60006020828403121561308557600080fd5b600061309384828501612e14565b91505092915050565b6000602082840312156130ae57600080fd5b600082013567ffffffffffffffff8111156130c857600080fd5b6130d484828501612e7e565b91505092915050565b600080600080600060a086880312156130f557600080fd5b600086013567ffffffffffffffff81111561310f57600080fd5b61311b88828901612e7e565b955050602086013567ffffffffffffffff81111561313857600080fd5b61314488828901612e7e565b945050604086013567ffffffffffffffff81111561316157600080fd5b61316d88828901612e7e565b935050606061317e8882890161300e565b925050608061318f8882890161300e565b9150509295509295909350565b6000602082840312156131ae57600080fd5b600082013567ffffffffffffffff8111156131c857600080fd5b6131d484828501612ed4565b91505092915050565b6000602082840312156131ef57600080fd5b60006131fd8482850161300e565b91505092915050565b60006020828403121561321857600080fd5b600061322684828501613022565b91505092915050565b613238816137fc565b82525050565b6132478161381c565b82525050565b6000613258826137db565b80845261326c8160208601602086016138e9565b6132758161391c565b602085010191505092915050565b600061328e826137f1565b8084526132a28160208601602086016138e9565b6132ab8161391c565b602085010191505092915050565b60006132c4826137e6565b8084526132d88160208601602086016138e9565b6132e18161391c565b602085010191505092915050565b60008154600181166000811461330c576001811461332c5761336d565b607f600283041680865260ff19831660208701526040860193505061336d565b60028204808652602086019550613342856137c9565b60005b8281101561336457815481890152600182019150602081019050613345565b80880195505050505b505092915050565b6000601882527f50726f64756374206d6f64656c20697320696e76616c696400000000000000006020830152604082019050919050565b6000600a82527f496e76616c6964204964000000000000000000000000000000000000000000006020830152604082019050919050565b6000601e82527f4e6f20617661696c61626c652066756e647320746f20776974686472617700006020830152604082019050919050565b6000610140830160008301516134336000860182613502565b506020830151613446602086018261352f565b506040830151613459604086018261352f565b50606083015161346c606086018261322f565b50608083015161347f608086018261322f565b5060a083015184820360a086015261349782826132b9565b91505060c083015184820360c08601526134b182826132b9565b91505060e083015184820360e08601526134cb82826132b9565b9150506101008301516134e2610100860182613502565b506101208301516134f7610120860182613502565b508091505092915050565b61350b81613828565b82525050565b61351a81613844565b82525050565b61352981613852565b82525050565b6135388161385c565b82525050565b6000602082019050613553600083018461322f565b92915050565b600060608201905061356e600083018661322f565b61357b602083018561322f565b613588604083018461322f565b949350505050565b60006020820190506135a5600083018461323e565b92915050565b600060208201905081810360008301526135c5818461324d565b905092915050565b600060208201905081810360008301526135e78184613283565b905092915050565b6000604082019050818103600083015261360981856132ef565b9050818103602083015261361d8184613283565b90509392505050565b6000602082019050818103600083015261363f81613375565b9050919050565b6000602082019050818103600083015261365f816133ac565b9050919050565b6000602082019050818103600083015261367f816133e3565b9050919050565b600060208201905081810360008301526136a0818461341a565b905092915050565b60006020820190506136bd6000830184613502565b92915050565b60006020820190506136d86000830184613511565b92915050565b60006040820190506136f36000830185613511565b8181036020830152613705818461324d565b90509392505050565b60006020820190506137236000830184613520565b92915050565b600060208201905061373e600083018461352f565b92915050565b6000604051905081810181811067ffffffffffffffff8211171561376757600080fd5b8060405250919050565b600067ffffffffffffffff82111561378857600080fd5b601f19601f8301169050602081019050919050565b600067ffffffffffffffff8211156137b457600080fd5b601f19601f8301169050602081019050919050565b60008160005260206000209050919050565b600081519050919050565b600081519050919050565b600081519050919050565b600073ffffffffffffffffffffffffffffffffffffffff82169050919050565b60008115159050919050565b60006fffffffffffffffffffffffffffffffff82169050919050565b600061ffff82169050919050565b6000819050919050565b600067ffffffffffffffff82169050919050565b600073ffffffffffffffffffffffffffffffffffffffff82169050919050565b60008115159050919050565b60006fffffffffffffffffffffffffffffffff82169050919050565b600061ffff82169050919050565b600067ffffffffffffffff82169050919050565b82818337600083830152505050565b60005b838110156139075780820151818401526020810190506138ec565b83811115613916576000848401525b50505050565b6000601f19601f83011690509190505600a265627a7a723058201293c0082938060e686c06b3f71789367766c26ea770f4cc75216e37640e57e66c6578706572696d656e74616cf50037",
  "source": "pragma solidity ^0.4.23;\npragma experimental ABIEncoderV2;\n\nimport \"../ownership/OwnableManager.sol\";\nimport \"../storage/EternalStorage.sol\";\nimport \"./IProductStore.sol\";\nimport \"../models/product/ProductV1.sol\";\n\n/**\n* @title ProductStore\n* @dev Store contract implementation\n* @notice v1\n*/\ncontract ProductStoreV1 is OwnableManager, EternalStorage, IProductStore, ProductV1 { \n  \n  string internal _name;\n  string internal _logoURI;\n  uint128 internal _productCount;\n  \n  /**\n  * @dev ArticleUpdated is emited when a product is added or modified from storage\n  * @param _id The product id\n  * @param _updatedAt The timestamp when the update was processed\n  * @param _updatedBy Address of the account that performed the update\n  * @param _modelVersion The product model version for the struct\n  * @param _data The abi-encoded product model\n  */\n  event ArticleUpdated(\n    uint128 indexed _id,\n    uint64 indexed _updatedAt,\n    address indexed _updatedBy,\n    uint16 _modelVersion,\n    bytes _data\n  );\n\n  /**\n  * @dev NameUpdated is emited when the store name is updated\n  * @param _oldName Old store name\n  * @param _newName New store name\n  */\n  event NameUpdated(string _oldName, string _newName);\n\n  /**\n  * @dev LogoUpdated is emited when the store logo URI is updated\n  * @param _oldLogoURI Old store logo URI\n  * @param _newLogoURI New store logo URI\n  */\n  event LogoUpdated(string _oldLogoURI, string _newLogoURI);\n\n  /**\n  * @dev FundsWithdrawn is emited every time funds are withdrawn from the contract\n  * @param _payee Address where the funds were deposited\n  * @param _amount Amount withdrawn\n  */\n  event FundsWithdrawn(address indexed _payee, uint256 indexed _amount);\n\n  /**\n  * @dev Constructor function\n  */\n  constructor() public { }\n\n  /**\n  * @dev Modifier to check if the provided id parameter is valid\n  * @param _id Id pertaining to an Product model\n  */\n  modifier requiresValidId(uint128 _id) {\n    require(_id > 0, \"Invalid Id\");\n    require(_id <= productCount(), \"Invalid Id\");\n    _;\n  }\n\n  //-- Contract Getters\n\n  /**\n  * @dev Returns the store name\n  * @return Store name\n  */\n  function name() public view returns(string) {\n    return _name;\n  }\n\n  /**\n  * @dev Returns a URI for the store logo\n  * @return URI for the store logo\n  * @notice This is an optional value and thus might return an empty string\n  */\n  function logoURI() public view returns(string) {\n    return _logoURI;\n  }\n\n  /**\n  * @dev Returns the total number of products stored\n  * @return Total number of products stored\n  */\n  function productCount() public view returns(uint) {\n    return _productCount;\n  }\n\n  //-- Contract Setters\n\n  /**\n  * @dev Sets the store name\n  * @param __name Name of the store\n  */\n  function setName(string __name) public onlyOwner {\n    emit NameUpdated(_name, __name);\n    _name = __name;\n  }\n\n  /**\n  * @dev Sets the store logo\n  * @param __logoURI URI for the store logo\n  */\n  function setLogoURI(string __logoURI) public onlyOwner {\n    emit LogoUpdated(_logoURI, __logoURI);\n    _logoURI = __logoURI;\n  }\n\n  /**\n  * @dev Withdraws all available contract funds\n  */\n  function withdrawFunds() public onlyOwner {\n    address payee = msg.sender;\n    uint256 balance = address(this).balance;\n\n    require(balance > 0, \"No available funds to withdraw\");\n    payee.transfer(balance);\n    emit FundsWithdrawn(payee, balance);\n  }\n\n  /**\n  * @dev Adds an product to storage if valid\n  * @param __name Name of the product\n  * @param __description Description of the product\n  * @param __imageURI Optional image URI\n  * @param __price Price for the product in wei\n  * @param __inventory Available inventory to be sold for the product\n  * @return Id of the stored product\n  */\n  function addProduct(\n    string __name,\n    string __description,\n    string __imageURI,\n    uint128 __price,\n    uint128 __inventory\n  )\n    public onlyOwner returns(uint128)\n  {\n    uint128 id = _productCount + 1;\n\n    // solium-disable-next-line security/no-block-members\n    uint64 timestamp = uint64(block.timestamp);\n\n    ModelV1 memory product = ModelV1({ id: id,\n                                       createdAt: timestamp,\n                                       updatedAt: timestamp,\n                                       createdBy: msg.sender,\n                                       updatedBy: msg.sender,\n                                       name: __name,\n                                       description: __description,\n                                       imageURI: __imageURI,\n                                       price: __price,\n                                       inventory: __inventory\n                                      });\n    \n    storeProduct(product);\n    _productCount++;\n\n    emit ArticleUpdated(product.id,\n                        product.updatedAt,\n                        product.updatedBy,\n                        ProductV1(this).version(),\n                        abiEncode(product));\n  }\n\n  /**\n  * @dev Validates the given product and stores it in Eternal Storage\n  * @param _product Product model struct to store\n  */\n  function storeProduct(ModelV1 _product) internal {\n    require(isValid(_product), \"Product model is invalid\");\n    uint128Storage[idKey(_product.id)] = _product.id;\n    uint64Storage[createdAtKey(_product.id)] = _product.createdAt;\n    uint64Storage[updatedAtKey(_product.id)] = _product.updatedAt;\n    addressStorage[createdByKey(_product.id)] = _product.createdBy;\n    addressStorage[updatedByKey(_product.id)] = _product.updatedBy;\n    stringStorage[nameKey(_product.id)] = _product.name;\n    stringStorage[descriptionKey(_product.id)] = _product.description;\n    stringStorage[imageURIKey(_product.id)] = _product.imageURI;\n    uint128Storage[priceKey(_product.id)] = _product.price;\n    uint128Storage[inventoryKey(_product.id)] = _product.inventory;\n  }\n\n  //-- Utility functions for retrieving data from Eternal Storage for a Product\n\n  /**\n  * @dev Returns the createdAt value for a given product id\n  * @param _id Product id to be used for lookup\n  */\n  function getCreatedAt(uint128 _id) public view requiresValidId(_id) returns(uint64) {\n    return uint64Storage[createdAtKey(_id)];\n  } \n\n  /**\n  * @dev Returns the updatedAt value for a given product id\n  * @param _id Product id to be used for lookup\n  */\n  function getUpdatedAt(uint128 _id) public view requiresValidId(_id) returns(uint64) {\n    return uint64Storage[updatedAtKey(_id)];\n  } \n\n  /**\n  * @dev Returns the createdBy value for a given product id\n  * @param _id Product id to be used for lookup\n  */\n  function getCreatedBy(uint128 _id) public view requiresValidId(_id) returns(address) {\n    return addressStorage[createdByKey(_id)];\n  } \n\n  /**\n  * @dev Returns the updatedBy value for a given product id\n  * @param _id Product id to be used for lookup\n  */\n  function getUpdatedBy(uint128 _id) public view requiresValidId(_id) returns(address) {\n    return addressStorage[updatedByKey(_id)];\n  } \n\n  /**\n  * @dev Returns the name value for a given product id\n  * @param _id Product id to be used for lookup\n  */\n  function getName(uint128 _id) public view requiresValidId(_id) returns(string) {\n    return stringStorage[nameKey(_id)];\n  } \n\n  /**\n  * @dev Returns the description value for a given product id\n  * @param _id Product id to be used for lookup\n  */\n  function getDescription(uint128 _id) public view requiresValidId(_id) returns(string) {\n    return stringStorage[descriptionKey(_id)];\n  }\n\n  /**\n  * @dev Returns the image URI value for a given product id\n  * @param _id Product id to be used for lookup\n  */\n  function getImageURI(uint128 _id) public view requiresValidId(_id) returns(string) {\n    return stringStorage[imageURIKey(_id)];\n  }\n\n  /**\n  * @dev Returns the price value for a given product id\n  * @param _id Product id to be used for lookup\n  */\n  function getPrice(uint128 _id) public view requiresValidId(_id) returns(uint128) {\n    return uint128Storage[priceKey(_id)];\n  } \n\n  /**\n  * @dev Returns the inventory value for a given product id\n  * @param _id Product id to be used for lookup\n  */\n  function getInventory(uint128 _id) public view requiresValidId(_id) returns(uint128) {\n    return uint128Storage[inventoryKey(_id)];\n  } \n\n  /**\n  * @dev Returns true for contracts that adhere to the ProductStore interface\n  * @return Always returns true for this contract\n  */\n  function isProductStore() public pure returns (bool) {\n    return true;\n  }\n\n  /**\n  * @dev Returns the version of the ProductStore contract interface\n  * @return Version of the contract interface\n  */\n  function version() public pure returns (uint16) { \n    return 1;\n  }\n\n}\n",
  "sourcePath": "/Users/matias/Projects/consensys/eth-marketplace/contracts/store/ProductStoreV1.sol",
  "compiler": {
    "name": "solc",
    "version": "0.4.24+commit.e67f0147.Emscripten.clang"
  },
  "schemaVersion": "2.0.1",
  "updatedAt": "2018-08-27T21:36:29.701Z"
}