{
  "contractName": "ProductV1",
  "abi": [
    {
      "constant": true,
      "inputs": [
        {
          "components": [
            {
              "name": "id",
              "type": "uint128"
            },
            {
              "name": "createdAt",
              "type": "uint64"
            },
            {
              "name": "updatedAt",
              "type": "uint64"
            },
            {
              "name": "createdBy",
              "type": "address"
            },
            {
              "name": "updatedBy",
              "type": "address"
            },
            {
              "name": "name",
              "type": "string"
            },
            {
              "name": "description",
              "type": "string"
            },
            {
              "name": "imageURI",
              "type": "string"
            },
            {
              "name": "price",
              "type": "uint128"
            },
            {
              "name": "inventory",
              "type": "uint128"
            }
          ],
          "name": "_product",
          "type": "tuple"
        }
      ],
      "name": "isValid",
      "outputs": [
        {
          "name": "",
          "type": "bool"
        }
      ],
      "payable": false,
      "stateMutability": "pure",
      "type": "function"
    },
    {
      "constant": true,
      "inputs": [
        {
          "components": [
            {
              "name": "id",
              "type": "uint128"
            },
            {
              "name": "createdAt",
              "type": "uint64"
            },
            {
              "name": "updatedAt",
              "type": "uint64"
            },
            {
              "name": "createdBy",
              "type": "address"
            },
            {
              "name": "updatedBy",
              "type": "address"
            },
            {
              "name": "name",
              "type": "string"
            },
            {
              "name": "description",
              "type": "string"
            },
            {
              "name": "imageURI",
              "type": "string"
            },
            {
              "name": "price",
              "type": "uint128"
            },
            {
              "name": "inventory",
              "type": "uint128"
            }
          ],
          "name": "_product",
          "type": "tuple"
        }
      ],
      "name": "abiEncode",
      "outputs": [
        {
          "name": "",
          "type": "bytes"
        }
      ],
      "payable": false,
      "stateMutability": "pure",
      "type": "function"
    },
    {
      "constant": true,
      "inputs": [],
      "name": "version",
      "outputs": [
        {
          "name": "",
          "type": "uint16"
        }
      ],
      "payable": false,
      "stateMutability": "pure",
      "type": "function"
    }
  ],
  "bytecode": "0x608060405234801561001057600080fd5b5061081a806100206000396000f300608060405260043610610057576000357c0100000000000000000000000000000000000000000000000000000000900463ffffffff16806326d5e4d21461005c57806354fd4d5014610099578063840f4a64146100c4575b600080fd5b34801561006857600080fd5b50610083600480360361007e9190810190610463565b610101565b6040516100909190610576565b60405180910390f35b3480156100a557600080fd5b506100ae610166565b6040516100bb9190610649565b60405180910390f35b3480156100d057600080fd5b506100eb60048036036100e69190810190610463565b61016f565b6040516100f8919061055b565b60405180910390f35b6060816000015182602001518360400151846060015185608001518660a001518760c001518860e001518961010001518a61012001516040516020016101509a99989796959493929190610598565b6040516020818303038152906040529050919050565b60006001905090565b60008082600001516fffffffffffffffffffffffffffffffff161115156101995760009050610292565b6000826020015167ffffffffffffffff161115156101ba5760009050610292565b6000826040015167ffffffffffffffff161115156101db5760009050610292565b600073ffffffffffffffffffffffffffffffffffffffff16826060015173ffffffffffffffffffffffffffffffffffffffff16141561021d5760009050610292565b600073ffffffffffffffffffffffffffffffffffffffff16826080015173ffffffffffffffffffffffffffffffffffffffff16141561025f5760009050610292565b60008260a001515114156102765760009050610292565b60008260c0015151141561028d5760009050610292565b600190505b919050565b60006102a3823561073d565b905092915050565b600082601f83011215156102be57600080fd5b81356102d16102cc82610691565b610664565b915080825260208301602083018583830111156102ed57600080fd5b6102f883828461078d565b50505092915050565b6000610140828403121561031457600080fd5b61031f610140610664565b9050600061032f8482850161043b565b60008301525060206103438482850161044f565b60208301525060406103578482850161044f565b604083015250606061036b84828501610297565b606083015250608061037f84828501610297565b60808301525060a082013567ffffffffffffffff81111561039f57600080fd5b6103ab848285016102ab565b60a08301525060c082013567ffffffffffffffff8111156103cb57600080fd5b6103d7848285016102ab565b60c08301525060e082013567ffffffffffffffff8111156103f757600080fd5b610403848285016102ab565b60e0830152506101006104188482850161043b565b6101008301525061012061042e8482850161043b565b6101208301525092915050565b6000610447823561075d565b905092915050565b600061045b8235610779565b905092915050565b60006020828403121561047557600080fd5b600082013567ffffffffffffffff81111561048f57600080fd5b61049b84828501610301565b91505092915050565b6104ad816106d3565b82525050565b6104bc816106f3565b82525050565b60006104cd826106bd565b8084526104e181602086016020860161079c565b6104ea816107cf565b602085010191505092915050565b6000610503826106c8565b80845261051781602086016020860161079c565b610520816107cf565b602085010191505092915050565b610537816106ff565b82525050565b6105468161071b565b82525050565b61055581610729565b82525050565b600060208201905061057060008301846104b3565b92915050565b6000602082019050818103600083015261059081846104c2565b905092915050565b6000610140820190506105ae600083018d61052e565b6105bb602083018c61054c565b6105c8604083018b61054c565b6105d5606083018a6104a4565b6105e260808301896104a4565b81810360a08301526105f481886104f8565b905081810360c083015261060881876104f8565b905081810360e083015261061c81866104f8565b905061062c61010083018561052e565b61063a61012083018461052e565b9b9a5050505050505050505050565b600060208201905061065e600083018461053d565b92915050565b6000604051905081810181811067ffffffffffffffff8211171561068757600080fd5b8060405250919050565b600067ffffffffffffffff8211156106a857600080fd5b601f19601f8301169050602081019050919050565b600081519050919050565b600081519050919050565b600073ffffffffffffffffffffffffffffffffffffffff82169050919050565b60008115159050919050565b60006fffffffffffffffffffffffffffffffff82169050919050565b600061ffff82169050919050565b600067ffffffffffffffff82169050919050565b600073ffffffffffffffffffffffffffffffffffffffff82169050919050565b60006fffffffffffffffffffffffffffffffff82169050919050565b600067ffffffffffffffff82169050919050565b82818337600083830152505050565b60005b838110156107ba57808201518184015260208101905061079f565b838111156107c9576000848401525b50505050565b6000601f19601f83011690509190505600a265627a7a72305820ff57da84f14205a7e6a5c600bd836cd7bd408ea059867766b4d1819fd02242cc6c6578706572696d656e74616cf50037",
  "source": "pragma solidity ^0.4.23;\npragma experimental ABIEncoderV2;\n\n/**\n* @title Product\n* @dev Model for Product data\n* @notice v1\n*/\ncontract ProductV1 {\n\n  /**\n  * @dev Data model struct\n  */\n  struct ModelV1 {\n    uint128 id; // Must be unique\n    uint64 createdAt;\n    uint64 updatedAt;\n    address createdBy;\n    address updatedBy;\n    string name;\n    string description;\n    string imageURI; // Optional\n    uint128 price; // Stored in wei\n    uint128 inventory;\n  }\n\n  /**\n  * @dev Performs validation on the given product model\n  * @param _product Model struct to be validated\n  * @return Boolean value representing the validity status of the product\n  */\n  function isValid(ModelV1 _product) public pure returns(bool) {\n    if (_product.id <= 0) return false;\n    if (_product.createdAt <= 0) return false;\n    if (_product.updatedAt <= 0) return false;\n    if (_product.createdBy == address(0)) return false;\n    if (_product.updatedBy == address(0)) return false;\n    if (bytes(_product.name).length == 0) return false;\n    if (bytes(_product.description).length == 0) return false;\n    return true;\n  }\n\n  /**\n  * @dev Key parameters for retrieving data from Eternal Storage\n  */\n  function idKey(uint128 _id) internal pure returns(bytes32) {\n    return keccak256(abi.encodePacked(\"product\", \"id\", _id));\n  }\n\n  function createdAtKey(uint128 _id) internal pure returns(bytes32) {\n    return keccak256(abi.encodePacked(\"product\", \"createdAt\", _id));\n  }\n\n  function updatedAtKey(uint128 _id) internal pure returns(bytes32) {\n    return keccak256(abi.encodePacked(\"product\", \"updatedAt\", _id));\n  }\n\n  function createdByKey(uint128 _id) internal pure returns(bytes32) {\n    return keccak256(abi.encodePacked(\"product\", \"createdBy\", _id));\n  }\n\n  function updatedByKey(uint128 _id) internal pure returns(bytes32) {\n    return keccak256(abi.encodePacked(\"product\", \"updatedBy\", _id));\n  }\n\n  function nameKey(uint128 _id) internal pure returns(bytes32) {\n    return keccak256(abi.encodePacked(\"product\", \"name\", _id));\n  }\n\n  function descriptionKey(uint128 _id) internal pure returns(bytes32) {\n    return keccak256(abi.encodePacked(\"product\", \"description\", _id));\n  }\n\n  function imageURIKey(uint128 _id) internal pure returns(bytes32) {\n    return keccak256(abi.encodePacked(\"product\", \"imageURI\", _id));\n  }\n\n  function priceKey(uint128 _id) internal pure returns(bytes32) {\n    return keccak256(abi.encodePacked(\"product\", \"price\", _id));\n  }\n\n  function inventoryKey(uint128 _id) internal pure returns(bytes32) {\n    return keccak256(abi.encodePacked(\"product\", \"inventory\", _id));\n  }\n\n  /**\n  * @dev ABI encodes the given product\n  * @param _product Model struct to be encoded\n  * @return ABI byte-encoded product model\n  */\n  function abiEncode(ModelV1 _product) public pure returns(bytes) {\n    return abi.encode(_product.id,\n                      _product.createdAt,\n                      _product.updatedAt,\n                      _product.createdBy,\n                      _product.updatedBy,\n                      _product.name,\n                      _product.description,\n                      _product.imageURI,\n                      _product.price,\n                      _product.inventory\n                    );\n  }\n\n  /**\n  * @dev Returns contract version number\n  * @return Returns contract version number\n  */\n  function version() public pure returns(uint16) {\n    return 1;\n  }\n  \n}\n",
  "sourcePath": "/Users/matias/Projects/consensys/eth-marketplace/contracts/models/product/ProductV1.sol",
  "compiler": {
    "name": "solc",
    "version": "0.4.24+commit.e67f0147.Emscripten.clang"
  },
  "schemaVersion": "2.0.0",
  "updatedAt": "2018-08-27T16:48:04.799Z"
}