{
  "contractName": "ProductV1",
  "abi": [
    {
      "constant": true,
      "inputs": [
        {
          "components": [
            {
              "name": "id",
              "type": "uint128"
            },
            {
              "name": "createdAt",
              "type": "uint64"
            },
            {
              "name": "updatedAt",
              "type": "uint64"
            },
            {
              "name": "createdBy",
              "type": "address"
            },
            {
              "name": "updatedBy",
              "type": "address"
            },
            {
              "name": "name",
              "type": "string"
            },
            {
              "name": "description",
              "type": "string"
            },
            {
              "name": "imageURI",
              "type": "string"
            },
            {
              "name": "price",
              "type": "uint128"
            },
            {
              "name": "inventory",
              "type": "uint128"
            }
          ],
          "name": "_product",
          "type": "tuple"
        }
      ],
      "name": "isValid",
      "outputs": [
        {
          "name": "",
          "type": "bool"
        }
      ],
      "payable": false,
      "stateMutability": "pure",
      "type": "function"
    },
    {
      "constant": true,
      "inputs": [
        {
          "components": [
            {
              "name": "id",
              "type": "uint128"
            },
            {
              "name": "createdAt",
              "type": "uint64"
            },
            {
              "name": "updatedAt",
              "type": "uint64"
            },
            {
              "name": "createdBy",
              "type": "address"
            },
            {
              "name": "updatedBy",
              "type": "address"
            },
            {
              "name": "name",
              "type": "string"
            },
            {
              "name": "description",
              "type": "string"
            },
            {
              "name": "imageURI",
              "type": "string"
            },
            {
              "name": "price",
              "type": "uint128"
            },
            {
              "name": "inventory",
              "type": "uint128"
            }
          ],
          "name": "_product",
          "type": "tuple"
        }
      ],
      "name": "abiEncode",
      "outputs": [
        {
          "name": "",
          "type": "bytes"
        }
      ],
      "payable": false,
      "stateMutability": "pure",
      "type": "function"
    },
    {
      "constant": true,
      "inputs": [],
      "name": "version",
      "outputs": [
        {
          "name": "",
          "type": "uint16"
        }
      ],
      "payable": false,
      "stateMutability": "pure",
      "type": "function"
    }
  ],
  "bytecode": "0x608060405234801561001057600080fd5b50610837806100206000396000f300608060405260043610610057576000357c0100000000000000000000000000000000000000000000000000000000900463ffffffff16806326d5e4d21461005c57806354fd4d5014610099578063840f4a64146100c4575b600080fd5b34801561006857600080fd5b50610083600480360361007e9190810190610427565b610101565b6040516100909190610622565b60405180910390f35b3480156100a557600080fd5b506100ae61012a565b6040516100bb9190610666565b60405180910390f35b3480156100d057600080fd5b506100eb60048036036100e69190810190610427565b610133565b6040516100f89190610607565b60405180910390f35b6060816040516020016101149190610644565b6040516020818303038152906040529050919050565b60006001905090565b60008082600001516fffffffffffffffffffffffffffffffff1611151561015d5760009050610256565b6000826020015167ffffffffffffffff1611151561017e5760009050610256565b6000826040015167ffffffffffffffff1611151561019f5760009050610256565b600073ffffffffffffffffffffffffffffffffffffffff16826060015173ffffffffffffffffffffffffffffffffffffffff1614156101e15760009050610256565b600073ffffffffffffffffffffffffffffffffffffffff16826080015173ffffffffffffffffffffffffffffffffffffffff1614156102235760009050610256565b60008260a0015151141561023a5760009050610256565b60008260c001515114156102515760009050610256565b600190505b919050565b6000610267823561075a565b905092915050565b600082601f830112151561028257600080fd5b8135610295610290826106ae565b610681565b915080825260208301602083018583830111156102b157600080fd5b6102bc8382846107aa565b50505092915050565b600061014082840312156102d857600080fd5b6102e3610140610681565b905060006102f3848285016103ff565b600083015250602061030784828501610413565b602083015250604061031b84828501610413565b604083015250606061032f8482850161025b565b60608301525060806103438482850161025b565b60808301525060a082013567ffffffffffffffff81111561036357600080fd5b61036f8482850161026f565b60a08301525060c082013567ffffffffffffffff81111561038f57600080fd5b61039b8482850161026f565b60c08301525060e082013567ffffffffffffffff8111156103bb57600080fd5b6103c78482850161026f565b60e0830152506101006103dc848285016103ff565b610100830152506101206103f2848285016103ff565b6101208301525092915050565b600061040b823561077a565b905092915050565b600061041f8235610796565b905092915050565b60006020828403121561043957600080fd5b600082013567ffffffffffffffff81111561045357600080fd5b61045f848285016102c5565b91505092915050565b610471816106f0565b82525050565b61048081610710565b82525050565b6000610491826106da565b8084526104a58160208601602086016107b9565b6104ae816107ec565b602085010191505092915050565b60006104c7826106e5565b8084526104db8160208601602086016107b9565b6104e4816107ec565b602085010191505092915050565b60006101408301600083015161050b60008601826105da565b50602083015161051e60208601826105f8565b50604083015161053160408601826105f8565b5060608301516105446060860182610468565b5060808301516105576080860182610468565b5060a083015184820360a086015261056f82826104bc565b91505060c083015184820360c086015261058982826104bc565b91505060e083015184820360e08601526105a382826104bc565b9150506101008301516105ba6101008601826105da565b506101208301516105cf6101208601826105da565b508091505092915050565b6105e38161071c565b82525050565b6105f281610738565b82525050565b61060181610746565b82525050565b600060208201905061061c6000830184610477565b92915050565b6000602082019050818103600083015261063c8184610486565b905092915050565b6000602082019050818103600083015261065e81846104f2565b905092915050565b600060208201905061067b60008301846105e9565b92915050565b6000604051905081810181811067ffffffffffffffff821117156106a457600080fd5b8060405250919050565b600067ffffffffffffffff8211156106c557600080fd5b601f19601f8301169050602081019050919050565b600081519050919050565b600081519050919050565b600073ffffffffffffffffffffffffffffffffffffffff82169050919050565b60008115159050919050565b60006fffffffffffffffffffffffffffffffff82169050919050565b600061ffff82169050919050565b600067ffffffffffffffff82169050919050565b600073ffffffffffffffffffffffffffffffffffffffff82169050919050565b60006fffffffffffffffffffffffffffffffff82169050919050565b600067ffffffffffffffff82169050919050565b82818337600083830152505050565b60005b838110156107d75780820151818401526020810190506107bc565b838111156107e6576000848401525b50505050565b6000601f19601f83011690509190505600a265627a7a72305820885b26a93bbf1fc6ab6c02e511fbc342999a6bd85c085c1cc94185f1544a05696c6578706572696d656e74616cf50037",
  "source": "pragma solidity ^0.4.23;\npragma experimental ABIEncoderV2;\n\n/**\n* @title Product\n* @dev Model for Product data\n* @notice v1\n*/\ncontract ProductV1 {\n\n  /**\n  * @dev Data model struct\n  */\n  struct ModelV1 {\n    uint128 id; // Must be unique\n    uint64 createdAt;\n    uint64 updatedAt;\n    address createdBy;\n    address updatedBy;\n    string name;\n    string description;\n    string imageURI; // Optional\n    uint128 price; // Stored in wei\n    uint128 inventory;\n  }\n\n  /**\n  * @dev Performs validation on the given product model\n  * @param _product Model struct to be validated\n  * @return Boolean value representing the validity status of the product\n  */\n  function isValid(ModelV1 _product) public pure returns(bool) {\n    if (_product.id <= 0) return false;\n    if (_product.createdAt <= 0) return false;\n    if (_product.updatedAt <= 0) return false;\n    if (_product.createdBy == address(0)) return false;\n    if (_product.updatedBy == address(0)) return false;\n    if (bytes(_product.name).length == 0) return false;\n    if (bytes(_product.description).length == 0) return false;\n    return true;\n  }\n\n  /**\n  * @dev Key parameters for retrieving data from Eternal Storage\n  */\n  function idKey(uint128 _id) internal pure returns(bytes32) {\n    return keccak256(abi.encodePacked(\"product\", \"id\", _id));\n  }\n\n  function createdAtKey(uint128 _id) internal pure returns(bytes32) {\n    return keccak256(abi.encodePacked(\"product\", \"createdAt\", _id));\n  }\n\n  function updatedAtKey(uint128 _id) internal pure returns(bytes32) {\n    return keccak256(abi.encodePacked(\"product\", \"updatedAt\", _id));\n  }\n\n  function createdByKey(uint128 _id) internal pure returns(bytes32) {\n    return keccak256(abi.encodePacked(\"product\", \"createdBy\", _id));\n  }\n\n  function updatedByKey(uint128 _id) internal pure returns(bytes32) {\n    return keccak256(abi.encodePacked(\"product\", \"updatedBy\", _id));\n  }\n\n  function nameKey(uint128 _id) internal pure returns(bytes32) {\n    return keccak256(abi.encodePacked(\"product\", \"name\", _id));\n  }\n\n  function descriptionKey(uint128 _id) internal pure returns(bytes32) {\n    return keccak256(abi.encodePacked(\"product\", \"description\", _id));\n  }\n\n  function imageURIKey(uint128 _id) internal pure returns(bytes32) {\n    return keccak256(abi.encodePacked(\"product\", \"imageURI\", _id));\n  }\n\n  function priceKey(uint128 _id) internal pure returns(bytes32) {\n    return keccak256(abi.encodePacked(\"product\", \"price\", _id));\n  }\n\n  function inventoryKey(uint128 _id) internal pure returns(bytes32) {\n    return keccak256(abi.encodePacked(\"product\", \"inventory\", _id));\n  }\n\n  /**\n  * @dev ABI encodes the given product\n  * @param _product Model struct to be encoded\n  * @return ABI byte-encoded product model\n  */\n  function abiEncode(ModelV1 _product) public pure returns(bytes) {\n    return abi.encode(_product);\n  }\n\n  /**\n  * @dev Returns contract version number\n  * @return Returns contract version number\n  */\n  function version() public pure returns(uint16) {\n    return 1;\n  }\n\n}\n",
  "sourcePath": "/Users/matias/Projects/consensys/eth-marketplace/contracts/models/product/ProductV1.sol",
  "compiler": {
    "name": "solc",
    "version": "0.4.24+commit.e67f0147.Emscripten.clang"
  },
  "schemaVersion": "2.0.1",
  "updatedAt": "2018-08-28T00:30:11.201Z"
}