{
  "contractName": "UpgradeableProxy",
  "abi": [
    {
      "constant": true,
      "inputs": [],
      "name": "isProxy",
      "outputs": [
        {
          "name": "",
          "type": "bool"
        }
      ],
      "payable": false,
      "stateMutability": "pure",
      "type": "function"
    },
    {
      "inputs": [],
      "payable": false,
      "stateMutability": "nonpayable",
      "type": "constructor"
    },
    {
      "payable": true,
      "stateMutability": "payable",
      "type": "fallback"
    },
    {
      "anonymous": false,
      "inputs": [
        {
          "indexed": true,
          "name": "_implementation",
          "type": "address"
        }
      ],
      "name": "Upgraded",
      "type": "event"
    },
    {
      "constant": true,
      "inputs": [],
      "name": "implementation",
      "outputs": [
        {
          "name": "_implementation",
          "type": "address"
        }
      ],
      "payable": false,
      "stateMutability": "view",
      "type": "function"
    },
    {
      "constant": false,
      "inputs": [
        {
          "name": "_newImplementation",
          "type": "address"
        }
      ],
      "name": "upgradeTo",
      "outputs": [],
      "payable": false,
      "stateMutability": "nonpayable",
      "type": "function"
    },
    {
      "constant": true,
      "inputs": [],
      "name": "isUpgradeable",
      "outputs": [
        {
          "name": "",
          "type": "bool"
        }
      ],
      "payable": false,
      "stateMutability": "pure",
      "type": "function"
    }
  ],
  "bytecode": "0x608060405234801561001057600080fd5b5061036d806100206000396000f300608060405260043610610062576000357c0100000000000000000000000000000000000000000000000000000000900463ffffffff1680633659cfe61461013a5780635c60da1b1461017d57806364da4e6f146101d4578063daa3a16314610203575b600061006c610232565b9050600073ffffffffffffffffffffffffffffffffffffffff168173ffffffffffffffffffffffffffffffffffffffff1614151515610113576040517f08c379a000000000000000000000000000000000000000000000000000000000815260040180806020018281038252601e8152602001807f496d706c656d656e746174696f6e2061646472657373206e6f7420736574000081525060200191505060405180910390fd5b60405136600082376000803683855af43d806000843e8160008114610136578184f35b8184fd5b34801561014657600080fd5b5061017b600480360381019080803573ffffffffffffffffffffffffffffffffffffffff16906020019092919050505061029b565b005b34801561018957600080fd5b50610192610232565b604051808273ffffffffffffffffffffffffffffffffffffffff1673ffffffffffffffffffffffffffffffffffffffff16815260200191505060405180910390f35b3480156101e057600080fd5b506101e961032f565b604051808215151515815260200191505060405180910390f35b34801561020f57600080fd5b50610218610338565b604051808215151515815260200191505060405180910390f35b60008060405180807f636f6d2e626c6f636b776972652e70726f78792e696d706c656d656e7461746981526020017f6f6e000000000000000000000000000000000000000000000000000000000000815250602201905060405180910390209050805491505090565b6040517f08c379a00000000000000000000000000000000000000000000000000000000081526004018080602001828103825260318152602001807f46756e6374696f6e206e6f74206f7665727772697474656e20627920696d706c81526020017f656d656e74696e6720636f6e747261637400000000000000000000000000000081525060400191505060405180910390fd5b60006001905090565b600060019050905600a165627a7a723058205aace2e9ea30685210baff8b99d5cadb42c7c63d2e59c5027f2152cd815ffeee0029",
  "source": "pragma solidity ^0.4.23;\n\n// Adapted from:\n// https://github.com/zeppelinos/labs/blob/master/upgradeability_using_unstructured_storage/contracts/UpgradeabilityProxy.sol\n\nimport \"./Proxy.sol\";\nimport \"./IUpgradeableProxy.sol\";\nimport \"../lib/openzeppelin/AddressUtils.sol\";\n\n/**\n* @title UpgradeableProxy\n* @dev A proxy that allows the implementation address to be updated\n*/\ncontract UpgradeableProxy is Proxy, IUpgradeableProxy {\n\n  /**\n  * @dev Upgraded event is emitted every time the implementation is updated\n  * @param _implementation Address of the new implementation contract\n  */\n  event Upgraded(address indexed _implementation);\n\n  /**\n  * @dev The storage position in the contract storage where the implementation address will be stored\n  * @notice The implementation value is stored using the 'key-value' nature of the contract storage and\n  *         is thus not affected by the contract's state data layout\n  */\n  bytes32 private constant implementationStorePosition = keccak256(\"com.blockwire.proxy.implementation\");\n\n  /**\n  * @dev Constructor function\n  */\n  constructor() public { }\n\n  /**\n  * @dev Returns the address of the current implementation\n  * @return _implementation Address of the current implementation\n  */\n  function implementation() public view returns (address _implementation) {\n    bytes32 position = implementationStorePosition;\n    assembly {\n      _implementation := sload(position)\n    }\n  }\n\n  /**\n  * @dev Sets the address of the current implementation\n  * @param _newImplementation Address of the new implementation to be set\n  */\n  function setImplementation(address _newImplementation) internal {\n    require(AddressUtils.isContract(_newImplementation), \"New implementation address is not a contract\");\n    \n    bytes32 position = implementationStorePosition;\n    assembly {\n      sstore(position, _newImplementation)\n    }\n  }\n\n  /**\n  * @dev Upgrades the implementation address\n  * @param _newImplementation Address of the new implementation to be set\n  */\n  function _upgradeTo(address _newImplementation) internal {\n    address currentImplementation = implementation();\n    require(currentImplementation != _newImplementation, \"New implementation address is the same as current address\");\n    setImplementation(_newImplementation);\n    emit Upgraded(_newImplementation);\n  }\n\n  /**\n  * @dev Upgrades the implementation address\n  * @notice Must be overwritten by implemening contracts to report contract version\n  */\n  function upgradeTo(address _newImplementation) public {\n    revert(\"Function not overwritten by implementing contract\");\n  }\n\n  /**\n  * @dev Returns true for contracts that adhere to the UpgradeableProxy interface \n  * @return Always returns true for this contract\n  */\n  function isUpgradeable() public pure returns (bool) {\n    return true;\n  }\n\n}",
  "sourcePath": "/Users/matias/Projects/consensys/eth-marketplace/contracts/proxy/UpgradeableProxy.sol",
  "compiler": {
    "name": "solc",
    "version": "0.4.24+commit.e67f0147.Emscripten.clang"
  },
  "schemaVersion": "2.0.0",
  "updatedAt": "2018-08-26T19:46:41.141Z"
}