{
  "contractName": "UpgradeablePausableProxy",
  "abi": [
    {
      "constant": false,
      "inputs": [],
      "name": "unpause",
      "outputs": [],
      "payable": false,
      "stateMutability": "nonpayable",
      "type": "function"
    },
    {
      "constant": true,
      "inputs": [],
      "name": "isProxy",
      "outputs": [
        {
          "name": "",
          "type": "bool"
        }
      ],
      "payable": false,
      "stateMutability": "pure",
      "type": "function"
    },
    {
      "constant": false,
      "inputs": [],
      "name": "pause",
      "outputs": [],
      "payable": false,
      "stateMutability": "nonpayable",
      "type": "function"
    },
    {
      "constant": false,
      "inputs": [
        {
          "name": "_newAddress",
          "type": "address"
        }
      ],
      "name": "updateACL",
      "outputs": [],
      "payable": false,
      "stateMutability": "nonpayable",
      "type": "function"
    },
    {
      "constant": true,
      "inputs": [],
      "name": "isPaused",
      "outputs": [
        {
          "name": "_isPaused",
          "type": "bool"
        }
      ],
      "payable": false,
      "stateMutability": "view",
      "type": "function"
    },
    {
      "constant": true,
      "inputs": [],
      "name": "acl",
      "outputs": [
        {
          "name": "_acl",
          "type": "address"
        }
      ],
      "payable": false,
      "stateMutability": "view",
      "type": "function"
    },
    {
      "inputs": [
        {
          "name": "_aclAddress",
          "type": "address"
        }
      ],
      "payable": false,
      "stateMutability": "nonpayable",
      "type": "constructor"
    },
    {
      "payable": true,
      "stateMutability": "payable",
      "type": "fallback"
    },
    {
      "anonymous": false,
      "inputs": [
        {
          "indexed": true,
          "name": "_implementation",
          "type": "address"
        }
      ],
      "name": "Upgraded",
      "type": "event"
    },
    {
      "anonymous": false,
      "inputs": [],
      "name": "Paused",
      "type": "event"
    },
    {
      "anonymous": false,
      "inputs": [],
      "name": "Unpaused",
      "type": "event"
    },
    {
      "anonymous": false,
      "inputs": [
        {
          "indexed": true,
          "name": "_oldAddress",
          "type": "address"
        },
        {
          "indexed": true,
          "name": "_newAddress",
          "type": "address"
        }
      ],
      "name": "ACLUpdated",
      "type": "event"
    },
    {
      "constant": true,
      "inputs": [],
      "name": "implementation",
      "outputs": [
        {
          "name": "_implementation",
          "type": "address"
        }
      ],
      "payable": false,
      "stateMutability": "view",
      "type": "function"
    },
    {
      "constant": false,
      "inputs": [
        {
          "name": "",
          "type": "address"
        }
      ],
      "name": "upgradeTo",
      "outputs": [],
      "payable": false,
      "stateMutability": "nonpayable",
      "type": "function"
    },
    {
      "constant": true,
      "inputs": [],
      "name": "isUpgradeable",
      "outputs": [
        {
          "name": "",
          "type": "bool"
        }
      ],
      "payable": false,
      "stateMutability": "pure",
      "type": "function"
    }
  ],
  "bytecode": "0x608060405234801561001057600080fd5b50604051602080610f4b8339810180604052810190808051906020019092919050505080808061004e816100b2640100000000026401000000009004565b8073ffffffffffffffffffffffffffffffffffffffff16600073ffffffffffffffffffffffffffffffffffffffff167fd9c4a08818b5e0b58c0856ec8285d83c51f0654438a200ef0f9e0e968f583ca960405160405180910390a3505050506102f5565b60006100d0826102e264010000000002610c08176401000000009004565b151561016a576040517f08c379a00000000000000000000000000000000000000000000000000000000081526004018080602001828103825260218152602001807f4e65772041434c2061646472657373206973206e6f74206120636f6e7472616381526020017f740000000000000000000000000000000000000000000000000000000000000081525060400191505060405180910390fd5b8173ffffffffffffffffffffffffffffffffffffffff1663a8218cd36040518163ffffffff167c0100000000000000000000000000000000000000000000000000000000028152600401602060405180830381600087803b1580156101ce57600080fd5b505af11580156101e2573d6000803e3d6000fd5b505050506040513d60208110156101f857600080fd5b810190808051906020019092919050505015156102a3576040517f08c379a00000000000000000000000000000000000000000000000000000000081526004018080602001828103825260328152602001807f4e65772041434c206164647265737320646f6573206e6f7420636f6e666f726d81526020017f20746f204941434c20696e74657266616365000000000000000000000000000081525060400191505060405180910390fd5b60405180807f636f6d2e6d61726b6574706c6163652e61636c726571756972696e672e61636c8152506020019050604051809103902090508181555050565b600080823b905060008111915050919050565b610c47806103046000396000f300608060405260043610610099576000357c0100000000000000000000000000000000000000000000000000000000900463ffffffff1680633659cfe61461018a5780633f4ba83a146101cd5780635c60da1b146101e457806364da4e6f1461023b5780638456cb591461026a57806387a7066b14610281578063b187bd26146102c4578063daa3a163146102f3578063de28735914610322575b60008015156100a6610379565b15151415156100b457600080fd5b6100bc6103e2565b9050600073ffffffffffffffffffffffffffffffffffffffff168173ffffffffffffffffffffffffffffffffffffffff1614151515610163576040517f08c379a000000000000000000000000000000000000000000000000000000000815260040180806020018281038252601e8152602001807f496d706c656d656e746174696f6e2061646472657373206e6f7420736574000081525060200191505060405180910390fd5b60405136600082376000803683855af43d806000843e8160008114610186578184f35b8184fd5b34801561019657600080fd5b506101cb600480360381019080803573ffffffffffffffffffffffffffffffffffffffff16906020019092919050505061044b565b005b3480156101d957600080fd5b506101e26104df565b005b3480156101f057600080fd5b506101f96103e2565b604051808273ffffffffffffffffffffffffffffffffffffffff1673ffffffffffffffffffffffffffffffffffffffff16815260200191505060405180910390f35b34801561024757600080fd5b50610250610618565b604051808215151515815260200191505060405180910390f35b34801561027657600080fd5b5061027f610621565b005b34801561028d57600080fd5b506102c2600480360381019080803573ffffffffffffffffffffffffffffffffffffffff169060200190929190505050610761565b005b3480156102d057600080fd5b506102d9610379565b604051808215151515815260200191505060405180910390f35b3480156102ff57600080fd5b50610308610938565b604051808215151515815260200191505060405180910390f35b34801561032e57600080fd5b50610337610941565b604051808273ffffffffffffffffffffffffffffffffffffffff1673ffffffffffffffffffffffffffffffffffffffff16815260200191505060405180910390f35b60008060405180807f636f6d2e6d61726b6574706c6163652e7061757361626c652e6973706175736581526020017f6400000000000000000000000000000000000000000000000000000000000000815250602101905060405180910390209050805491505090565b60008060405180807f636f6d2e6d61726b6574706c6163652e70726f78792e696d706c656d656e746181526020017f74696f6e00000000000000000000000000000000000000000000000000000000815250602401905060405180910390209050805491505090565b6040517f08c379a00000000000000000000000000000000000000000000000000000000081526004018080602001828103825260318152602001807f46756e6374696f6e206e6f74206f7665727772697474656e20627920696d706c81526020017f656d656e74696e6720636f6e747261637400000000000000000000000000000081525060400191505060405180910390fd5b60006104e9610941565b90508073ffffffffffffffffffffffffffffffffffffffff1663bb6a4520336040518263ffffffff167c0100000000000000000000000000000000000000000000000000000000028152600401808273ffffffffffffffffffffffffffffffffffffffff1673ffffffffffffffffffffffffffffffffffffffff168152602001915050602060405180830381600087803b15801561058657600080fd5b505af115801561059a573d6000803e3d6000fd5b505050506040513d60208110156105b057600080fd5b810190808051906020019092919050505015156105cc57600080fd5b6105d4610379565b15156105df57600080fd5b6105e96000610984565b7fa45f47fdea8a1efdd9029a5691c7f759c32b7c698632b563573e155625d1693360405160405180910390a150565b60006001905090565b600061062b610941565b90508073ffffffffffffffffffffffffffffffffffffffff1663bb6a4520336040518263ffffffff167c0100000000000000000000000000000000000000000000000000000000028152600401808273ffffffffffffffffffffffffffffffffffffffff1673ffffffffffffffffffffffffffffffffffffffff168152602001915050602060405180830381600087803b1580156106c857600080fd5b505af11580156106dc573d6000803e3d6000fd5b505050506040513d60208110156106f257600080fd5b8101908080519060200190929190505050151561070e57600080fd5b6000151561071a610379565b151514151561072857600080fd5b6107326001610984565b7f9e87fac88ff661f02d44f95383c817fece4bce600a3dab7a54406878b965e75260405160405180910390a150565b60008061076c610941565b90508073ffffffffffffffffffffffffffffffffffffffff1663bb6a4520336040518263ffffffff167c0100000000000000000000000000000000000000000000000000000000028152600401808273ffffffffffffffffffffffffffffffffffffffff1673ffffffffffffffffffffffffffffffffffffffff168152602001915050602060405180830381600087803b15801561080957600080fd5b505af115801561081d573d6000803e3d6000fd5b505050506040513d602081101561083357600080fd5b8101908080519060200190929190505050151561084f57600080fd5b600073ffffffffffffffffffffffffffffffffffffffff168373ffffffffffffffffffffffffffffffffffffffff161415151561088b57600080fd5b610893610941565b91508173ffffffffffffffffffffffffffffffffffffffff168373ffffffffffffffffffffffffffffffffffffffff16141515156108d057600080fd5b6108d9836109eb565b8273ffffffffffffffffffffffffffffffffffffffff168273ffffffffffffffffffffffffffffffffffffffff167fd9c4a08818b5e0b58c0856ec8285d83c51f0654438a200ef0f9e0e968f583ca960405160405180910390a3505050565b60006001905090565b60008060405180807f636f6d2e6d61726b6574706c6163652e61636c726571756972696e672e61636c815250602001905060405180910390209050805491505090565b600060405180807f636f6d2e6d61726b6574706c6163652e7061757361626c652e6973706175736581526020017f64000000000000000000000000000000000000000000000000000000000000008152506021019050604051809103902090508181555050565b60006109f682610c08565b1515610a90576040517f08c379a00000000000000000000000000000000000000000000000000000000081526004018080602001828103825260218152602001807f4e65772041434c2061646472657373206973206e6f74206120636f6e7472616381526020017f740000000000000000000000000000000000000000000000000000000000000081525060400191505060405180910390fd5b8173ffffffffffffffffffffffffffffffffffffffff1663a8218cd36040518163ffffffff167c0100000000000000000000000000000000000000000000000000000000028152600401602060405180830381600087803b158015610af457600080fd5b505af1158015610b08573d6000803e3d6000fd5b505050506040513d6020811015610b1e57600080fd5b81019080805190602001909291905050501515610bc9576040517f08c379a00000000000000000000000000000000000000000000000000000000081526004018080602001828103825260328152602001807f4e65772041434c206164647265737320646f6573206e6f7420636f6e666f726d81526020017f20746f204941434c20696e74657266616365000000000000000000000000000081525060400191505060405180910390fd5b60405180807f636f6d2e6d61726b6574706c6163652e61636c726571756972696e672e61636c8152506020019050604051809103902090508181555050565b600080823b9050600081119150509190505600a165627a7a72305820ecca389630766d111c88ceb9b0c8cb365003647267c91a5d4984fa5c63e1fe3d0029",
  "source": "pragma solidity ^0.4.23;\n\n// Adapted from:\n// https://github.com/zeppelinos/labs/blob/master/upgradeability_using_unstructured_storage/contracts/UpgradeabilityProxy.sol\n\nimport \"./PausableProxy.sol\";\nimport \"./IUpgradeableProxy.sol\";\nimport \"../lib/openzeppelin/AddressUtils.sol\";\n\n/**\n* @title UpgradeablePausableProxy\n* @dev A proxy that allows the implementation address to be updated and contract execution to be paused\n*/\ncontract UpgradeablePausableProxy is PausableProxy, IUpgradeableProxy {\n\n  /**\n  * @dev Upgraded event is emitted every time the implementation is updated\n  * @param _implementation Address of the new implementation contract\n  */\n  event Upgraded(address indexed _implementation);\n\n  /**\n  * @dev The storage position in the contract storage where the implementation address will be stored\n  * @notice The implementation value is stored using the 'key-value' nature of the contract storage and\n  *         is thus not affected by the contract's state data layout\n  */\n  bytes32 private constant implementationStorePosition = keccak256(\"com.marketplace.proxy.implementation\");\n\n  /**\n  * @dev Constructor function\n  */\n  constructor(address _aclAddress) PausableProxy(_aclAddress) public { }\n\n  /**\n  * @dev Returns the address of the current implementation\n  * @return _implementation Address of the current implementation\n  */\n  function implementation() public view returns (address _implementation) {\n    bytes32 position = implementationStorePosition;\n    assembly {\n      _implementation := sload(position)\n    }\n  }\n\n  /**\n  * @dev Sets the address of the current implementation\n  * @param _newImplementation Address of the new implementation to be set\n  */\n  function setImplementation(address _newImplementation) internal whenNotPaused {\n    require(AddressUtils.isContract(_newImplementation), \"New implementation address is not a contract\");\n    \n    bytes32 position = implementationStorePosition;\n    assembly {\n      sstore(position, _newImplementation)\n    }\n  }\n\n  /**\n  * @dev Upgrades the implementation address\n  * @param _newImplementation Address of the new implementation to be set\n  */\n  function _upgradeTo(address _newImplementation) internal whenNotPaused {\n    address currentImplementation = implementation();\n    require(currentImplementation != _newImplementation, \"New implementation address is the same as current address\");\n    setImplementation(_newImplementation);\n    emit Upgraded(_newImplementation);\n  }\n\n  /**\n  * @dev Upgrades the implementation address\n  * @notice Must be overwritten by implemening contracts to report contract version\n  */\n  function upgradeTo(address /* _newImplementation */) public {\n    revert(\"Function not overwritten by implementing contract\");\n  }\n\n  /**\n  * @dev Returns true for contracts that adhere to the UpgradeableProxy interface \n  * @return Always returns true for this contract\n  */\n  function isUpgradeable() public pure returns (bool) {\n    return true;\n  }\n\n}",
  "sourcePath": "/Users/matias/Projects/consensys/eth-marketplace/contracts/proxy/UpgradeablePausableProxy.sol",
  "compiler": {
    "name": "solc",
    "version": "0.4.24+commit.e67f0147.Emscripten.clang"
  },
  "schemaVersion": "2.0.0",
  "updatedAt": "2018-08-26T21:41:03.449Z"
}